{
	"ERC404Test.sol": {
		"ERC404Test": {
			"abi": [
				{
					"inputs": [
						{
							"internalType": "address",
							"name": "_owner",
							"type": "address"
						}
					],
					"stateMutability": "nonpayable",
					"type": "constructor"
				},
				{
					"inputs": [],
					"name": "AlreadyExists",
					"type": "error"
				},
				{
					"inputs": [],
					"name": "InvalidOwner",
					"type": "error"
				},
				{
					"inputs": [],
					"name": "InvalidRecipient",
					"type": "error"
				},
				{
					"inputs": [],
					"name": "InvalidSender",
					"type": "error"
				},
				{
					"inputs": [],
					"name": "NotFound",
					"type": "error"
				},
				{
					"inputs": [],
					"name": "Unauthorized",
					"type": "error"
				},
				{
					"inputs": [],
					"name": "UnsafeRecipient",
					"type": "error"
				},
				{
					"anonymous": false,
					"inputs": [
						{
							"indexed": true,
							"internalType": "address",
							"name": "owner",
							"type": "address"
						},
						{
							"indexed": true,
							"internalType": "address",
							"name": "spender",
							"type": "address"
						},
						{
							"indexed": false,
							"internalType": "uint256",
							"name": "amount",
							"type": "uint256"
						}
					],
					"name": "Approval",
					"type": "event"
				},
				{
					"anonymous": false,
					"inputs": [
						{
							"indexed": true,
							"internalType": "address",
							"name": "owner",
							"type": "address"
						},
						{
							"indexed": true,
							"internalType": "address",
							"name": "operator",
							"type": "address"
						},
						{
							"indexed": false,
							"internalType": "bool",
							"name": "approved",
							"type": "bool"
						}
					],
					"name": "ApprovalForAll",
					"type": "event"
				},
				{
					"anonymous": false,
					"inputs": [
						{
							"indexed": true,
							"internalType": "address",
							"name": "from",
							"type": "address"
						},
						{
							"indexed": true,
							"internalType": "address",
							"name": "to",
							"type": "address"
						},
						{
							"indexed": false,
							"internalType": "uint256",
							"name": "amount",
							"type": "uint256"
						}
					],
					"name": "ERC20Transfer",
					"type": "event"
				},
				{
					"anonymous": false,
					"inputs": [
						{
							"indexed": true,
							"internalType": "address",
							"name": "owner",
							"type": "address"
						},
						{
							"indexed": true,
							"internalType": "address",
							"name": "spender",
							"type": "address"
						},
						{
							"indexed": true,
							"internalType": "uint256",
							"name": "id",
							"type": "uint256"
						}
					],
					"name": "ERC721Approval",
					"type": "event"
				},
				{
					"anonymous": false,
					"inputs": [
						{
							"indexed": true,
							"internalType": "address",
							"name": "user",
							"type": "address"
						},
						{
							"indexed": true,
							"internalType": "address",
							"name": "newOwner",
							"type": "address"
						}
					],
					"name": "OwnershipTransferred",
					"type": "event"
				},
				{
					"anonymous": false,
					"inputs": [
						{
							"indexed": true,
							"internalType": "address",
							"name": "from",
							"type": "address"
						},
						{
							"indexed": true,
							"internalType": "address",
							"name": "to",
							"type": "address"
						},
						{
							"indexed": true,
							"internalType": "uint256",
							"name": "id",
							"type": "uint256"
						}
					],
					"name": "Transfer",
					"type": "event"
				},
				{
					"inputs": [
						{
							"internalType": "address",
							"name": "",
							"type": "address"
						},
						{
							"internalType": "address",
							"name": "",
							"type": "address"
						}
					],
					"name": "allowance",
					"outputs": [
						{
							"internalType": "uint256",
							"name": "",
							"type": "uint256"
						}
					],
					"stateMutability": "view",
					"type": "function"
				},
				{
					"inputs": [
						{
							"internalType": "address",
							"name": "spender",
							"type": "address"
						},
						{
							"internalType": "uint256",
							"name": "amountOrId",
							"type": "uint256"
						}
					],
					"name": "approve",
					"outputs": [
						{
							"internalType": "bool",
							"name": "",
							"type": "bool"
						}
					],
					"stateMutability": "nonpayable",
					"type": "function"
				},
				{
					"inputs": [
						{
							"internalType": "address",
							"name": "",
							"type": "address"
						}
					],
					"name": "balanceOf",
					"outputs": [
						{
							"internalType": "uint256",
							"name": "",
							"type": "uint256"
						}
					],
					"stateMutability": "view",
					"type": "function"
				},
				{
					"inputs": [],
					"name": "baseTokenURI",
					"outputs": [
						{
							"internalType": "string",
							"name": "",
							"type": "string"
						}
					],
					"stateMutability": "view",
					"type": "function"
				},
				{
					"inputs": [],
					"name": "dataURI",
					"outputs": [
						{
							"internalType": "string",
							"name": "",
							"type": "string"
						}
					],
					"stateMutability": "view",
					"type": "function"
				},
				{
					"inputs": [],
					"name": "decimals",
					"outputs": [
						{
							"internalType": "uint8",
							"name": "",
							"type": "uint8"
						}
					],
					"stateMutability": "view",
					"type": "function"
				},
				{
					"inputs": [
						{
							"internalType": "uint256",
							"name": "",
							"type": "uint256"
						}
					],
					"name": "getApproved",
					"outputs": [
						{
							"internalType": "address",
							"name": "",
							"type": "address"
						}
					],
					"stateMutability": "view",
					"type": "function"
				},
				{
					"inputs": [
						{
							"internalType": "address",
							"name": "",
							"type": "address"
						},
						{
							"internalType": "address",
							"name": "",
							"type": "address"
						}
					],
					"name": "isApprovedForAll",
					"outputs": [
						{
							"internalType": "bool",
							"name": "",
							"type": "bool"
						}
					],
					"stateMutability": "view",
					"type": "function"
				},
				{
					"inputs": [],
					"name": "metaDescription",
					"outputs": [
						{
							"internalType": "string",
							"name": "",
							"type": "string"
						}
					],
					"stateMutability": "view",
					"type": "function"
				},
				{
					"inputs": [],
					"name": "minted",
					"outputs": [
						{
							"internalType": "uint256",
							"name": "",
							"type": "uint256"
						}
					],
					"stateMutability": "view",
					"type": "function"
				},
				{
					"inputs": [],
					"name": "name",
					"outputs": [
						{
							"internalType": "string",
							"name": "",
							"type": "string"
						}
					],
					"stateMutability": "view",
					"type": "function"
				},
				{
					"inputs": [],
					"name": "owner",
					"outputs": [
						{
							"internalType": "address",
							"name": "",
							"type": "address"
						}
					],
					"stateMutability": "view",
					"type": "function"
				},
				{
					"inputs": [
						{
							"internalType": "uint256",
							"name": "id",
							"type": "uint256"
						}
					],
					"name": "ownerOf",
					"outputs": [
						{
							"internalType": "address",
							"name": "owner",
							"type": "address"
						}
					],
					"stateMutability": "view",
					"type": "function"
				},
				{
					"inputs": [],
					"name": "revokeOwnership",
					"outputs": [],
					"stateMutability": "nonpayable",
					"type": "function"
				},
				{
					"inputs": [
						{
							"internalType": "address",
							"name": "from",
							"type": "address"
						},
						{
							"internalType": "address",
							"name": "to",
							"type": "address"
						},
						{
							"internalType": "uint256",
							"name": "id",
							"type": "uint256"
						}
					],
					"name": "safeTransferFrom",
					"outputs": [],
					"stateMutability": "nonpayable",
					"type": "function"
				},
				{
					"inputs": [
						{
							"internalType": "address",
							"name": "from",
							"type": "address"
						},
						{
							"internalType": "address",
							"name": "to",
							"type": "address"
						},
						{
							"internalType": "uint256",
							"name": "id",
							"type": "uint256"
						},
						{
							"internalType": "bytes",
							"name": "data",
							"type": "bytes"
						}
					],
					"name": "safeTransferFrom",
					"outputs": [],
					"stateMutability": "nonpayable",
					"type": "function"
				},
				{
					"inputs": [
						{
							"internalType": "address",
							"name": "operator",
							"type": "address"
						},
						{
							"internalType": "bool",
							"name": "approved",
							"type": "bool"
						}
					],
					"name": "setApprovalForAll",
					"outputs": [],
					"stateMutability": "nonpayable",
					"type": "function"
				},
				{
					"inputs": [
						{
							"internalType": "string",
							"name": "_dataURI",
							"type": "string"
						}
					],
					"name": "setDataURI",
					"outputs": [],
					"stateMutability": "nonpayable",
					"type": "function"
				},
				{
					"inputs": [
						{
							"internalType": "string",
							"name": "_metaDesc",
							"type": "string"
						}
					],
					"name": "setMetaDescription",
					"outputs": [],
					"stateMutability": "nonpayable",
					"type": "function"
				},
				{
					"inputs": [
						{
							"internalType": "string",
							"name": "_name",
							"type": "string"
						},
						{
							"internalType": "string",
							"name": "_symbol",
							"type": "string"
						}
					],
					"name": "setNameSymbol",
					"outputs": [],
					"stateMutability": "nonpayable",
					"type": "function"
				},
				{
					"inputs": [
						{
							"internalType": "string",
							"name": "_tokenURI",
							"type": "string"
						}
					],
					"name": "setTokenURI",
					"outputs": [],
					"stateMutability": "nonpayable",
					"type": "function"
				},
				{
					"inputs": [
						{
							"internalType": "address",
							"name": "target",
							"type": "address"
						},
						{
							"internalType": "bool",
							"name": "state",
							"type": "bool"
						}
					],
					"name": "setWhitelist",
					"outputs": [],
					"stateMutability": "nonpayable",
					"type": "function"
				},
				{
					"inputs": [],
					"name": "symbol",
					"outputs": [
						{
							"internalType": "string",
							"name": "",
							"type": "string"
						}
					],
					"stateMutability": "view",
					"type": "function"
				},
				{
					"inputs": [
						{
							"internalType": "uint256",
							"name": "id",
							"type": "uint256"
						}
					],
					"name": "tokenURI",
					"outputs": [
						{
							"internalType": "string",
							"name": "",
							"type": "string"
						}
					],
					"stateMutability": "view",
					"type": "function"
				},
				{
					"inputs": [],
					"name": "totalSupply",
					"outputs": [
						{
							"internalType": "uint256",
							"name": "",
							"type": "uint256"
						}
					],
					"stateMutability": "view",
					"type": "function"
				},
				{
					"inputs": [
						{
							"internalType": "address",
							"name": "to",
							"type": "address"
						},
						{
							"internalType": "uint256",
							"name": "amount",
							"type": "uint256"
						}
					],
					"name": "transfer",
					"outputs": [
						{
							"internalType": "bool",
							"name": "",
							"type": "bool"
						}
					],
					"stateMutability": "nonpayable",
					"type": "function"
				},
				{
					"inputs": [
						{
							"internalType": "address",
							"name": "from",
							"type": "address"
						},
						{
							"internalType": "address",
							"name": "to",
							"type": "address"
						},
						{
							"internalType": "uint256",
							"name": "amountOrId",
							"type": "uint256"
						}
					],
					"name": "transferFrom",
					"outputs": [],
					"stateMutability": "nonpayable",
					"type": "function"
				},
				{
					"inputs": [
						{
							"internalType": "address",
							"name": "_owner",
							"type": "address"
						}
					],
					"name": "transferOwnership",
					"outputs": [],
					"stateMutability": "nonpayable",
					"type": "function"
				},
				{
					"inputs": [
						{
							"internalType": "address",
							"name": "",
							"type": "address"
						}
					],
					"name": "whitelist",
					"outputs": [
						{
							"internalType": "bool",
							"name": "",
							"type": "bool"
						}
					],
					"stateMutability": "view",
					"type": "function"
				}
			],
			"devdoc": {
				"kind": "dev",
				"methods": {
					"approve(address,uint256)": {
						"details": "This function assumes id / native if amount less than or equal to current max id"
					},
					"transferFrom(address,address,uint256)": {
						"details": "This function assumes id / native if amount less than or equal to current max id"
					}
				},
				"version": 1
			},
			"evm": {
				"assembly": "    /* \"ERC404Test.sol\":145:2769  contract ERC404Test is ERC404 {... */\n  mstore(0x40, 0xc0)\n    /* \"ERC404Test.sol\":281:441  constructor(address _owner) ERC404(\"Name\", \"SYMBOL\", 18, 10000,_owner){... */\n  callvalue\n  dup1\n  iszero\n  tag_1\n  jumpi\n  0x00\n  dup1\n  revert\ntag_1:\n  pop\n  mload(0x40)\n  sub(codesize, bytecodeSize)\n  dup1\n  bytecodeSize\n  dup4\n  codecopy\n  dup2\n  dup2\n  add\n  0x40\n  mstore\n  dup2\n  add\n  swap1\n  tag_2\n  swap2\n  swap1\n  tag_3\n  jump\t// in\ntag_2:\n    /* \"ERC404.sol\":4171:4507  constructor(... */\n  mload(0x40)\n  dup1\n  0x40\n  add\n  0x40\n  mstore\n  dup1\n  0x04\n  dup2\n  mstore\n  0x20\n  add\n  0x4e616d6500000000000000000000000000000000000000000000000000000000\n  dup2\n  mstore\n  pop\n  mload(0x40)\n  dup1\n  0x40\n  add\n  0x40\n  mstore\n  dup1\n  0x06\n  dup2\n  mstore\n  0x20\n  add\n  0x53594d424f4c0000000000000000000000000000000000000000000000000000\n  dup2\n  mstore\n  pop\n    /* \"ERC404Test.sol\":334:336  18 */\n  0x12\n    /* \"ERC404Test.sol\":338:343  10000 */\n  0x2710\n    /* \"ERC404Test.sol\":344:350  _owner */\n  dup5\n    /* \"ERC404.sol\":4348:4354  _owner */\n  dup1\n    /* \"ERC404.sol\":433:434  0 */\n  0x00\n    /* \"ERC404.sol\":415:435  _owner == address(0) */\n  0xffffffffffffffffffffffffffffffffffffffff\n  and\n    /* \"ERC404.sol\":415:421  _owner */\n  dup2\n    /* \"ERC404.sol\":415:435  _owner == address(0) */\n  0xffffffffffffffffffffffffffffffffffffffff\n  and\n  sub\n    /* \"ERC404.sol\":411:458  if (_owner == address(0)) revert InvalidOwner() */\n  tag_8\n  jumpi\n    /* \"ERC404.sol\":444:458  InvalidOwner() */\n  mload(0x40)\n  0x49e27cff00000000000000000000000000000000000000000000000000000000\n  dup2\n  mstore\n  0x04\n  add\n  mload(0x40)\n  dup1\n  swap2\n  sub\n  swap1\n  revert\n    /* \"ERC404.sol\":411:458  if (_owner == address(0)) revert InvalidOwner() */\ntag_8:\n    /* \"ERC404.sol\":477:483  _owner */\n  dup1\n    /* \"ERC404.sol\":469:474  owner */\n  0x00\n  dup1\n    /* \"ERC404.sol\":469:483  owner = _owner */\n  0x0100\n  exp\n  dup2\n  sload\n  dup2\n  0xffffffffffffffffffffffffffffffffffffffff\n  mul\n  not\n  and\n  swap1\n  dup4\n  0xffffffffffffffffffffffffffffffffffffffff\n  and\n  mul\n  or\n  swap1\n  sstore\n  pop\n    /* \"ERC404.sol\":532:538  _owner */\n  dup1\n    /* \"ERC404.sol\":499:539  OwnershipTransferred(address(0), _owner) */\n  0xffffffffffffffffffffffffffffffffffffffff\n  and\n    /* \"ERC404.sol\":528:529  0 */\n  0x00\n    /* \"ERC404.sol\":499:539  OwnershipTransferred(address(0), _owner) */\n  0xffffffffffffffffffffffffffffffffffffffff\n  and\n  0x8be0079c531659141344cd1fd0a4f28419497f9722a3daafe3b4186f6b6457e0\n  mload(0x40)\n  mload(0x40)\n  dup1\n  swap2\n  sub\n  swap1\n  log3\n    /* \"ERC404.sol\":372:547  constructor(address _owner) {... */\n  pop\n    /* \"ERC404.sol\":4374:4379  _name */\n  dup5\n    /* \"ERC404.sol\":4367:4371  name */\n  0x01\n    /* \"ERC404.sol\":4367:4379  name = _name */\n  swap1\n  dup2\n  tag_10\n  swap2\n  swap1\n  tag_11\n  jump\t// in\ntag_10:\n  pop\n    /* \"ERC404.sol\":4399:4406  _symbol */\n  dup4\n    /* \"ERC404.sol\":4390:4396  symbol */\n  0x02\n    /* \"ERC404.sol\":4390:4406  symbol = _symbol */\n  swap1\n  dup2\n  tag_12\n  swap2\n  swap1\n  tag_11\n  jump\t// in\ntag_12:\n  pop\n    /* \"ERC404.sol\":4428:4437  _decimals */\n  dup3\n    /* \"ERC404.sol\":4417:4437  decimals = _decimals */\n  0xff\n  and\n  0x80\n  dup2\n  0xff\n  and\n  dup2\n  mstore\n  pop\n  pop\n    /* \"ERC404.sol\":4490:4498  decimals */\n  mload(0x80)\n    /* \"ERC404.sol\":4484:4486  10 */\n  0x0a\n    /* \"ERC404.sol\":4484:4498  10 ** decimals */\n  tag_13\n  swap2\n  swap1\n  tag_14\n  jump\t// in\ntag_13:\n    /* \"ERC404.sol\":4462:4480  _totalNativeSupply */\n  dup3\n    /* \"ERC404.sol\":4462:4499  _totalNativeSupply * (10 ** decimals) */\n  tag_15\n  swap2\n  swap1\n  tag_16\n  jump\t// in\ntag_15:\n    /* \"ERC404.sol\":4448:4499  totalSupply = _totalNativeSupply * (10 ** decimals) */\n  0xa0\n  dup2\n  dup2\n  mstore\n  pop\n  pop\n    /* \"ERC404.sol\":4171:4507  constructor(... */\n  pop\n  pop\n  pop\n  pop\n  pop\n    /* \"ERC404Test.sol\":382:398  10000 * 10 ** 18 */\n  0x021e19e0c9bab2400000\n    /* \"ERC404Test.sol\":362:371  balanceOf */\n  0x04\n    /* \"ERC404Test.sol\":362:379  balanceOf[_owner] */\n  0x00\n    /* \"ERC404Test.sol\":372:378  _owner */\n  dup4\n    /* \"ERC404Test.sol\":362:379  balanceOf[_owner] */\n  0xffffffffffffffffffffffffffffffffffffffff\n  and\n  0xffffffffffffffffffffffffffffffffffffffff\n  and\n  dup2\n  mstore\n  0x20\n  add\n  swap1\n  dup2\n  mstore\n  0x20\n  add\n  0x00\n  keccak256\n    /* \"ERC404Test.sol\":362:398  balanceOf[_owner] = 10000 * 10 ** 18 */\n  dup2\n  swap1\n  sstore\n  pop\n    /* \"ERC404Test.sol\":429:433  true */\n  0x01\n    /* \"ERC404Test.sol\":409:418  whitelist */\n  0x0b\n    /* \"ERC404Test.sol\":409:426  whitelist[_owner] */\n  0x00\n    /* \"ERC404Test.sol\":419:425  _owner */\n  dup4\n    /* \"ERC404Test.sol\":409:426  whitelist[_owner] */\n  0xffffffffffffffffffffffffffffffffffffffff\n  and\n  0xffffffffffffffffffffffffffffffffffffffff\n  and\n  dup2\n  mstore\n  0x20\n  add\n  swap1\n  dup2\n  mstore\n  0x20\n  add\n  0x00\n  keccak256\n  0x00\n    /* \"ERC404Test.sol\":409:433  whitelist[_owner] = true */\n  0x0100\n  exp\n  dup2\n  sload\n  dup2\n  0xff\n  mul\n  not\n  and\n  swap1\n  dup4\n  iszero\n  iszero\n  mul\n  or\n  swap1\n  sstore\n  pop\n    /* \"ERC404Test.sol\":281:441  constructor(address _owner) ERC404(\"Name\", \"SYMBOL\", 18, 10000,_owner){... */\n  pop\n    /* \"ERC404Test.sol\":145:2769  contract ERC404Test is ERC404 {... */\n  jump(tag_18)\n    /* \"#utility.yul\":88:205   */\ntag_20:\n    /* \"#utility.yul\":197:198   */\n  0x00\n    /* \"#utility.yul\":194:195   */\n  dup1\n    /* \"#utility.yul\":187:199   */\n  revert\n    /* \"#utility.yul\":334:460   */\ntag_22:\n    /* \"#utility.yul\":371:378   */\n  0x00\n    /* \"#utility.yul\":411:453   */\n  0xffffffffffffffffffffffffffffffffffffffff\n    /* \"#utility.yul\":404:409   */\n  dup3\n    /* \"#utility.yul\":400:454   */\n  and\n    /* \"#utility.yul\":389:454   */\n  swap1\n  pop\n    /* \"#utility.yul\":334:460   */\n  swap2\n  swap1\n  pop\n  jump\t// out\n    /* \"#utility.yul\":466:562   */\ntag_23:\n    /* \"#utility.yul\":503:510   */\n  0x00\n    /* \"#utility.yul\":532:556   */\n  tag_57\n    /* \"#utility.yul\":550:555   */\n  dup3\n    /* \"#utility.yul\":532:556   */\n  tag_22\n  jump\t// in\ntag_57:\n    /* \"#utility.yul\":521:556   */\n  swap1\n  pop\n    /* \"#utility.yul\":466:562   */\n  swap2\n  swap1\n  pop\n  jump\t// out\n    /* \"#utility.yul\":568:690   */\ntag_24:\n    /* \"#utility.yul\":641:665   */\n  tag_59\n    /* \"#utility.yul\":659:664   */\n  dup2\n    /* \"#utility.yul\":641:665   */\n  tag_23\n  jump\t// in\ntag_59:\n    /* \"#utility.yul\":634:639   */\n  dup2\n    /* \"#utility.yul\":631:666   */\n  eq\n    /* \"#utility.yul\":621:684   */\n  tag_60\n  jumpi\n    /* \"#utility.yul\":680:681   */\n  0x00\n    /* \"#utility.yul\":677:678   */\n  dup1\n    /* \"#utility.yul\":670:682   */\n  revert\n    /* \"#utility.yul\":621:684   */\ntag_60:\n    /* \"#utility.yul\":568:690   */\n  pop\n  jump\t// out\n    /* \"#utility.yul\":696:839   */\ntag_25:\n    /* \"#utility.yul\":753:758   */\n  0x00\n    /* \"#utility.yul\":784:790   */\n  dup2\n    /* \"#utility.yul\":778:791   */\n  mload\n    /* \"#utility.yul\":769:791   */\n  swap1\n  pop\n    /* \"#utility.yul\":800:833   */\n  tag_62\n    /* \"#utility.yul\":827:832   */\n  dup2\n    /* \"#utility.yul\":800:833   */\n  tag_24\n  jump\t// in\ntag_62:\n    /* \"#utility.yul\":696:839   */\n  swap3\n  swap2\n  pop\n  pop\n  jump\t// out\n    /* \"#utility.yul\":845:1196   */\ntag_3:\n    /* \"#utility.yul\":915:921   */\n  0x00\n    /* \"#utility.yul\":964:966   */\n  0x20\n    /* \"#utility.yul\":952:961   */\n  dup3\n    /* \"#utility.yul\":943:950   */\n  dup5\n    /* \"#utility.yul\":939:962   */\n  sub\n    /* \"#utility.yul\":935:967   */\n  slt\n    /* \"#utility.yul\":932:1051   */\n  iszero\n  tag_64\n  jumpi\n    /* \"#utility.yul\":970:1049   */\n  tag_65\n  tag_20\n  jump\t// in\ntag_65:\n    /* \"#utility.yul\":932:1051   */\ntag_64:\n    /* \"#utility.yul\":1090:1091   */\n  0x00\n    /* \"#utility.yul\":1115:1179   */\n  tag_66\n    /* \"#utility.yul\":1171:1178   */\n  dup5\n    /* \"#utility.yul\":1162:1168   */\n  dup3\n    /* \"#utility.yul\":1151:1160   */\n  dup6\n    /* \"#utility.yul\":1147:1169   */\n  add\n    /* \"#utility.yul\":1115:1179   */\n  tag_25\n  jump\t// in\ntag_66:\n    /* \"#utility.yul\":1105:1179   */\n  swap2\n  pop\n    /* \"#utility.yul\":1061:1189   */\n  pop\n    /* \"#utility.yul\":845:1196   */\n  swap3\n  swap2\n  pop\n  pop\n  jump\t// out\n    /* \"#utility.yul\":1202:1301   */\ntag_26:\n    /* \"#utility.yul\":1254:1260   */\n  0x00\n    /* \"#utility.yul\":1288:1293   */\n  dup2\n    /* \"#utility.yul\":1282:1294   */\n  mload\n    /* \"#utility.yul\":1272:1294   */\n  swap1\n  pop\n    /* \"#utility.yul\":1202:1301   */\n  swap2\n  swap1\n  pop\n  jump\t// out\n    /* \"#utility.yul\":1307:1487   */\ntag_27:\n    /* \"#utility.yul\":1355:1432   */\n  0x4e487b7100000000000000000000000000000000000000000000000000000000\n    /* \"#utility.yul\":1352:1353   */\n  0x00\n    /* \"#utility.yul\":1345:1433   */\n  mstore\n    /* \"#utility.yul\":1452:1456   */\n  0x41\n    /* \"#utility.yul\":1449:1450   */\n  0x04\n    /* \"#utility.yul\":1442:1457   */\n  mstore\n    /* \"#utility.yul\":1476:1480   */\n  0x24\n    /* \"#utility.yul\":1473:1474   */\n  0x00\n    /* \"#utility.yul\":1466:1481   */\n  revert\n    /* \"#utility.yul\":1493:1673   */\ntag_28:\n    /* \"#utility.yul\":1541:1618   */\n  0x4e487b7100000000000000000000000000000000000000000000000000000000\n    /* \"#utility.yul\":1538:1539   */\n  0x00\n    /* \"#utility.yul\":1531:1619   */\n  mstore\n    /* \"#utility.yul\":1638:1642   */\n  0x22\n    /* \"#utility.yul\":1635:1636   */\n  0x04\n    /* \"#utility.yul\":1628:1643   */\n  mstore\n    /* \"#utility.yul\":1662:1666   */\n  0x24\n    /* \"#utility.yul\":1659:1660   */\n  0x00\n    /* \"#utility.yul\":1652:1667   */\n  revert\n    /* \"#utility.yul\":1679:1999   */\ntag_29:\n    /* \"#utility.yul\":1723:1729   */\n  0x00\n    /* \"#utility.yul\":1760:1761   */\n  0x02\n    /* \"#utility.yul\":1754:1758   */\n  dup3\n    /* \"#utility.yul\":1750:1762   */\n  div\n    /* \"#utility.yul\":1740:1762   */\n  swap1\n  pop\n    /* \"#utility.yul\":1807:1808   */\n  0x01\n    /* \"#utility.yul\":1801:1805   */\n  dup3\n    /* \"#utility.yul\":1797:1809   */\n  and\n    /* \"#utility.yul\":1828:1846   */\n  dup1\n    /* \"#utility.yul\":1818:1899   */\n  tag_71\n  jumpi\n    /* \"#utility.yul\":1884:1888   */\n  0x7f\n    /* \"#utility.yul\":1876:1882   */\n  dup3\n    /* \"#utility.yul\":1872:1889   */\n  and\n    /* \"#utility.yul\":1862:1889   */\n  swap2\n  pop\n    /* \"#utility.yul\":1818:1899   */\ntag_71:\n    /* \"#utility.yul\":1946:1948   */\n  0x20\n    /* \"#utility.yul\":1938:1944   */\n  dup3\n    /* \"#utility.yul\":1935:1949   */\n  lt\n    /* \"#utility.yul\":1915:1933   */\n  dup2\n    /* \"#utility.yul\":1912:1950   */\n  sub\n    /* \"#utility.yul\":1909:1993   */\n  tag_72\n  jumpi\n    /* \"#utility.yul\":1965:1983   */\n  tag_73\n  tag_28\n  jump\t// in\ntag_73:\n    /* \"#utility.yul\":1909:1993   */\ntag_72:\n    /* \"#utility.yul\":1730:1999   */\n  pop\n    /* \"#utility.yul\":1679:1999   */\n  swap2\n  swap1\n  pop\n  jump\t// out\n    /* \"#utility.yul\":2005:2146   */\ntag_30:\n    /* \"#utility.yul\":2054:2058   */\n  0x00\n    /* \"#utility.yul\":2077:2080   */\n  dup2\n    /* \"#utility.yul\":2069:2080   */\n  swap1\n  pop\n    /* \"#utility.yul\":2100:2103   */\n  dup2\n    /* \"#utility.yul\":2097:2098   */\n  0x00\n    /* \"#utility.yul\":2090:2104   */\n  mstore\n    /* \"#utility.yul\":2134:2138   */\n  0x20\n    /* \"#utility.yul\":2131:2132   */\n  0x00\n    /* \"#utility.yul\":2121:2139   */\n  keccak256\n    /* \"#utility.yul\":2113:2139   */\n  swap1\n  pop\n    /* \"#utility.yul\":2005:2146   */\n  swap2\n  swap1\n  pop\n  jump\t// out\n    /* \"#utility.yul\":2152:2245   */\ntag_31:\n    /* \"#utility.yul\":2189:2195   */\n  0x00\n    /* \"#utility.yul\":2236:2238   */\n  0x20\n    /* \"#utility.yul\":2231:2233   */\n  0x1f\n    /* \"#utility.yul\":2224:2229   */\n  dup4\n    /* \"#utility.yul\":2220:2234   */\n  add\n    /* \"#utility.yul\":2216:2239   */\n  div\n    /* \"#utility.yul\":2206:2239   */\n  swap1\n  pop\n    /* \"#utility.yul\":2152:2245   */\n  swap2\n  swap1\n  pop\n  jump\t// out\n    /* \"#utility.yul\":2251:2358   */\ntag_32:\n    /* \"#utility.yul\":2295:2303   */\n  0x00\n    /* \"#utility.yul\":2345:2350   */\n  dup3\n    /* \"#utility.yul\":2339:2343   */\n  dup3\n    /* \"#utility.yul\":2335:2351   */\n  shl\n    /* \"#utility.yul\":2314:2351   */\n  swap1\n  pop\n    /* \"#utility.yul\":2251:2358   */\n  swap3\n  swap2\n  pop\n  pop\n  jump\t// out\n    /* \"#utility.yul\":2364:2757   */\ntag_33:\n    /* \"#utility.yul\":2433:2439   */\n  0x00\n    /* \"#utility.yul\":2483:2484   */\n  0x08\n    /* \"#utility.yul\":2471:2481   */\n  dup4\n    /* \"#utility.yul\":2467:2485   */\n  mul\n    /* \"#utility.yul\":2506:2603   */\n  tag_78\n    /* \"#utility.yul\":2536:2602   */\n  0xffffffffffffffffffffffffffffffffffffffffffffffffffffffffffffffff\n    /* \"#utility.yul\":2525:2534   */\n  dup3\n    /* \"#utility.yul\":2506:2603   */\n  tag_32\n  jump\t// in\ntag_78:\n    /* \"#utility.yul\":2624:2663   */\n  tag_79\n    /* \"#utility.yul\":2654:2662   */\n  dup7\n    /* \"#utility.yul\":2643:2652   */\n  dup4\n    /* \"#utility.yul\":2624:2663   */\n  tag_32\n  jump\t// in\ntag_79:\n    /* \"#utility.yul\":2612:2663   */\n  swap6\n  pop\n    /* \"#utility.yul\":2696:2700   */\n  dup1\n    /* \"#utility.yul\":2692:2701   */\n  not\n    /* \"#utility.yul\":2685:2690   */\n  dup5\n    /* \"#utility.yul\":2681:2702   */\n  and\n    /* \"#utility.yul\":2672:2702   */\n  swap4\n  pop\n    /* \"#utility.yul\":2745:2749   */\n  dup1\n    /* \"#utility.yul\":2735:2743   */\n  dup7\n    /* \"#utility.yul\":2731:2750   */\n  and\n    /* \"#utility.yul\":2724:2729   */\n  dup5\n    /* \"#utility.yul\":2721:2751   */\n  or\n    /* \"#utility.yul\":2711:2751   */\n  swap3\n  pop\n    /* \"#utility.yul\":2440:2757   */\n  pop\n  pop\n    /* \"#utility.yul\":2364:2757   */\n  swap4\n  swap3\n  pop\n  pop\n  pop\n  jump\t// out\n    /* \"#utility.yul\":2763:2840   */\ntag_34:\n    /* \"#utility.yul\":2800:2807   */\n  0x00\n    /* \"#utility.yul\":2829:2834   */\n  dup2\n    /* \"#utility.yul\":2818:2834   */\n  swap1\n  pop\n    /* \"#utility.yul\":2763:2840   */\n  swap2\n  swap1\n  pop\n  jump\t// out\n    /* \"#utility.yul\":2846:2906   */\ntag_35:\n    /* \"#utility.yul\":2874:2877   */\n  0x00\n    /* \"#utility.yul\":2895:2900   */\n  dup2\n    /* \"#utility.yul\":2888:2900   */\n  swap1\n  pop\n    /* \"#utility.yul\":2846:2906   */\n  swap2\n  swap1\n  pop\n  jump\t// out\n    /* \"#utility.yul\":2912:3054   */\ntag_36:\n    /* \"#utility.yul\":2962:2971   */\n  0x00\n    /* \"#utility.yul\":2995:3048   */\n  tag_83\n    /* \"#utility.yul\":3013:3047   */\n  tag_84\n    /* \"#utility.yul\":3022:3046   */\n  tag_85\n    /* \"#utility.yul\":3040:3045   */\n  dup5\n    /* \"#utility.yul\":3022:3046   */\n  tag_34\n  jump\t// in\ntag_85:\n    /* \"#utility.yul\":3013:3047   */\n  tag_35\n  jump\t// in\ntag_84:\n    /* \"#utility.yul\":2995:3048   */\n  tag_34\n  jump\t// in\ntag_83:\n    /* \"#utility.yul\":2982:3048   */\n  swap1\n  pop\n    /* \"#utility.yul\":2912:3054   */\n  swap2\n  swap1\n  pop\n  jump\t// out\n    /* \"#utility.yul\":3060:3135   */\ntag_37:\n    /* \"#utility.yul\":3103:3106   */\n  0x00\n    /* \"#utility.yul\":3124:3129   */\n  dup2\n    /* \"#utility.yul\":3117:3129   */\n  swap1\n  pop\n    /* \"#utility.yul\":3060:3135   */\n  swap2\n  swap1\n  pop\n  jump\t// out\n    /* \"#utility.yul\":3141:3410   */\ntag_38:\n    /* \"#utility.yul\":3251:3290   */\n  tag_88\n    /* \"#utility.yul\":3282:3289   */\n  dup4\n    /* \"#utility.yul\":3251:3290   */\n  tag_36\n  jump\t// in\ntag_88:\n    /* \"#utility.yul\":3312:3403   */\n  tag_89\n    /* \"#utility.yul\":3361:3402   */\n  tag_90\n    /* \"#utility.yul\":3385:3401   */\n  dup3\n    /* \"#utility.yul\":3361:3402   */\n  tag_37\n  jump\t// in\ntag_90:\n    /* \"#utility.yul\":3353:3359   */\n  dup5\n    /* \"#utility.yul\":3346:3350   */\n  dup5\n    /* \"#utility.yul\":3340:3351   */\n  sload\n    /* \"#utility.yul\":3312:3403   */\n  tag_33\n  jump\t// in\ntag_89:\n    /* \"#utility.yul\":3306:3310   */\n  dup3\n    /* \"#utility.yul\":3299:3404   */\n  sstore\n    /* \"#utility.yul\":3217:3410   */\n  pop\n    /* \"#utility.yul\":3141:3410   */\n  pop\n  pop\n  pop\n  jump\t// out\n    /* \"#utility.yul\":3416:3489   */\ntag_39:\n    /* \"#utility.yul\":3461:3464   */\n  0x00\n    /* \"#utility.yul\":3416:3489   */\n  swap1\n  jump\t// out\n    /* \"#utility.yul\":3495:3684   */\ntag_40:\n    /* \"#utility.yul\":3572:3604   */\n  tag_93\n  tag_39\n  jump\t// in\ntag_93:\n    /* \"#utility.yul\":3613:3678   */\n  tag_94\n    /* \"#utility.yul\":3671:3677   */\n  dup2\n    /* \"#utility.yul\":3663:3669   */\n  dup5\n    /* \"#utility.yul\":3657:3661   */\n  dup5\n    /* \"#utility.yul\":3613:3678   */\n  tag_38\n  jump\t// in\ntag_94:\n    /* \"#utility.yul\":3548:3684   */\n  pop\n    /* \"#utility.yul\":3495:3684   */\n  pop\n  pop\n  jump\t// out\n    /* \"#utility.yul\":3690:3876   */\ntag_41:\n    /* \"#utility.yul\":3750:3870   */\ntag_96:\n    /* \"#utility.yul\":3767:3770   */\n  dup2\n    /* \"#utility.yul\":3760:3765   */\n  dup2\n    /* \"#utility.yul\":3757:3771   */\n  lt\n    /* \"#utility.yul\":3750:3870   */\n  iszero\n  tag_98\n  jumpi\n    /* \"#utility.yul\":3821:3860   */\n  tag_99\n    /* \"#utility.yul\":3858:3859   */\n  0x00\n    /* \"#utility.yul\":3851:3856   */\n  dup3\n    /* \"#utility.yul\":3821:3860   */\n  tag_40\n  jump\t// in\ntag_99:\n    /* \"#utility.yul\":3794:3795   */\n  0x01\n    /* \"#utility.yul\":3787:3792   */\n  dup2\n    /* \"#utility.yul\":3783:3796   */\n  add\n    /* \"#utility.yul\":3774:3796   */\n  swap1\n  pop\n    /* \"#utility.yul\":3750:3870   */\n  jump(tag_96)\ntag_98:\n    /* \"#utility.yul\":3690:3876   */\n  pop\n  pop\n  jump\t// out\n    /* \"#utility.yul\":3882:4425   */\ntag_42:\n    /* \"#utility.yul\":3983:3985   */\n  0x1f\n    /* \"#utility.yul\":3978:3981   */\n  dup3\n    /* \"#utility.yul\":3975:3986   */\n  gt\n    /* \"#utility.yul\":3972:4418   */\n  iszero\n  tag_101\n  jumpi\n    /* \"#utility.yul\":4017:4055   */\n  tag_102\n    /* \"#utility.yul\":4049:4054   */\n  dup2\n    /* \"#utility.yul\":4017:4055   */\n  tag_30\n  jump\t// in\ntag_102:\n    /* \"#utility.yul\":4101:4130   */\n  tag_103\n    /* \"#utility.yul\":4119:4129   */\n  dup5\n    /* \"#utility.yul\":4101:4130   */\n  tag_31\n  jump\t// in\ntag_103:\n    /* \"#utility.yul\":4091:4099   */\n  dup2\n    /* \"#utility.yul\":4087:4131   */\n  add\n    /* \"#utility.yul\":4284:4286   */\n  0x20\n    /* \"#utility.yul\":4272:4282   */\n  dup6\n    /* \"#utility.yul\":4269:4287   */\n  lt\n    /* \"#utility.yul\":4266:4315   */\n  iszero\n  tag_104\n  jumpi\n    /* \"#utility.yul\":4305:4313   */\n  dup2\n    /* \"#utility.yul\":4290:4313   */\n  swap1\n  pop\n    /* \"#utility.yul\":4266:4315   */\ntag_104:\n    /* \"#utility.yul\":4328:4408   */\n  tag_105\n    /* \"#utility.yul\":4384:4406   */\n  tag_106\n    /* \"#utility.yul\":4402:4405   */\n  dup6\n    /* \"#utility.yul\":4384:4406   */\n  tag_31\n  jump\t// in\ntag_106:\n    /* \"#utility.yul\":4374:4382   */\n  dup4\n    /* \"#utility.yul\":4370:4407   */\n  add\n    /* \"#utility.yul\":4357:4368   */\n  dup3\n    /* \"#utility.yul\":4328:4408   */\n  tag_41\n  jump\t// in\ntag_105:\n    /* \"#utility.yul\":3987:4418   */\n  pop\n  pop\n    /* \"#utility.yul\":3972:4418   */\ntag_101:\n    /* \"#utility.yul\":3882:4425   */\n  pop\n  pop\n  pop\n  jump\t// out\n    /* \"#utility.yul\":4431:4548   */\ntag_43:\n    /* \"#utility.yul\":4485:4493   */\n  0x00\n    /* \"#utility.yul\":4535:4540   */\n  dup3\n    /* \"#utility.yul\":4529:4533   */\n  dup3\n    /* \"#utility.yul\":4525:4541   */\n  shr\n    /* \"#utility.yul\":4504:4541   */\n  swap1\n  pop\n    /* \"#utility.yul\":4431:4548   */\n  swap3\n  swap2\n  pop\n  pop\n  jump\t// out\n    /* \"#utility.yul\":4554:4723   */\ntag_44:\n    /* \"#utility.yul\":4598:4604   */\n  0x00\n    /* \"#utility.yul\":4631:4682   */\n  tag_109\n    /* \"#utility.yul\":4679:4680   */\n  0x00\n    /* \"#utility.yul\":4675:4681   */\n  not\n    /* \"#utility.yul\":4667:4672   */\n  dup5\n    /* \"#utility.yul\":4664:4665   */\n  0x08\n    /* \"#utility.yul\":4660:4673   */\n  mul\n    /* \"#utility.yul\":4631:4682   */\n  tag_43\n  jump\t// in\ntag_109:\n    /* \"#utility.yul\":4627:4683   */\n  not\n    /* \"#utility.yul\":4712:4716   */\n  dup1\n    /* \"#utility.yul\":4706:4710   */\n  dup4\n    /* \"#utility.yul\":4702:4717   */\n  and\n    /* \"#utility.yul\":4692:4717   */\n  swap2\n  pop\n    /* \"#utility.yul\":4605:4723   */\n  pop\n    /* \"#utility.yul\":4554:4723   */\n  swap3\n  swap2\n  pop\n  pop\n  jump\t// out\n    /* \"#utility.yul\":4728:5023   */\ntag_45:\n    /* \"#utility.yul\":4804:4808   */\n  0x00\n    /* \"#utility.yul\":4950:4979   */\n  tag_111\n    /* \"#utility.yul\":4975:4978   */\n  dup4\n    /* \"#utility.yul\":4969:4973   */\n  dup4\n    /* \"#utility.yul\":4950:4979   */\n  tag_44\n  jump\t// in\ntag_111:\n    /* \"#utility.yul\":4942:4979   */\n  swap2\n  pop\n    /* \"#utility.yul\":5012:5015   */\n  dup3\n    /* \"#utility.yul\":5009:5010   */\n  0x02\n    /* \"#utility.yul\":5005:5016   */\n  mul\n    /* \"#utility.yul\":4999:5003   */\n  dup3\n    /* \"#utility.yul\":4996:5017   */\n  or\n    /* \"#utility.yul\":4988:5017   */\n  swap1\n  pop\n    /* \"#utility.yul\":4728:5023   */\n  swap3\n  swap2\n  pop\n  pop\n  jump\t// out\n    /* \"#utility.yul\":5028:6423   */\ntag_11:\n    /* \"#utility.yul\":5145:5182   */\n  tag_113\n    /* \"#utility.yul\":5178:5181   */\n  dup3\n    /* \"#utility.yul\":5145:5182   */\n  tag_26\n  jump\t// in\ntag_113:\n    /* \"#utility.yul\":5247:5265   */\n  0xffffffffffffffff\n    /* \"#utility.yul\":5239:5245   */\n  dup2\n    /* \"#utility.yul\":5236:5266   */\n  gt\n    /* \"#utility.yul\":5233:5289   */\n  iszero\n  tag_114\n  jumpi\n    /* \"#utility.yul\":5269:5287   */\n  tag_115\n  tag_27\n  jump\t// in\ntag_115:\n    /* \"#utility.yul\":5233:5289   */\ntag_114:\n    /* \"#utility.yul\":5313:5351   */\n  tag_116\n    /* \"#utility.yul\":5345:5349   */\n  dup3\n    /* \"#utility.yul\":5339:5350   */\n  sload\n    /* \"#utility.yul\":5313:5351   */\n  tag_29\n  jump\t// in\ntag_116:\n    /* \"#utility.yul\":5398:5465   */\n  tag_117\n    /* \"#utility.yul\":5458:5464   */\n  dup3\n    /* \"#utility.yul\":5450:5456   */\n  dup3\n    /* \"#utility.yul\":5444:5448   */\n  dup6\n    /* \"#utility.yul\":5398:5465   */\n  tag_42\n  jump\t// in\ntag_117:\n    /* \"#utility.yul\":5492:5493   */\n  0x00\n    /* \"#utility.yul\":5516:5520   */\n  0x20\n    /* \"#utility.yul\":5503:5520   */\n  swap1\n  pop\n    /* \"#utility.yul\":5548:5550   */\n  0x1f\n    /* \"#utility.yul\":5540:5546   */\n  dup4\n    /* \"#utility.yul\":5537:5551   */\n  gt\n    /* \"#utility.yul\":5565:5566   */\n  0x01\n    /* \"#utility.yul\":5560:6178   */\n  dup2\n  eq\n  tag_119\n  jumpi\n    /* \"#utility.yul\":6222:6223   */\n  0x00\n    /* \"#utility.yul\":6239:6245   */\n  dup5\n    /* \"#utility.yul\":6236:6313   */\n  iszero\n  tag_120\n  jumpi\n    /* \"#utility.yul\":6288:6297   */\n  dup3\n    /* \"#utility.yul\":6283:6286   */\n  dup8\n    /* \"#utility.yul\":6279:6298   */\n  add\n    /* \"#utility.yul\":6273:6299   */\n  mload\n    /* \"#utility.yul\":6264:6299   */\n  swap1\n  pop\n    /* \"#utility.yul\":6236:6313   */\ntag_120:\n    /* \"#utility.yul\":6339:6406   */\n  tag_121\n    /* \"#utility.yul\":6399:6405   */\n  dup6\n    /* \"#utility.yul\":6392:6397   */\n  dup3\n    /* \"#utility.yul\":6339:6406   */\n  tag_45\n  jump\t// in\ntag_121:\n    /* \"#utility.yul\":6333:6337   */\n  dup7\n    /* \"#utility.yul\":6326:6407   */\n  sstore\n    /* \"#utility.yul\":6195:6417   */\n  pop\n    /* \"#utility.yul\":5530:6417   */\n  jump(tag_118)\n    /* \"#utility.yul\":5560:6178   */\ntag_119:\n    /* \"#utility.yul\":5612:5616   */\n  0x1f\n    /* \"#utility.yul\":5608:5617   */\n  not\n    /* \"#utility.yul\":5600:5606   */\n  dup5\n    /* \"#utility.yul\":5596:5618   */\n  and\n    /* \"#utility.yul\":5646:5683   */\n  tag_122\n    /* \"#utility.yul\":5678:5682   */\n  dup7\n    /* \"#utility.yul\":5646:5683   */\n  tag_30\n  jump\t// in\ntag_122:\n    /* \"#utility.yul\":5705:5706   */\n  0x00\n    /* \"#utility.yul\":5719:5927   */\ntag_123:\n    /* \"#utility.yul\":5733:5740   */\n  dup3\n    /* \"#utility.yul\":5730:5731   */\n  dup2\n    /* \"#utility.yul\":5727:5741   */\n  lt\n    /* \"#utility.yul\":5719:5927   */\n  iszero\n  tag_125\n  jumpi\n    /* \"#utility.yul\":5812:5821   */\n  dup5\n    /* \"#utility.yul\":5807:5810   */\n  dup10\n    /* \"#utility.yul\":5803:5822   */\n  add\n    /* \"#utility.yul\":5797:5823   */\n  mload\n    /* \"#utility.yul\":5789:5795   */\n  dup3\n    /* \"#utility.yul\":5782:5824   */\n  sstore\n    /* \"#utility.yul\":5863:5864   */\n  0x01\n    /* \"#utility.yul\":5855:5861   */\n  dup3\n    /* \"#utility.yul\":5851:5865   */\n  add\n    /* \"#utility.yul\":5841:5865   */\n  swap2\n  pop\n    /* \"#utility.yul\":5910:5912   */\n  0x20\n    /* \"#utility.yul\":5899:5908   */\n  dup6\n    /* \"#utility.yul\":5895:5913   */\n  add\n    /* \"#utility.yul\":5882:5913   */\n  swap5\n  pop\n    /* \"#utility.yul\":5756:5760   */\n  0x20\n    /* \"#utility.yul\":5753:5754   */\n  dup2\n    /* \"#utility.yul\":5749:5761   */\n  add\n    /* \"#utility.yul\":5744:5761   */\n  swap1\n  pop\n    /* \"#utility.yul\":5719:5927   */\n  jump(tag_123)\ntag_125:\n    /* \"#utility.yul\":5955:5961   */\n  dup7\n    /* \"#utility.yul\":5946:5953   */\n  dup4\n    /* \"#utility.yul\":5943:5962   */\n  lt\n    /* \"#utility.yul\":5940:6119   */\n  iszero\n  tag_126\n  jumpi\n    /* \"#utility.yul\":6013:6022   */\n  dup5\n    /* \"#utility.yul\":6008:6011   */\n  dup10\n    /* \"#utility.yul\":6004:6023   */\n  add\n    /* \"#utility.yul\":5998:6024   */\n  mload\n    /* \"#utility.yul\":6056:6104   */\n  tag_127\n    /* \"#utility.yul\":6098:6102   */\n  0x1f\n    /* \"#utility.yul\":6090:6096   */\n  dup10\n    /* \"#utility.yul\":6086:6103   */\n  and\n    /* \"#utility.yul\":6075:6084   */\n  dup3\n    /* \"#utility.yul\":6056:6104   */\n  tag_44\n  jump\t// in\ntag_127:\n    /* \"#utility.yul\":6048:6054   */\n  dup4\n    /* \"#utility.yul\":6041:6105   */\n  sstore\n    /* \"#utility.yul\":5963:6119   */\n  pop\n    /* \"#utility.yul\":5940:6119   */\ntag_126:\n    /* \"#utility.yul\":6165:6166   */\n  0x01\n    /* \"#utility.yul\":6161:6162   */\n  0x02\n    /* \"#utility.yul\":6153:6159   */\n  dup9\n    /* \"#utility.yul\":6149:6163   */\n  mul\n    /* \"#utility.yul\":6145:6167   */\n  add\n    /* \"#utility.yul\":6139:6143   */\n  dup9\n    /* \"#utility.yul\":6132:6168   */\n  sstore\n    /* \"#utility.yul\":5567:6178   */\n  pop\n  pop\n  pop\n    /* \"#utility.yul\":5530:6417   */\ntag_118:\n  pop\n    /* \"#utility.yul\":5120:6423   */\n  pop\n  pop\n  pop\n    /* \"#utility.yul\":5028:6423   */\n  pop\n  pop\n  jump\t// out\n    /* \"#utility.yul\":6429:6609   */\ntag_46:\n    /* \"#utility.yul\":6477:6554   */\n  0x4e487b7100000000000000000000000000000000000000000000000000000000\n    /* \"#utility.yul\":6474:6475   */\n  0x00\n    /* \"#utility.yul\":6467:6555   */\n  mstore\n    /* \"#utility.yul\":6574:6578   */\n  0x11\n    /* \"#utility.yul\":6571:6572   */\n  0x04\n    /* \"#utility.yul\":6564:6579   */\n  mstore\n    /* \"#utility.yul\":6598:6602   */\n  0x24\n    /* \"#utility.yul\":6595:6596   */\n  0x00\n    /* \"#utility.yul\":6588:6603   */\n  revert\n    /* \"#utility.yul\":6615:6717   */\ntag_47:\n    /* \"#utility.yul\":6657:6665   */\n  0x00\n    /* \"#utility.yul\":6704:6709   */\n  dup2\n    /* \"#utility.yul\":6701:6702   */\n  0x01\n    /* \"#utility.yul\":6697:6710   */\n  shr\n    /* \"#utility.yul\":6676:6710   */\n  swap1\n  pop\n    /* \"#utility.yul\":6615:6717   */\n  swap2\n  swap1\n  pop\n  jump\t// out\n    /* \"#utility.yul\":6723:7571   */\ntag_48:\n    /* \"#utility.yul\":6784:6789   */\n  0x00\n    /* \"#utility.yul\":6791:6795   */\n  dup1\n    /* \"#utility.yul\":6815:6821   */\n  dup3\n    /* \"#utility.yul\":6806:6821   */\n  swap2\n  pop\n    /* \"#utility.yul\":6839:6844   */\n  dup4\n    /* \"#utility.yul\":6830:6844   */\n  swap1\n  pop\n    /* \"#utility.yul\":6853:7565   */\ntag_131:\n    /* \"#utility.yul\":6874:6875   */\n  0x01\n    /* \"#utility.yul\":6864:6872   */\n  dup6\n    /* \"#utility.yul\":6861:6876   */\n  gt\n    /* \"#utility.yul\":6853:7565   */\n  iszero\n  tag_133\n  jumpi\n    /* \"#utility.yul\":6969:6973   */\n  dup1\n    /* \"#utility.yul\":6964:6967   */\n  dup7\n    /* \"#utility.yul\":6960:6974   */\n  div\n    /* \"#utility.yul\":6954:6958   */\n  dup2\n    /* \"#utility.yul\":6951:6975   */\n  gt\n    /* \"#utility.yul\":6948:6998   */\n  iszero\n  tag_134\n  jumpi\n    /* \"#utility.yul\":6978:6996   */\n  tag_135\n  tag_46\n  jump\t// in\ntag_135:\n    /* \"#utility.yul\":6948:6998   */\ntag_134:\n    /* \"#utility.yul\":7028:7029   */\n  0x01\n    /* \"#utility.yul\":7018:7026   */\n  dup6\n    /* \"#utility.yul\":7014:7030   */\n  and\n    /* \"#utility.yul\":7011:7462   */\n  iszero\n  tag_136\n  jumpi\n    /* \"#utility.yul\":7443:7447   */\n  dup1\n    /* \"#utility.yul\":7436:7441   */\n  dup3\n    /* \"#utility.yul\":7432:7448   */\n  mul\n    /* \"#utility.yul\":7423:7448   */\n  swap2\n  pop\n    /* \"#utility.yul\":7011:7462   */\ntag_136:\n    /* \"#utility.yul\":7493:7497   */\n  dup1\n    /* \"#utility.yul\":7487:7491   */\n  dup2\n    /* \"#utility.yul\":7483:7498   */\n  mul\n    /* \"#utility.yul\":7475:7498   */\n  swap1\n  pop\n    /* \"#utility.yul\":7523:7555   */\n  tag_137\n    /* \"#utility.yul\":7546:7554   */\n  dup6\n    /* \"#utility.yul\":7523:7555   */\n  tag_47\n  jump\t// in\ntag_137:\n    /* \"#utility.yul\":7511:7555   */\n  swap5\n  pop\n    /* \"#utility.yul\":6853:7565   */\n  jump(tag_131)\ntag_133:\n    /* \"#utility.yul\":6723:7571   */\n  swap5\n  pop\n  swap5\n  swap3\n  pop\n  pop\n  pop\n  jump\t// out\n    /* \"#utility.yul\":7577:8650   */\ntag_49:\n    /* \"#utility.yul\":7631:7636   */\n  0x00\n    /* \"#utility.yul\":7822:7830   */\n  dup3\n    /* \"#utility.yul\":7812:7852   */\n  tag_139\n  jumpi\n    /* \"#utility.yul\":7843:7844   */\n  0x01\n    /* \"#utility.yul\":7834:7844   */\n  swap1\n  pop\n    /* \"#utility.yul\":7845:7850   */\n  jump(tag_138)\n    /* \"#utility.yul\":7812:7852   */\ntag_139:\n    /* \"#utility.yul\":7871:7875   */\n  dup2\n    /* \"#utility.yul\":7861:7897   */\n  tag_140\n  jumpi\n    /* \"#utility.yul\":7888:7889   */\n  0x00\n    /* \"#utility.yul\":7879:7889   */\n  swap1\n  pop\n    /* \"#utility.yul\":7890:7895   */\n  jump(tag_138)\n    /* \"#utility.yul\":7861:7897   */\ntag_140:\n    /* \"#utility.yul\":7957:7961   */\n  dup2\n    /* \"#utility.yul\":8005:8006   */\n  0x01\n    /* \"#utility.yul\":8000:8027   */\n  dup2\n  eq\n  tag_142\n  jumpi\n    /* \"#utility.yul\":8041:8042   */\n  0x02\n    /* \"#utility.yul\":8036:8227   */\n  dup2\n  eq\n  tag_143\n  jumpi\n    /* \"#utility.yul\":7950:8227   */\n  jump(tag_141)\n    /* \"#utility.yul\":8000:8027   */\ntag_142:\n    /* \"#utility.yul\":8018:8019   */\n  0x01\n    /* \"#utility.yul\":8009:8019   */\n  swap2\n  pop\n    /* \"#utility.yul\":8020:8025   */\n  pop\n  jump(tag_138)\n    /* \"#utility.yul\":8036:8227   */\ntag_143:\n    /* \"#utility.yul\":8081:8084   */\n  0xff\n    /* \"#utility.yul\":8071:8079   */\n  dup5\n    /* \"#utility.yul\":8068:8085   */\n  gt\n    /* \"#utility.yul\":8065:8108   */\n  iszero\n  tag_144\n  jumpi\n    /* \"#utility.yul\":8088:8106   */\n  tag_145\n  tag_46\n  jump\t// in\ntag_145:\n    /* \"#utility.yul\":8065:8108   */\ntag_144:\n    /* \"#utility.yul\":8137:8145   */\n  dup4\n    /* \"#utility.yul\":8134:8135   */\n  0x02\n    /* \"#utility.yul\":8130:8146   */\n  exp\n    /* \"#utility.yul\":8121:8146   */\n  swap2\n  pop\n    /* \"#utility.yul\":8172:8175   */\n  dup5\n    /* \"#utility.yul\":8165:8170   */\n  dup3\n    /* \"#utility.yul\":8162:8176   */\n  gt\n    /* \"#utility.yul\":8159:8199   */\n  iszero\n  tag_146\n  jumpi\n    /* \"#utility.yul\":8179:8197   */\n  tag_147\n  tag_46\n  jump\t// in\ntag_147:\n    /* \"#utility.yul\":8159:8199   */\ntag_146:\n    /* \"#utility.yul\":8212:8217   */\n  pop\n  jump(tag_138)\n    /* \"#utility.yul\":7950:8227   */\ntag_141:\n  pop\n    /* \"#utility.yul\":8336:8338   */\n  0x20\n    /* \"#utility.yul\":8326:8334   */\n  dup4\n    /* \"#utility.yul\":8323:8339   */\n  lt\n    /* \"#utility.yul\":8317:8320   */\n  0x0133\n    /* \"#utility.yul\":8311:8315   */\n  dup4\n    /* \"#utility.yul\":8308:8321   */\n  lt\n    /* \"#utility.yul\":8304:8340   */\n  and\n    /* \"#utility.yul\":8286:8288   */\n  0x4e\n    /* \"#utility.yul\":8276:8284   */\n  dup5\n    /* \"#utility.yul\":8273:8289   */\n  lt\n    /* \"#utility.yul\":8268:8270   */\n  0x0b\n    /* \"#utility.yul\":8262:8266   */\n  dup5\n    /* \"#utility.yul\":8259:8271   */\n  lt\n    /* \"#utility.yul\":8255:8290   */\n  and\n    /* \"#utility.yul\":8239:8350   */\n  or\n    /* \"#utility.yul\":8236:8482   */\n  iszero\n  tag_148\n  jumpi\n    /* \"#utility.yul\":8392:8400   */\n  dup3\n    /* \"#utility.yul\":8386:8390   */\n  dup3\n    /* \"#utility.yul\":8382:8401   */\n  exp\n    /* \"#utility.yul\":8373:8401   */\n  swap1\n  pop\n    /* \"#utility.yul\":8427:8430   */\n  dup4\n    /* \"#utility.yul\":8420:8425   */\n  dup2\n    /* \"#utility.yul\":8417:8431   */\n  gt\n    /* \"#utility.yul\":8414:8454   */\n  iszero\n  tag_149\n  jumpi\n    /* \"#utility.yul\":8434:8452   */\n  tag_150\n  tag_46\n  jump\t// in\ntag_150:\n    /* \"#utility.yul\":8414:8454   */\ntag_149:\n    /* \"#utility.yul\":8467:8472   */\n  jump(tag_138)\n    /* \"#utility.yul\":8236:8482   */\ntag_148:\n    /* \"#utility.yul\":8507:8549   */\n  tag_151\n    /* \"#utility.yul\":8545:8548   */\n  dup5\n    /* \"#utility.yul\":8535:8543   */\n  dup5\n    /* \"#utility.yul\":8529:8533   */\n  dup5\n    /* \"#utility.yul\":8526:8527   */\n  0x01\n    /* \"#utility.yul\":8507:8549   */\n  tag_48\n  jump\t// in\ntag_151:\n    /* \"#utility.yul\":8492:8549   */\n  swap3\n  pop\n  swap1\n  pop\n    /* \"#utility.yul\":8581:8585   */\n  dup2\n    /* \"#utility.yul\":8576:8579   */\n  dup5\n    /* \"#utility.yul\":8572:8586   */\n  div\n    /* \"#utility.yul\":8565:8570   */\n  dup2\n    /* \"#utility.yul\":8562:8587   */\n  gt\n    /* \"#utility.yul\":8559:8610   */\n  iszero\n  tag_152\n  jumpi\n    /* \"#utility.yul\":8590:8608   */\n  tag_153\n  tag_46\n  jump\t// in\ntag_153:\n    /* \"#utility.yul\":8559:8610   */\ntag_152:\n    /* \"#utility.yul\":8639:8643   */\n  dup2\n    /* \"#utility.yul\":8632:8637   */\n  dup2\n    /* \"#utility.yul\":8628:8644   */\n  mul\n    /* \"#utility.yul\":8619:8644   */\n  swap1\n  pop\n    /* \"#utility.yul\":7577:8650   */\ntag_138:\n  swap4\n  swap3\n  pop\n  pop\n  pop\n  jump\t// out\n    /* \"#utility.yul\":8656:8742   */\ntag_50:\n    /* \"#utility.yul\":8691:8698   */\n  0x00\n    /* \"#utility.yul\":8731:8735   */\n  0xff\n    /* \"#utility.yul\":8724:8729   */\n  dup3\n    /* \"#utility.yul\":8720:8736   */\n  and\n    /* \"#utility.yul\":8709:8736   */\n  swap1\n  pop\n    /* \"#utility.yul\":8656:8742   */\n  swap2\n  swap1\n  pop\n  jump\t// out\n    /* \"#utility.yul\":8748:9029   */\ntag_14:\n    /* \"#utility.yul\":8806:8811   */\n  0x00\n    /* \"#utility.yul\":8830:8853   */\n  tag_156\n    /* \"#utility.yul\":8848:8852   */\n  dup3\n    /* \"#utility.yul\":8830:8853   */\n  tag_34\n  jump\t// in\ntag_156:\n    /* \"#utility.yul\":8822:8853   */\n  swap2\n  pop\n    /* \"#utility.yul\":8874:8899   */\n  tag_157\n    /* \"#utility.yul\":8890:8898   */\n  dup4\n    /* \"#utility.yul\":8874:8899   */\n  tag_50\n  jump\t// in\ntag_157:\n    /* \"#utility.yul\":8862:8899   */\n  swap3\n  pop\n    /* \"#utility.yul\":8918:9022   */\n  tag_158\n    /* \"#utility.yul\":8955:9021   */\n  0xffffffffffffffffffffffffffffffffffffffffffffffffffffffffffffffff\n    /* \"#utility.yul\":8945:8953   */\n  dup5\n    /* \"#utility.yul\":8939:8943   */\n  dup5\n    /* \"#utility.yul\":8918:9022   */\n  tag_49\n  jump\t// in\ntag_158:\n    /* \"#utility.yul\":8909:9022   */\n  swap1\n  pop\n    /* \"#utility.yul\":8748:9029   */\n  swap3\n  swap2\n  pop\n  pop\n  jump\t// out\n    /* \"#utility.yul\":9035:9445   */\ntag_16:\n    /* \"#utility.yul\":9075:9082   */\n  0x00\n    /* \"#utility.yul\":9098:9118   */\n  tag_160\n    /* \"#utility.yul\":9116:9117   */\n  dup3\n    /* \"#utility.yul\":9098:9118   */\n  tag_34\n  jump\t// in\ntag_160:\n    /* \"#utility.yul\":9093:9118   */\n  swap2\n  pop\n    /* \"#utility.yul\":9132:9152   */\n  tag_161\n    /* \"#utility.yul\":9150:9151   */\n  dup4\n    /* \"#utility.yul\":9132:9152   */\n  tag_34\n  jump\t// in\ntag_161:\n    /* \"#utility.yul\":9127:9152   */\n  swap3\n  pop\n    /* \"#utility.yul\":9187:9188   */\n  dup3\n    /* \"#utility.yul\":9184:9185   */\n  dup3\n    /* \"#utility.yul\":9180:9189   */\n  mul\n    /* \"#utility.yul\":9209:9239   */\n  tag_162\n    /* \"#utility.yul\":9227:9238   */\n  dup2\n    /* \"#utility.yul\":9209:9239   */\n  tag_34\n  jump\t// in\ntag_162:\n    /* \"#utility.yul\":9198:9239   */\n  swap2\n  pop\n    /* \"#utility.yul\":9388:9389   */\n  dup3\n    /* \"#utility.yul\":9379:9386   */\n  dup3\n    /* \"#utility.yul\":9375:9390   */\n  div\n    /* \"#utility.yul\":9372:9373   */\n  dup5\n    /* \"#utility.yul\":9369:9391   */\n  eq\n    /* \"#utility.yul\":9349:9350   */\n  dup4\n    /* \"#utility.yul\":9342:9351   */\n  iszero\n    /* \"#utility.yul\":9322:9405   */\n  or\n    /* \"#utility.yul\":9299:9438   */\n  tag_163\n  jumpi\n    /* \"#utility.yul\":9418:9436   */\n  tag_164\n  tag_46\n  jump\t// in\ntag_164:\n    /* \"#utility.yul\":9299:9438   */\ntag_163:\n    /* \"#utility.yul\":9083:9445   */\n  pop\n    /* \"#utility.yul\":9035:9445   */\n  swap3\n  swap2\n  pop\n  pop\n  jump\t// out\n    /* \"ERC404Test.sol\":145:2769  contract ERC404Test is ERC404 {... */\ntag_18:\n  mload(0x80)\n  mload(0xa0)\n  codecopy(0x00, dataOffset(sub_0), dataSize(sub_0))\n  0x00\n  assignImmutable(\"0xdbae32e539e8739fc624de6baca4733f021b71f9ebe8eab474497b82fc314c90\")\n  0x00\n  assignImmutable(\"0x8daa2fd0bd035dbe856aeb0cf4a9c58ddc36a58ca2b562643b5027489d09ec1b\")\n  return(0x00, dataSize(sub_0))\nstop\n\nsub_0: assembly {\n        /* \"ERC404Test.sol\":145:2769  contract ERC404Test is ERC404 {... */\n      mstore(0x40, 0x80)\n      callvalue\n      dup1\n      iszero\n      tag_1\n      jumpi\n      0x00\n      dup1\n      revert\n    tag_1:\n      pop\n      jumpi(tag_2, lt(calldatasize, 0x04))\n      shr(0xe0, calldataload(0x00))\n      dup1\n      0x8da5cb5b\n      gt\n      tag_32\n      jumpi\n      dup1\n      0xc87b56dd\n      gt\n      tag_33\n      jumpi\n      dup1\n      0xe985e9c5\n      gt\n      tag_34\n      jumpi\n      dup1\n      0xe985e9c5\n      eq\n      tag_28\n      jumpi\n      dup1\n      0xedeb4bbe\n      eq\n      tag_29\n      jumpi\n      dup1\n      0xf28ca1dd\n      eq\n      tag_30\n      jumpi\n      dup1\n      0xf2fde38b\n      eq\n      tag_31\n      jumpi\n      jump(tag_2)\n    tag_34:\n      dup1\n      0xc87b56dd\n      eq\n      tag_24\n      jumpi\n      dup1\n      0xd547cfb7\n      eq\n      tag_25\n      jumpi\n      dup1\n      0xdd62ed3e\n      eq\n      tag_26\n      jumpi\n      dup1\n      0xe0df5b6f\n      eq\n      tag_27\n      jumpi\n      jump(tag_2)\n    tag_33:\n      dup1\n      0xa22cb465\n      gt\n      tag_35\n      jumpi\n      dup1\n      0xa22cb465\n      eq\n      tag_20\n      jumpi\n      dup1\n      0xa9059cbb\n      eq\n      tag_21\n      jumpi\n      dup1\n      0xb88d4fde\n      eq\n      tag_22\n      jumpi\n      dup1\n      0xbd9ba9e8\n      eq\n      tag_23\n      jumpi\n      jump(tag_2)\n    tag_35:\n      dup1\n      0x8da5cb5b\n      eq\n      tag_17\n      jumpi\n      dup1\n      0x95d89b41\n      eq\n      tag_18\n      jumpi\n      dup1\n      0x9b19251a\n      eq\n      tag_19\n      jumpi\n      jump(tag_2)\n    tag_32:\n      dup1\n      0x313ce567\n      gt\n      tag_36\n      jumpi\n      dup1\n      0x504334c2\n      gt\n      tag_37\n      jumpi\n      dup1\n      0x504334c2\n      eq\n      tag_13\n      jumpi\n      dup1\n      0x53d6fd59\n      eq\n      tag_14\n      jumpi\n      dup1\n      0x6352211e\n      eq\n      tag_15\n      jumpi\n      dup1\n      0x70a08231\n      eq\n      tag_16\n      jumpi\n      jump(tag_2)\n    tag_37:\n      dup1\n      0x313ce567\n      eq\n      tag_10\n      jumpi\n      dup1\n      0x42842e0e\n      eq\n      tag_11\n      jumpi\n      dup1\n      0x4f02c420\n      eq\n      tag_12\n      jumpi\n      jump(tag_2)\n    tag_36:\n      dup1\n      0x18160ddd\n      gt\n      tag_38\n      jumpi\n      dup1\n      0x18160ddd\n      eq\n      tag_6\n      jumpi\n      dup1\n      0x18d217c3\n      eq\n      tag_7\n      jumpi\n      dup1\n      0x23b872dd\n      eq\n      tag_8\n      jumpi\n      dup1\n      0x2b968958\n      eq\n      tag_9\n      jumpi\n      jump(tag_2)\n    tag_38:\n      dup1\n      0x06fdde03\n      eq\n      tag_3\n      jumpi\n      dup1\n      0x081812fc\n      eq\n      tag_4\n      jumpi\n      dup1\n      0x095ea7b3\n      eq\n      tag_5\n      jumpi\n    tag_2:\n      0x00\n      dup1\n      revert\n        /* \"ERC404.sol\":2779:2797  string public name */\n    tag_3:\n      tag_39\n      tag_40\n      jump\t// in\n    tag_39:\n      mload(0x40)\n      tag_41\n      swap2\n      swap1\n      tag_42\n      jump\t// in\n    tag_41:\n      mload(0x40)\n      dup1\n      swap2\n      sub\n      swap1\n      return\n        /* \"ERC404.sol\":3490:3536  mapping(uint256 => address) public getApproved */\n    tag_4:\n      tag_43\n      0x04\n      dup1\n      calldatasize\n      sub\n      dup2\n      add\n      swap1\n      tag_44\n      swap2\n      swap1\n      tag_45\n      jump\t// in\n    tag_44:\n      tag_46\n      jump\t// in\n    tag_43:\n      mload(0x40)\n      tag_47\n      swap2\n      swap1\n      tag_48\n      jump\t// in\n    tag_47:\n      mload(0x40)\n      dup1\n      swap2\n      sub\n      swap1\n      return\n        /* \"ERC404.sol\":5321:5963  function approve(... */\n    tag_5:\n      tag_49\n      0x04\n      dup1\n      calldatasize\n      sub\n      dup2\n      add\n      swap1\n      tag_50\n      swap2\n      swap1\n      tag_51\n      jump\t// in\n    tag_50:\n      tag_52\n      jump\t// in\n    tag_49:\n      mload(0x40)\n      tag_53\n      swap2\n      swap1\n      tag_54\n      jump\t// in\n    tag_53:\n      mload(0x40)\n      dup1\n      swap2\n      sub\n      swap1\n      return\n        /* \"ERC404.sol\":3015:3051  uint256 public immutable totalSupply */\n    tag_6:\n      tag_55\n      tag_56\n      jump\t// in\n    tag_55:\n      mload(0x40)\n      tag_57\n      swap2\n      swap1\n      tag_58\n      jump\t// in\n    tag_57:\n      mload(0x40)\n      dup1\n      swap2\n      sub\n      swap1\n      return\n        /* \"ERC404Test.sol\":449:547  function setDataURI(string memory _dataURI) public onlyOwner {... */\n    tag_7:\n      tag_59\n      0x04\n      dup1\n      calldatasize\n      sub\n      dup2\n      add\n      swap1\n      tag_60\n      swap2\n      swap1\n      tag_61\n      jump\t// in\n    tag_60:\n      tag_62\n      jump\t// in\n    tag_59:\n      stop\n        /* \"ERC404.sol\":6370:8086  function transferFrom(... */\n    tag_8:\n      tag_63\n      0x04\n      dup1\n      calldatasize\n      sub\n      dup2\n      add\n      swap1\n      tag_64\n      swap2\n      swap1\n      tag_65\n      jump\t// in\n    tag_64:\n      tag_66\n      jump\t// in\n    tag_63:\n      stop\n        /* \"ERC404.sol\":778:927  function revokeOwnership() public virtual onlyOwner {... */\n    tag_9:\n      tag_67\n      tag_68\n      jump\t// in\n    tag_67:\n      stop\n        /* \"ERC404.sol\":2915:2946  uint8 public immutable decimals */\n    tag_10:\n      tag_69\n      tag_70\n      jump\t// in\n    tag_69:\n      mload(0x40)\n      tag_71\n      swap2\n      swap1\n      tag_72\n      jump\t// in\n    tag_71:\n      mload(0x40)\n      dup1\n      swap2\n      sub\n      swap1\n      return\n        /* \"ERC404.sol\":8382:8787  function safeTransferFrom(... */\n    tag_11:\n      tag_73\n      0x04\n      dup1\n      calldatasize\n      sub\n      dup2\n      add\n      swap1\n      tag_74\n      swap2\n      swap1\n      tag_65\n      jump\t// in\n    tag_74:\n      tag_75\n      jump\t// in\n    tag_73:\n      stop\n        /* \"ERC404.sol\":3150:3171  uint256 public minted */\n    tag_12:\n      tag_76\n      tag_77\n      jump\t// in\n    tag_76:\n      mload(0x40)\n      tag_78\n      swap2\n      swap1\n      tag_58\n      jump\t// in\n    tag_78:\n      mload(0x40)\n      dup1\n      swap2\n      sub\n      swap1\n      return\n        /* \"ERC404Test.sol\":669:802  function setNameSymbol(string memory _name, string memory _symbol) public onlyOwner {... */\n    tag_13:\n      tag_79\n      0x04\n      dup1\n      calldatasize\n      sub\n      dup2\n      add\n      swap1\n      tag_80\n      swap2\n      swap1\n      tag_81\n      jump\t// in\n    tag_80:\n      tag_82\n      jump\t// in\n    tag_79:\n      stop\n        /* \"ERC404.sol\":4650:4761  function setWhitelist(address target, bool state) public onlyOwner {... */\n    tag_14:\n      tag_83\n      0x04\n      dup1\n      calldatasize\n      sub\n      dup2\n      add\n      swap1\n      tag_84\n      swap2\n      swap1\n      tag_85\n      jump\t// in\n    tag_84:\n      tag_86\n      jump\t// in\n    tag_83:\n      stop\n        /* \"ERC404.sol\":4833:5026  function ownerOf(uint256 id) public view virtual returns (address owner) {... */\n    tag_15:\n      tag_87\n      0x04\n      dup1\n      calldatasize\n      sub\n      dup2\n      add\n      swap1\n      tag_88\n      swap2\n      swap1\n      tag_45\n      jump\t// in\n    tag_88:\n      tag_89\n      jump\t// in\n    tag_87:\n      mload(0x40)\n      tag_90\n      swap2\n      swap1\n      tag_48\n      jump\t// in\n    tag_90:\n      mload(0x40)\n      dup1\n      swap2\n      sub\n      swap1\n      return\n        /* \"ERC404.sol\":3256:3300  mapping(address => uint256) public balanceOf */\n    tag_16:\n      tag_91\n      0x04\n      dup1\n      calldatasize\n      sub\n      dup2\n      add\n      swap1\n      tag_92\n      swap2\n      swap1\n      tag_93\n      jump\t// in\n    tag_92:\n      tag_94\n      jump\t// in\n    tag_91:\n      mload(0x40)\n      tag_95\n      swap2\n      swap1\n      tag_58\n      jump\t// in\n    tag_95:\n      mload(0x40)\n      dup1\n      swap2\n      sub\n      swap1\n      return\n        /* \"ERC404.sol\":229:249  address public owner */\n    tag_17:\n      tag_96\n      tag_97\n      jump\t// in\n    tag_96:\n      mload(0x40)\n      tag_98\n      swap2\n      swap1\n      tag_48\n      jump\t// in\n    tag_98:\n      mload(0x40)\n      dup1\n      swap2\n      sub\n      swap1\n      return\n        /* \"ERC404.sol\":2833:2853  string public symbol */\n    tag_18:\n      tag_99\n      tag_100\n      jump\t// in\n    tag_99:\n      mload(0x40)\n      tag_101\n      swap2\n      swap1\n      tag_42\n      jump\t// in\n    tag_101:\n      mload(0x40)\n      dup1\n      swap2\n      sub\n      swap1\n      return\n        /* \"ERC404.sol\":4101:4142  mapping(address => bool) public whitelist */\n    tag_19:\n      tag_102\n      0x04\n      dup1\n      calldatasize\n      sub\n      dup2\n      add\n      swap1\n      tag_103\n      swap2\n      swap1\n      tag_93\n      jump\t// in\n    tag_103:\n      tag_104\n      jump\t// in\n    tag_102:\n      mload(0x40)\n      tag_105\n      swap2\n      swap1\n      tag_54\n      jump\t// in\n    tag_105:\n      mload(0x40)\n      dup1\n      swap2\n      sub\n      swap1\n      return\n        /* \"ERC404.sol\":6014:6221  function setApprovalForAll(address operator, bool approved) public virtual {... */\n    tag_20:\n      tag_106\n      0x04\n      dup1\n      calldatasize\n      sub\n      dup2\n      add\n      swap1\n      tag_107\n      swap2\n      swap1\n      tag_85\n      jump\t// in\n    tag_107:\n      tag_108\n      jump\t// in\n    tag_106:\n      stop\n        /* \"ERC404.sol\":8145:8305  function transfer(... */\n    tag_21:\n      tag_109\n      0x04\n      dup1\n      calldatasize\n      sub\n      dup2\n      add\n      swap1\n      tag_110\n      swap2\n      swap1\n      tag_51\n      jump\t// in\n    tag_110:\n      tag_111\n      jump\t// in\n    tag_109:\n      mload(0x40)\n      tag_112\n      swap2\n      swap1\n      tag_54\n      jump\t// in\n    tag_112:\n      mload(0x40)\n      dup1\n      swap2\n      sub\n      swap1\n      return\n        /* \"ERC404.sol\":8882:9319  function safeTransferFrom(... */\n    tag_22:\n      tag_113\n      0x04\n      dup1\n      calldatasize\n      sub\n      dup2\n      add\n      swap1\n      tag_114\n      swap2\n      swap1\n      tag_115\n      jump\t// in\n    tag_114:\n      tag_116\n      jump\t// in\n    tag_113:\n      stop\n        /* \"ERC404Test.sol\":1648:1764  function setMetaDescription(string memory _metaDesc) public onlyOwner {... */\n    tag_23:\n      tag_117\n      0x04\n      dup1\n      calldatasize\n      sub\n      dup2\n      add\n      swap1\n      tag_118\n      swap2\n      swap1\n      tag_61\n      jump\t// in\n    tag_118:\n      tag_119\n      jump\t// in\n    tag_117:\n      stop\n        /* \"ERC404Test.sol\":1772:2766  function tokenURI(uint256 id) public view override returns (string memory) {... */\n    tag_24:\n      tag_120\n      0x04\n      dup1\n      calldatasize\n      sub\n      dup2\n      add\n      swap1\n      tag_121\n      swap2\n      swap1\n      tag_45\n      jump\t// in\n    tag_121:\n      tag_122\n      jump\t// in\n    tag_120:\n      mload(0x40)\n      tag_123\n      swap2\n      swap1\n      tag_42\n      jump\t// in\n    tag_123:\n      mload(0x40)\n      dup1\n      swap2\n      sub\n      swap1\n      return\n        /* \"ERC404Test.sol\":210:236  string public baseTokenURI */\n    tag_25:\n      tag_124\n      tag_125\n      jump\t// in\n    tag_124:\n      mload(0x40)\n      tag_126\n      swap2\n      swap1\n      tag_42\n      jump\t// in\n    tag_126:\n      mload(0x40)\n      dup1\n      swap2\n      sub\n      swap1\n      return\n        /* \"ERC404.sol\":3370:3434  mapping(address => mapping(address => uint256)) public allowance */\n    tag_26:\n      tag_127\n      0x04\n      dup1\n      calldatasize\n      sub\n      dup2\n      add\n      swap1\n      tag_128\n      swap2\n      swap1\n      tag_129\n      jump\t// in\n    tag_128:\n      tag_130\n      jump\t// in\n    tag_127:\n      mload(0x40)\n      tag_131\n      swap2\n      swap1\n      tag_58\n      jump\t// in\n    tag_131:\n      mload(0x40)\n      dup1\n      swap2\n      sub\n      swap1\n      return\n        /* \"ERC404Test.sol\":555:661  function setTokenURI(string memory _tokenURI) public onlyOwner {... */\n    tag_27:\n      tag_132\n      0x04\n      dup1\n      calldatasize\n      sub\n      dup2\n      add\n      swap1\n      tag_133\n      swap2\n      swap1\n      tag_61\n      jump\t// in\n    tag_133:\n      tag_134\n      jump\t// in\n    tag_132:\n      stop\n        /* \"ERC404.sol\":3601:3669  mapping(address => mapping(address => bool)) public isApprovedForAll */\n    tag_28:\n      tag_135\n      0x04\n      dup1\n      calldatasize\n      sub\n      dup2\n      add\n      swap1\n      tag_136\n      swap2\n      swap1\n      tag_129\n      jump\t// in\n    tag_136:\n      tag_137\n      jump\t// in\n    tag_135:\n      mload(0x40)\n      tag_138\n      swap2\n      swap1\n      tag_54\n      jump\t// in\n    tag_138:\n      mload(0x40)\n      dup1\n      swap2\n      sub\n      swap1\n      return\n        /* \"ERC404Test.sol\":243:272  string public metaDescription */\n    tag_29:\n      tag_139\n      tag_140\n      jump\t// in\n    tag_139:\n      mload(0x40)\n      tag_141\n      swap2\n      swap1\n      tag_42\n      jump\t// in\n    tag_141:\n      mload(0x40)\n      dup1\n      swap2\n      sub\n      swap1\n      return\n        /* \"ERC404Test.sol\":182:203  string public dataURI */\n    tag_30:\n      tag_142\n      tag_143\n      jump\t// in\n    tag_142:\n      mload(0x40)\n      tag_144\n      swap2\n      swap1\n      tag_42\n      jump\t// in\n    tag_144:\n      mload(0x40)\n      dup1\n      swap2\n      sub\n      swap1\n      return\n        /* \"ERC404.sol\":555:770  function transferOwnership(address _owner) public virtual onlyOwner {... */\n    tag_31:\n      tag_145\n      0x04\n      dup1\n      calldatasize\n      sub\n      dup2\n      add\n      swap1\n      tag_146\n      swap2\n      swap1\n      tag_93\n      jump\t// in\n    tag_146:\n      tag_147\n      jump\t// in\n    tag_145:\n      stop\n        /* \"ERC404.sol\":2779:2797  string public name */\n    tag_40:\n      0x01\n      dup1\n      sload\n      tag_148\n      swap1\n      tag_149\n      jump\t// in\n    tag_148:\n      dup1\n      0x1f\n      add\n      0x20\n      dup1\n      swap2\n      div\n      mul\n      0x20\n      add\n      mload(0x40)\n      swap1\n      dup2\n      add\n      0x40\n      mstore\n      dup1\n      swap3\n      swap2\n      swap1\n      dup2\n      dup2\n      mstore\n      0x20\n      add\n      dup3\n      dup1\n      sload\n      tag_150\n      swap1\n      tag_149\n      jump\t// in\n    tag_150:\n      dup1\n      iszero\n      tag_151\n      jumpi\n      dup1\n      0x1f\n      lt\n      tag_152\n      jumpi\n      0x0100\n      dup1\n      dup4\n      sload\n      div\n      mul\n      dup4\n      mstore\n      swap2\n      0x20\n      add\n      swap2\n      jump(tag_151)\n    tag_152:\n      dup3\n      add\n      swap2\n      swap1\n      0x00\n      mstore\n      keccak256(0x00, 0x20)\n      swap1\n    tag_153:\n      dup2\n      sload\n      dup2\n      mstore\n      swap1\n      0x01\n      add\n      swap1\n      0x20\n      add\n      dup1\n      dup4\n      gt\n      tag_153\n      jumpi\n      dup3\n      swap1\n      sub\n      0x1f\n      and\n      dup3\n      add\n      swap2\n    tag_151:\n      pop\n      pop\n      pop\n      pop\n      pop\n      dup2\n      jump\t// out\n        /* \"ERC404.sol\":3490:3536  mapping(uint256 => address) public getApproved */\n    tag_46:\n      mstore(0x20, 0x06)\n      dup1\n      0x00\n      mstore\n      keccak256(0x00, 0x40)\n      0x00\n      swap2\n      pop\n      sload\n      swap1\n      0x0100\n      exp\n      swap1\n      div\n      0xffffffffffffffffffffffffffffffffffffffff\n      and\n      dup2\n      jump\t// out\n        /* \"ERC404.sol\":5321:5963  function approve(... */\n    tag_52:\n        /* \"ERC404.sol\":5424:5428  bool */\n      0x00\n        /* \"ERC404.sol\":5459:5465  minted */\n      sload(0x03)\n        /* \"ERC404.sol\":5445:5455  amountOrId */\n      dup3\n        /* \"ERC404.sol\":5445:5465  amountOrId <= minted */\n      gt\n      iszero\n        /* \"ERC404.sol\":5445:5483  amountOrId <= minted && amountOrId > 0 */\n      dup1\n      iszero\n      tag_155\n      jumpi\n      pop\n        /* \"ERC404.sol\":5482:5483  0 */\n      0x00\n        /* \"ERC404.sol\":5469:5479  amountOrId */\n      dup3\n        /* \"ERC404.sol\":5469:5483  amountOrId > 0 */\n      gt\n        /* \"ERC404.sol\":5445:5483  amountOrId <= minted && amountOrId > 0 */\n    tag_155:\n        /* \"ERC404.sol\":5441:5932  if (amountOrId <= minted && amountOrId > 0) {... */\n      iszero\n      tag_156\n      jumpi\n        /* \"ERC404.sol\":5500:5513  address owner */\n      0x00\n        /* \"ERC404.sol\":5516:5524  _ownerOf */\n      0x08\n        /* \"ERC404.sol\":5516:5536  _ownerOf[amountOrId] */\n      0x00\n        /* \"ERC404.sol\":5525:5535  amountOrId */\n      dup5\n        /* \"ERC404.sol\":5516:5536  _ownerOf[amountOrId] */\n      dup2\n      mstore\n      0x20\n      add\n      swap1\n      dup2\n      mstore\n      0x20\n      add\n      0x00\n      keccak256\n      0x00\n      swap1\n      sload\n      swap1\n      0x0100\n      exp\n      swap1\n      div\n      0xffffffffffffffffffffffffffffffffffffffff\n      and\n        /* \"ERC404.sol\":5500:5536  address owner = _ownerOf[amountOrId] */\n      swap1\n      pop\n        /* \"ERC404.sol\":5571:5576  owner */\n      dup1\n        /* \"ERC404.sol\":5557:5576  msg.sender != owner */\n      0xffffffffffffffffffffffffffffffffffffffff\n      and\n        /* \"ERC404.sol\":5557:5567  msg.sender */\n      caller\n        /* \"ERC404.sol\":5557:5576  msg.sender != owner */\n      0xffffffffffffffffffffffffffffffffffffffff\n      and\n      eq\n      iszero\n        /* \"ERC404.sol\":5557:5616  msg.sender != owner && !isApprovedForAll[owner][msg.sender] */\n      dup1\n      iszero\n      tag_157\n      jumpi\n      pop\n        /* \"ERC404.sol\":5581:5597  isApprovedForAll */\n      0x07\n        /* \"ERC404.sol\":5581:5604  isApprovedForAll[owner] */\n      0x00\n        /* \"ERC404.sol\":5598:5603  owner */\n      dup3\n        /* \"ERC404.sol\":5581:5604  isApprovedForAll[owner] */\n      0xffffffffffffffffffffffffffffffffffffffff\n      and\n      0xffffffffffffffffffffffffffffffffffffffff\n      and\n      dup2\n      mstore\n      0x20\n      add\n      swap1\n      dup2\n      mstore\n      0x20\n      add\n      0x00\n      keccak256\n        /* \"ERC404.sol\":5581:5616  isApprovedForAll[owner][msg.sender] */\n      0x00\n        /* \"ERC404.sol\":5605:5615  msg.sender */\n      caller\n        /* \"ERC404.sol\":5581:5616  isApprovedForAll[owner][msg.sender] */\n      0xffffffffffffffffffffffffffffffffffffffff\n      and\n      0xffffffffffffffffffffffffffffffffffffffff\n      and\n      dup2\n      mstore\n      0x20\n      add\n      swap1\n      dup2\n      mstore\n      0x20\n      add\n      0x00\n      keccak256\n      0x00\n      swap1\n      sload\n      swap1\n      0x0100\n      exp\n      swap1\n      div\n      0xff\n      and\n        /* \"ERC404.sol\":5580:5616  !isApprovedForAll[owner][msg.sender] */\n      iszero\n        /* \"ERC404.sol\":5557:5616  msg.sender != owner && !isApprovedForAll[owner][msg.sender] */\n    tag_157:\n        /* \"ERC404.sol\":5553:5674  if (msg.sender != owner && !isApprovedForAll[owner][msg.sender]) {... */\n      iszero\n      tag_158\n      jumpi\n        /* \"ERC404.sol\":5644:5658  Unauthorized() */\n      mload(0x40)\n      0x82b4290000000000000000000000000000000000000000000000000000000000\n      dup2\n      mstore\n      0x04\n      add\n      mload(0x40)\n      dup1\n      swap2\n      sub\n      swap1\n      revert\n        /* \"ERC404.sol\":5553:5674  if (msg.sender != owner && !isApprovedForAll[owner][msg.sender]) {... */\n    tag_158:\n        /* \"ERC404.sol\":5716:5723  spender */\n      dup4\n        /* \"ERC404.sol\":5690:5701  getApproved */\n      0x06\n        /* \"ERC404.sol\":5690:5713  getApproved[amountOrId] */\n      0x00\n        /* \"ERC404.sol\":5702:5712  amountOrId */\n      dup6\n        /* \"ERC404.sol\":5690:5713  getApproved[amountOrId] */\n      dup2\n      mstore\n      0x20\n      add\n      swap1\n      dup2\n      mstore\n      0x20\n      add\n      0x00\n      keccak256\n      0x00\n        /* \"ERC404.sol\":5690:5723  getApproved[amountOrId] = spender */\n      0x0100\n      exp\n      dup2\n      sload\n      dup2\n      0xffffffffffffffffffffffffffffffffffffffff\n      mul\n      not\n      and\n      swap1\n      dup4\n      0xffffffffffffffffffffffffffffffffffffffff\n      and\n      mul\n      or\n      swap1\n      sstore\n      pop\n        /* \"ERC404.sol\":5761:5768  spender */\n      dup4\n        /* \"ERC404.sol\":5745:5781  Approval(owner, spender, amountOrId) */\n      0xffffffffffffffffffffffffffffffffffffffff\n      and\n        /* \"ERC404.sol\":5754:5759  owner */\n      dup2\n        /* \"ERC404.sol\":5745:5781  Approval(owner, spender, amountOrId) */\n      0xffffffffffffffffffffffffffffffffffffffff\n      and\n      0x8c5be1e5ebec7d5bd14f71427d1e84f3dd0314c0f7b2291e5b200ac8c7c3b925\n        /* \"ERC404.sol\":5770:5780  amountOrId */\n      dup6\n        /* \"ERC404.sol\":5745:5781  Approval(owner, spender, amountOrId) */\n      mload(0x40)\n      tag_159\n      swap2\n      swap1\n      tag_58\n      jump\t// in\n    tag_159:\n      mload(0x40)\n      dup1\n      swap2\n      sub\n      swap1\n      log3\n        /* \"ERC404.sol\":5485:5793  {... */\n      pop\n        /* \"ERC404.sol\":5441:5932  if (amountOrId <= minted && amountOrId > 0) {... */\n      jump(tag_160)\n    tag_156:\n        /* \"ERC404.sol\":5847:5857  amountOrId */\n      dup2\n        /* \"ERC404.sol\":5814:5823  allowance */\n      0x05\n        /* \"ERC404.sol\":5814:5835  allowance[msg.sender] */\n      0x00\n        /* \"ERC404.sol\":5824:5834  msg.sender */\n      caller\n        /* \"ERC404.sol\":5814:5835  allowance[msg.sender] */\n      0xffffffffffffffffffffffffffffffffffffffff\n      and\n      0xffffffffffffffffffffffffffffffffffffffff\n      and\n      dup2\n      mstore\n      0x20\n      add\n      swap1\n      dup2\n      mstore\n      0x20\n      add\n      0x00\n      keccak256\n        /* \"ERC404.sol\":5814:5844  allowance[msg.sender][spender] */\n      0x00\n        /* \"ERC404.sol\":5836:5843  spender */\n      dup6\n        /* \"ERC404.sol\":5814:5844  allowance[msg.sender][spender] */\n      0xffffffffffffffffffffffffffffffffffffffff\n      and\n      0xffffffffffffffffffffffffffffffffffffffff\n      and\n      dup2\n      mstore\n      0x20\n      add\n      swap1\n      dup2\n      mstore\n      0x20\n      add\n      0x00\n      keccak256\n        /* \"ERC404.sol\":5814:5857  allowance[msg.sender][spender] = amountOrId */\n      dup2\n      swap1\n      sstore\n      pop\n        /* \"ERC404.sol\":5900:5907  spender */\n      dup3\n        /* \"ERC404.sol\":5879:5920  Approval(msg.sender, spender, amountOrId) */\n      0xffffffffffffffffffffffffffffffffffffffff\n      and\n        /* \"ERC404.sol\":5888:5898  msg.sender */\n      caller\n        /* \"ERC404.sol\":5879:5920  Approval(msg.sender, spender, amountOrId) */\n      0xffffffffffffffffffffffffffffffffffffffff\n      and\n      0x8c5be1e5ebec7d5bd14f71427d1e84f3dd0314c0f7b2291e5b200ac8c7c3b925\n        /* \"ERC404.sol\":5909:5919  amountOrId */\n      dup5\n        /* \"ERC404.sol\":5879:5920  Approval(msg.sender, spender, amountOrId) */\n      mload(0x40)\n      tag_161\n      swap2\n      swap1\n      tag_58\n      jump\t// in\n    tag_161:\n      mload(0x40)\n      dup1\n      swap2\n      sub\n      swap1\n      log3\n        /* \"ERC404.sol\":5441:5932  if (amountOrId <= minted && amountOrId > 0) {... */\n    tag_160:\n        /* \"ERC404.sol\":5951:5955  true */\n      0x01\n        /* \"ERC404.sol\":5944:5955  return true */\n      swap1\n      pop\n        /* \"ERC404.sol\":5321:5963  function approve(... */\n      swap3\n      swap2\n      pop\n      pop\n      jump\t// out\n        /* \"ERC404.sol\":3015:3051  uint256 public immutable totalSupply */\n    tag_56:\n      immutable(\"0xdbae32e539e8739fc624de6baca4733f021b71f9ebe8eab474497b82fc314c90\")\n      dup2\n      jump\t// out\n        /* \"ERC404Test.sol\":449:547  function setDataURI(string memory _dataURI) public onlyOwner {... */\n    tag_62:\n        /* \"ERC404.sol\":316:321  owner */\n      0x00\n      dup1\n      sload\n      swap1\n      0x0100\n      exp\n      swap1\n      div\n      0xffffffffffffffffffffffffffffffffffffffff\n      and\n        /* \"ERC404.sol\":302:321  msg.sender != owner */\n      0xffffffffffffffffffffffffffffffffffffffff\n      and\n        /* \"ERC404.sol\":302:312  msg.sender */\n      caller\n        /* \"ERC404.sol\":302:321  msg.sender != owner */\n      0xffffffffffffffffffffffffffffffffffffffff\n      and\n      eq\n        /* \"ERC404.sol\":298:344  if (msg.sender != owner) revert Unauthorized() */\n      tag_163\n      jumpi\n        /* \"ERC404.sol\":330:344  Unauthorized() */\n      mload(0x40)\n      0x82b4290000000000000000000000000000000000000000000000000000000000\n      dup2\n      mstore\n      0x04\n      add\n      mload(0x40)\n      dup1\n      swap2\n      sub\n      swap1\n      revert\n        /* \"ERC404.sol\":298:344  if (msg.sender != owner) revert Unauthorized() */\n    tag_163:\n        /* \"ERC404Test.sol\":531:539  _dataURI */\n      dup1\n        /* \"ERC404Test.sol\":521:528  dataURI */\n      0x0c\n        /* \"ERC404Test.sol\":521:539  dataURI = _dataURI */\n      swap1\n      dup2\n      tag_165\n      swap2\n      swap1\n      tag_166\n      jump\t// in\n    tag_165:\n      pop\n        /* \"ERC404Test.sol\":449:547  function setDataURI(string memory _dataURI) public onlyOwner {... */\n      pop\n      jump\t// out\n        /* \"ERC404.sol\":6370:8086  function transferFrom(... */\n    tag_66:\n        /* \"ERC404.sol\":6516:6522  minted */\n      sload(0x03)\n        /* \"ERC404.sol\":6502:6512  amountOrId */\n      dup2\n        /* \"ERC404.sol\":6502:6522  amountOrId <= minted */\n      gt\n        /* \"ERC404.sol\":6498:8079  if (amountOrId <= minted) {... */\n      tag_168\n      jumpi\n        /* \"ERC404.sol\":6551:6559  _ownerOf */\n      0x08\n        /* \"ERC404.sol\":6551:6571  _ownerOf[amountOrId] */\n      0x00\n        /* \"ERC404.sol\":6560:6570  amountOrId */\n      dup3\n        /* \"ERC404.sol\":6551:6571  _ownerOf[amountOrId] */\n      dup2\n      mstore\n      0x20\n      add\n      swap1\n      dup2\n      mstore\n      0x20\n      add\n      0x00\n      keccak256\n      0x00\n      swap1\n      sload\n      swap1\n      0x0100\n      exp\n      swap1\n      div\n      0xffffffffffffffffffffffffffffffffffffffff\n      and\n        /* \"ERC404.sol\":6543:6571  from != _ownerOf[amountOrId] */\n      0xffffffffffffffffffffffffffffffffffffffff\n      and\n        /* \"ERC404.sol\":6543:6547  from */\n      dup4\n        /* \"ERC404.sol\":6543:6571  from != _ownerOf[amountOrId] */\n      0xffffffffffffffffffffffffffffffffffffffff\n      and\n      eq\n        /* \"ERC404.sol\":6539:6630  if (from != _ownerOf[amountOrId]) {... */\n      tag_169\n      jumpi\n        /* \"ERC404.sol\":6599:6614  InvalidSender() */\n      mload(0x40)\n      0xddb5de5e00000000000000000000000000000000000000000000000000000000\n      dup2\n      mstore\n      0x04\n      add\n      mload(0x40)\n      dup1\n      swap2\n      sub\n      swap1\n      revert\n        /* \"ERC404.sol\":6539:6630  if (from != _ownerOf[amountOrId]) {... */\n    tag_169:\n        /* \"ERC404.sol\":6664:6665  0 */\n      0x00\n        /* \"ERC404.sol\":6650:6666  to == address(0) */\n      0xffffffffffffffffffffffffffffffffffffffff\n      and\n        /* \"ERC404.sol\":6650:6652  to */\n      dup3\n        /* \"ERC404.sol\":6650:6666  to == address(0) */\n      0xffffffffffffffffffffffffffffffffffffffff\n      and\n      sub\n        /* \"ERC404.sol\":6646:6728  if (to == address(0)) {... */\n      tag_170\n      jumpi\n        /* \"ERC404.sol\":6694:6712  InvalidRecipient() */\n      mload(0x40)\n      0x9c8d2cd200000000000000000000000000000000000000000000000000000000\n      dup2\n      mstore\n      0x04\n      add\n      mload(0x40)\n      dup1\n      swap2\n      sub\n      swap1\n      revert\n        /* \"ERC404.sol\":6646:6728  if (to == address(0)) {... */\n    tag_170:\n        /* \"ERC404.sol\":6780:6784  from */\n      dup3\n        /* \"ERC404.sol\":6766:6784  msg.sender != from */\n      0xffffffffffffffffffffffffffffffffffffffff\n      and\n        /* \"ERC404.sol\":6766:6776  msg.sender */\n      caller\n        /* \"ERC404.sol\":6766:6784  msg.sender != from */\n      0xffffffffffffffffffffffffffffffffffffffff\n      and\n      eq\n      iszero\n        /* \"ERC404.sol\":6766:6840  msg.sender != from &&... */\n      dup1\n      iszero\n      tag_171\n      jumpi\n      pop\n        /* \"ERC404.sol\":6806:6822  isApprovedForAll */\n      0x07\n        /* \"ERC404.sol\":6806:6828  isApprovedForAll[from] */\n      0x00\n        /* \"ERC404.sol\":6823:6827  from */\n      dup5\n        /* \"ERC404.sol\":6806:6828  isApprovedForAll[from] */\n      0xffffffffffffffffffffffffffffffffffffffff\n      and\n      0xffffffffffffffffffffffffffffffffffffffff\n      and\n      dup2\n      mstore\n      0x20\n      add\n      swap1\n      dup2\n      mstore\n      0x20\n      add\n      0x00\n      keccak256\n        /* \"ERC404.sol\":6806:6840  isApprovedForAll[from][msg.sender] */\n      0x00\n        /* \"ERC404.sol\":6829:6839  msg.sender */\n      caller\n        /* \"ERC404.sol\":6806:6840  isApprovedForAll[from][msg.sender] */\n      0xffffffffffffffffffffffffffffffffffffffff\n      and\n      0xffffffffffffffffffffffffffffffffffffffff\n      and\n      dup2\n      mstore\n      0x20\n      add\n      swap1\n      dup2\n      mstore\n      0x20\n      add\n      0x00\n      keccak256\n      0x00\n      swap1\n      sload\n      swap1\n      0x0100\n      exp\n      swap1\n      div\n      0xff\n      and\n        /* \"ERC404.sol\":6805:6840  !isApprovedForAll[from][msg.sender] */\n      iszero\n        /* \"ERC404.sol\":6766:6840  msg.sender != from &&... */\n    tag_171:\n        /* \"ERC404.sol\":6766:6898  msg.sender != from &&... */\n      dup1\n      iszero\n      tag_172\n      jumpi\n      pop\n        /* \"ERC404.sol\":6875:6886  getApproved */\n      0x06\n        /* \"ERC404.sol\":6875:6898  getApproved[amountOrId] */\n      0x00\n        /* \"ERC404.sol\":6887:6897  amountOrId */\n      dup3\n        /* \"ERC404.sol\":6875:6898  getApproved[amountOrId] */\n      dup2\n      mstore\n      0x20\n      add\n      swap1\n      dup2\n      mstore\n      0x20\n      add\n      0x00\n      keccak256\n      0x00\n      swap1\n      sload\n      swap1\n      0x0100\n      exp\n      swap1\n      div\n      0xffffffffffffffffffffffffffffffffffffffff\n      and\n        /* \"ERC404.sol\":6861:6898  msg.sender != getApproved[amountOrId] */\n      0xffffffffffffffffffffffffffffffffffffffff\n      and\n        /* \"ERC404.sol\":6861:6871  msg.sender */\n      caller\n        /* \"ERC404.sol\":6861:6898  msg.sender != getApproved[amountOrId] */\n      0xffffffffffffffffffffffffffffffffffffffff\n      and\n      eq\n      iszero\n        /* \"ERC404.sol\":6766:6898  msg.sender != from &&... */\n    tag_172:\n        /* \"ERC404.sol\":6744:6970  if (... */\n      iszero\n      tag_173\n      jumpi\n        /* \"ERC404.sol\":6940:6954  Unauthorized() */\n      mload(0x40)\n      0x82b4290000000000000000000000000000000000000000000000000000000000\n      dup2\n      mstore\n      0x04\n      add\n      mload(0x40)\n      dup1\n      swap2\n      sub\n      swap1\n      revert\n        /* \"ERC404.sol\":6744:6970  if (... */\n    tag_173:\n        /* \"ERC404.sol\":7005:7015  _getUnit() */\n      tag_174\n        /* \"ERC404.sol\":7005:7013  _getUnit */\n      tag_175\n        /* \"ERC404.sol\":7005:7015  _getUnit() */\n      jump\t// in\n    tag_174:\n        /* \"ERC404.sol\":6986:6995  balanceOf */\n      0x04\n        /* \"ERC404.sol\":6986:7001  balanceOf[from] */\n      0x00\n        /* \"ERC404.sol\":6996:7000  from */\n      dup6\n        /* \"ERC404.sol\":6986:7001  balanceOf[from] */\n      0xffffffffffffffffffffffffffffffffffffffff\n      and\n      0xffffffffffffffffffffffffffffffffffffffff\n      and\n      dup2\n      mstore\n      0x20\n      add\n      swap1\n      dup2\n      mstore\n      0x20\n      add\n      0x00\n      keccak256\n      0x00\n        /* \"ERC404.sol\":6986:7015  balanceOf[from] -= _getUnit() */\n      dup3\n      dup3\n      sload\n      tag_176\n      swap2\n      swap1\n      tag_177\n      jump\t// in\n    tag_176:\n      swap3\n      pop\n      pop\n      dup2\n      swap1\n      sstore\n      pop\n        /* \"ERC404.sol\":7078:7088  _getUnit() */\n      tag_178\n        /* \"ERC404.sol\":7078:7086  _getUnit */\n      tag_175\n        /* \"ERC404.sol\":7078:7088  _getUnit() */\n      jump\t// in\n    tag_178:\n        /* \"ERC404.sol\":7061:7070  balanceOf */\n      0x04\n        /* \"ERC404.sol\":7061:7074  balanceOf[to] */\n      0x00\n        /* \"ERC404.sol\":7071:7073  to */\n      dup5\n        /* \"ERC404.sol\":7061:7074  balanceOf[to] */\n      0xffffffffffffffffffffffffffffffffffffffff\n      and\n      0xffffffffffffffffffffffffffffffffffffffff\n      and\n      dup2\n      mstore\n      0x20\n      add\n      swap1\n      dup2\n      mstore\n      0x20\n      add\n      0x00\n      keccak256\n      0x00\n        /* \"ERC404.sol\":7061:7088  balanceOf[to] += _getUnit() */\n      dup3\n      dup3\n      sload\n      add\n      swap3\n      pop\n      pop\n      dup2\n      swap1\n      sstore\n      pop\n        /* \"ERC404.sol\":7143:7145  to */\n      dup2\n        /* \"ERC404.sol\":7120:7128  _ownerOf */\n      0x08\n        /* \"ERC404.sol\":7120:7140  _ownerOf[amountOrId] */\n      0x00\n        /* \"ERC404.sol\":7129:7139  amountOrId */\n      dup4\n        /* \"ERC404.sol\":7120:7140  _ownerOf[amountOrId] */\n      dup2\n      mstore\n      0x20\n      add\n      swap1\n      dup2\n      mstore\n      0x20\n      add\n      0x00\n      keccak256\n      0x00\n        /* \"ERC404.sol\":7120:7145  _ownerOf[amountOrId] = to */\n      0x0100\n      exp\n      dup2\n      sload\n      dup2\n      0xffffffffffffffffffffffffffffffffffffffff\n      mul\n      not\n      and\n      swap1\n      dup4\n      0xffffffffffffffffffffffffffffffffffffffff\n      and\n      mul\n      or\n      swap1\n      sstore\n      pop\n        /* \"ERC404.sol\":7167:7178  getApproved */\n      0x06\n        /* \"ERC404.sol\":7167:7190  getApproved[amountOrId] */\n      0x00\n        /* \"ERC404.sol\":7179:7189  amountOrId */\n      dup3\n        /* \"ERC404.sol\":7167:7190  getApproved[amountOrId] */\n      dup2\n      mstore\n      0x20\n      add\n      swap1\n      dup2\n      mstore\n      0x20\n      add\n      0x00\n      keccak256\n      0x00\n        /* \"ERC404.sol\":7160:7190  delete getApproved[amountOrId] */\n      0x0100\n      exp\n      dup2\n      sload\n      swap1\n      0xffffffffffffffffffffffffffffffffffffffff\n      mul\n      not\n      and\n      swap1\n      sstore\n        /* \"ERC404.sol\":7248:7265  uint256 updatedId */\n      0x00\n        /* \"ERC404.sol\":7268:7274  _owned */\n      0x09\n        /* \"ERC404.sol\":7268:7280  _owned[from] */\n      0x00\n        /* \"ERC404.sol\":7275:7279  from */\n      dup6\n        /* \"ERC404.sol\":7268:7280  _owned[from] */\n      0xffffffffffffffffffffffffffffffffffffffff\n      and\n      0xffffffffffffffffffffffffffffffffffffffff\n      and\n      dup2\n      mstore\n      0x20\n      add\n      swap1\n      dup2\n      mstore\n      0x20\n      add\n      0x00\n      keccak256\n        /* \"ERC404.sol\":7303:7304  1 */\n      0x01\n        /* \"ERC404.sol\":7281:7287  _owned */\n      0x09\n        /* \"ERC404.sol\":7281:7293  _owned[from] */\n      0x00\n        /* \"ERC404.sol\":7288:7292  from */\n      dup8\n        /* \"ERC404.sol\":7281:7293  _owned[from] */\n      0xffffffffffffffffffffffffffffffffffffffff\n      and\n      0xffffffffffffffffffffffffffffffffffffffff\n      and\n      dup2\n      mstore\n      0x20\n      add\n      swap1\n      dup2\n      mstore\n      0x20\n      add\n      0x00\n      keccak256\n        /* \"ERC404.sol\":7281:7300  _owned[from].length */\n      dup1\n      sload\n      swap1\n      pop\n        /* \"ERC404.sol\":7281:7304  _owned[from].length - 1 */\n      tag_179\n      swap2\n      swap1\n      tag_177\n      jump\t// in\n    tag_179:\n        /* \"ERC404.sol\":7268:7305  _owned[from][_owned[from].length - 1] */\n      dup2\n      sload\n      dup2\n      lt\n      tag_180\n      jumpi\n      tag_181\n      tag_182\n      jump\t// in\n    tag_181:\n    tag_180:\n      swap1\n      0x00\n      mstore\n      keccak256(0x00, 0x20)\n      add\n      sload\n        /* \"ERC404.sol\":7248:7305  uint256 updatedId = _owned[from][_owned[from].length - 1] */\n      swap1\n      pop\n        /* \"ERC404.sol\":7360:7369  updatedId */\n      dup1\n        /* \"ERC404.sol\":7320:7326  _owned */\n      0x09\n        /* \"ERC404.sol\":7320:7332  _owned[from] */\n      0x00\n        /* \"ERC404.sol\":7327:7331  from */\n      dup7\n        /* \"ERC404.sol\":7320:7332  _owned[from] */\n      0xffffffffffffffffffffffffffffffffffffffff\n      and\n      0xffffffffffffffffffffffffffffffffffffffff\n      and\n      dup2\n      mstore\n      0x20\n      add\n      swap1\n      dup2\n      mstore\n      0x20\n      add\n      0x00\n      keccak256\n        /* \"ERC404.sol\":7333:7344  _ownedIndex */\n      0x0a\n        /* \"ERC404.sol\":7333:7356  _ownedIndex[amountOrId] */\n      0x00\n        /* \"ERC404.sol\":7345:7355  amountOrId */\n      dup6\n        /* \"ERC404.sol\":7333:7356  _ownedIndex[amountOrId] */\n      dup2\n      mstore\n      0x20\n      add\n      swap1\n      dup2\n      mstore\n      0x20\n      add\n      0x00\n      keccak256\n      sload\n        /* \"ERC404.sol\":7320:7357  _owned[from][_ownedIndex[amountOrId]] */\n      dup2\n      sload\n      dup2\n      lt\n      tag_184\n      jumpi\n      tag_185\n      tag_182\n      jump\t// in\n    tag_185:\n    tag_184:\n      swap1\n      0x00\n      mstore\n      keccak256(0x00, 0x20)\n      add\n        /* \"ERC404.sol\":7320:7369  _owned[from][_ownedIndex[amountOrId]] = updatedId */\n      dup2\n      swap1\n      sstore\n      pop\n        /* \"ERC404.sol\":7404:7410  _owned */\n      0x09\n        /* \"ERC404.sol\":7404:7416  _owned[from] */\n      0x00\n        /* \"ERC404.sol\":7411:7415  from */\n      dup6\n        /* \"ERC404.sol\":7404:7416  _owned[from] */\n      0xffffffffffffffffffffffffffffffffffffffff\n      and\n      0xffffffffffffffffffffffffffffffffffffffff\n      and\n      dup2\n      mstore\n      0x20\n      add\n      swap1\n      dup2\n      mstore\n      0x20\n      add\n      0x00\n      keccak256\n        /* \"ERC404.sol\":7404:7422  _owned[from].pop() */\n      dup1\n      sload\n      dup1\n      tag_187\n      jumpi\n      tag_188\n      tag_189\n      jump\t// in\n    tag_188:\n    tag_187:\n      0x01\n      swap1\n      sub\n      dup2\n      dup2\n      swap1\n      0x00\n      mstore\n      keccak256(0x00, 0x20)\n      add\n      0x00\n      swap1\n      sstore\n      swap1\n      sstore\n        /* \"ERC404.sol\":7508:7519  _ownedIndex */\n      0x0a\n        /* \"ERC404.sol\":7508:7531  _ownedIndex[amountOrId] */\n      0x00\n        /* \"ERC404.sol\":7520:7530  amountOrId */\n      dup4\n        /* \"ERC404.sol\":7508:7531  _ownedIndex[amountOrId] */\n      dup2\n      mstore\n      0x20\n      add\n      swap1\n      dup2\n      mstore\n      0x20\n      add\n      0x00\n      keccak256\n      sload\n        /* \"ERC404.sol\":7483:7494  _ownedIndex */\n      0x0a\n        /* \"ERC404.sol\":7483:7505  _ownedIndex[updatedId] */\n      0x00\n        /* \"ERC404.sol\":7495:7504  updatedId */\n      dup4\n        /* \"ERC404.sol\":7483:7505  _ownedIndex[updatedId] */\n      dup2\n      mstore\n      0x20\n      add\n      swap1\n      dup2\n      mstore\n      0x20\n      add\n      0x00\n      keccak256\n        /* \"ERC404.sol\":7483:7531  _ownedIndex[updatedId] = _ownedIndex[amountOrId] */\n      dup2\n      swap1\n      sstore\n      pop\n        /* \"ERC404.sol\":7585:7591  _owned */\n      0x09\n        /* \"ERC404.sol\":7585:7595  _owned[to] */\n      0x00\n        /* \"ERC404.sol\":7592:7594  to */\n      dup5\n        /* \"ERC404.sol\":7585:7595  _owned[to] */\n      0xffffffffffffffffffffffffffffffffffffffff\n      and\n      0xffffffffffffffffffffffffffffffffffffffff\n      and\n      dup2\n      mstore\n      0x20\n      add\n      swap1\n      dup2\n      mstore\n      0x20\n      add\n      0x00\n      keccak256\n        /* \"ERC404.sol\":7601:7611  amountOrId */\n      dup3\n        /* \"ERC404.sol\":7585:7612  _owned[to].push(amountOrId) */\n      swap1\n      dup1\n      0x01\n      dup2\n      sload\n      add\n      dup1\n      dup3\n      sstore\n      dup1\n      swap2\n      pop\n      pop\n      0x01\n      swap1\n      sub\n      swap1\n      0x00\n      mstore\n      keccak256(0x00, 0x20)\n      add\n      0x00\n      swap1\n      swap2\n      swap1\n      swap2\n      swap1\n      swap2\n      pop\n      sstore\n        /* \"ERC404.sol\":7715:7716  1 */\n      0x01\n        /* \"ERC404.sol\":7695:7701  _owned */\n      0x09\n        /* \"ERC404.sol\":7695:7705  _owned[to] */\n      0x00\n        /* \"ERC404.sol\":7702:7704  to */\n      dup6\n        /* \"ERC404.sol\":7695:7705  _owned[to] */\n      0xffffffffffffffffffffffffffffffffffffffff\n      and\n      0xffffffffffffffffffffffffffffffffffffffff\n      and\n      dup2\n      mstore\n      0x20\n      add\n      swap1\n      dup2\n      mstore\n      0x20\n      add\n      0x00\n      keccak256\n        /* \"ERC404.sol\":7695:7712  _owned[to].length */\n      dup1\n      sload\n      swap1\n      pop\n        /* \"ERC404.sol\":7695:7716  _owned[to].length - 1 */\n      tag_192\n      swap2\n      swap1\n      tag_177\n      jump\t// in\n    tag_192:\n        /* \"ERC404.sol\":7669:7680  _ownedIndex */\n      0x0a\n        /* \"ERC404.sol\":7669:7692  _ownedIndex[amountOrId] */\n      0x00\n        /* \"ERC404.sol\":7681:7691  amountOrId */\n      dup5\n        /* \"ERC404.sol\":7669:7692  _ownedIndex[amountOrId] */\n      dup2\n      mstore\n      0x20\n      add\n      swap1\n      dup2\n      mstore\n      0x20\n      add\n      0x00\n      keccak256\n        /* \"ERC404.sol\":7669:7716  _ownedIndex[amountOrId] = _owned[to].length - 1 */\n      dup2\n      swap1\n      sstore\n      pop\n        /* \"ERC404.sol\":7757:7767  amountOrId */\n      dup2\n        /* \"ERC404.sol\":7753:7755  to */\n      dup4\n        /* \"ERC404.sol\":7738:7768  Transfer(from, to, amountOrId) */\n      0xffffffffffffffffffffffffffffffffffffffff\n      and\n        /* \"ERC404.sol\":7747:7751  from */\n      dup6\n        /* \"ERC404.sol\":7738:7768  Transfer(from, to, amountOrId) */\n      0xffffffffffffffffffffffffffffffffffffffff\n      and\n      0xddf252ad1be2c89b69c2b068fc378daa952ba7f163c4a11628f55a4df523b3ef\n      mload(0x40)\n      mload(0x40)\n      dup1\n      swap2\n      sub\n      swap1\n      log4\n        /* \"ERC404.sol\":7808:7810  to */\n      dup3\n        /* \"ERC404.sol\":7788:7823  ERC20Transfer(from, to, _getUnit()) */\n      0xffffffffffffffffffffffffffffffffffffffff\n      and\n        /* \"ERC404.sol\":7802:7806  from */\n      dup5\n        /* \"ERC404.sol\":7788:7823  ERC20Transfer(from, to, _getUnit()) */\n      0xffffffffffffffffffffffffffffffffffffffff\n      and\n      0xe59fdd36d0d223c0c7d996db7ad796880f45e1936cb0bb7ac102e7082e031487\n        /* \"ERC404.sol\":7812:7822  _getUnit() */\n      tag_193\n        /* \"ERC404.sol\":7812:7820  _getUnit */\n      tag_175\n        /* \"ERC404.sol\":7812:7822  _getUnit() */\n      jump\t// in\n    tag_193:\n        /* \"ERC404.sol\":7788:7823  ERC20Transfer(from, to, _getUnit()) */\n      mload(0x40)\n      tag_194\n      swap2\n      swap1\n      tag_58\n      jump\t// in\n    tag_194:\n      mload(0x40)\n      dup1\n      swap2\n      sub\n      swap1\n      log3\n        /* \"ERC404.sol\":6524:7835  {... */\n      pop\n        /* \"ERC404.sol\":6498:8079  if (amountOrId <= minted) {... */\n      jump(tag_195)\n    tag_168:\n        /* \"ERC404.sol\":7856:7871  uint256 allowed */\n      0x00\n        /* \"ERC404.sol\":7874:7883  allowance */\n      0x05\n        /* \"ERC404.sol\":7874:7889  allowance[from] */\n      0x00\n        /* \"ERC404.sol\":7884:7888  from */\n      dup6\n        /* \"ERC404.sol\":7874:7889  allowance[from] */\n      0xffffffffffffffffffffffffffffffffffffffff\n      and\n      0xffffffffffffffffffffffffffffffffffffffff\n      and\n      dup2\n      mstore\n      0x20\n      add\n      swap1\n      dup2\n      mstore\n      0x20\n      add\n      0x00\n      keccak256\n        /* \"ERC404.sol\":7874:7901  allowance[from][msg.sender] */\n      0x00\n        /* \"ERC404.sol\":7890:7900  msg.sender */\n      caller\n        /* \"ERC404.sol\":7874:7901  allowance[from][msg.sender] */\n      0xffffffffffffffffffffffffffffffffffffffff\n      and\n      0xffffffffffffffffffffffffffffffffffffffff\n      and\n      dup2\n      mstore\n      0x20\n      add\n      swap1\n      dup2\n      mstore\n      0x20\n      add\n      0x00\n      keccak256\n      sload\n        /* \"ERC404.sol\":7856:7901  uint256 allowed = allowance[from][msg.sender] */\n      swap1\n      pop\n        /* \"ERC404.sol\":7933:7950  type(uint256).max */\n      0xffffffffffffffffffffffffffffffffffffffffffffffffffffffffffffffff\n        /* \"ERC404.sol\":7922:7929  allowed */\n      dup2\n        /* \"ERC404.sol\":7922:7950  allowed != type(uint256).max */\n      eq\n        /* \"ERC404.sol\":7918:8019  if (allowed != type(uint256).max)... */\n      tag_196\n      jumpi\n        /* \"ERC404.sol\":8009:8019  amountOrId */\n      dup2\n        /* \"ERC404.sol\":7999:8006  allowed */\n      dup2\n        /* \"ERC404.sol\":7999:8019  allowed - amountOrId */\n      tag_197\n      swap2\n      swap1\n      tag_177\n      jump\t// in\n    tag_197:\n        /* \"ERC404.sol\":7969:7978  allowance */\n      0x05\n        /* \"ERC404.sol\":7969:7984  allowance[from] */\n      0x00\n        /* \"ERC404.sol\":7979:7983  from */\n      dup7\n        /* \"ERC404.sol\":7969:7984  allowance[from] */\n      0xffffffffffffffffffffffffffffffffffffffff\n      and\n      0xffffffffffffffffffffffffffffffffffffffff\n      and\n      dup2\n      mstore\n      0x20\n      add\n      swap1\n      dup2\n      mstore\n      0x20\n      add\n      0x00\n      keccak256\n        /* \"ERC404.sol\":7969:7996  allowance[from][msg.sender] */\n      0x00\n        /* \"ERC404.sol\":7985:7995  msg.sender */\n      caller\n        /* \"ERC404.sol\":7969:7996  allowance[from][msg.sender] */\n      0xffffffffffffffffffffffffffffffffffffffff\n      and\n      0xffffffffffffffffffffffffffffffffffffffff\n      and\n      dup2\n      mstore\n      0x20\n      add\n      swap1\n      dup2\n      mstore\n      0x20\n      add\n      0x00\n      keccak256\n        /* \"ERC404.sol\":7969:8019  allowance[from][msg.sender] = allowed - amountOrId */\n      dup2\n      swap1\n      sstore\n      pop\n        /* \"ERC404.sol\":7918:8019  if (allowed != type(uint256).max)... */\n    tag_196:\n        /* \"ERC404.sol\":8036:8067  _transfer(from, to, amountOrId) */\n      tag_198\n        /* \"ERC404.sol\":8046:8050  from */\n      dup5\n        /* \"ERC404.sol\":8052:8054  to */\n      dup5\n        /* \"ERC404.sol\":8056:8066  amountOrId */\n      dup5\n        /* \"ERC404.sol\":8036:8045  _transfer */\n      tag_199\n        /* \"ERC404.sol\":8036:8067  _transfer(from, to, amountOrId) */\n      jump\t// in\n    tag_198:\n      pop\n        /* \"ERC404.sol\":7841:8079  {... */\n      pop\n        /* \"ERC404.sol\":6498:8079  if (amountOrId <= minted) {... */\n    tag_195:\n        /* \"ERC404.sol\":6370:8086  function transferFrom(... */\n      pop\n      pop\n      pop\n      jump\t// out\n        /* \"ERC404.sol\":778:927  function revokeOwnership() public virtual onlyOwner {... */\n    tag_68:\n        /* \"ERC404.sol\":316:321  owner */\n      0x00\n      dup1\n      sload\n      swap1\n      0x0100\n      exp\n      swap1\n      div\n      0xffffffffffffffffffffffffffffffffffffffff\n      and\n        /* \"ERC404.sol\":302:321  msg.sender != owner */\n      0xffffffffffffffffffffffffffffffffffffffff\n      and\n        /* \"ERC404.sol\":302:312  msg.sender */\n      caller\n        /* \"ERC404.sol\":302:321  msg.sender != owner */\n      0xffffffffffffffffffffffffffffffffffffffff\n      and\n      eq\n        /* \"ERC404.sol\":298:344  if (msg.sender != owner) revert Unauthorized() */\n      tag_201\n      jumpi\n        /* \"ERC404.sol\":330:344  Unauthorized() */\n      mload(0x40)\n      0x82b4290000000000000000000000000000000000000000000000000000000000\n      dup2\n      mstore\n      0x04\n      add\n      mload(0x40)\n      dup1\n      swap2\n      sub\n      swap1\n      revert\n        /* \"ERC404.sol\":298:344  if (msg.sender != owner) revert Unauthorized() */\n    tag_201:\n        /* \"ERC404.sol\":857:858  0 */\n      0x00\n        /* \"ERC404.sol\":841:846  owner */\n      dup1\n      0x00\n        /* \"ERC404.sol\":841:859  owner = address(0) */\n      0x0100\n      exp\n      dup2\n      sload\n      dup2\n      0xffffffffffffffffffffffffffffffffffffffff\n      mul\n      not\n      and\n      swap1\n      dup4\n      0xffffffffffffffffffffffffffffffffffffffff\n      and\n      mul\n      or\n      swap1\n      sstore\n      pop\n        /* \"ERC404.sol\":916:917  0 */\n      0x00\n        /* \"ERC404.sol\":875:919  OwnershipTransferred(msg.sender, address(0)) */\n      0xffffffffffffffffffffffffffffffffffffffff\n      and\n        /* \"ERC404.sol\":896:906  msg.sender */\n      caller\n        /* \"ERC404.sol\":875:919  OwnershipTransferred(msg.sender, address(0)) */\n      0xffffffffffffffffffffffffffffffffffffffff\n      and\n      0x8be0079c531659141344cd1fd0a4f28419497f9722a3daafe3b4186f6b6457e0\n      mload(0x40)\n      mload(0x40)\n      dup1\n      swap2\n      sub\n      swap1\n      log3\n        /* \"ERC404.sol\":778:927  function revokeOwnership() public virtual onlyOwner {... */\n      jump\t// out\n        /* \"ERC404.sol\":2915:2946  uint8 public immutable decimals */\n    tag_70:\n      immutable(\"0x8daa2fd0bd035dbe856aeb0cf4a9c58ddc36a58ca2b562643b5027489d09ec1b\")\n      dup2\n      jump\t// out\n        /* \"ERC404.sol\":8382:8787  function safeTransferFrom(... */\n    tag_75:\n        /* \"ERC404.sol\":8506:8532  transferFrom(from, to, id) */\n      tag_204\n        /* \"ERC404.sol\":8519:8523  from */\n      dup4\n        /* \"ERC404.sol\":8525:8527  to */\n      dup4\n        /* \"ERC404.sol\":8529:8531  id */\n      dup4\n        /* \"ERC404.sol\":8506:8518  transferFrom */\n      tag_66\n        /* \"ERC404.sol\":8506:8532  transferFrom(from, to, id) */\n      jump\t// in\n    tag_204:\n        /* \"ERC404.sol\":8581:8582  0 */\n      0x00\n        /* \"ERC404.sol\":8563:8565  to */\n      dup3\n        /* \"ERC404.sol\":8563:8577  to.code.length */\n      0xffffffffffffffffffffffffffffffffffffffff\n      and\n      extcodesize\n        /* \"ERC404.sol\":8563:8582  to.code.length != 0 */\n      eq\n      iszero\n        /* \"ERC404.sol\":8563:8717  to.code.length != 0 &&... */\n      dup1\n      iszero\n      tag_205\n      jumpi\n      pop\n        /* \"ERC404.sol\":8677:8717  ERC721Receiver.onERC721Received.selector */\n      shl(0xe0, 0x150b7a02)\n        /* \"ERC404.sol\":8599:8717  ERC721Receiver(to).onERC721Received(msg.sender, from, id, \"\") !=... */\n      not(0xffffffffffffffffffffffffffffffffffffffffffffffffffffffff)\n      and\n        /* \"ERC404.sol\":8614:8616  to */\n      dup3\n        /* \"ERC404.sol\":8599:8634  ERC721Receiver(to).onERC721Received */\n      0xffffffffffffffffffffffffffffffffffffffff\n      and\n      0x150b7a02\n        /* \"ERC404.sol\":8635:8645  msg.sender */\n      caller\n        /* \"ERC404.sol\":8647:8651  from */\n      dup7\n        /* \"ERC404.sol\":8653:8655  id */\n      dup6\n        /* \"ERC404.sol\":8599:8660  ERC721Receiver(to).onERC721Received(msg.sender, from, id, \"\") */\n      mload(0x40)\n      dup5\n      0xffffffff\n      and\n      0xe0\n      shl\n      dup2\n      mstore\n      0x04\n      add\n      tag_206\n      swap4\n      swap3\n      swap2\n      swap1\n      tag_207\n      jump\t// in\n    tag_206:\n      0x20\n      mload(0x40)\n      dup1\n      dup4\n      sub\n      dup2\n      0x00\n      dup8\n      gas\n      call\n      iszero\n      dup1\n      iszero\n      tag_209\n      jumpi\n      returndatasize\n      0x00\n      dup1\n      returndatacopy\n      revert(0x00, returndatasize)\n    tag_209:\n      pop\n      pop\n      pop\n      pop\n      mload(0x40)\n      returndatasize\n      not(0x1f)\n      0x1f\n      dup3\n      add\n      and\n      dup3\n      add\n      dup1\n      0x40\n      mstore\n      pop\n      dup2\n      add\n      swap1\n      tag_210\n      swap2\n      swap1\n      tag_211\n      jump\t// in\n    tag_210:\n        /* \"ERC404.sol\":8599:8717  ERC721Receiver(to).onERC721Received(msg.sender, from, id, \"\") !=... */\n      not(0xffffffffffffffffffffffffffffffffffffffffffffffffffffffff)\n      and\n      eq\n      iszero\n        /* \"ERC404.sol\":8563:8717  to.code.length != 0 &&... */\n    tag_205:\n        /* \"ERC404.sol\":8545:8780  if (... */\n      iszero\n      tag_212\n      jumpi\n        /* \"ERC404.sol\":8751:8768  UnsafeRecipient() */\n      mload(0x40)\n      0x3da6393100000000000000000000000000000000000000000000000000000000\n      dup2\n      mstore\n      0x04\n      add\n      mload(0x40)\n      dup1\n      swap2\n      sub\n      swap1\n      revert\n        /* \"ERC404.sol\":8545:8780  if (... */\n    tag_212:\n        /* \"ERC404.sol\":8382:8787  function safeTransferFrom(... */\n      pop\n      pop\n      pop\n      jump\t// out\n        /* \"ERC404.sol\":3150:3171  uint256 public minted */\n    tag_77:\n      sload(0x03)\n      dup2\n      jump\t// out\n        /* \"ERC404Test.sol\":669:802  function setNameSymbol(string memory _name, string memory _symbol) public onlyOwner {... */\n    tag_82:\n        /* \"ERC404.sol\":316:321  owner */\n      0x00\n      dup1\n      sload\n      swap1\n      0x0100\n      exp\n      swap1\n      div\n      0xffffffffffffffffffffffffffffffffffffffff\n      and\n        /* \"ERC404.sol\":302:321  msg.sender != owner */\n      0xffffffffffffffffffffffffffffffffffffffff\n      and\n        /* \"ERC404.sol\":302:312  msg.sender */\n      caller\n        /* \"ERC404.sol\":302:321  msg.sender != owner */\n      0xffffffffffffffffffffffffffffffffffffffff\n      and\n      eq\n        /* \"ERC404.sol\":298:344  if (msg.sender != owner) revert Unauthorized() */\n      tag_214\n      jumpi\n        /* \"ERC404.sol\":330:344  Unauthorized() */\n      mload(0x40)\n      0x82b4290000000000000000000000000000000000000000000000000000000000\n      dup2\n      mstore\n      0x04\n      add\n      mload(0x40)\n      dup1\n      swap2\n      sub\n      swap1\n      revert\n        /* \"ERC404.sol\":298:344  if (msg.sender != owner) revert Unauthorized() */\n    tag_214:\n        /* \"ERC404Test.sol\":764:794  _setNameSymbol(_name, _symbol) */\n      tag_216\n        /* \"ERC404Test.sol\":779:784  _name */\n      dup3\n        /* \"ERC404Test.sol\":786:793  _symbol */\n      dup3\n        /* \"ERC404Test.sol\":764:778  _setNameSymbol */\n      tag_217\n        /* \"ERC404Test.sol\":764:794  _setNameSymbol(_name, _symbol) */\n      jump\t// in\n    tag_216:\n        /* \"ERC404Test.sol\":669:802  function setNameSymbol(string memory _name, string memory _symbol) public onlyOwner {... */\n      pop\n      pop\n      jump\t// out\n        /* \"ERC404.sol\":4650:4761  function setWhitelist(address target, bool state) public onlyOwner {... */\n    tag_86:\n        /* \"ERC404.sol\":316:321  owner */\n      0x00\n      dup1\n      sload\n      swap1\n      0x0100\n      exp\n      swap1\n      div\n      0xffffffffffffffffffffffffffffffffffffffff\n      and\n        /* \"ERC404.sol\":302:321  msg.sender != owner */\n      0xffffffffffffffffffffffffffffffffffffffff\n      and\n        /* \"ERC404.sol\":302:312  msg.sender */\n      caller\n        /* \"ERC404.sol\":302:321  msg.sender != owner */\n      0xffffffffffffffffffffffffffffffffffffffff\n      and\n      eq\n        /* \"ERC404.sol\":298:344  if (msg.sender != owner) revert Unauthorized() */\n      tag_219\n      jumpi\n        /* \"ERC404.sol\":330:344  Unauthorized() */\n      mload(0x40)\n      0x82b4290000000000000000000000000000000000000000000000000000000000\n      dup2\n      mstore\n      0x04\n      add\n      mload(0x40)\n      dup1\n      swap2\n      sub\n      swap1\n      revert\n        /* \"ERC404.sol\":298:344  if (msg.sender != owner) revert Unauthorized() */\n    tag_219:\n        /* \"ERC404.sol\":4748:4753  state */\n      dup1\n        /* \"ERC404.sol\":4728:4737  whitelist */\n      0x0b\n        /* \"ERC404.sol\":4728:4745  whitelist[target] */\n      0x00\n        /* \"ERC404.sol\":4738:4744  target */\n      dup5\n        /* \"ERC404.sol\":4728:4745  whitelist[target] */\n      0xffffffffffffffffffffffffffffffffffffffff\n      and\n      0xffffffffffffffffffffffffffffffffffffffff\n      and\n      dup2\n      mstore\n      0x20\n      add\n      swap1\n      dup2\n      mstore\n      0x20\n      add\n      0x00\n      keccak256\n      0x00\n        /* \"ERC404.sol\":4728:4753  whitelist[target] = state */\n      0x0100\n      exp\n      dup2\n      sload\n      dup2\n      0xff\n      mul\n      not\n      and\n      swap1\n      dup4\n      iszero\n      iszero\n      mul\n      or\n      swap1\n      sstore\n      pop\n        /* \"ERC404.sol\":4650:4761  function setWhitelist(address target, bool state) public onlyOwner {... */\n      pop\n      pop\n      jump\t// out\n        /* \"ERC404.sol\":4833:5026  function ownerOf(uint256 id) public view virtual returns (address owner) {... */\n    tag_89:\n        /* \"ERC404.sol\":4891:4904  address owner */\n      0x00\n        /* \"ERC404.sol\":4925:4933  _ownerOf */\n      0x08\n        /* \"ERC404.sol\":4925:4937  _ownerOf[id] */\n      0x00\n        /* \"ERC404.sol\":4934:4936  id */\n      dup4\n        /* \"ERC404.sol\":4925:4937  _ownerOf[id] */\n      dup2\n      mstore\n      0x20\n      add\n      swap1\n      dup2\n      mstore\n      0x20\n      add\n      0x00\n      keccak256\n      0x00\n      swap1\n      sload\n      swap1\n      0x0100\n      exp\n      swap1\n      div\n      0xffffffffffffffffffffffffffffffffffffffff\n      and\n        /* \"ERC404.sol\":4917:4937  owner = _ownerOf[id] */\n      swap1\n      pop\n        /* \"ERC404.sol\":4971:4972  0 */\n      0x00\n        /* \"ERC404.sol\":4954:4973  owner == address(0) */\n      0xffffffffffffffffffffffffffffffffffffffff\n      and\n        /* \"ERC404.sol\":4954:4959  owner */\n      dup2\n        /* \"ERC404.sol\":4954:4973  owner == address(0) */\n      0xffffffffffffffffffffffffffffffffffffffff\n      and\n      sub\n        /* \"ERC404.sol\":4950:5019  if (owner == address(0)) {... */\n      tag_222\n      jumpi\n        /* \"ERC404.sol\":4997:5007  NotFound() */\n      mload(0x40)\n      0xc5723b5100000000000000000000000000000000000000000000000000000000\n      dup2\n      mstore\n      0x04\n      add\n      mload(0x40)\n      dup1\n      swap2\n      sub\n      swap1\n      revert\n        /* \"ERC404.sol\":4950:5019  if (owner == address(0)) {... */\n    tag_222:\n        /* \"ERC404.sol\":4833:5026  function ownerOf(uint256 id) public view virtual returns (address owner) {... */\n      swap2\n      swap1\n      pop\n      jump\t// out\n        /* \"ERC404.sol\":3256:3300  mapping(address => uint256) public balanceOf */\n    tag_94:\n      mstore(0x20, 0x04)\n      dup1\n      0x00\n      mstore\n      keccak256(0x00, 0x40)\n      0x00\n      swap2\n      pop\n      swap1\n      pop\n      sload\n      dup2\n      jump\t// out\n        /* \"ERC404.sol\":229:249  address public owner */\n    tag_97:\n      0x00\n      dup1\n      sload\n      swap1\n      0x0100\n      exp\n      swap1\n      div\n      0xffffffffffffffffffffffffffffffffffffffff\n      and\n      dup2\n      jump\t// out\n        /* \"ERC404.sol\":2833:2853  string public symbol */\n    tag_100:\n      0x02\n      dup1\n      sload\n      tag_223\n      swap1\n      tag_149\n      jump\t// in\n    tag_223:\n      dup1\n      0x1f\n      add\n      0x20\n      dup1\n      swap2\n      div\n      mul\n      0x20\n      add\n      mload(0x40)\n      swap1\n      dup2\n      add\n      0x40\n      mstore\n      dup1\n      swap3\n      swap2\n      swap1\n      dup2\n      dup2\n      mstore\n      0x20\n      add\n      dup3\n      dup1\n      sload\n      tag_224\n      swap1\n      tag_149\n      jump\t// in\n    tag_224:\n      dup1\n      iszero\n      tag_225\n      jumpi\n      dup1\n      0x1f\n      lt\n      tag_226\n      jumpi\n      0x0100\n      dup1\n      dup4\n      sload\n      div\n      mul\n      dup4\n      mstore\n      swap2\n      0x20\n      add\n      swap2\n      jump(tag_225)\n    tag_226:\n      dup3\n      add\n      swap2\n      swap1\n      0x00\n      mstore\n      keccak256(0x00, 0x20)\n      swap1\n    tag_227:\n      dup2\n      sload\n      dup2\n      mstore\n      swap1\n      0x01\n      add\n      swap1\n      0x20\n      add\n      dup1\n      dup4\n      gt\n      tag_227\n      jumpi\n      dup3\n      swap1\n      sub\n      0x1f\n      and\n      dup3\n      add\n      swap2\n    tag_225:\n      pop\n      pop\n      pop\n      pop\n      pop\n      dup2\n      jump\t// out\n        /* \"ERC404.sol\":4101:4142  mapping(address => bool) public whitelist */\n    tag_104:\n      mstore(0x20, 0x0b)\n      dup1\n      0x00\n      mstore\n      keccak256(0x00, 0x40)\n      0x00\n      swap2\n      pop\n      sload\n      swap1\n      0x0100\n      exp\n      swap1\n      div\n      0xff\n      and\n      dup2\n      jump\t// out\n        /* \"ERC404.sol\":6014:6221  function setApprovalForAll(address operator, bool approved) public virtual {... */\n    tag_108:\n        /* \"ERC404.sol\":6141:6149  approved */\n      dup1\n        /* \"ERC404.sol\":6100:6116  isApprovedForAll */\n      0x07\n        /* \"ERC404.sol\":6100:6128  isApprovedForAll[msg.sender] */\n      0x00\n        /* \"ERC404.sol\":6117:6127  msg.sender */\n      caller\n        /* \"ERC404.sol\":6100:6128  isApprovedForAll[msg.sender] */\n      0xffffffffffffffffffffffffffffffffffffffff\n      and\n      0xffffffffffffffffffffffffffffffffffffffff\n      and\n      dup2\n      mstore\n      0x20\n      add\n      swap1\n      dup2\n      mstore\n      0x20\n      add\n      0x00\n      keccak256\n        /* \"ERC404.sol\":6100:6138  isApprovedForAll[msg.sender][operator] */\n      0x00\n        /* \"ERC404.sol\":6129:6137  operator */\n      dup5\n        /* \"ERC404.sol\":6100:6138  isApprovedForAll[msg.sender][operator] */\n      0xffffffffffffffffffffffffffffffffffffffff\n      and\n      0xffffffffffffffffffffffffffffffffffffffff\n      and\n      dup2\n      mstore\n      0x20\n      add\n      swap1\n      dup2\n      mstore\n      0x20\n      add\n      0x00\n      keccak256\n      0x00\n        /* \"ERC404.sol\":6100:6149  isApprovedForAll[msg.sender][operator] = approved */\n      0x0100\n      exp\n      dup2\n      sload\n      dup2\n      0xff\n      mul\n      not\n      and\n      swap1\n      dup4\n      iszero\n      iszero\n      mul\n      or\n      swap1\n      sstore\n      pop\n        /* \"ERC404.sol\":6194:6202  operator */\n      dup2\n        /* \"ERC404.sol\":6167:6213  ApprovalForAll(msg.sender, operator, approved) */\n      0xffffffffffffffffffffffffffffffffffffffff\n      and\n        /* \"ERC404.sol\":6182:6192  msg.sender */\n      caller\n        /* \"ERC404.sol\":6167:6213  ApprovalForAll(msg.sender, operator, approved) */\n      0xffffffffffffffffffffffffffffffffffffffff\n      and\n      0x17307eab39ab6107e8899845ad3d59bd9653f200f220920489ca2b5937696c31\n        /* \"ERC404.sol\":6204:6212  approved */\n      dup4\n        /* \"ERC404.sol\":6167:6213  ApprovalForAll(msg.sender, operator, approved) */\n      mload(0x40)\n      tag_229\n      swap2\n      swap1\n      tag_54\n      jump\t// in\n    tag_229:\n      mload(0x40)\n      dup1\n      swap2\n      sub\n      swap1\n      log3\n        /* \"ERC404.sol\":6014:6221  function setApprovalForAll(address operator, bool approved) public virtual {... */\n      pop\n      pop\n      jump\t// out\n        /* \"ERC404.sol\":8145:8305  function transfer(... */\n    tag_111:\n        /* \"ERC404.sol\":8240:8244  bool */\n      0x00\n        /* \"ERC404.sol\":8264:8297  _transfer(msg.sender, to, amount) */\n      tag_231\n        /* \"ERC404.sol\":8274:8284  msg.sender */\n      caller\n        /* \"ERC404.sol\":8286:8288  to */\n      dup5\n        /* \"ERC404.sol\":8290:8296  amount */\n      dup5\n        /* \"ERC404.sol\":8264:8273  _transfer */\n      tag_199\n        /* \"ERC404.sol\":8264:8297  _transfer(msg.sender, to, amount) */\n      jump\t// in\n    tag_231:\n        /* \"ERC404.sol\":8257:8297  return _transfer(msg.sender, to, amount) */\n      swap1\n      pop\n        /* \"ERC404.sol\":8145:8305  function transfer(... */\n      swap3\n      swap2\n      pop\n      pop\n      jump\t// out\n        /* \"ERC404.sol\":8882:9319  function safeTransferFrom(... */\n    tag_116:\n        /* \"ERC404.sol\":9036:9062  transferFrom(from, to, id) */\n      tag_233\n        /* \"ERC404.sol\":9049:9053  from */\n      dup6\n        /* \"ERC404.sol\":9055:9057  to */\n      dup6\n        /* \"ERC404.sol\":9059:9061  id */\n      dup6\n        /* \"ERC404.sol\":9036:9048  transferFrom */\n      tag_66\n        /* \"ERC404.sol\":9036:9062  transferFrom(from, to, id) */\n      jump\t// in\n    tag_233:\n        /* \"ERC404.sol\":9111:9112  0 */\n      0x00\n        /* \"ERC404.sol\":9093:9095  to */\n      dup5\n        /* \"ERC404.sol\":9093:9107  to.code.length */\n      0xffffffffffffffffffffffffffffffffffffffff\n      and\n      extcodesize\n        /* \"ERC404.sol\":9093:9112  to.code.length != 0 */\n      eq\n      iszero\n        /* \"ERC404.sol\":9093:9249  to.code.length != 0 &&... */\n      dup1\n      iszero\n      tag_234\n      jumpi\n      pop\n        /* \"ERC404.sol\":9209:9249  ERC721Receiver.onERC721Received.selector */\n      shl(0xe0, 0x150b7a02)\n        /* \"ERC404.sol\":9129:9249  ERC721Receiver(to).onERC721Received(msg.sender, from, id, data) !=... */\n      not(0xffffffffffffffffffffffffffffffffffffffffffffffffffffffff)\n      and\n        /* \"ERC404.sol\":9144:9146  to */\n      dup5\n        /* \"ERC404.sol\":9129:9164  ERC721Receiver(to).onERC721Received */\n      0xffffffffffffffffffffffffffffffffffffffff\n      and\n      0x150b7a02\n        /* \"ERC404.sol\":9165:9175  msg.sender */\n      caller\n        /* \"ERC404.sol\":9177:9181  from */\n      dup9\n        /* \"ERC404.sol\":9183:9185  id */\n      dup8\n        /* \"ERC404.sol\":9187:9191  data */\n      dup8\n      dup8\n        /* \"ERC404.sol\":9129:9192  ERC721Receiver(to).onERC721Received(msg.sender, from, id, data) */\n      mload(0x40)\n      dup7\n      0xffffffff\n      and\n      0xe0\n      shl\n      dup2\n      mstore\n      0x04\n      add\n      tag_235\n      swap6\n      swap5\n      swap4\n      swap3\n      swap2\n      swap1\n      tag_236\n      jump\t// in\n    tag_235:\n      0x20\n      mload(0x40)\n      dup1\n      dup4\n      sub\n      dup2\n      0x00\n      dup8\n      gas\n      call\n      iszero\n      dup1\n      iszero\n      tag_238\n      jumpi\n      returndatasize\n      0x00\n      dup1\n      returndatacopy\n      revert(0x00, returndatasize)\n    tag_238:\n      pop\n      pop\n      pop\n      pop\n      mload(0x40)\n      returndatasize\n      not(0x1f)\n      0x1f\n      dup3\n      add\n      and\n      dup3\n      add\n      dup1\n      0x40\n      mstore\n      pop\n      dup2\n      add\n      swap1\n      tag_239\n      swap2\n      swap1\n      tag_211\n      jump\t// in\n    tag_239:\n        /* \"ERC404.sol\":9129:9249  ERC721Receiver(to).onERC721Received(msg.sender, from, id, data) !=... */\n      not(0xffffffffffffffffffffffffffffffffffffffffffffffffffffffff)\n      and\n      eq\n      iszero\n        /* \"ERC404.sol\":9093:9249  to.code.length != 0 &&... */\n    tag_234:\n        /* \"ERC404.sol\":9075:9312  if (... */\n      iszero\n      tag_240\n      jumpi\n        /* \"ERC404.sol\":9283:9300  UnsafeRecipient() */\n      mload(0x40)\n      0x3da6393100000000000000000000000000000000000000000000000000000000\n      dup2\n      mstore\n      0x04\n      add\n      mload(0x40)\n      dup1\n      swap2\n      sub\n      swap1\n      revert\n        /* \"ERC404.sol\":9075:9312  if (... */\n    tag_240:\n        /* \"ERC404.sol\":8882:9319  function safeTransferFrom(... */\n      pop\n      pop\n      pop\n      pop\n      pop\n      jump\t// out\n        /* \"ERC404Test.sol\":1648:1764  function setMetaDescription(string memory _metaDesc) public onlyOwner {... */\n    tag_119:\n        /* \"ERC404.sol\":316:321  owner */\n      0x00\n      dup1\n      sload\n      swap1\n      0x0100\n      exp\n      swap1\n      div\n      0xffffffffffffffffffffffffffffffffffffffff\n      and\n        /* \"ERC404.sol\":302:321  msg.sender != owner */\n      0xffffffffffffffffffffffffffffffffffffffff\n      and\n        /* \"ERC404.sol\":302:312  msg.sender */\n      caller\n        /* \"ERC404.sol\":302:321  msg.sender != owner */\n      0xffffffffffffffffffffffffffffffffffffffff\n      and\n      eq\n        /* \"ERC404.sol\":298:344  if (msg.sender != owner) revert Unauthorized() */\n      tag_242\n      jumpi\n        /* \"ERC404.sol\":330:344  Unauthorized() */\n      mload(0x40)\n      0x82b4290000000000000000000000000000000000000000000000000000000000\n      dup2\n      mstore\n      0x04\n      add\n      mload(0x40)\n      dup1\n      swap2\n      sub\n      swap1\n      revert\n        /* \"ERC404.sol\":298:344  if (msg.sender != owner) revert Unauthorized() */\n    tag_242:\n        /* \"ERC404Test.sol\":1747:1756  _metaDesc */\n      dup1\n        /* \"ERC404Test.sol\":1729:1744  metaDescription */\n      0x0e\n        /* \"ERC404Test.sol\":1729:1756  metaDescription = _metaDesc */\n      swap1\n      dup2\n      tag_244\n      swap2\n      swap1\n      tag_166\n      jump\t// in\n    tag_244:\n      pop\n        /* \"ERC404Test.sol\":1648:1764  function setMetaDescription(string memory _metaDesc) public onlyOwner {... */\n      pop\n      jump\t// out\n        /* \"ERC404Test.sol\":1772:2766  function tokenURI(uint256 id) public view override returns (string memory) {... */\n    tag_122:\n        /* \"ERC404Test.sol\":1832:1845  string memory */\n      0x60\n        /* \"ERC404Test.sol\":1891:1892  0 */\n      0x00\n        /* \"ERC404Test.sol\":1868:1880  baseTokenURI */\n      0x0d\n        /* \"ERC404Test.sol\":1862:1888  bytes(baseTokenURI).length */\n      dup1\n      sload\n      tag_246\n      swap1\n      tag_149\n      jump\t// in\n    tag_246:\n      swap1\n      pop\n        /* \"ERC404Test.sol\":1862:1892  bytes(baseTokenURI).length > 0 */\n      gt\n        /* \"ERC404Test.sol\":1858:2759  if (bytes(baseTokenURI).length > 0) {... */\n      iszero\n      tag_247\n      jumpi\n        /* \"ERC404Test.sol\":1930:1942  baseTokenURI */\n      0x0d\n        /* \"ERC404Test.sol\":1944:1964  Strings.toString(id) */\n      tag_248\n        /* \"ERC404Test.sol\":1961:1963  id */\n      dup4\n        /* \"ERC404Test.sol\":1944:1960  Strings.toString */\n      tag_249\n        /* \"ERC404Test.sol\":1944:1964  Strings.toString(id) */\n      jump\t// in\n    tag_248:\n        /* \"ERC404Test.sol\":1916:1965  string.concat(baseTokenURI, Strings.toString(id)) */\n      add(0x20, mload(0x40))\n      tag_250\n      swap3\n      swap2\n      swap1\n      tag_251\n      jump\t// in\n    tag_250:\n      mload(0x40)\n      0x20\n      dup2\n      dup4\n      sub\n      sub\n      dup2\n      mstore\n      swap1\n      0x40\n      mstore\n        /* \"ERC404Test.sol\":1909:1965  return string.concat(baseTokenURI, Strings.toString(id)) */\n      swap1\n      pop\n      jump(tag_245)\n        /* \"ERC404Test.sol\":1858:2759  if (bytes(baseTokenURI).length > 0) {... */\n    tag_247:\n        /* \"ERC404Test.sol\":1998:2017  string memory image */\n      0x00\n        /* \"ERC404Test.sol\":2020:2033  getNftImg(id) */\n      tag_253\n        /* \"ERC404Test.sol\":2030:2032  id */\n      dup4\n        /* \"ERC404Test.sol\":2020:2029  getNftImg */\n      tag_254\n        /* \"ERC404Test.sol\":2020:2033  getNftImg(id) */\n      jump\t// in\n    tag_253:\n        /* \"ERC404Test.sol\":2034:2035  0 */\n      0x00\n        /* \"ERC404Test.sol\":2020:2036  getNftImg(id)[0] */\n      0x02\n      dup2\n      lt\n      tag_255\n      jumpi\n      tag_256\n      tag_182\n      jump\t// in\n    tag_256:\n    tag_255:\n      0x20\n      mul\n      add\n      mload\n        /* \"ERC404Test.sol\":1998:2036  string memory image = getNftImg(id)[0] */\n      swap1\n      pop\n        /* \"ERC404Test.sol\":2051:2070  string memory color */\n      0x00\n        /* \"ERC404Test.sol\":2073:2086  getNftImg(id) */\n      tag_257\n        /* \"ERC404Test.sol\":2083:2085  id */\n      dup5\n        /* \"ERC404Test.sol\":2073:2082  getNftImg */\n      tag_254\n        /* \"ERC404Test.sol\":2073:2086  getNftImg(id) */\n      jump\t// in\n    tag_257:\n        /* \"ERC404Test.sol\":2087:2088  1 */\n      0x01\n        /* \"ERC404Test.sol\":2073:2089  getNftImg(id)[1] */\n      0x02\n      dup2\n      lt\n      tag_258\n      jumpi\n      tag_259\n      tag_182\n      jump\t// in\n    tag_259:\n    tag_258:\n      0x20\n      mul\n      add\n      mload\n        /* \"ERC404Test.sol\":2051:2089  string memory color = getNftImg(id)[1] */\n      swap1\n      pop\n        /* \"ERC404Test.sol\":2104:2129  string memory nftMetaOpen */\n      0x00\n        /* \"ERC404Test.sol\":2207:2211  name */\n      0x01\n        /* \"ERC404Test.sol\":2236:2256  Strings.toString(id) */\n      tag_260\n        /* \"ERC404Test.sol\":2253:2255  id */\n      dup7\n        /* \"ERC404Test.sol\":2236:2252  Strings.toString */\n      tag_249\n        /* \"ERC404Test.sol\":2236:2256  Strings.toString(id) */\n      jump\t// in\n    tag_260:\n        /* \"ERC404Test.sol\":2178:2257  string.concat('{\"name\":''\"', name, ' #',... */\n      add(0x20, mload(0x40))\n      tag_261\n      swap3\n      swap2\n      swap1\n      tag_262\n      jump\t// in\n    tag_261:\n      mload(0x40)\n      0x20\n      dup2\n      dup4\n      sub\n      sub\n      dup2\n      mstore\n      swap1\n      0x40\n      mstore\n        /* \"ERC404Test.sol\":2299:2314  metaDescription */\n      0x0e\n        /* \"ERC404Test.sol\":2164:2356  string.concat(string.concat('{\"name\":''\"', name, ' #',... */\n      add(0x20, mload(0x40))\n      tag_263\n      swap3\n      swap2\n      swap1\n      tag_264\n      jump\t// in\n    tag_263:\n      mload(0x40)\n      0x20\n      dup2\n      dup4\n      sub\n      sub\n      dup2\n      mstore\n      swap1\n      0x40\n      mstore\n        /* \"ERC404Test.sol\":2389:2396  dataURI */\n      0x0c\n        /* \"ERC404Test.sol\":2398:2403  image */\n      dup5\n        /* \"ERC404Test.sol\":2375:2404  string.concat(dataURI, image) */\n      add(0x20, mload(0x40))\n      tag_265\n      swap3\n      swap2\n      swap1\n      tag_251\n      jump\t// in\n    tag_265:\n      mload(0x40)\n      0x20\n      dup2\n      dup4\n      sub\n      sub\n      dup2\n      mstore\n      swap1\n      0x40\n      mstore\n        /* \"ERC404Test.sol\":2132:2405  string.concat(... */\n      add(0x20, mload(0x40))\n      tag_266\n      swap3\n      swap2\n      swap1\n      tag_267\n      jump\t// in\n    tag_266:\n      mload(0x40)\n      0x20\n      dup2\n      dup4\n      sub\n      sub\n      dup2\n      mstore\n      swap1\n      0x40\n      mstore\n        /* \"ERC404Test.sol\":2104:2405  string memory nftMetaOpen = string.concat(... */\n      swap1\n      pop\n        /* \"ERC404Test.sol\":2422:2451  string memory nftMetaProperty */\n      0x00\n        /* \"ERC404Test.sol\":2536:2541  color */\n      dup3\n        /* \"ERC404Test.sol\":2454:2556  string.concat('\",\"attributes\":[{\"trait_type\":\"Color\",\"value\":\"',... */\n      add(0x20, mload(0x40))\n      tag_268\n      swap2\n      swap1\n      tag_269\n      jump\t// in\n    tag_268:\n      mload(0x40)\n      0x20\n      dup2\n      dup4\n      sub\n      sub\n      dup2\n      mstore\n      swap1\n      0x40\n      mstore\n        /* \"ERC404Test.sol\":2422:2556  string memory nftMetaProperty = string.concat('\",\"attributes\":[{\"trait_type\":\"Color\",\"value\":\"',... */\n      swap1\n      pop\n        /* \"ERC404Test.sol\":2571:2597  string memory nftMetaClose */\n      0x00\n        /* \"ERC404Test.sol\":2571:2606  string memory nftMetaClose = '\"}]}' */\n      mload(0x40)\n      dup1\n      0x40\n      add\n      0x40\n      mstore\n      dup1\n      0x04\n      dup2\n      mstore\n      0x20\n      add\n      0x227d5d7d00000000000000000000000000000000000000000000000000000000\n      dup2\n      mstore\n      pop\n      swap1\n      pop\n        /* \"ERC404Test.sol\":2702:2713  nftMetaOpen */\n      dup3\n        /* \"ERC404Test.sol\":2715:2730  nftMetaProperty */\n      dup3\n        /* \"ERC404Test.sol\":2688:2731  string.concat(nftMetaOpen, nftMetaProperty) */\n      add(0x20, mload(0x40))\n      tag_270\n      swap3\n      swap2\n      swap1\n      tag_267\n      jump\t// in\n    tag_270:\n      mload(0x40)\n      0x20\n      dup2\n      dup4\n      sub\n      sub\n      dup2\n      mstore\n      swap1\n      0x40\n      mstore\n        /* \"ERC404Test.sol\":2733:2745  nftMetaClose */\n      dup2\n        /* \"ERC404Test.sol\":2674:2746  string.concat(string.concat(nftMetaOpen, nftMetaProperty), nftMetaClose) */\n      add(0x20, mload(0x40))\n      tag_271\n      swap3\n      swap2\n      swap1\n      tag_267\n      jump\t// in\n    tag_271:\n      mload(0x40)\n      0x20\n      dup2\n      dup4\n      sub\n      sub\n      dup2\n      mstore\n      swap1\n      0x40\n      mstore\n        /* \"ERC404Test.sol\":2628:2747  string.concat( \"data:application/json;utf8,\", string.concat(string.concat(nftMetaOpen, nftMetaProperty), nftMetaClose)) */\n      add(0x20, mload(0x40))\n      tag_272\n      swap2\n      swap1\n      tag_273\n      jump\t// in\n    tag_272:\n      mload(0x40)\n      0x20\n      dup2\n      dup4\n      sub\n      sub\n      dup2\n      mstore\n      swap1\n      0x40\n      mstore\n        /* \"ERC404Test.sol\":2621:2747  return string.concat( \"data:application/json;utf8,\", string.concat(string.concat(nftMetaOpen, nftMetaProperty), nftMetaClose)) */\n      swap6\n      pop\n      pop\n      pop\n      pop\n      pop\n      pop\n        /* \"ERC404Test.sol\":1772:2766  function tokenURI(uint256 id) public view override returns (string memory) {... */\n    tag_245:\n      swap2\n      swap1\n      pop\n      jump\t// out\n        /* \"ERC404Test.sol\":210:236  string public baseTokenURI */\n    tag_125:\n      0x0d\n      dup1\n      sload\n      tag_274\n      swap1\n      tag_149\n      jump\t// in\n    tag_274:\n      dup1\n      0x1f\n      add\n      0x20\n      dup1\n      swap2\n      div\n      mul\n      0x20\n      add\n      mload(0x40)\n      swap1\n      dup2\n      add\n      0x40\n      mstore\n      dup1\n      swap3\n      swap2\n      swap1\n      dup2\n      dup2\n      mstore\n      0x20\n      add\n      dup3\n      dup1\n      sload\n      tag_275\n      swap1\n      tag_149\n      jump\t// in\n    tag_275:\n      dup1\n      iszero\n      tag_276\n      jumpi\n      dup1\n      0x1f\n      lt\n      tag_277\n      jumpi\n      0x0100\n      dup1\n      dup4\n      sload\n      div\n      mul\n      dup4\n      mstore\n      swap2\n      0x20\n      add\n      swap2\n      jump(tag_276)\n    tag_277:\n      dup3\n      add\n      swap2\n      swap1\n      0x00\n      mstore\n      keccak256(0x00, 0x20)\n      swap1\n    tag_278:\n      dup2\n      sload\n      dup2\n      mstore\n      swap1\n      0x01\n      add\n      swap1\n      0x20\n      add\n      dup1\n      dup4\n      gt\n      tag_278\n      jumpi\n      dup3\n      swap1\n      sub\n      0x1f\n      and\n      dup3\n      add\n      swap2\n    tag_276:\n      pop\n      pop\n      pop\n      pop\n      pop\n      dup2\n      jump\t// out\n        /* \"ERC404.sol\":3370:3434  mapping(address => mapping(address => uint256)) public allowance */\n    tag_130:\n      mstore(0x20, 0x05)\n      dup2\n      0x00\n      mstore\n      mstore(0x20, keccak256(0x00, 0x40))\n      dup1\n      0x00\n      mstore\n      keccak256(0x00, 0x40)\n      0x00\n      swap2\n      pop\n      swap2\n      pop\n      pop\n      sload\n      dup2\n      jump\t// out\n        /* \"ERC404Test.sol\":555:661  function setTokenURI(string memory _tokenURI) public onlyOwner {... */\n    tag_134:\n        /* \"ERC404.sol\":316:321  owner */\n      0x00\n      dup1\n      sload\n      swap1\n      0x0100\n      exp\n      swap1\n      div\n      0xffffffffffffffffffffffffffffffffffffffff\n      and\n        /* \"ERC404.sol\":302:321  msg.sender != owner */\n      0xffffffffffffffffffffffffffffffffffffffff\n      and\n        /* \"ERC404.sol\":302:312  msg.sender */\n      caller\n        /* \"ERC404.sol\":302:321  msg.sender != owner */\n      0xffffffffffffffffffffffffffffffffffffffff\n      and\n      eq\n        /* \"ERC404.sol\":298:344  if (msg.sender != owner) revert Unauthorized() */\n      tag_280\n      jumpi\n        /* \"ERC404.sol\":330:344  Unauthorized() */\n      mload(0x40)\n      0x82b4290000000000000000000000000000000000000000000000000000000000\n      dup2\n      mstore\n      0x04\n      add\n      mload(0x40)\n      dup1\n      swap2\n      sub\n      swap1\n      revert\n        /* \"ERC404.sol\":298:344  if (msg.sender != owner) revert Unauthorized() */\n    tag_280:\n        /* \"ERC404Test.sol\":644:653  _tokenURI */\n      dup1\n        /* \"ERC404Test.sol\":629:641  baseTokenURI */\n      0x0d\n        /* \"ERC404Test.sol\":629:653  baseTokenURI = _tokenURI */\n      swap1\n      dup2\n      tag_282\n      swap2\n      swap1\n      tag_166\n      jump\t// in\n    tag_282:\n      pop\n        /* \"ERC404Test.sol\":555:661  function setTokenURI(string memory _tokenURI) public onlyOwner {... */\n      pop\n      jump\t// out\n        /* \"ERC404.sol\":3601:3669  mapping(address => mapping(address => bool)) public isApprovedForAll */\n    tag_137:\n      mstore(0x20, 0x07)\n      dup2\n      0x00\n      mstore\n      mstore(0x20, keccak256(0x00, 0x40))\n      dup1\n      0x00\n      mstore\n      keccak256(0x00, 0x40)\n      0x00\n      swap2\n      pop\n      swap2\n      pop\n      swap1\n      sload\n      swap1\n      0x0100\n      exp\n      swap1\n      div\n      0xff\n      and\n      dup2\n      jump\t// out\n        /* \"ERC404Test.sol\":243:272  string public metaDescription */\n    tag_140:\n      0x0e\n      dup1\n      sload\n      tag_283\n      swap1\n      tag_149\n      jump\t// in\n    tag_283:\n      dup1\n      0x1f\n      add\n      0x20\n      dup1\n      swap2\n      div\n      mul\n      0x20\n      add\n      mload(0x40)\n      swap1\n      dup2\n      add\n      0x40\n      mstore\n      dup1\n      swap3\n      swap2\n      swap1\n      dup2\n      dup2\n      mstore\n      0x20\n      add\n      dup3\n      dup1\n      sload\n      tag_284\n      swap1\n      tag_149\n      jump\t// in\n    tag_284:\n      dup1\n      iszero\n      tag_285\n      jumpi\n      dup1\n      0x1f\n      lt\n      tag_286\n      jumpi\n      0x0100\n      dup1\n      dup4\n      sload\n      div\n      mul\n      dup4\n      mstore\n      swap2\n      0x20\n      add\n      swap2\n      jump(tag_285)\n    tag_286:\n      dup3\n      add\n      swap2\n      swap1\n      0x00\n      mstore\n      keccak256(0x00, 0x20)\n      swap1\n    tag_287:\n      dup2\n      sload\n      dup2\n      mstore\n      swap1\n      0x01\n      add\n      swap1\n      0x20\n      add\n      dup1\n      dup4\n      gt\n      tag_287\n      jumpi\n      dup3\n      swap1\n      sub\n      0x1f\n      and\n      dup3\n      add\n      swap2\n    tag_285:\n      pop\n      pop\n      pop\n      pop\n      pop\n      dup2\n      jump\t// out\n        /* \"ERC404Test.sol\":182:203  string public dataURI */\n    tag_143:\n      0x0c\n      dup1\n      sload\n      tag_288\n      swap1\n      tag_149\n      jump\t// in\n    tag_288:\n      dup1\n      0x1f\n      add\n      0x20\n      dup1\n      swap2\n      div\n      mul\n      0x20\n      add\n      mload(0x40)\n      swap1\n      dup2\n      add\n      0x40\n      mstore\n      dup1\n      swap3\n      swap2\n      swap1\n      dup2\n      dup2\n      mstore\n      0x20\n      add\n      dup3\n      dup1\n      sload\n      tag_289\n      swap1\n      tag_149\n      jump\t// in\n    tag_289:\n      dup1\n      iszero\n      tag_290\n      jumpi\n      dup1\n      0x1f\n      lt\n      tag_291\n      jumpi\n      0x0100\n      dup1\n      dup4\n      sload\n      div\n      mul\n      dup4\n      mstore\n      swap2\n      0x20\n      add\n      swap2\n      jump(tag_290)\n    tag_291:\n      dup3\n      add\n      swap2\n      swap1\n      0x00\n      mstore\n      keccak256(0x00, 0x20)\n      swap1\n    tag_292:\n      dup2\n      sload\n      dup2\n      mstore\n      swap1\n      0x01\n      add\n      swap1\n      0x20\n      add\n      dup1\n      dup4\n      gt\n      tag_292\n      jumpi\n      dup3\n      swap1\n      sub\n      0x1f\n      and\n      dup3\n      add\n      swap2\n    tag_290:\n      pop\n      pop\n      pop\n      pop\n      pop\n      dup2\n      jump\t// out\n        /* \"ERC404.sol\":555:770  function transferOwnership(address _owner) public virtual onlyOwner {... */\n    tag_147:\n        /* \"ERC404.sol\":316:321  owner */\n      0x00\n      dup1\n      sload\n      swap1\n      0x0100\n      exp\n      swap1\n      div\n      0xffffffffffffffffffffffffffffffffffffffff\n      and\n        /* \"ERC404.sol\":302:321  msg.sender != owner */\n      0xffffffffffffffffffffffffffffffffffffffff\n      and\n        /* \"ERC404.sol\":302:312  msg.sender */\n      caller\n        /* \"ERC404.sol\":302:321  msg.sender != owner */\n      0xffffffffffffffffffffffffffffffffffffffff\n      and\n      eq\n        /* \"ERC404.sol\":298:344  if (msg.sender != owner) revert Unauthorized() */\n      tag_294\n      jumpi\n        /* \"ERC404.sol\":330:344  Unauthorized() */\n      mload(0x40)\n      0x82b4290000000000000000000000000000000000000000000000000000000000\n      dup2\n      mstore\n      0x04\n      add\n      mload(0x40)\n      dup1\n      swap2\n      sub\n      swap1\n      revert\n        /* \"ERC404.sol\":298:344  if (msg.sender != owner) revert Unauthorized() */\n    tag_294:\n        /* \"ERC404.sol\":656:657  0 */\n      0x00\n        /* \"ERC404.sol\":638:658  _owner == address(0) */\n      0xffffffffffffffffffffffffffffffffffffffff\n      and\n        /* \"ERC404.sol\":638:644  _owner */\n      dup2\n        /* \"ERC404.sol\":638:658  _owner == address(0) */\n      0xffffffffffffffffffffffffffffffffffffffff\n      and\n      sub\n        /* \"ERC404.sol\":634:681  if (_owner == address(0)) revert InvalidOwner() */\n      tag_296\n      jumpi\n        /* \"ERC404.sol\":667:681  InvalidOwner() */\n      mload(0x40)\n      0x49e27cff00000000000000000000000000000000000000000000000000000000\n      dup2\n      mstore\n      0x04\n      add\n      mload(0x40)\n      dup1\n      swap2\n      sub\n      swap1\n      revert\n        /* \"ERC404.sol\":634:681  if (_owner == address(0)) revert InvalidOwner() */\n    tag_296:\n        /* \"ERC404.sol\":700:706  _owner */\n      dup1\n        /* \"ERC404.sol\":692:697  owner */\n      0x00\n      dup1\n        /* \"ERC404.sol\":692:706  owner = _owner */\n      0x0100\n      exp\n      dup2\n      sload\n      dup2\n      0xffffffffffffffffffffffffffffffffffffffff\n      mul\n      not\n      and\n      swap1\n      dup4\n      0xffffffffffffffffffffffffffffffffffffffff\n      and\n      mul\n      or\n      swap1\n      sstore\n      pop\n        /* \"ERC404.sol\":755:761  _owner */\n      dup1\n        /* \"ERC404.sol\":722:762  OwnershipTransferred(msg.sender, _owner) */\n      0xffffffffffffffffffffffffffffffffffffffff\n      and\n        /* \"ERC404.sol\":743:753  msg.sender */\n      caller\n        /* \"ERC404.sol\":722:762  OwnershipTransferred(msg.sender, _owner) */\n      0xffffffffffffffffffffffffffffffffffffffff\n      and\n      0x8be0079c531659141344cd1fd0a4f28419497f9722a3daafe3b4186f6b6457e0\n      mload(0x40)\n      mload(0x40)\n      dup1\n      swap2\n      sub\n      swap1\n      log3\n        /* \"ERC404.sol\":555:770  function transferOwnership(address _owner) public virtual onlyOwner {... */\n      pop\n      jump\t// out\n        /* \"ERC404.sol\":10488:10580  function _getUnit() internal view returns (uint256) {... */\n    tag_175:\n        /* \"ERC404.sol\":10531:10538  uint256 */\n      0x00\n        /* \"ERC404.sol\":10564:10572  decimals */\n      immutable(\"0x8daa2fd0bd035dbe856aeb0cf4a9c58ddc36a58ca2b562643b5027489d09ec1b\")\n        /* \"ERC404.sol\":10558:10560  10 */\n      0x0a\n        /* \"ERC404.sol\":10558:10572  10 ** decimals */\n      tag_298\n      swap2\n      swap1\n      tag_299\n      jump\t// in\n    tag_298:\n        /* \"ERC404.sol\":10551:10572  return 10 ** decimals */\n      swap1\n      pop\n        /* \"ERC404.sol\":10488:10580  function _getUnit() internal view returns (uint256) {... */\n      swap1\n      jump\t// out\n        /* \"ERC404.sol\":9387:10449  function _transfer(... */\n    tag_199:\n        /* \"ERC404.sol\":9500:9504  bool */\n      0x00\n        /* \"ERC404.sol\":9517:9529  uint256 unit */\n      dup1\n        /* \"ERC404.sol\":9532:9542  _getUnit() */\n      tag_301\n        /* \"ERC404.sol\":9532:9540  _getUnit */\n      tag_175\n        /* \"ERC404.sol\":9532:9542  _getUnit() */\n      jump\t// in\n    tag_301:\n        /* \"ERC404.sol\":9517:9542  uint256 unit = _getUnit() */\n      swap1\n      pop\n        /* \"ERC404.sol\":9553:9580  uint256 balanceBeforeSender */\n      0x00\n        /* \"ERC404.sol\":9583:9592  balanceOf */\n      0x04\n        /* \"ERC404.sol\":9583:9598  balanceOf[from] */\n      0x00\n        /* \"ERC404.sol\":9593:9597  from */\n      dup8\n        /* \"ERC404.sol\":9583:9598  balanceOf[from] */\n      0xffffffffffffffffffffffffffffffffffffffff\n      and\n      0xffffffffffffffffffffffffffffffffffffffff\n      and\n      dup2\n      mstore\n      0x20\n      add\n      swap1\n      dup2\n      mstore\n      0x20\n      add\n      0x00\n      keccak256\n      sload\n        /* \"ERC404.sol\":9553:9598  uint256 balanceBeforeSender = balanceOf[from] */\n      swap1\n      pop\n        /* \"ERC404.sol\":9609:9638  uint256 balanceBeforeReceiver */\n      0x00\n        /* \"ERC404.sol\":9641:9650  balanceOf */\n      0x04\n        /* \"ERC404.sol\":9641:9654  balanceOf[to] */\n      0x00\n        /* \"ERC404.sol\":9651:9653  to */\n      dup8\n        /* \"ERC404.sol\":9641:9654  balanceOf[to] */\n      0xffffffffffffffffffffffffffffffffffffffff\n      and\n      0xffffffffffffffffffffffffffffffffffffffff\n      and\n      dup2\n      mstore\n      0x20\n      add\n      swap1\n      dup2\n      mstore\n      0x20\n      add\n      0x00\n      keccak256\n      sload\n        /* \"ERC404.sol\":9609:9654  uint256 balanceBeforeReceiver = balanceOf[to] */\n      swap1\n      pop\n        /* \"ERC404.sol\":9686:9692  amount */\n      dup5\n        /* \"ERC404.sol\":9667:9676  balanceOf */\n      0x04\n        /* \"ERC404.sol\":9667:9682  balanceOf[from] */\n      0x00\n        /* \"ERC404.sol\":9677:9681  from */\n      dup10\n        /* \"ERC404.sol\":9667:9682  balanceOf[from] */\n      0xffffffffffffffffffffffffffffffffffffffff\n      and\n      0xffffffffffffffffffffffffffffffffffffffff\n      and\n      dup2\n      mstore\n      0x20\n      add\n      swap1\n      dup2\n      mstore\n      0x20\n      add\n      0x00\n      keccak256\n      0x00\n        /* \"ERC404.sol\":9667:9692  balanceOf[from] -= amount */\n      dup3\n      dup3\n      sload\n      tag_302\n      swap2\n      swap1\n      tag_177\n      jump\t// in\n    tag_302:\n      swap3\n      pop\n      pop\n      dup2\n      swap1\n      sstore\n      pop\n        /* \"ERC404.sol\":9747:9753  amount */\n      dup5\n        /* \"ERC404.sol\":9730:9739  balanceOf */\n      0x04\n        /* \"ERC404.sol\":9730:9743  balanceOf[to] */\n      0x00\n        /* \"ERC404.sol\":9740:9742  to */\n      dup9\n        /* \"ERC404.sol\":9730:9743  balanceOf[to] */\n      0xffffffffffffffffffffffffffffffffffffffff\n      and\n      0xffffffffffffffffffffffffffffffffffffffff\n      and\n      dup2\n      mstore\n      0x20\n      add\n      swap1\n      dup2\n      mstore\n      0x20\n      add\n      0x00\n      keccak256\n      0x00\n        /* \"ERC404.sol\":9730:9753  balanceOf[to] += amount */\n      dup3\n      dup3\n      sload\n      add\n      swap3\n      pop\n      pop\n      dup2\n      swap1\n      sstore\n      pop\n        /* \"ERC404.sol\":9838:9847  whitelist */\n      0x0b\n        /* \"ERC404.sol\":9838:9853  whitelist[from] */\n      0x00\n        /* \"ERC404.sol\":9848:9852  from */\n      dup9\n        /* \"ERC404.sol\":9838:9853  whitelist[from] */\n      0xffffffffffffffffffffffffffffffffffffffff\n      and\n      0xffffffffffffffffffffffffffffffffffffffff\n      and\n      dup2\n      mstore\n      0x20\n      add\n      swap1\n      dup2\n      mstore\n      0x20\n      add\n      0x00\n      keccak256\n      0x00\n      swap1\n      sload\n      swap1\n      0x0100\n      exp\n      swap1\n      div\n      0xff\n      and\n        /* \"ERC404.sol\":9833:10067  if (!whitelist[from]) {... */\n      tag_303\n      jumpi\n        /* \"ERC404.sol\":9870:9892  uint256 tokens_to_burn */\n      0x00\n        /* \"ERC404.sol\":9945:9949  unit */\n      dup4\n        /* \"ERC404.sol\":9927:9936  balanceOf */\n      0x04\n        /* \"ERC404.sol\":9927:9942  balanceOf[from] */\n      0x00\n        /* \"ERC404.sol\":9937:9941  from */\n      dup11\n        /* \"ERC404.sol\":9927:9942  balanceOf[from] */\n      0xffffffffffffffffffffffffffffffffffffffff\n      and\n      0xffffffffffffffffffffffffffffffffffffffff\n      and\n      dup2\n      mstore\n      0x20\n      add\n      swap1\n      dup2\n      mstore\n      0x20\n      add\n      0x00\n      keccak256\n      sload\n        /* \"ERC404.sol\":9927:9949  balanceOf[from] / unit */\n      tag_304\n      swap2\n      swap1\n      tag_305\n      jump\t// in\n    tag_304:\n        /* \"ERC404.sol\":9918:9922  unit */\n      dup5\n        /* \"ERC404.sol\":9896:9915  balanceBeforeSender */\n      dup5\n        /* \"ERC404.sol\":9896:9922  balanceBeforeSender / unit */\n      tag_306\n      swap2\n      swap1\n      tag_305\n      jump\t// in\n    tag_306:\n        /* \"ERC404.sol\":9895:9950  (balanceBeforeSender / unit) - (balanceOf[from] / unit) */\n      tag_307\n      swap2\n      swap1\n      tag_177\n      jump\t// in\n    tag_307:\n        /* \"ERC404.sol\":9870:9950  uint256 tokens_to_burn = (balanceBeforeSender / unit) - (balanceOf[from] / unit) */\n      swap1\n      pop\n        /* \"ERC404.sol\":9970:9979  uint256 i */\n      0x00\n        /* \"ERC404.sol\":9965:10056  for (uint256 i = 0; i < tokens_to_burn; i++) {... */\n    tag_308:\n        /* \"ERC404.sol\":9989:10003  tokens_to_burn */\n      dup2\n        /* \"ERC404.sol\":9985:9986  i */\n      dup2\n        /* \"ERC404.sol\":9985:10003  i < tokens_to_burn */\n      lt\n        /* \"ERC404.sol\":9965:10056  for (uint256 i = 0; i < tokens_to_burn; i++) {... */\n      iszero\n      tag_309\n      jumpi\n        /* \"ERC404.sol\":10029:10040  _burn(from) */\n      tag_311\n        /* \"ERC404.sol\":10035:10039  from */\n      dup10\n        /* \"ERC404.sol\":10029:10034  _burn */\n      tag_312\n        /* \"ERC404.sol\":10029:10040  _burn(from) */\n      jump\t// in\n    tag_311:\n        /* \"ERC404.sol\":10005:10008  i++ */\n      dup1\n      dup1\n      0x01\n      add\n      swap2\n      pop\n      pop\n        /* \"ERC404.sol\":9965:10056  for (uint256 i = 0; i < tokens_to_burn; i++) {... */\n      jump(tag_308)\n    tag_309:\n      pop\n        /* \"ERC404.sol\":9855:10067  {... */\n      pop\n        /* \"ERC404.sol\":9833:10067  if (!whitelist[from]) {... */\n    tag_303:\n        /* \"ERC404.sol\":10143:10152  whitelist */\n      0x0b\n        /* \"ERC404.sol\":10143:10156  whitelist[to] */\n      0x00\n        /* \"ERC404.sol\":10153:10155  to */\n      dup8\n        /* \"ERC404.sol\":10143:10156  whitelist[to] */\n      0xffffffffffffffffffffffffffffffffffffffff\n      and\n      0xffffffffffffffffffffffffffffffffffffffff\n      and\n      dup2\n      mstore\n      0x20\n      add\n      swap1\n      dup2\n      mstore\n      0x20\n      add\n      0x00\n      keccak256\n      0x00\n      swap1\n      sload\n      swap1\n      0x0100\n      exp\n      swap1\n      div\n      0xff\n      and\n        /* \"ERC404.sol\":10138:10371  if (!whitelist[to]) {   ... */\n      tag_313\n      jumpi\n        /* \"ERC404.sol\":10176:10198  uint256 tokens_to_mint */\n      0x00\n        /* \"ERC404.sol\":10251:10255  unit */\n      dup4\n        /* \"ERC404.sol\":10227:10248  balanceBeforeReceiver */\n      dup3\n        /* \"ERC404.sol\":10227:10255  balanceBeforeReceiver / unit */\n      tag_314\n      swap2\n      swap1\n      tag_305\n      jump\t// in\n    tag_314:\n        /* \"ERC404.sol\":10218:10222  unit */\n      dup5\n        /* \"ERC404.sol\":10202:10211  balanceOf */\n      0x04\n        /* \"ERC404.sol\":10202:10215  balanceOf[to] */\n      0x00\n        /* \"ERC404.sol\":10212:10214  to */\n      dup11\n        /* \"ERC404.sol\":10202:10215  balanceOf[to] */\n      0xffffffffffffffffffffffffffffffffffffffff\n      and\n      0xffffffffffffffffffffffffffffffffffffffff\n      and\n      dup2\n      mstore\n      0x20\n      add\n      swap1\n      dup2\n      mstore\n      0x20\n      add\n      0x00\n      keccak256\n      sload\n        /* \"ERC404.sol\":10202:10222  balanceOf[to] / unit */\n      tag_315\n      swap2\n      swap1\n      tag_305\n      jump\t// in\n    tag_315:\n        /* \"ERC404.sol\":10201:10256  (balanceOf[to] / unit) - (balanceBeforeReceiver / unit) */\n      tag_316\n      swap2\n      swap1\n      tag_177\n      jump\t// in\n    tag_316:\n        /* \"ERC404.sol\":10176:10256  uint256 tokens_to_mint = (balanceOf[to] / unit) - (balanceBeforeReceiver / unit) */\n      swap1\n      pop\n        /* \"ERC404.sol\":10276:10285  uint256 i */\n      0x00\n        /* \"ERC404.sol\":10271:10360  for (uint256 i = 0; i < tokens_to_mint; i++) {... */\n    tag_317:\n        /* \"ERC404.sol\":10295:10309  tokens_to_mint */\n      dup2\n        /* \"ERC404.sol\":10291:10292  i */\n      dup2\n        /* \"ERC404.sol\":10291:10309  i < tokens_to_mint */\n      lt\n        /* \"ERC404.sol\":10271:10360  for (uint256 i = 0; i < tokens_to_mint; i++) {... */\n      iszero\n      tag_318\n      jumpi\n        /* \"ERC404.sol\":10335:10344  _mint(to) */\n      tag_320\n        /* \"ERC404.sol\":10341:10343  to */\n      dup9\n        /* \"ERC404.sol\":10335:10340  _mint */\n      tag_321\n        /* \"ERC404.sol\":10335:10344  _mint(to) */\n      jump\t// in\n    tag_320:\n        /* \"ERC404.sol\":10311:10314  i++ */\n      dup1\n      dup1\n      0x01\n      add\n      swap2\n      pop\n      pop\n        /* \"ERC404.sol\":10271:10360  for (uint256 i = 0; i < tokens_to_mint; i++) {... */\n      jump(tag_317)\n    tag_318:\n      pop\n        /* \"ERC404.sol\":10158:10371  {   ... */\n      pop\n        /* \"ERC404.sol\":10138:10371  if (!whitelist[to]) {   ... */\n    tag_313:\n        /* \"ERC404.sol\":10408:10410  to */\n      dup6\n        /* \"ERC404.sol\":10388:10419  ERC20Transfer(from, to, amount) */\n      0xffffffffffffffffffffffffffffffffffffffff\n      and\n        /* \"ERC404.sol\":10402:10406  from */\n      dup8\n        /* \"ERC404.sol\":10388:10419  ERC20Transfer(from, to, amount) */\n      0xffffffffffffffffffffffffffffffffffffffff\n      and\n      0xe59fdd36d0d223c0c7d996db7ad796880f45e1936cb0bb7ac102e7082e031487\n        /* \"ERC404.sol\":10412:10418  amount */\n      dup8\n        /* \"ERC404.sol\":10388:10419  ERC20Transfer(from, to, amount) */\n      mload(0x40)\n      tag_322\n      swap2\n      swap1\n      tag_58\n      jump\t// in\n    tag_322:\n      mload(0x40)\n      dup1\n      swap2\n      sub\n      swap1\n      log3\n        /* \"ERC404.sol\":10437:10441  true */\n      0x01\n        /* \"ERC404.sol\":10430:10441  return true */\n      swap4\n      pop\n      pop\n      pop\n      pop\n        /* \"ERC404.sol\":9387:10449  function _transfer(... */\n      swap4\n      swap3\n      pop\n      pop\n      pop\n      jump\t// out\n        /* \"ERC404.sol\":11451:11611  function _setNameSymbol(... */\n    tag_217:\n        /* \"ERC404.sol\":11571:11576  _name */\n      dup2\n        /* \"ERC404.sol\":11564:11568  name */\n      0x01\n        /* \"ERC404.sol\":11564:11576  name = _name */\n      swap1\n      dup2\n      tag_324\n      swap2\n      swap1\n      tag_166\n      jump\t// in\n    tag_324:\n      pop\n        /* \"ERC404.sol\":11596:11603  _symbol */\n      dup1\n        /* \"ERC404.sol\":11587:11593  symbol */\n      0x02\n        /* \"ERC404.sol\":11587:11603  symbol = _symbol */\n      swap1\n      dup2\n      tag_325\n      swap2\n      swap1\n      tag_166\n      jump\t// in\n    tag_325:\n      pop\n        /* \"ERC404.sol\":11451:11611  function _setNameSymbol(... */\n      pop\n      pop\n      jump\t// out\n        /* \"@openzeppelin/contracts/utils/Strings.sol\":637:1335  function toString(uint256 value) internal pure returns (string memory) {... */\n    tag_249:\n        /* \"@openzeppelin/contracts/utils/Strings.sol\":693:706  string memory */\n      0x60\n        /* \"@openzeppelin/contracts/utils/Strings.sol\":742:756  uint256 length */\n      0x00\n        /* \"@openzeppelin/contracts/utils/Strings.sol\":779:780  1 */\n      0x01\n        /* \"@openzeppelin/contracts/utils/Strings.sol\":759:776  Math.log10(value) */\n      tag_327\n        /* \"@openzeppelin/contracts/utils/Strings.sol\":770:775  value */\n      dup5\n        /* \"@openzeppelin/contracts/utils/Strings.sol\":759:769  Math.log10 */\n      tag_328\n        /* \"@openzeppelin/contracts/utils/Strings.sol\":759:776  Math.log10(value) */\n      jump\t// in\n    tag_327:\n        /* \"@openzeppelin/contracts/utils/Strings.sol\":759:780  Math.log10(value) + 1 */\n      add\n        /* \"@openzeppelin/contracts/utils/Strings.sol\":742:780  uint256 length = Math.log10(value) + 1 */\n      swap1\n      pop\n        /* \"@openzeppelin/contracts/utils/Strings.sol\":794:814  string memory buffer */\n      0x00\n        /* \"@openzeppelin/contracts/utils/Strings.sol\":828:834  length */\n      dup2\n        /* \"@openzeppelin/contracts/utils/Strings.sol\":817:835  new string(length) */\n      0xffffffffffffffff\n      dup2\n      gt\n      iszero\n      tag_329\n      jumpi\n      tag_330\n      tag_331\n      jump\t// in\n    tag_330:\n    tag_329:\n      mload(0x40)\n      swap1\n      dup1\n      dup3\n      mstore\n      dup1\n      0x1f\n      add\n      not(0x1f)\n      and\n      0x20\n      add\n      dup3\n      add\n      0x40\n      mstore\n      dup1\n      iszero\n      tag_332\n      jumpi\n      dup2\n      0x20\n      add\n      0x01\n      dup3\n      mul\n      dup1\n      calldatasize\n      dup4\n      calldatacopy\n      dup1\n      dup3\n      add\n      swap2\n      pop\n      pop\n      swap1\n      pop\n    tag_332:\n      pop\n        /* \"@openzeppelin/contracts/utils/Strings.sol\":794:835  string memory buffer = new string(length) */\n      swap1\n      pop\n        /* \"@openzeppelin/contracts/utils/Strings.sol\":849:860  uint256 ptr */\n      0x00\n        /* \"@openzeppelin/contracts/utils/Strings.sol\":975:981  length */\n      dup3\n        /* \"@openzeppelin/contracts/utils/Strings.sol\":971:973  32 */\n      0x20\n        /* \"@openzeppelin/contracts/utils/Strings.sol\":967:982  add(32, length) */\n      add\n        /* \"@openzeppelin/contracts/utils/Strings.sol\":959:965  buffer */\n      dup3\n        /* \"@openzeppelin/contracts/utils/Strings.sol\":955:983  add(buffer, add(32, length)) */\n      add\n        /* \"@openzeppelin/contracts/utils/Strings.sol\":948:983  ptr := add(buffer, add(32, length)) */\n      swap1\n      pop\n        /* \"@openzeppelin/contracts/utils/Strings.sol\":1010:1292  while (true) {... */\n    tag_333:\n        /* \"@openzeppelin/contracts/utils/Strings.sol\":1017:1021  true */\n      0x01\n        /* \"@openzeppelin/contracts/utils/Strings.sol\":1010:1292  while (true) {... */\n      iszero\n      tag_334\n      jumpi\n        /* \"@openzeppelin/contracts/utils/Strings.sol\":1041:1046  ptr-- */\n      dup1\n      dup1\n      0x01\n      swap1\n      sub\n      swap2\n      pop\n      pop\n        /* \"@openzeppelin/contracts/utils/Strings.sol\":1180:1190  HEX_DIGITS */\n      0x3031323334353637383961626364656600000000000000000000000000000000\n        /* \"@openzeppelin/contracts/utils/Strings.sol\":1175:1177  10 */\n      0x0a\n        /* \"@openzeppelin/contracts/utils/Strings.sol\":1168:1173  value */\n      dup7\n        /* \"@openzeppelin/contracts/utils/Strings.sol\":1164:1178  mod(value, 10) */\n      mod\n        /* \"@openzeppelin/contracts/utils/Strings.sol\":1159:1191  byte(mod(value, 10), HEX_DIGITS) */\n      byte\n        /* \"@openzeppelin/contracts/utils/Strings.sol\":1154:1157  ptr */\n      dup2\n        /* \"@openzeppelin/contracts/utils/Strings.sol\":1146:1192  mstore8(ptr, byte(mod(value, 10), HEX_DIGITS)) */\n      mstore8\n        /* \"@openzeppelin/contracts/utils/Strings.sol\":1236:1238  10 */\n      0x0a\n        /* \"@openzeppelin/contracts/utils/Strings.sol\":1227:1238  value /= 10 */\n      dup6\n      dup2\n      tag_335\n      jumpi\n      tag_336\n      tag_337\n      jump\t// in\n    tag_336:\n    tag_335:\n      div\n      swap5\n      pop\n        /* \"@openzeppelin/contracts/utils/Strings.sol\":1269:1270  0 */\n      0x00\n        /* \"@openzeppelin/contracts/utils/Strings.sol\":1260:1265  value */\n      dup6\n        /* \"@openzeppelin/contracts/utils/Strings.sol\":1260:1270  value == 0 */\n      sub\n        /* \"@openzeppelin/contracts/utils/Strings.sol\":1010:1292  while (true) {... */\n      tag_333\n        /* \"@openzeppelin/contracts/utils/Strings.sol\":1256:1277  if (value == 0) break */\n      jumpi\n        /* \"@openzeppelin/contracts/utils/Strings.sol\":1010:1292  while (true) {... */\n    tag_334:\n        /* \"@openzeppelin/contracts/utils/Strings.sol\":1312:1318  buffer */\n      dup2\n        /* \"@openzeppelin/contracts/utils/Strings.sol\":1305:1318  return buffer */\n      swap4\n      pop\n      pop\n      pop\n      pop\n        /* \"@openzeppelin/contracts/utils/Strings.sol\":637:1335  function toString(uint256 value) internal pure returns (string memory) {... */\n      swap2\n      swap1\n      pop\n      jump\t// out\n        /* \"ERC404Test.sol\":810:1640  function getNftImg(uint256 id) internal pure returns (string[2] memory) {... */\n    tag_254:\n        /* \"ERC404Test.sol\":864:880  string[2] memory */\n      tag_339\n      tag_340\n      jump\t// in\n    tag_339:\n        /* \"ERC404Test.sol\":893:905  uint8 idSeed */\n      0x00\n        /* \"ERC404Test.sol\":948:950  id */\n      dup3\n        /* \"ERC404Test.sol\":931:951  abi.encodePacked(id) */\n      add(0x20, mload(0x40))\n      tag_342\n      swap2\n      swap1\n      tag_343\n      jump\t// in\n    tag_342:\n      mload(0x40)\n      0x20\n      dup2\n      dup4\n      sub\n      sub\n      dup2\n      mstore\n      swap1\n      0x40\n      mstore\n        /* \"ERC404Test.sol\":921:952  keccak256(abi.encodePacked(id)) */\n      dup1\n      mload\n      swap1\n      0x20\n      add\n      keccak256\n        /* \"ERC404Test.sol\":908:954  uint8(bytes1(keccak256(abi.encodePacked(id)))) */\n      0xf8\n      shr\n        /* \"ERC404Test.sol\":893:954  uint8 idSeed = uint8(bytes1(keccak256(abi.encodePacked(id)))) */\n      swap1\n      pop\n        /* \"ERC404Test.sol\":965:984  string memory image */\n      0x60\n        /* \"ERC404Test.sol\":995:1014  string memory color */\n      dup1\n        /* \"ERC404Test.sol\":1039:1042  100 */\n      0x64\n        /* \"ERC404Test.sol\":1029:1035  idSeed */\n      dup4\n        /* \"ERC404Test.sol\":1029:1042  idSeed <= 100 */\n      0xff\n      and\n      gt\n        /* \"ERC404Test.sol\":1025:1601  if (idSeed <= 100) {... */\n      tag_344\n      jumpi\n        /* \"ERC404Test.sol\":1059:1074  image = \"1.jpg\" */\n      mload(0x40)\n      dup1\n      0x40\n      add\n      0x40\n      mstore\n      dup1\n      0x05\n      dup2\n      mstore\n      0x20\n      add\n      0x312e6a7067000000000000000000000000000000000000000000000000000000\n      dup2\n      mstore\n      pop\n      swap2\n      pop\n        /* \"ERC404Test.sol\":1089:1102  color = \"red\" */\n      mload(0x40)\n      dup1\n      0x40\n      add\n      0x40\n      mstore\n      dup1\n      0x03\n      dup2\n      mstore\n      0x20\n      add\n      0x7265640000000000000000000000000000000000000000000000000000000000\n      dup2\n      mstore\n      pop\n      swap1\n      pop\n        /* \"ERC404Test.sol\":1025:1601  if (idSeed <= 100) {... */\n      jump(tag_345)\n    tag_344:\n        /* \"ERC404Test.sol\":1134:1137  130 */\n      0x82\n        /* \"ERC404Test.sol\":1124:1130  idSeed */\n      dup4\n        /* \"ERC404Test.sol\":1124:1137  idSeed <= 130 */\n      0xff\n      and\n      gt\n        /* \"ERC404Test.sol\":1120:1601  if (idSeed <= 130) {... */\n      tag_346\n      jumpi\n        /* \"ERC404Test.sol\":1154:1169  image = \"2.jpg\" */\n      mload(0x40)\n      dup1\n      0x40\n      add\n      0x40\n      mstore\n      dup1\n      0x05\n      dup2\n      mstore\n      0x20\n      add\n      0x322e6a7067000000000000000000000000000000000000000000000000000000\n      dup2\n      mstore\n      pop\n      swap2\n      pop\n        /* \"ERC404Test.sol\":1184:1200  color = \"orenge\" */\n      mload(0x40)\n      dup1\n      0x40\n      add\n      0x40\n      mstore\n      dup1\n      0x06\n      dup2\n      mstore\n      0x20\n      add\n      0x6f72656e67650000000000000000000000000000000000000000000000000000\n      dup2\n      mstore\n      pop\n      swap1\n      pop\n        /* \"ERC404Test.sol\":1120:1601  if (idSeed <= 130) {... */\n      jump(tag_347)\n    tag_346:\n        /* \"ERC404Test.sol\":1232:1235  160 */\n      0xa0\n        /* \"ERC404Test.sol\":1222:1228  idSeed */\n      dup4\n        /* \"ERC404Test.sol\":1222:1235  idSeed <= 160 */\n      0xff\n      and\n      gt\n        /* \"ERC404Test.sol\":1218:1601  if (idSeed <= 160) {... */\n      tag_348\n      jumpi\n        /* \"ERC404Test.sol\":1252:1267  image = \"3.jpg\" */\n      mload(0x40)\n      dup1\n      0x40\n      add\n      0x40\n      mstore\n      dup1\n      0x05\n      dup2\n      mstore\n      0x20\n      add\n      0x332e6a7067000000000000000000000000000000000000000000000000000000\n      dup2\n      mstore\n      pop\n      swap2\n      pop\n        /* \"ERC404Test.sol\":1282:1298  color = \"yellow\" */\n      mload(0x40)\n      dup1\n      0x40\n      add\n      0x40\n      mstore\n      dup1\n      0x06\n      dup2\n      mstore\n      0x20\n      add\n      0x79656c6c6f770000000000000000000000000000000000000000000000000000\n      dup2\n      mstore\n      pop\n      swap1\n      pop\n        /* \"ERC404Test.sol\":1218:1601  if (idSeed <= 160) {... */\n      jump(tag_349)\n    tag_348:\n        /* \"ERC404Test.sol\":1330:1333  190 */\n      0xbe\n        /* \"ERC404Test.sol\":1320:1326  idSeed */\n      dup4\n        /* \"ERC404Test.sol\":1320:1333  idSeed <= 190 */\n      0xff\n      and\n      gt\n        /* \"ERC404Test.sol\":1316:1601  if (idSeed <= 190) {... */\n      tag_350\n      jumpi\n        /* \"ERC404Test.sol\":1350:1365  image = \"4.jpg\" */\n      mload(0x40)\n      dup1\n      0x40\n      add\n      0x40\n      mstore\n      dup1\n      0x05\n      dup2\n      mstore\n      0x20\n      add\n      0x342e6a7067000000000000000000000000000000000000000000000000000000\n      dup2\n      mstore\n      pop\n      swap2\n      pop\n        /* \"ERC404Test.sol\":1380:1395  color = \"green\" */\n      mload(0x40)\n      dup1\n      0x40\n      add\n      0x40\n      mstore\n      dup1\n      0x05\n      dup2\n      mstore\n      0x20\n      add\n      0x677265656e000000000000000000000000000000000000000000000000000000\n      dup2\n      mstore\n      pop\n      swap1\n      pop\n        /* \"ERC404Test.sol\":1316:1601  if (idSeed <= 190) {... */\n      jump(tag_351)\n    tag_350:\n        /* \"ERC404Test.sol\":1427:1430  220 */\n      0xdc\n        /* \"ERC404Test.sol\":1417:1423  idSeed */\n      dup4\n        /* \"ERC404Test.sol\":1417:1430  idSeed <= 220 */\n      0xff\n      and\n      gt\n        /* \"ERC404Test.sol\":1413:1601  if (idSeed <= 220) {... */\n      tag_352\n      jumpi\n        /* \"ERC404Test.sol\":1447:1462  image = \"5.jpg\" */\n      mload(0x40)\n      dup1\n      0x40\n      add\n      0x40\n      mstore\n      dup1\n      0x05\n      dup2\n      mstore\n      0x20\n      add\n      0x352e6a7067000000000000000000000000000000000000000000000000000000\n      dup2\n      mstore\n      pop\n      swap2\n      pop\n        /* \"ERC404Test.sol\":1477:1491  color = \"blue\" */\n      mload(0x40)\n      dup1\n      0x40\n      add\n      0x40\n      mstore\n      dup1\n      0x04\n      dup2\n      mstore\n      0x20\n      add\n      0x626c756500000000000000000000000000000000000000000000000000000000\n      dup2\n      mstore\n      pop\n      swap1\n      pop\n        /* \"ERC404Test.sol\":1413:1601  if (idSeed <= 220) {... */\n      jump(tag_353)\n    tag_352:\n        /* \"ERC404Test.sol\":1523:1526  255 */\n      0xff\n        /* \"ERC404Test.sol\":1513:1519  idSeed */\n      dup4\n        /* \"ERC404Test.sol\":1513:1526  idSeed <= 255 */\n      0xff\n      and\n      gt\n        /* \"ERC404Test.sol\":1509:1601  if (idSeed <= 255) {... */\n      tag_354\n      jumpi\n        /* \"ERC404Test.sol\":1543:1558  image = \"6.jpg\" */\n      mload(0x40)\n      dup1\n      0x40\n      add\n      0x40\n      mstore\n      dup1\n      0x05\n      dup2\n      mstore\n      0x20\n      add\n      0x362e6a7067000000000000000000000000000000000000000000000000000000\n      dup2\n      mstore\n      pop\n      swap2\n      pop\n        /* \"ERC404Test.sol\":1573:1589  color = \"purple\" */\n      mload(0x40)\n      dup1\n      0x40\n      add\n      0x40\n      mstore\n      dup1\n      0x06\n      dup2\n      mstore\n      0x20\n      add\n      0x707572706c650000000000000000000000000000000000000000000000000000\n      dup2\n      mstore\n      pop\n      swap1\n      pop\n        /* \"ERC404Test.sol\":1509:1601  if (idSeed <= 255) {... */\n    tag_354:\n        /* \"ERC404Test.sol\":1413:1601  if (idSeed <= 220) {... */\n    tag_353:\n        /* \"ERC404Test.sol\":1316:1601  if (idSeed <= 190) {... */\n    tag_351:\n        /* \"ERC404Test.sol\":1218:1601  if (idSeed <= 160) {... */\n    tag_349:\n        /* \"ERC404Test.sol\":1120:1601  if (idSeed <= 130) {... */\n    tag_347:\n        /* \"ERC404Test.sol\":1025:1601  if (idSeed <= 100) {... */\n    tag_345:\n        /* \"ERC404Test.sol\":1611:1632  return [image, color] */\n      mload(0x40)\n      dup1\n      0x40\n      add\n      0x40\n      mstore\n      dup1\n        /* \"ERC404Test.sol\":1619:1624  image */\n      dup4\n        /* \"ERC404Test.sol\":1611:1632  return [image, color] */\n      dup2\n      mstore\n      0x20\n      add\n        /* \"ERC404Test.sol\":1626:1631  color */\n      dup3\n        /* \"ERC404Test.sol\":1611:1632  return [image, color] */\n      dup2\n      mstore\n      pop\n      swap4\n      pop\n      pop\n      pop\n      pop\n        /* \"ERC404Test.sol\":810:1640  function getNftImg(uint256 id) internal pure returns (string[2] memory) {... */\n      swap2\n      swap1\n      pop\n      jump\t// out\n        /* \"ERC404.sol\":11070:11443  function _burn(address from) internal virtual {... */\n    tag_312:\n        /* \"ERC404.sol\":11147:11148  0 */\n      0x00\n        /* \"ERC404.sol\":11131:11149  from == address(0) */\n      0xffffffffffffffffffffffffffffffffffffffff\n      and\n        /* \"ERC404.sol\":11131:11135  from */\n      dup2\n        /* \"ERC404.sol\":11131:11149  from == address(0) */\n      0xffffffffffffffffffffffffffffffffffffffff\n      and\n      sub\n        /* \"ERC404.sol\":11127:11200  if (from == address(0)) {... */\n      tag_356\n      jumpi\n        /* \"ERC404.sol\":11173:11188  InvalidSender() */\n      mload(0x40)\n      0xddb5de5e00000000000000000000000000000000000000000000000000000000\n      dup2\n      mstore\n      0x04\n      add\n      mload(0x40)\n      dup1\n      swap2\n      sub\n      swap1\n      revert\n        /* \"ERC404.sol\":11127:11200  if (from == address(0)) {... */\n    tag_356:\n        /* \"ERC404.sol\":11212:11222  uint256 id */\n      0x00\n        /* \"ERC404.sol\":11225:11231  _owned */\n      0x09\n        /* \"ERC404.sol\":11225:11237  _owned[from] */\n      0x00\n        /* \"ERC404.sol\":11232:11236  from */\n      dup4\n        /* \"ERC404.sol\":11225:11237  _owned[from] */\n      0xffffffffffffffffffffffffffffffffffffffff\n      and\n      0xffffffffffffffffffffffffffffffffffffffff\n      and\n      dup2\n      mstore\n      0x20\n      add\n      swap1\n      dup2\n      mstore\n      0x20\n      add\n      0x00\n      keccak256\n        /* \"ERC404.sol\":11260:11261  1 */\n      0x01\n        /* \"ERC404.sol\":11238:11244  _owned */\n      0x09\n        /* \"ERC404.sol\":11238:11250  _owned[from] */\n      0x00\n        /* \"ERC404.sol\":11245:11249  from */\n      dup6\n        /* \"ERC404.sol\":11238:11250  _owned[from] */\n      0xffffffffffffffffffffffffffffffffffffffff\n      and\n      0xffffffffffffffffffffffffffffffffffffffff\n      and\n      dup2\n      mstore\n      0x20\n      add\n      swap1\n      dup2\n      mstore\n      0x20\n      add\n      0x00\n      keccak256\n        /* \"ERC404.sol\":11238:11257  _owned[from].length */\n      dup1\n      sload\n      swap1\n      pop\n        /* \"ERC404.sol\":11238:11261  _owned[from].length - 1 */\n      tag_357\n      swap2\n      swap1\n      tag_177\n      jump\t// in\n    tag_357:\n        /* \"ERC404.sol\":11225:11262  _owned[from][_owned[from].length - 1] */\n      dup2\n      sload\n      dup2\n      lt\n      tag_358\n      jumpi\n      tag_359\n      tag_182\n      jump\t// in\n    tag_359:\n    tag_358:\n      swap1\n      0x00\n      mstore\n      keccak256(0x00, 0x20)\n      add\n      sload\n        /* \"ERC404.sol\":11212:11262  uint256 id = _owned[from][_owned[from].length - 1] */\n      swap1\n      pop\n        /* \"ERC404.sol\":11273:11279  _owned */\n      0x09\n        /* \"ERC404.sol\":11273:11285  _owned[from] */\n      0x00\n        /* \"ERC404.sol\":11280:11284  from */\n      dup4\n        /* \"ERC404.sol\":11273:11285  _owned[from] */\n      0xffffffffffffffffffffffffffffffffffffffff\n      and\n      0xffffffffffffffffffffffffffffffffffffffff\n      and\n      dup2\n      mstore\n      0x20\n      add\n      swap1\n      dup2\n      mstore\n      0x20\n      add\n      0x00\n      keccak256\n        /* \"ERC404.sol\":11273:11291  _owned[from].pop() */\n      dup1\n      sload\n      dup1\n      tag_361\n      jumpi\n      tag_362\n      tag_189\n      jump\t// in\n    tag_362:\n    tag_361:\n      0x01\n      swap1\n      sub\n      dup2\n      dup2\n      swap1\n      0x00\n      mstore\n      keccak256(0x00, 0x20)\n      add\n      0x00\n      swap1\n      sstore\n      swap1\n      sstore\n        /* \"ERC404.sol\":11309:11320  _ownedIndex */\n      0x0a\n        /* \"ERC404.sol\":11309:11324  _ownedIndex[id] */\n      0x00\n        /* \"ERC404.sol\":11321:11323  id */\n      dup3\n        /* \"ERC404.sol\":11309:11324  _ownedIndex[id] */\n      dup2\n      mstore\n      0x20\n      add\n      swap1\n      dup2\n      mstore\n      0x20\n      add\n      0x00\n      keccak256\n        /* \"ERC404.sol\":11302:11324  delete _ownedIndex[id] */\n      0x00\n      swap1\n      sstore\n        /* \"ERC404.sol\":11342:11350  _ownerOf */\n      0x08\n        /* \"ERC404.sol\":11342:11354  _ownerOf[id] */\n      0x00\n        /* \"ERC404.sol\":11351:11353  id */\n      dup3\n        /* \"ERC404.sol\":11342:11354  _ownerOf[id] */\n      dup2\n      mstore\n      0x20\n      add\n      swap1\n      dup2\n      mstore\n      0x20\n      add\n      0x00\n      keccak256\n      0x00\n        /* \"ERC404.sol\":11335:11354  delete _ownerOf[id] */\n      0x0100\n      exp\n      dup2\n      sload\n      swap1\n      0xffffffffffffffffffffffffffffffffffffffff\n      mul\n      not\n      and\n      swap1\n      sstore\n        /* \"ERC404.sol\":11372:11383  getApproved */\n      0x06\n        /* \"ERC404.sol\":11372:11387  getApproved[id] */\n      0x00\n        /* \"ERC404.sol\":11384:11386  id */\n      dup3\n        /* \"ERC404.sol\":11372:11387  getApproved[id] */\n      dup2\n      mstore\n      0x20\n      add\n      swap1\n      dup2\n      mstore\n      0x20\n      add\n      0x00\n      keccak256\n      0x00\n        /* \"ERC404.sol\":11365:11387  delete getApproved[id] */\n      0x0100\n      exp\n      dup2\n      sload\n      swap1\n      0xffffffffffffffffffffffffffffffffffffffff\n      mul\n      not\n      and\n      swap1\n      sstore\n        /* \"ERC404.sol\":11432:11434  id */\n      dup1\n        /* \"ERC404.sol\":11428:11429  0 */\n      0x00\n        /* \"ERC404.sol\":11405:11435  Transfer(from, address(0), id) */\n      0xffffffffffffffffffffffffffffffffffffffff\n      and\n        /* \"ERC404.sol\":11414:11418  from */\n      dup4\n        /* \"ERC404.sol\":11405:11435  Transfer(from, address(0), id) */\n      0xffffffffffffffffffffffffffffffffffffffff\n      and\n      0xddf252ad1be2c89b69c2b068fc378daa952ba7f163c4a11628f55a4df523b3ef\n      mload(0x40)\n      mload(0x40)\n      dup1\n      swap2\n      sub\n      swap1\n      log4\n        /* \"ERC404.sol\":11116:11443  {... */\n      pop\n        /* \"ERC404.sol\":11070:11443  function _burn(address from) internal virtual {... */\n      pop\n      jump\t// out\n        /* \"ERC404.sol\":10588:11062  function _mint(address to) internal virtual {... */\n    tag_321:\n        /* \"ERC404.sol\":10661:10662  0 */\n      0x00\n        /* \"ERC404.sol\":10647:10663  to == address(0) */\n      0xffffffffffffffffffffffffffffffffffffffff\n      and\n        /* \"ERC404.sol\":10647:10649  to */\n      dup2\n        /* \"ERC404.sol\":10647:10663  to == address(0) */\n      0xffffffffffffffffffffffffffffffffffffffff\n      and\n      sub\n        /* \"ERC404.sol\":10643:10717  if (to == address(0)) {... */\n      tag_365\n      jumpi\n        /* \"ERC404.sol\":10687:10705  InvalidRecipient() */\n      mload(0x40)\n      0x9c8d2cd200000000000000000000000000000000000000000000000000000000\n      dup2\n      mstore\n      0x04\n      add\n      mload(0x40)\n      dup1\n      swap2\n      sub\n      swap1\n      revert\n        /* \"ERC404.sol\":10643:10717  if (to == address(0)) {... */\n    tag_365:\n        /* \"ERC404.sol\":10754:10760  minted */\n      0x03\n      0x00\n        /* \"ERC404.sol\":10754:10762  minted++ */\n      dup2\n      sload\n      dup1\n      swap3\n      swap2\n      swap1\n      0x01\n      add\n      swap2\n      swap1\n      pop\n      sstore\n      pop\n        /* \"ERC404.sol\":10786:10796  uint256 id */\n      0x00\n        /* \"ERC404.sol\":10799:10805  minted */\n      sload(0x03)\n        /* \"ERC404.sol\":10786:10805  uint256 id = minted */\n      swap1\n      pop\n        /* \"ERC404.sol\":10846:10847  0 */\n      0x00\n        /* \"ERC404.sol\":10822:10848  _ownerOf[id] != address(0) */\n      0xffffffffffffffffffffffffffffffffffffffff\n      and\n        /* \"ERC404.sol\":10822:10830  _ownerOf */\n      0x08\n        /* \"ERC404.sol\":10822:10834  _ownerOf[id] */\n      0x00\n        /* \"ERC404.sol\":10831:10833  id */\n      dup4\n        /* \"ERC404.sol\":10822:10834  _ownerOf[id] */\n      dup2\n      mstore\n      0x20\n      add\n      swap1\n      dup2\n      mstore\n      0x20\n      add\n      0x00\n      keccak256\n      0x00\n      swap1\n      sload\n      swap1\n      0x0100\n      exp\n      swap1\n      div\n      0xffffffffffffffffffffffffffffffffffffffff\n      and\n        /* \"ERC404.sol\":10822:10848  _ownerOf[id] != address(0) */\n      0xffffffffffffffffffffffffffffffffffffffff\n      and\n      eq\n        /* \"ERC404.sol\":10818:10899  if (_ownerOf[id] != address(0)) {... */\n      tag_366\n      jumpi\n        /* \"ERC404.sol\":10872:10887  AlreadyExists() */\n      mload(0x40)\n      0x23369fa600000000000000000000000000000000000000000000000000000000\n      dup2\n      mstore\n      0x04\n      add\n      mload(0x40)\n      dup1\n      swap2\n      sub\n      swap1\n      revert\n        /* \"ERC404.sol\":10818:10899  if (_ownerOf[id] != address(0)) {... */\n    tag_366:\n        /* \"ERC404.sol\":10926:10928  to */\n      dup2\n        /* \"ERC404.sol\":10911:10919  _ownerOf */\n      0x08\n        /* \"ERC404.sol\":10911:10923  _ownerOf[id] */\n      0x00\n        /* \"ERC404.sol\":10920:10922  id */\n      dup4\n        /* \"ERC404.sol\":10911:10923  _ownerOf[id] */\n      dup2\n      mstore\n      0x20\n      add\n      swap1\n      dup2\n      mstore\n      0x20\n      add\n      0x00\n      keccak256\n      0x00\n        /* \"ERC404.sol\":10911:10928  _ownerOf[id] = to */\n      0x0100\n      exp\n      dup2\n      sload\n      dup2\n      0xffffffffffffffffffffffffffffffffffffffff\n      mul\n      not\n      and\n      swap1\n      dup4\n      0xffffffffffffffffffffffffffffffffffffffff\n      and\n      mul\n      or\n      swap1\n      sstore\n      pop\n        /* \"ERC404.sol\":10939:10945  _owned */\n      0x09\n        /* \"ERC404.sol\":10939:10949  _owned[to] */\n      0x00\n        /* \"ERC404.sol\":10946:10948  to */\n      dup4\n        /* \"ERC404.sol\":10939:10949  _owned[to] */\n      0xffffffffffffffffffffffffffffffffffffffff\n      and\n      0xffffffffffffffffffffffffffffffffffffffff\n      and\n      dup2\n      mstore\n      0x20\n      add\n      swap1\n      dup2\n      mstore\n      0x20\n      add\n      0x00\n      keccak256\n        /* \"ERC404.sol\":10955:10957  id */\n      dup2\n        /* \"ERC404.sol\":10939:10958  _owned[to].push(id) */\n      swap1\n      dup1\n      0x01\n      dup2\n      sload\n      add\n      dup1\n      dup3\n      sstore\n      dup1\n      swap2\n      pop\n      pop\n      0x01\n      swap1\n      sub\n      swap1\n      0x00\n      mstore\n      keccak256(0x00, 0x20)\n      add\n      0x00\n      swap1\n      swap2\n      swap1\n      swap2\n      swap1\n      swap2\n      pop\n      sstore\n        /* \"ERC404.sol\":11007:11008  1 */\n      0x01\n        /* \"ERC404.sol\":10987:10993  _owned */\n      0x09\n        /* \"ERC404.sol\":10987:10997  _owned[to] */\n      0x00\n        /* \"ERC404.sol\":10994:10996  to */\n      dup5\n        /* \"ERC404.sol\":10987:10997  _owned[to] */\n      0xffffffffffffffffffffffffffffffffffffffff\n      and\n      0xffffffffffffffffffffffffffffffffffffffff\n      and\n      dup2\n      mstore\n      0x20\n      add\n      swap1\n      dup2\n      mstore\n      0x20\n      add\n      0x00\n      keccak256\n        /* \"ERC404.sol\":10987:11004  _owned[to].length */\n      dup1\n      sload\n      swap1\n      pop\n        /* \"ERC404.sol\":10987:11008  _owned[to].length - 1 */\n      tag_368\n      swap2\n      swap1\n      tag_177\n      jump\t// in\n    tag_368:\n        /* \"ERC404.sol\":10969:10980  _ownedIndex */\n      0x0a\n        /* \"ERC404.sol\":10969:10984  _ownedIndex[id] */\n      0x00\n        /* \"ERC404.sol\":10981:10983  id */\n      dup4\n        /* \"ERC404.sol\":10969:10984  _ownedIndex[id] */\n      dup2\n      mstore\n      0x20\n      add\n      swap1\n      dup2\n      mstore\n      0x20\n      add\n      0x00\n      keccak256\n        /* \"ERC404.sol\":10969:11008  _ownedIndex[id] = _owned[to].length - 1 */\n      dup2\n      swap1\n      sstore\n      pop\n        /* \"ERC404.sol\":11051:11053  id */\n      dup1\n        /* \"ERC404.sol\":11047:11049  to */\n      dup3\n        /* \"ERC404.sol\":11026:11054  Transfer(address(0), to, id) */\n      0xffffffffffffffffffffffffffffffffffffffff\n      and\n        /* \"ERC404.sol\":11043:11044  0 */\n      0x00\n        /* \"ERC404.sol\":11026:11054  Transfer(address(0), to, id) */\n      0xffffffffffffffffffffffffffffffffffffffff\n      and\n      0xddf252ad1be2c89b69c2b068fc378daa952ba7f163c4a11628f55a4df523b3ef\n      mload(0x40)\n      mload(0x40)\n      dup1\n      swap2\n      sub\n      swap1\n      log4\n        /* \"ERC404.sol\":10632:11062  {... */\n      pop\n        /* \"ERC404.sol\":10588:11062  function _mint(address to) internal virtual {... */\n      pop\n      jump\t// out\n        /* \"@openzeppelin/contracts/utils/math/Math.sol\":12214:13130  function log10(uint256 value) internal pure returns (uint256) {... */\n    tag_328:\n        /* \"@openzeppelin/contracts/utils/math/Math.sol\":12267:12274  uint256 */\n      0x00\n        /* \"@openzeppelin/contracts/utils/math/Math.sol\":12286:12300  uint256 result */\n      dup1\n        /* \"@openzeppelin/contracts/utils/math/Math.sol\":12303:12304  0 */\n      0x00\n        /* \"@openzeppelin/contracts/utils/math/Math.sol\":12286:12304  uint256 result = 0 */\n      swap1\n      pop\n        /* \"@openzeppelin/contracts/utils/math/Math.sol\":12351:12359  10 ** 64 */\n      0x184f03e93ff9f4daa797ed6e38ed64bf6a1f010000000000000000\n        /* \"@openzeppelin/contracts/utils/math/Math.sol\":12342:12347  value */\n      dup4\n        /* \"@openzeppelin/contracts/utils/math/Math.sol\":12342:12359  value >= 10 ** 64 */\n      lt\n        /* \"@openzeppelin/contracts/utils/math/Math.sol\":12338:12441  if (value >= 10 ** 64) {... */\n      tag_370\n      jumpi\n        /* \"@openzeppelin/contracts/utils/math/Math.sol\":12388:12396  10 ** 64 */\n      0x184f03e93ff9f4daa797ed6e38ed64bf6a1f010000000000000000\n        /* \"@openzeppelin/contracts/utils/math/Math.sol\":12379:12396  value /= 10 ** 64 */\n      dup4\n      dup2\n      tag_371\n      jumpi\n      tag_372\n      tag_337\n      jump\t// in\n    tag_372:\n    tag_371:\n      div\n      swap3\n      pop\n        /* \"@openzeppelin/contracts/utils/math/Math.sol\":12424:12426  64 */\n      0x40\n        /* \"@openzeppelin/contracts/utils/math/Math.sol\":12414:12426  result += 64 */\n      dup2\n      add\n      swap1\n      pop\n        /* \"@openzeppelin/contracts/utils/math/Math.sol\":12338:12441  if (value >= 10 ** 64) {... */\n    tag_370:\n        /* \"@openzeppelin/contracts/utils/math/Math.sol\":12467:12475  10 ** 32 */\n      0x04ee2d6d415b85acef8100000000\n        /* \"@openzeppelin/contracts/utils/math/Math.sol\":12458:12463  value */\n      dup4\n        /* \"@openzeppelin/contracts/utils/math/Math.sol\":12458:12475  value >= 10 ** 32 */\n      lt\n        /* \"@openzeppelin/contracts/utils/math/Math.sol\":12454:12557  if (value >= 10 ** 32) {... */\n      tag_373\n      jumpi\n        /* \"@openzeppelin/contracts/utils/math/Math.sol\":12504:12512  10 ** 32 */\n      0x04ee2d6d415b85acef8100000000\n        /* \"@openzeppelin/contracts/utils/math/Math.sol\":12495:12512  value /= 10 ** 32 */\n      dup4\n      dup2\n      tag_374\n      jumpi\n      tag_375\n      tag_337\n      jump\t// in\n    tag_375:\n    tag_374:\n      div\n      swap3\n      pop\n        /* \"@openzeppelin/contracts/utils/math/Math.sol\":12540:12542  32 */\n      0x20\n        /* \"@openzeppelin/contracts/utils/math/Math.sol\":12530:12542  result += 32 */\n      dup2\n      add\n      swap1\n      pop\n        /* \"@openzeppelin/contracts/utils/math/Math.sol\":12454:12557  if (value >= 10 ** 32) {... */\n    tag_373:\n        /* \"@openzeppelin/contracts/utils/math/Math.sol\":12583:12591  10 ** 16 */\n      0x2386f26fc10000\n        /* \"@openzeppelin/contracts/utils/math/Math.sol\":12574:12579  value */\n      dup4\n        /* \"@openzeppelin/contracts/utils/math/Math.sol\":12574:12591  value >= 10 ** 16 */\n      lt\n        /* \"@openzeppelin/contracts/utils/math/Math.sol\":12570:12673  if (value >= 10 ** 16) {... */\n      tag_376\n      jumpi\n        /* \"@openzeppelin/contracts/utils/math/Math.sol\":12620:12628  10 ** 16 */\n      0x2386f26fc10000\n        /* \"@openzeppelin/contracts/utils/math/Math.sol\":12611:12628  value /= 10 ** 16 */\n      dup4\n      dup2\n      tag_377\n      jumpi\n      tag_378\n      tag_337\n      jump\t// in\n    tag_378:\n    tag_377:\n      div\n      swap3\n      pop\n        /* \"@openzeppelin/contracts/utils/math/Math.sol\":12656:12658  16 */\n      0x10\n        /* \"@openzeppelin/contracts/utils/math/Math.sol\":12646:12658  result += 16 */\n      dup2\n      add\n      swap1\n      pop\n        /* \"@openzeppelin/contracts/utils/math/Math.sol\":12570:12673  if (value >= 10 ** 16) {... */\n    tag_376:\n        /* \"@openzeppelin/contracts/utils/math/Math.sol\":12699:12706  10 ** 8 */\n      0x05f5e100\n        /* \"@openzeppelin/contracts/utils/math/Math.sol\":12690:12695  value */\n      dup4\n        /* \"@openzeppelin/contracts/utils/math/Math.sol\":12690:12706  value >= 10 ** 8 */\n      lt\n        /* \"@openzeppelin/contracts/utils/math/Math.sol\":12686:12786  if (value >= 10 ** 8) {... */\n      tag_379\n      jumpi\n        /* \"@openzeppelin/contracts/utils/math/Math.sol\":12735:12742  10 ** 8 */\n      0x05f5e100\n        /* \"@openzeppelin/contracts/utils/math/Math.sol\":12726:12742  value /= 10 ** 8 */\n      dup4\n      dup2\n      tag_380\n      jumpi\n      tag_381\n      tag_337\n      jump\t// in\n    tag_381:\n    tag_380:\n      div\n      swap3\n      pop\n        /* \"@openzeppelin/contracts/utils/math/Math.sol\":12770:12771  8 */\n      0x08\n        /* \"@openzeppelin/contracts/utils/math/Math.sol\":12760:12771  result += 8 */\n      dup2\n      add\n      swap1\n      pop\n        /* \"@openzeppelin/contracts/utils/math/Math.sol\":12686:12786  if (value >= 10 ** 8) {... */\n    tag_379:\n        /* \"@openzeppelin/contracts/utils/math/Math.sol\":12812:12819  10 ** 4 */\n      0x2710\n        /* \"@openzeppelin/contracts/utils/math/Math.sol\":12803:12808  value */\n      dup4\n        /* \"@openzeppelin/contracts/utils/math/Math.sol\":12803:12819  value >= 10 ** 4 */\n      lt\n        /* \"@openzeppelin/contracts/utils/math/Math.sol\":12799:12899  if (value >= 10 ** 4) {... */\n      tag_382\n      jumpi\n        /* \"@openzeppelin/contracts/utils/math/Math.sol\":12848:12855  10 ** 4 */\n      0x2710\n        /* \"@openzeppelin/contracts/utils/math/Math.sol\":12839:12855  value /= 10 ** 4 */\n      dup4\n      dup2\n      tag_383\n      jumpi\n      tag_384\n      tag_337\n      jump\t// in\n    tag_384:\n    tag_383:\n      div\n      swap3\n      pop\n        /* \"@openzeppelin/contracts/utils/math/Math.sol\":12883:12884  4 */\n      0x04\n        /* \"@openzeppelin/contracts/utils/math/Math.sol\":12873:12884  result += 4 */\n      dup2\n      add\n      swap1\n      pop\n        /* \"@openzeppelin/contracts/utils/math/Math.sol\":12799:12899  if (value >= 10 ** 4) {... */\n    tag_382:\n        /* \"@openzeppelin/contracts/utils/math/Math.sol\":12925:12932  10 ** 2 */\n      0x64\n        /* \"@openzeppelin/contracts/utils/math/Math.sol\":12916:12921  value */\n      dup4\n        /* \"@openzeppelin/contracts/utils/math/Math.sol\":12916:12932  value >= 10 ** 2 */\n      lt\n        /* \"@openzeppelin/contracts/utils/math/Math.sol\":12912:13012  if (value >= 10 ** 2) {... */\n      tag_385\n      jumpi\n        /* \"@openzeppelin/contracts/utils/math/Math.sol\":12961:12968  10 ** 2 */\n      0x64\n        /* \"@openzeppelin/contracts/utils/math/Math.sol\":12952:12968  value /= 10 ** 2 */\n      dup4\n      dup2\n      tag_386\n      jumpi\n      tag_387\n      tag_337\n      jump\t// in\n    tag_387:\n    tag_386:\n      div\n      swap3\n      pop\n        /* \"@openzeppelin/contracts/utils/math/Math.sol\":12996:12997  2 */\n      0x02\n        /* \"@openzeppelin/contracts/utils/math/Math.sol\":12986:12997  result += 2 */\n      dup2\n      add\n      swap1\n      pop\n        /* \"@openzeppelin/contracts/utils/math/Math.sol\":12912:13012  if (value >= 10 ** 2) {... */\n    tag_385:\n        /* \"@openzeppelin/contracts/utils/math/Math.sol\":13038:13045  10 ** 1 */\n      0x0a\n        /* \"@openzeppelin/contracts/utils/math/Math.sol\":13029:13034  value */\n      dup4\n        /* \"@openzeppelin/contracts/utils/math/Math.sol\":13029:13045  value >= 10 ** 1 */\n      lt\n        /* \"@openzeppelin/contracts/utils/math/Math.sol\":13025:13091  if (value >= 10 ** 1) {... */\n      tag_388\n      jumpi\n        /* \"@openzeppelin/contracts/utils/math/Math.sol\":13075:13076  1 */\n      0x01\n        /* \"@openzeppelin/contracts/utils/math/Math.sol\":13065:13076  result += 1 */\n      dup2\n      add\n      swap1\n      pop\n        /* \"@openzeppelin/contracts/utils/math/Math.sol\":13025:13091  if (value >= 10 ** 1) {... */\n    tag_388:\n        /* \"@openzeppelin/contracts/utils/math/Math.sol\":13117:13123  result */\n      dup1\n        /* \"@openzeppelin/contracts/utils/math/Math.sol\":13110:13123  return result */\n      swap2\n      pop\n      pop\n        /* \"@openzeppelin/contracts/utils/math/Math.sol\":12214:13130  function log10(uint256 value) internal pure returns (uint256) {... */\n      swap2\n      swap1\n      pop\n      jump\t// out\n    tag_340:\n      mload(0x40)\n      dup1\n      0x40\n      add\n      0x40\n      mstore\n      dup1\n      0x02\n      swap1\n    tag_389:\n      0x60\n      dup2\n      mstore\n      0x20\n      add\n      swap1\n      0x01\n      swap1\n      sub\n      swap1\n      dup2\n      tag_389\n      jumpi\n      swap1\n      pop\n      pop\n      swap1\n      jump\t// out\n        /* \"#utility.yul\":7:106   */\n    tag_390:\n        /* \"#utility.yul\":59:65   */\n      0x00\n        /* \"#utility.yul\":93:98   */\n      dup2\n        /* \"#utility.yul\":87:99   */\n      mload\n        /* \"#utility.yul\":77:99   */\n      swap1\n      pop\n        /* \"#utility.yul\":7:106   */\n      swap2\n      swap1\n      pop\n      jump\t// out\n        /* \"#utility.yul\":112:281   */\n    tag_391:\n        /* \"#utility.yul\":196:207   */\n      0x00\n        /* \"#utility.yul\":230:236   */\n      dup3\n        /* \"#utility.yul\":225:228   */\n      dup3\n        /* \"#utility.yul\":218:237   */\n      mstore\n        /* \"#utility.yul\":270:274   */\n      0x20\n        /* \"#utility.yul\":265:268   */\n      dup3\n        /* \"#utility.yul\":261:275   */\n      add\n        /* \"#utility.yul\":246:275   */\n      swap1\n      pop\n        /* \"#utility.yul\":112:281   */\n      swap3\n      swap2\n      pop\n      pop\n      jump\t// out\n        /* \"#utility.yul\":287:533   */\n    tag_392:\n        /* \"#utility.yul\":368:369   */\n      0x00\n        /* \"#utility.yul\":378:491   */\n    tag_468:\n        /* \"#utility.yul\":392:398   */\n      dup4\n        /* \"#utility.yul\":389:390   */\n      dup2\n        /* \"#utility.yul\":386:399   */\n      lt\n        /* \"#utility.yul\":378:491   */\n      iszero\n      tag_470\n      jumpi\n        /* \"#utility.yul\":477:478   */\n      dup1\n        /* \"#utility.yul\":472:475   */\n      dup3\n        /* \"#utility.yul\":468:479   */\n      add\n        /* \"#utility.yul\":462:480   */\n      mload\n        /* \"#utility.yul\":458:459   */\n      dup2\n        /* \"#utility.yul\":453:456   */\n      dup5\n        /* \"#utility.yul\":449:460   */\n      add\n        /* \"#utility.yul\":442:481   */\n      mstore\n        /* \"#utility.yul\":414:416   */\n      0x20\n        /* \"#utility.yul\":411:412   */\n      dup2\n        /* \"#utility.yul\":407:417   */\n      add\n        /* \"#utility.yul\":402:417   */\n      swap1\n      pop\n        /* \"#utility.yul\":378:491   */\n      jump(tag_468)\n    tag_470:\n        /* \"#utility.yul\":525:526   */\n      0x00\n        /* \"#utility.yul\":516:522   */\n      dup5\n        /* \"#utility.yul\":511:514   */\n      dup5\n        /* \"#utility.yul\":507:523   */\n      add\n        /* \"#utility.yul\":500:527   */\n      mstore\n        /* \"#utility.yul\":349:533   */\n      pop\n        /* \"#utility.yul\":287:533   */\n      pop\n      pop\n      pop\n      jump\t// out\n        /* \"#utility.yul\":539:641   */\n    tag_393:\n        /* \"#utility.yul\":580:586   */\n      0x00\n        /* \"#utility.yul\":631:633   */\n      0x1f\n        /* \"#utility.yul\":627:634   */\n      not\n        /* \"#utility.yul\":622:624   */\n      0x1f\n        /* \"#utility.yul\":615:620   */\n      dup4\n        /* \"#utility.yul\":611:625   */\n      add\n        /* \"#utility.yul\":607:635   */\n      and\n        /* \"#utility.yul\":597:635   */\n      swap1\n      pop\n        /* \"#utility.yul\":539:641   */\n      swap2\n      swap1\n      pop\n      jump\t// out\n        /* \"#utility.yul\":647:1024   */\n    tag_394:\n        /* \"#utility.yul\":735:738   */\n      0x00\n        /* \"#utility.yul\":763:802   */\n      tag_473\n        /* \"#utility.yul\":796:801   */\n      dup3\n        /* \"#utility.yul\":763:802   */\n      tag_390\n      jump\t// in\n    tag_473:\n        /* \"#utility.yul\":818:889   */\n      tag_474\n        /* \"#utility.yul\":882:888   */\n      dup2\n        /* \"#utility.yul\":877:880   */\n      dup6\n        /* \"#utility.yul\":818:889   */\n      tag_391\n      jump\t// in\n    tag_474:\n        /* \"#utility.yul\":811:889   */\n      swap4\n      pop\n        /* \"#utility.yul\":898:963   */\n      tag_475\n        /* \"#utility.yul\":956:962   */\n      dup2\n        /* \"#utility.yul\":951:954   */\n      dup6\n        /* \"#utility.yul\":944:948   */\n      0x20\n        /* \"#utility.yul\":937:942   */\n      dup7\n        /* \"#utility.yul\":933:949   */\n      add\n        /* \"#utility.yul\":898:963   */\n      tag_392\n      jump\t// in\n    tag_475:\n        /* \"#utility.yul\":988:1017   */\n      tag_476\n        /* \"#utility.yul\":1010:1016   */\n      dup2\n        /* \"#utility.yul\":988:1017   */\n      tag_393\n      jump\t// in\n    tag_476:\n        /* \"#utility.yul\":983:986   */\n      dup5\n        /* \"#utility.yul\":979:1018   */\n      add\n        /* \"#utility.yul\":972:1018   */\n      swap2\n      pop\n        /* \"#utility.yul\":739:1024   */\n      pop\n        /* \"#utility.yul\":647:1024   */\n      swap3\n      swap2\n      pop\n      pop\n      jump\t// out\n        /* \"#utility.yul\":1030:1343   */\n    tag_42:\n        /* \"#utility.yul\":1143:1147   */\n      0x00\n        /* \"#utility.yul\":1181:1183   */\n      0x20\n        /* \"#utility.yul\":1170:1179   */\n      dup3\n        /* \"#utility.yul\":1166:1184   */\n      add\n        /* \"#utility.yul\":1158:1184   */\n      swap1\n      pop\n        /* \"#utility.yul\":1230:1239   */\n      dup2\n        /* \"#utility.yul\":1224:1228   */\n      dup2\n        /* \"#utility.yul\":1220:1240   */\n      sub\n        /* \"#utility.yul\":1216:1217   */\n      0x00\n        /* \"#utility.yul\":1205:1214   */\n      dup4\n        /* \"#utility.yul\":1201:1218   */\n      add\n        /* \"#utility.yul\":1194:1241   */\n      mstore\n        /* \"#utility.yul\":1258:1336   */\n      tag_478\n        /* \"#utility.yul\":1331:1335   */\n      dup2\n        /* \"#utility.yul\":1322:1328   */\n      dup5\n        /* \"#utility.yul\":1258:1336   */\n      tag_394\n      jump\t// in\n    tag_478:\n        /* \"#utility.yul\":1250:1336   */\n      swap1\n      pop\n        /* \"#utility.yul\":1030:1343   */\n      swap3\n      swap2\n      pop\n      pop\n      jump\t// out\n        /* \"#utility.yul\":1349:1424   */\n    tag_395:\n        /* \"#utility.yul\":1382:1388   */\n      0x00\n        /* \"#utility.yul\":1415:1417   */\n      0x40\n        /* \"#utility.yul\":1409:1418   */\n      mload\n        /* \"#utility.yul\":1399:1418   */\n      swap1\n      pop\n        /* \"#utility.yul\":1349:1424   */\n      swap1\n      jump\t// out\n        /* \"#utility.yul\":1430:1547   */\n    tag_396:\n        /* \"#utility.yul\":1539:1540   */\n      0x00\n        /* \"#utility.yul\":1536:1537   */\n      dup1\n        /* \"#utility.yul\":1529:1541   */\n      revert\n        /* \"#utility.yul\":1553:1670   */\n    tag_397:\n        /* \"#utility.yul\":1662:1663   */\n      0x00\n        /* \"#utility.yul\":1659:1660   */\n      dup1\n        /* \"#utility.yul\":1652:1664   */\n      revert\n        /* \"#utility.yul\":1676:1753   */\n    tag_398:\n        /* \"#utility.yul\":1713:1720   */\n      0x00\n        /* \"#utility.yul\":1742:1747   */\n      dup2\n        /* \"#utility.yul\":1731:1747   */\n      swap1\n      pop\n        /* \"#utility.yul\":1676:1753   */\n      swap2\n      swap1\n      pop\n      jump\t// out\n        /* \"#utility.yul\":1759:1881   */\n    tag_399:\n        /* \"#utility.yul\":1832:1856   */\n      tag_484\n        /* \"#utility.yul\":1850:1855   */\n      dup2\n        /* \"#utility.yul\":1832:1856   */\n      tag_398\n      jump\t// in\n    tag_484:\n        /* \"#utility.yul\":1825:1830   */\n      dup2\n        /* \"#utility.yul\":1822:1857   */\n      eq\n        /* \"#utility.yul\":1812:1875   */\n      tag_485\n      jumpi\n        /* \"#utility.yul\":1871:1872   */\n      0x00\n        /* \"#utility.yul\":1868:1869   */\n      dup1\n        /* \"#utility.yul\":1861:1873   */\n      revert\n        /* \"#utility.yul\":1812:1875   */\n    tag_485:\n        /* \"#utility.yul\":1759:1881   */\n      pop\n      jump\t// out\n        /* \"#utility.yul\":1887:2026   */\n    tag_400:\n        /* \"#utility.yul\":1933:1938   */\n      0x00\n        /* \"#utility.yul\":1971:1977   */\n      dup2\n        /* \"#utility.yul\":1958:1978   */\n      calldataload\n        /* \"#utility.yul\":1949:1978   */\n      swap1\n      pop\n        /* \"#utility.yul\":1987:2020   */\n      tag_487\n        /* \"#utility.yul\":2014:2019   */\n      dup2\n        /* \"#utility.yul\":1987:2020   */\n      tag_399\n      jump\t// in\n    tag_487:\n        /* \"#utility.yul\":1887:2026   */\n      swap3\n      swap2\n      pop\n      pop\n      jump\t// out\n        /* \"#utility.yul\":2032:2361   */\n    tag_45:\n        /* \"#utility.yul\":2091:2097   */\n      0x00\n        /* \"#utility.yul\":2140:2142   */\n      0x20\n        /* \"#utility.yul\":2128:2137   */\n      dup3\n        /* \"#utility.yul\":2119:2126   */\n      dup5\n        /* \"#utility.yul\":2115:2138   */\n      sub\n        /* \"#utility.yul\":2111:2143   */\n      slt\n        /* \"#utility.yul\":2108:2227   */\n      iszero\n      tag_489\n      jumpi\n        /* \"#utility.yul\":2146:2225   */\n      tag_490\n      tag_396\n      jump\t// in\n    tag_490:\n        /* \"#utility.yul\":2108:2227   */\n    tag_489:\n        /* \"#utility.yul\":2266:2267   */\n      0x00\n        /* \"#utility.yul\":2291:2344   */\n      tag_491\n        /* \"#utility.yul\":2336:2343   */\n      dup5\n        /* \"#utility.yul\":2327:2333   */\n      dup3\n        /* \"#utility.yul\":2316:2325   */\n      dup6\n        /* \"#utility.yul\":2312:2334   */\n      add\n        /* \"#utility.yul\":2291:2344   */\n      tag_400\n      jump\t// in\n    tag_491:\n        /* \"#utility.yul\":2281:2344   */\n      swap2\n      pop\n        /* \"#utility.yul\":2237:2354   */\n      pop\n        /* \"#utility.yul\":2032:2361   */\n      swap3\n      swap2\n      pop\n      pop\n      jump\t// out\n        /* \"#utility.yul\":2367:2493   */\n    tag_401:\n        /* \"#utility.yul\":2404:2411   */\n      0x00\n        /* \"#utility.yul\":2444:2486   */\n      0xffffffffffffffffffffffffffffffffffffffff\n        /* \"#utility.yul\":2437:2442   */\n      dup3\n        /* \"#utility.yul\":2433:2487   */\n      and\n        /* \"#utility.yul\":2422:2487   */\n      swap1\n      pop\n        /* \"#utility.yul\":2367:2493   */\n      swap2\n      swap1\n      pop\n      jump\t// out\n        /* \"#utility.yul\":2499:2595   */\n    tag_402:\n        /* \"#utility.yul\":2536:2543   */\n      0x00\n        /* \"#utility.yul\":2565:2589   */\n      tag_494\n        /* \"#utility.yul\":2583:2588   */\n      dup3\n        /* \"#utility.yul\":2565:2589   */\n      tag_401\n      jump\t// in\n    tag_494:\n        /* \"#utility.yul\":2554:2589   */\n      swap1\n      pop\n        /* \"#utility.yul\":2499:2595   */\n      swap2\n      swap1\n      pop\n      jump\t// out\n        /* \"#utility.yul\":2601:2719   */\n    tag_403:\n        /* \"#utility.yul\":2688:2712   */\n      tag_496\n        /* \"#utility.yul\":2706:2711   */\n      dup2\n        /* \"#utility.yul\":2688:2712   */\n      tag_402\n      jump\t// in\n    tag_496:\n        /* \"#utility.yul\":2683:2686   */\n      dup3\n        /* \"#utility.yul\":2676:2713   */\n      mstore\n        /* \"#utility.yul\":2601:2719   */\n      pop\n      pop\n      jump\t// out\n        /* \"#utility.yul\":2725:2947   */\n    tag_48:\n        /* \"#utility.yul\":2818:2822   */\n      0x00\n        /* \"#utility.yul\":2856:2858   */\n      0x20\n        /* \"#utility.yul\":2845:2854   */\n      dup3\n        /* \"#utility.yul\":2841:2859   */\n      add\n        /* \"#utility.yul\":2833:2859   */\n      swap1\n      pop\n        /* \"#utility.yul\":2869:2940   */\n      tag_498\n        /* \"#utility.yul\":2937:2938   */\n      0x00\n        /* \"#utility.yul\":2926:2935   */\n      dup4\n        /* \"#utility.yul\":2922:2939   */\n      add\n        /* \"#utility.yul\":2913:2919   */\n      dup5\n        /* \"#utility.yul\":2869:2940   */\n      tag_403\n      jump\t// in\n    tag_498:\n        /* \"#utility.yul\":2725:2947   */\n      swap3\n      swap2\n      pop\n      pop\n      jump\t// out\n        /* \"#utility.yul\":2953:3075   */\n    tag_404:\n        /* \"#utility.yul\":3026:3050   */\n      tag_500\n        /* \"#utility.yul\":3044:3049   */\n      dup2\n        /* \"#utility.yul\":3026:3050   */\n      tag_402\n      jump\t// in\n    tag_500:\n        /* \"#utility.yul\":3019:3024   */\n      dup2\n        /* \"#utility.yul\":3016:3051   */\n      eq\n        /* \"#utility.yul\":3006:3069   */\n      tag_501\n      jumpi\n        /* \"#utility.yul\":3065:3066   */\n      0x00\n        /* \"#utility.yul\":3062:3063   */\n      dup1\n        /* \"#utility.yul\":3055:3067   */\n      revert\n        /* \"#utility.yul\":3006:3069   */\n    tag_501:\n        /* \"#utility.yul\":2953:3075   */\n      pop\n      jump\t// out\n        /* \"#utility.yul\":3081:3220   */\n    tag_405:\n        /* \"#utility.yul\":3127:3132   */\n      0x00\n        /* \"#utility.yul\":3165:3171   */\n      dup2\n        /* \"#utility.yul\":3152:3172   */\n      calldataload\n        /* \"#utility.yul\":3143:3172   */\n      swap1\n      pop\n        /* \"#utility.yul\":3181:3214   */\n      tag_503\n        /* \"#utility.yul\":3208:3213   */\n      dup2\n        /* \"#utility.yul\":3181:3214   */\n      tag_404\n      jump\t// in\n    tag_503:\n        /* \"#utility.yul\":3081:3220   */\n      swap3\n      swap2\n      pop\n      pop\n      jump\t// out\n        /* \"#utility.yul\":3226:3700   */\n    tag_51:\n        /* \"#utility.yul\":3294:3300   */\n      0x00\n        /* \"#utility.yul\":3302:3308   */\n      dup1\n        /* \"#utility.yul\":3351:3353   */\n      0x40\n        /* \"#utility.yul\":3339:3348   */\n      dup4\n        /* \"#utility.yul\":3330:3337   */\n      dup6\n        /* \"#utility.yul\":3326:3349   */\n      sub\n        /* \"#utility.yul\":3322:3354   */\n      slt\n        /* \"#utility.yul\":3319:3438   */\n      iszero\n      tag_505\n      jumpi\n        /* \"#utility.yul\":3357:3436   */\n      tag_506\n      tag_396\n      jump\t// in\n    tag_506:\n        /* \"#utility.yul\":3319:3438   */\n    tag_505:\n        /* \"#utility.yul\":3477:3478   */\n      0x00\n        /* \"#utility.yul\":3502:3555   */\n      tag_507\n        /* \"#utility.yul\":3547:3554   */\n      dup6\n        /* \"#utility.yul\":3538:3544   */\n      dup3\n        /* \"#utility.yul\":3527:3536   */\n      dup7\n        /* \"#utility.yul\":3523:3545   */\n      add\n        /* \"#utility.yul\":3502:3555   */\n      tag_405\n      jump\t// in\n    tag_507:\n        /* \"#utility.yul\":3492:3555   */\n      swap3\n      pop\n        /* \"#utility.yul\":3448:3565   */\n      pop\n        /* \"#utility.yul\":3604:3606   */\n      0x20\n        /* \"#utility.yul\":3630:3683   */\n      tag_508\n        /* \"#utility.yul\":3675:3682   */\n      dup6\n        /* \"#utility.yul\":3666:3672   */\n      dup3\n        /* \"#utility.yul\":3655:3664   */\n      dup7\n        /* \"#utility.yul\":3651:3673   */\n      add\n        /* \"#utility.yul\":3630:3683   */\n      tag_400\n      jump\t// in\n    tag_508:\n        /* \"#utility.yul\":3620:3683   */\n      swap2\n      pop\n        /* \"#utility.yul\":3575:3693   */\n      pop\n        /* \"#utility.yul\":3226:3700   */\n      swap3\n      pop\n      swap3\n      swap1\n      pop\n      jump\t// out\n        /* \"#utility.yul\":3706:3796   */\n    tag_406:\n        /* \"#utility.yul\":3740:3747   */\n      0x00\n        /* \"#utility.yul\":3783:3788   */\n      dup2\n        /* \"#utility.yul\":3776:3789   */\n      iszero\n        /* \"#utility.yul\":3769:3790   */\n      iszero\n        /* \"#utility.yul\":3758:3790   */\n      swap1\n      pop\n        /* \"#utility.yul\":3706:3796   */\n      swap2\n      swap1\n      pop\n      jump\t// out\n        /* \"#utility.yul\":3802:3911   */\n    tag_407:\n        /* \"#utility.yul\":3883:3904   */\n      tag_511\n        /* \"#utility.yul\":3898:3903   */\n      dup2\n        /* \"#utility.yul\":3883:3904   */\n      tag_406\n      jump\t// in\n    tag_511:\n        /* \"#utility.yul\":3878:3881   */\n      dup3\n        /* \"#utility.yul\":3871:3905   */\n      mstore\n        /* \"#utility.yul\":3802:3911   */\n      pop\n      pop\n      jump\t// out\n        /* \"#utility.yul\":3917:4127   */\n    tag_54:\n        /* \"#utility.yul\":4004:4008   */\n      0x00\n        /* \"#utility.yul\":4042:4044   */\n      0x20\n        /* \"#utility.yul\":4031:4040   */\n      dup3\n        /* \"#utility.yul\":4027:4045   */\n      add\n        /* \"#utility.yul\":4019:4045   */\n      swap1\n      pop\n        /* \"#utility.yul\":4055:4120   */\n      tag_513\n        /* \"#utility.yul\":4117:4118   */\n      0x00\n        /* \"#utility.yul\":4106:4115   */\n      dup4\n        /* \"#utility.yul\":4102:4119   */\n      add\n        /* \"#utility.yul\":4093:4099   */\n      dup5\n        /* \"#utility.yul\":4055:4120   */\n      tag_407\n      jump\t// in\n    tag_513:\n        /* \"#utility.yul\":3917:4127   */\n      swap3\n      swap2\n      pop\n      pop\n      jump\t// out\n        /* \"#utility.yul\":4133:4251   */\n    tag_408:\n        /* \"#utility.yul\":4220:4244   */\n      tag_515\n        /* \"#utility.yul\":4238:4243   */\n      dup2\n        /* \"#utility.yul\":4220:4244   */\n      tag_398\n      jump\t// in\n    tag_515:\n        /* \"#utility.yul\":4215:4218   */\n      dup3\n        /* \"#utility.yul\":4208:4245   */\n      mstore\n        /* \"#utility.yul\":4133:4251   */\n      pop\n      pop\n      jump\t// out\n        /* \"#utility.yul\":4257:4479   */\n    tag_58:\n        /* \"#utility.yul\":4350:4354   */\n      0x00\n        /* \"#utility.yul\":4388:4390   */\n      0x20\n        /* \"#utility.yul\":4377:4386   */\n      dup3\n        /* \"#utility.yul\":4373:4391   */\n      add\n        /* \"#utility.yul\":4365:4391   */\n      swap1\n      pop\n        /* \"#utility.yul\":4401:4472   */\n      tag_517\n        /* \"#utility.yul\":4469:4470   */\n      0x00\n        /* \"#utility.yul\":4458:4467   */\n      dup4\n        /* \"#utility.yul\":4454:4471   */\n      add\n        /* \"#utility.yul\":4445:4451   */\n      dup5\n        /* \"#utility.yul\":4401:4472   */\n      tag_408\n      jump\t// in\n    tag_517:\n        /* \"#utility.yul\":4257:4479   */\n      swap3\n      swap2\n      pop\n      pop\n      jump\t// out\n        /* \"#utility.yul\":4485:4602   */\n    tag_409:\n        /* \"#utility.yul\":4594:4595   */\n      0x00\n        /* \"#utility.yul\":4591:4592   */\n      dup1\n        /* \"#utility.yul\":4584:4596   */\n      revert\n        /* \"#utility.yul\":4608:4725   */\n    tag_410:\n        /* \"#utility.yul\":4717:4718   */\n      0x00\n        /* \"#utility.yul\":4714:4715   */\n      dup1\n        /* \"#utility.yul\":4707:4719   */\n      revert\n        /* \"#utility.yul\":4731:4911   */\n    tag_331:\n        /* \"#utility.yul\":4779:4856   */\n      0x4e487b7100000000000000000000000000000000000000000000000000000000\n        /* \"#utility.yul\":4776:4777   */\n      0x00\n        /* \"#utility.yul\":4769:4857   */\n      mstore\n        /* \"#utility.yul\":4876:4880   */\n      0x41\n        /* \"#utility.yul\":4873:4874   */\n      0x04\n        /* \"#utility.yul\":4866:4881   */\n      mstore\n        /* \"#utility.yul\":4900:4904   */\n      0x24\n        /* \"#utility.yul\":4897:4898   */\n      0x00\n        /* \"#utility.yul\":4890:4905   */\n      revert\n        /* \"#utility.yul\":4917:5198   */\n    tag_411:\n        /* \"#utility.yul\":5000:5027   */\n      tag_522\n        /* \"#utility.yul\":5022:5026   */\n      dup3\n        /* \"#utility.yul\":5000:5027   */\n      tag_393\n      jump\t// in\n    tag_522:\n        /* \"#utility.yul\":4992:4998   */\n      dup2\n        /* \"#utility.yul\":4988:5028   */\n      add\n        /* \"#utility.yul\":5130:5136   */\n      dup2\n        /* \"#utility.yul\":5118:5128   */\n      dup2\n        /* \"#utility.yul\":5115:5137   */\n      lt\n        /* \"#utility.yul\":5094:5112   */\n      0xffffffffffffffff\n        /* \"#utility.yul\":5082:5092   */\n      dup3\n        /* \"#utility.yul\":5079:5113   */\n      gt\n        /* \"#utility.yul\":5076:5138   */\n      or\n        /* \"#utility.yul\":5073:5161   */\n      iszero\n      tag_523\n      jumpi\n        /* \"#utility.yul\":5141:5159   */\n      tag_524\n      tag_331\n      jump\t// in\n    tag_524:\n        /* \"#utility.yul\":5073:5161   */\n    tag_523:\n        /* \"#utility.yul\":5181:5191   */\n      dup1\n        /* \"#utility.yul\":5177:5179   */\n      0x40\n        /* \"#utility.yul\":5170:5192   */\n      mstore\n        /* \"#utility.yul\":4960:5198   */\n      pop\n        /* \"#utility.yul\":4917:5198   */\n      pop\n      pop\n      jump\t// out\n        /* \"#utility.yul\":5204:5333   */\n    tag_412:\n        /* \"#utility.yul\":5238:5244   */\n      0x00\n        /* \"#utility.yul\":5265:5285   */\n      tag_526\n      tag_395\n      jump\t// in\n    tag_526:\n        /* \"#utility.yul\":5255:5285   */\n      swap1\n      pop\n        /* \"#utility.yul\":5294:5327   */\n      tag_527\n        /* \"#utility.yul\":5322:5326   */\n      dup3\n        /* \"#utility.yul\":5314:5320   */\n      dup3\n        /* \"#utility.yul\":5294:5327   */\n      tag_411\n      jump\t// in\n    tag_527:\n        /* \"#utility.yul\":5204:5333   */\n      swap2\n      swap1\n      pop\n      jump\t// out\n        /* \"#utility.yul\":5339:5647   */\n    tag_413:\n        /* \"#utility.yul\":5401:5405   */\n      0x00\n        /* \"#utility.yul\":5491:5509   */\n      0xffffffffffffffff\n        /* \"#utility.yul\":5483:5489   */\n      dup3\n        /* \"#utility.yul\":5480:5510   */\n      gt\n        /* \"#utility.yul\":5477:5533   */\n      iszero\n      tag_529\n      jumpi\n        /* \"#utility.yul\":5513:5531   */\n      tag_530\n      tag_331\n      jump\t// in\n    tag_530:\n        /* \"#utility.yul\":5477:5533   */\n    tag_529:\n        /* \"#utility.yul\":5551:5580   */\n      tag_531\n        /* \"#utility.yul\":5573:5579   */\n      dup3\n        /* \"#utility.yul\":5551:5580   */\n      tag_393\n      jump\t// in\n    tag_531:\n        /* \"#utility.yul\":5543:5580   */\n      swap1\n      pop\n        /* \"#utility.yul\":5635:5639   */\n      0x20\n        /* \"#utility.yul\":5629:5633   */\n      dup2\n        /* \"#utility.yul\":5625:5640   */\n      add\n        /* \"#utility.yul\":5617:5640   */\n      swap1\n      pop\n        /* \"#utility.yul\":5339:5647   */\n      swap2\n      swap1\n      pop\n      jump\t// out\n        /* \"#utility.yul\":5653:5799   */\n    tag_414:\n        /* \"#utility.yul\":5750:5756   */\n      dup3\n        /* \"#utility.yul\":5745:5748   */\n      dup2\n        /* \"#utility.yul\":5740:5743   */\n      dup4\n        /* \"#utility.yul\":5727:5757   */\n      calldatacopy\n        /* \"#utility.yul\":5791:5792   */\n      0x00\n        /* \"#utility.yul\":5782:5788   */\n      dup4\n        /* \"#utility.yul\":5777:5780   */\n      dup4\n        /* \"#utility.yul\":5773:5789   */\n      add\n        /* \"#utility.yul\":5766:5793   */\n      mstore\n        /* \"#utility.yul\":5653:5799   */\n      pop\n      pop\n      pop\n      jump\t// out\n        /* \"#utility.yul\":5805:6230   */\n    tag_415:\n        /* \"#utility.yul\":5883:5888   */\n      0x00\n        /* \"#utility.yul\":5908:5974   */\n      tag_534\n        /* \"#utility.yul\":5924:5973   */\n      tag_535\n        /* \"#utility.yul\":5966:5972   */\n      dup5\n        /* \"#utility.yul\":5924:5973   */\n      tag_413\n      jump\t// in\n    tag_535:\n        /* \"#utility.yul\":5908:5974   */\n      tag_412\n      jump\t// in\n    tag_534:\n        /* \"#utility.yul\":5899:5974   */\n      swap1\n      pop\n        /* \"#utility.yul\":5997:6003   */\n      dup3\n        /* \"#utility.yul\":5990:5995   */\n      dup2\n        /* \"#utility.yul\":5983:6004   */\n      mstore\n        /* \"#utility.yul\":6035:6039   */\n      0x20\n        /* \"#utility.yul\":6028:6033   */\n      dup2\n        /* \"#utility.yul\":6024:6040   */\n      add\n        /* \"#utility.yul\":6073:6076   */\n      dup5\n        /* \"#utility.yul\":6064:6070   */\n      dup5\n        /* \"#utility.yul\":6059:6062   */\n      dup5\n        /* \"#utility.yul\":6055:6071   */\n      add\n        /* \"#utility.yul\":6052:6077   */\n      gt\n        /* \"#utility.yul\":6049:6161   */\n      iszero\n      tag_536\n      jumpi\n        /* \"#utility.yul\":6080:6159   */\n      tag_537\n      tag_410\n      jump\t// in\n    tag_537:\n        /* \"#utility.yul\":6049:6161   */\n    tag_536:\n        /* \"#utility.yul\":6170:6224   */\n      tag_538\n        /* \"#utility.yul\":6217:6223   */\n      dup5\n        /* \"#utility.yul\":6212:6215   */\n      dup3\n        /* \"#utility.yul\":6207:6210   */\n      dup6\n        /* \"#utility.yul\":6170:6224   */\n      tag_414\n      jump\t// in\n    tag_538:\n        /* \"#utility.yul\":5889:6230   */\n      pop\n        /* \"#utility.yul\":5805:6230   */\n      swap4\n      swap3\n      pop\n      pop\n      pop\n      jump\t// out\n        /* \"#utility.yul\":6250:6590   */\n    tag_416:\n        /* \"#utility.yul\":6306:6311   */\n      0x00\n        /* \"#utility.yul\":6355:6358   */\n      dup3\n        /* \"#utility.yul\":6348:6352   */\n      0x1f\n        /* \"#utility.yul\":6340:6346   */\n      dup4\n        /* \"#utility.yul\":6336:6353   */\n      add\n        /* \"#utility.yul\":6332:6359   */\n      slt\n        /* \"#utility.yul\":6322:6444   */\n      tag_540\n      jumpi\n        /* \"#utility.yul\":6363:6442   */\n      tag_541\n      tag_409\n      jump\t// in\n    tag_541:\n        /* \"#utility.yul\":6322:6444   */\n    tag_540:\n        /* \"#utility.yul\":6480:6486   */\n      dup2\n        /* \"#utility.yul\":6467:6487   */\n      calldataload\n        /* \"#utility.yul\":6505:6584   */\n      tag_542\n        /* \"#utility.yul\":6580:6583   */\n      dup5\n        /* \"#utility.yul\":6572:6578   */\n      dup3\n        /* \"#utility.yul\":6565:6569   */\n      0x20\n        /* \"#utility.yul\":6557:6563   */\n      dup7\n        /* \"#utility.yul\":6553:6570   */\n      add\n        /* \"#utility.yul\":6505:6584   */\n      tag_415\n      jump\t// in\n    tag_542:\n        /* \"#utility.yul\":6496:6584   */\n      swap2\n      pop\n        /* \"#utility.yul\":6312:6590   */\n      pop\n        /* \"#utility.yul\":6250:6590   */\n      swap3\n      swap2\n      pop\n      pop\n      jump\t// out\n        /* \"#utility.yul\":6596:7105   */\n    tag_61:\n        /* \"#utility.yul\":6665:6671   */\n      0x00\n        /* \"#utility.yul\":6714:6716   */\n      0x20\n        /* \"#utility.yul\":6702:6711   */\n      dup3\n        /* \"#utility.yul\":6693:6700   */\n      dup5\n        /* \"#utility.yul\":6689:6712   */\n      sub\n        /* \"#utility.yul\":6685:6717   */\n      slt\n        /* \"#utility.yul\":6682:6801   */\n      iszero\n      tag_544\n      jumpi\n        /* \"#utility.yul\":6720:6799   */\n      tag_545\n      tag_396\n      jump\t// in\n    tag_545:\n        /* \"#utility.yul\":6682:6801   */\n    tag_544:\n        /* \"#utility.yul\":6868:6869   */\n      0x00\n        /* \"#utility.yul\":6857:6866   */\n      dup3\n        /* \"#utility.yul\":6853:6870   */\n      add\n        /* \"#utility.yul\":6840:6871   */\n      calldataload\n        /* \"#utility.yul\":6898:6916   */\n      0xffffffffffffffff\n        /* \"#utility.yul\":6890:6896   */\n      dup2\n        /* \"#utility.yul\":6887:6917   */\n      gt\n        /* \"#utility.yul\":6884:7001   */\n      iszero\n      tag_546\n      jumpi\n        /* \"#utility.yul\":6920:6999   */\n      tag_547\n      tag_397\n      jump\t// in\n    tag_547:\n        /* \"#utility.yul\":6884:7001   */\n    tag_546:\n        /* \"#utility.yul\":7025:7088   */\n      tag_548\n        /* \"#utility.yul\":7080:7087   */\n      dup5\n        /* \"#utility.yul\":7071:7077   */\n      dup3\n        /* \"#utility.yul\":7060:7069   */\n      dup6\n        /* \"#utility.yul\":7056:7078   */\n      add\n        /* \"#utility.yul\":7025:7088   */\n      tag_416\n      jump\t// in\n    tag_548:\n        /* \"#utility.yul\":7015:7088   */\n      swap2\n      pop\n        /* \"#utility.yul\":6811:7098   */\n      pop\n        /* \"#utility.yul\":6596:7105   */\n      swap3\n      swap2\n      pop\n      pop\n      jump\t// out\n        /* \"#utility.yul\":7111:7730   */\n    tag_65:\n        /* \"#utility.yul\":7188:7194   */\n      0x00\n        /* \"#utility.yul\":7196:7202   */\n      dup1\n        /* \"#utility.yul\":7204:7210   */\n      0x00\n        /* \"#utility.yul\":7253:7255   */\n      0x60\n        /* \"#utility.yul\":7241:7250   */\n      dup5\n        /* \"#utility.yul\":7232:7239   */\n      dup7\n        /* \"#utility.yul\":7228:7251   */\n      sub\n        /* \"#utility.yul\":7224:7256   */\n      slt\n        /* \"#utility.yul\":7221:7340   */\n      iszero\n      tag_550\n      jumpi\n        /* \"#utility.yul\":7259:7338   */\n      tag_551\n      tag_396\n      jump\t// in\n    tag_551:\n        /* \"#utility.yul\":7221:7340   */\n    tag_550:\n        /* \"#utility.yul\":7379:7380   */\n      0x00\n        /* \"#utility.yul\":7404:7457   */\n      tag_552\n        /* \"#utility.yul\":7449:7456   */\n      dup7\n        /* \"#utility.yul\":7440:7446   */\n      dup3\n        /* \"#utility.yul\":7429:7438   */\n      dup8\n        /* \"#utility.yul\":7425:7447   */\n      add\n        /* \"#utility.yul\":7404:7457   */\n      tag_405\n      jump\t// in\n    tag_552:\n        /* \"#utility.yul\":7394:7457   */\n      swap4\n      pop\n        /* \"#utility.yul\":7350:7467   */\n      pop\n        /* \"#utility.yul\":7506:7508   */\n      0x20\n        /* \"#utility.yul\":7532:7585   */\n      tag_553\n        /* \"#utility.yul\":7577:7584   */\n      dup7\n        /* \"#utility.yul\":7568:7574   */\n      dup3\n        /* \"#utility.yul\":7557:7566   */\n      dup8\n        /* \"#utility.yul\":7553:7575   */\n      add\n        /* \"#utility.yul\":7532:7585   */\n      tag_405\n      jump\t// in\n    tag_553:\n        /* \"#utility.yul\":7522:7585   */\n      swap3\n      pop\n        /* \"#utility.yul\":7477:7595   */\n      pop\n        /* \"#utility.yul\":7634:7636   */\n      0x40\n        /* \"#utility.yul\":7660:7713   */\n      tag_554\n        /* \"#utility.yul\":7705:7712   */\n      dup7\n        /* \"#utility.yul\":7696:7702   */\n      dup3\n        /* \"#utility.yul\":7685:7694   */\n      dup8\n        /* \"#utility.yul\":7681:7703   */\n      add\n        /* \"#utility.yul\":7660:7713   */\n      tag_400\n      jump\t// in\n    tag_554:\n        /* \"#utility.yul\":7650:7713   */\n      swap2\n      pop\n        /* \"#utility.yul\":7605:7723   */\n      pop\n        /* \"#utility.yul\":7111:7730   */\n      swap3\n      pop\n      swap3\n      pop\n      swap3\n      jump\t// out\n        /* \"#utility.yul\":7736:7822   */\n    tag_417:\n        /* \"#utility.yul\":7771:7778   */\n      0x00\n        /* \"#utility.yul\":7811:7815   */\n      0xff\n        /* \"#utility.yul\":7804:7809   */\n      dup3\n        /* \"#utility.yul\":7800:7816   */\n      and\n        /* \"#utility.yul\":7789:7816   */\n      swap1\n      pop\n        /* \"#utility.yul\":7736:7822   */\n      swap2\n      swap1\n      pop\n      jump\t// out\n        /* \"#utility.yul\":7828:7940   */\n    tag_418:\n        /* \"#utility.yul\":7911:7933   */\n      tag_557\n        /* \"#utility.yul\":7927:7932   */\n      dup2\n        /* \"#utility.yul\":7911:7933   */\n      tag_417\n      jump\t// in\n    tag_557:\n        /* \"#utility.yul\":7906:7909   */\n      dup3\n        /* \"#utility.yul\":7899:7934   */\n      mstore\n        /* \"#utility.yul\":7828:7940   */\n      pop\n      pop\n      jump\t// out\n        /* \"#utility.yul\":7946:8160   */\n    tag_72:\n        /* \"#utility.yul\":8035:8039   */\n      0x00\n        /* \"#utility.yul\":8073:8075   */\n      0x20\n        /* \"#utility.yul\":8062:8071   */\n      dup3\n        /* \"#utility.yul\":8058:8076   */\n      add\n        /* \"#utility.yul\":8050:8076   */\n      swap1\n      pop\n        /* \"#utility.yul\":8086:8153   */\n      tag_559\n        /* \"#utility.yul\":8150:8151   */\n      0x00\n        /* \"#utility.yul\":8139:8148   */\n      dup4\n        /* \"#utility.yul\":8135:8152   */\n      add\n        /* \"#utility.yul\":8126:8132   */\n      dup5\n        /* \"#utility.yul\":8086:8153   */\n      tag_418\n      jump\t// in\n    tag_559:\n        /* \"#utility.yul\":7946:8160   */\n      swap3\n      swap2\n      pop\n      pop\n      jump\t// out\n        /* \"#utility.yul\":8166:9000   */\n    tag_81:\n        /* \"#utility.yul\":8254:8260   */\n      0x00\n        /* \"#utility.yul\":8262:8268   */\n      dup1\n        /* \"#utility.yul\":8311:8313   */\n      0x40\n        /* \"#utility.yul\":8299:8308   */\n      dup4\n        /* \"#utility.yul\":8290:8297   */\n      dup6\n        /* \"#utility.yul\":8286:8309   */\n      sub\n        /* \"#utility.yul\":8282:8314   */\n      slt\n        /* \"#utility.yul\":8279:8398   */\n      iszero\n      tag_561\n      jumpi\n        /* \"#utility.yul\":8317:8396   */\n      tag_562\n      tag_396\n      jump\t// in\n    tag_562:\n        /* \"#utility.yul\":8279:8398   */\n    tag_561:\n        /* \"#utility.yul\":8465:8466   */\n      0x00\n        /* \"#utility.yul\":8454:8463   */\n      dup4\n        /* \"#utility.yul\":8450:8467   */\n      add\n        /* \"#utility.yul\":8437:8468   */\n      calldataload\n        /* \"#utility.yul\":8495:8513   */\n      0xffffffffffffffff\n        /* \"#utility.yul\":8487:8493   */\n      dup2\n        /* \"#utility.yul\":8484:8514   */\n      gt\n        /* \"#utility.yul\":8481:8598   */\n      iszero\n      tag_563\n      jumpi\n        /* \"#utility.yul\":8517:8596   */\n      tag_564\n      tag_397\n      jump\t// in\n    tag_564:\n        /* \"#utility.yul\":8481:8598   */\n    tag_563:\n        /* \"#utility.yul\":8622:8685   */\n      tag_565\n        /* \"#utility.yul\":8677:8684   */\n      dup6\n        /* \"#utility.yul\":8668:8674   */\n      dup3\n        /* \"#utility.yul\":8657:8666   */\n      dup7\n        /* \"#utility.yul\":8653:8675   */\n      add\n        /* \"#utility.yul\":8622:8685   */\n      tag_416\n      jump\t// in\n    tag_565:\n        /* \"#utility.yul\":8612:8685   */\n      swap3\n      pop\n        /* \"#utility.yul\":8408:8695   */\n      pop\n        /* \"#utility.yul\":8762:8764   */\n      0x20\n        /* \"#utility.yul\":8751:8760   */\n      dup4\n        /* \"#utility.yul\":8747:8765   */\n      add\n        /* \"#utility.yul\":8734:8766   */\n      calldataload\n        /* \"#utility.yul\":8793:8811   */\n      0xffffffffffffffff\n        /* \"#utility.yul\":8785:8791   */\n      dup2\n        /* \"#utility.yul\":8782:8812   */\n      gt\n        /* \"#utility.yul\":8779:8896   */\n      iszero\n      tag_566\n      jumpi\n        /* \"#utility.yul\":8815:8894   */\n      tag_567\n      tag_397\n      jump\t// in\n    tag_567:\n        /* \"#utility.yul\":8779:8896   */\n    tag_566:\n        /* \"#utility.yul\":8920:8983   */\n      tag_568\n        /* \"#utility.yul\":8975:8982   */\n      dup6\n        /* \"#utility.yul\":8966:8972   */\n      dup3\n        /* \"#utility.yul\":8955:8964   */\n      dup7\n        /* \"#utility.yul\":8951:8973   */\n      add\n        /* \"#utility.yul\":8920:8983   */\n      tag_416\n      jump\t// in\n    tag_568:\n        /* \"#utility.yul\":8910:8983   */\n      swap2\n      pop\n        /* \"#utility.yul\":8705:8993   */\n      pop\n        /* \"#utility.yul\":8166:9000   */\n      swap3\n      pop\n      swap3\n      swap1\n      pop\n      jump\t// out\n        /* \"#utility.yul\":9006:9122   */\n    tag_419:\n        /* \"#utility.yul\":9076:9097   */\n      tag_570\n        /* \"#utility.yul\":9091:9096   */\n      dup2\n        /* \"#utility.yul\":9076:9097   */\n      tag_406\n      jump\t// in\n    tag_570:\n        /* \"#utility.yul\":9069:9074   */\n      dup2\n        /* \"#utility.yul\":9066:9098   */\n      eq\n        /* \"#utility.yul\":9056:9116   */\n      tag_571\n      jumpi\n        /* \"#utility.yul\":9112:9113   */\n      0x00\n        /* \"#utility.yul\":9109:9110   */\n      dup1\n        /* \"#utility.yul\":9102:9114   */\n      revert\n        /* \"#utility.yul\":9056:9116   */\n    tag_571:\n        /* \"#utility.yul\":9006:9122   */\n      pop\n      jump\t// out\n        /* \"#utility.yul\":9128:9261   */\n    tag_420:\n        /* \"#utility.yul\":9171:9176   */\n      0x00\n        /* \"#utility.yul\":9209:9215   */\n      dup2\n        /* \"#utility.yul\":9196:9216   */\n      calldataload\n        /* \"#utility.yul\":9187:9216   */\n      swap1\n      pop\n        /* \"#utility.yul\":9225:9255   */\n      tag_573\n        /* \"#utility.yul\":9249:9254   */\n      dup2\n        /* \"#utility.yul\":9225:9255   */\n      tag_419\n      jump\t// in\n    tag_573:\n        /* \"#utility.yul\":9128:9261   */\n      swap3\n      swap2\n      pop\n      pop\n      jump\t// out\n        /* \"#utility.yul\":9267:9735   */\n    tag_85:\n        /* \"#utility.yul\":9332:9338   */\n      0x00\n        /* \"#utility.yul\":9340:9346   */\n      dup1\n        /* \"#utility.yul\":9389:9391   */\n      0x40\n        /* \"#utility.yul\":9377:9386   */\n      dup4\n        /* \"#utility.yul\":9368:9375   */\n      dup6\n        /* \"#utility.yul\":9364:9387   */\n      sub\n        /* \"#utility.yul\":9360:9392   */\n      slt\n        /* \"#utility.yul\":9357:9476   */\n      iszero\n      tag_575\n      jumpi\n        /* \"#utility.yul\":9395:9474   */\n      tag_576\n      tag_396\n      jump\t// in\n    tag_576:\n        /* \"#utility.yul\":9357:9476   */\n    tag_575:\n        /* \"#utility.yul\":9515:9516   */\n      0x00\n        /* \"#utility.yul\":9540:9593   */\n      tag_577\n        /* \"#utility.yul\":9585:9592   */\n      dup6\n        /* \"#utility.yul\":9576:9582   */\n      dup3\n        /* \"#utility.yul\":9565:9574   */\n      dup7\n        /* \"#utility.yul\":9561:9583   */\n      add\n        /* \"#utility.yul\":9540:9593   */\n      tag_405\n      jump\t// in\n    tag_577:\n        /* \"#utility.yul\":9530:9593   */\n      swap3\n      pop\n        /* \"#utility.yul\":9486:9603   */\n      pop\n        /* \"#utility.yul\":9642:9644   */\n      0x20\n        /* \"#utility.yul\":9668:9718   */\n      tag_578\n        /* \"#utility.yul\":9710:9717   */\n      dup6\n        /* \"#utility.yul\":9701:9707   */\n      dup3\n        /* \"#utility.yul\":9690:9699   */\n      dup7\n        /* \"#utility.yul\":9686:9708   */\n      add\n        /* \"#utility.yul\":9668:9718   */\n      tag_420\n      jump\t// in\n    tag_578:\n        /* \"#utility.yul\":9658:9718   */\n      swap2\n      pop\n        /* \"#utility.yul\":9613:9728   */\n      pop\n        /* \"#utility.yul\":9267:9735   */\n      swap3\n      pop\n      swap3\n      swap1\n      pop\n      jump\t// out\n        /* \"#utility.yul\":9741:10070   */\n    tag_93:\n        /* \"#utility.yul\":9800:9806   */\n      0x00\n        /* \"#utility.yul\":9849:9851   */\n      0x20\n        /* \"#utility.yul\":9837:9846   */\n      dup3\n        /* \"#utility.yul\":9828:9835   */\n      dup5\n        /* \"#utility.yul\":9824:9847   */\n      sub\n        /* \"#utility.yul\":9820:9852   */\n      slt\n        /* \"#utility.yul\":9817:9936   */\n      iszero\n      tag_580\n      jumpi\n        /* \"#utility.yul\":9855:9934   */\n      tag_581\n      tag_396\n      jump\t// in\n    tag_581:\n        /* \"#utility.yul\":9817:9936   */\n    tag_580:\n        /* \"#utility.yul\":9975:9976   */\n      0x00\n        /* \"#utility.yul\":10000:10053   */\n      tag_582\n        /* \"#utility.yul\":10045:10052   */\n      dup5\n        /* \"#utility.yul\":10036:10042   */\n      dup3\n        /* \"#utility.yul\":10025:10034   */\n      dup6\n        /* \"#utility.yul\":10021:10043   */\n      add\n        /* \"#utility.yul\":10000:10053   */\n      tag_405\n      jump\t// in\n    tag_582:\n        /* \"#utility.yul\":9990:10053   */\n      swap2\n      pop\n        /* \"#utility.yul\":9946:10063   */\n      pop\n        /* \"#utility.yul\":9741:10070   */\n      swap3\n      swap2\n      pop\n      pop\n      jump\t// out\n        /* \"#utility.yul\":10076:10193   */\n    tag_421:\n        /* \"#utility.yul\":10185:10186   */\n      0x00\n        /* \"#utility.yul\":10182:10183   */\n      dup1\n        /* \"#utility.yul\":10175:10187   */\n      revert\n        /* \"#utility.yul\":10199:10316   */\n    tag_422:\n        /* \"#utility.yul\":10308:10309   */\n      0x00\n        /* \"#utility.yul\":10305:10306   */\n      dup1\n        /* \"#utility.yul\":10298:10310   */\n      revert\n        /* \"#utility.yul\":10335:10887   */\n    tag_423:\n        /* \"#utility.yul\":10392:10400   */\n      0x00\n        /* \"#utility.yul\":10402:10408   */\n      dup1\n        /* \"#utility.yul\":10452:10455   */\n      dup4\n        /* \"#utility.yul\":10445:10449   */\n      0x1f\n        /* \"#utility.yul\":10437:10443   */\n      dup5\n        /* \"#utility.yul\":10433:10450   */\n      add\n        /* \"#utility.yul\":10429:10456   */\n      slt\n        /* \"#utility.yul\":10419:10541   */\n      tag_586\n      jumpi\n        /* \"#utility.yul\":10460:10539   */\n      tag_587\n      tag_409\n      jump\t// in\n    tag_587:\n        /* \"#utility.yul\":10419:10541   */\n    tag_586:\n        /* \"#utility.yul\":10573:10579   */\n      dup3\n        /* \"#utility.yul\":10560:10580   */\n      calldataload\n        /* \"#utility.yul\":10550:10580   */\n      swap1\n      pop\n        /* \"#utility.yul\":10603:10621   */\n      0xffffffffffffffff\n        /* \"#utility.yul\":10595:10601   */\n      dup2\n        /* \"#utility.yul\":10592:10622   */\n      gt\n        /* \"#utility.yul\":10589:10706   */\n      iszero\n      tag_588\n      jumpi\n        /* \"#utility.yul\":10625:10704   */\n      tag_589\n      tag_421\n      jump\t// in\n    tag_589:\n        /* \"#utility.yul\":10589:10706   */\n    tag_588:\n        /* \"#utility.yul\":10739:10743   */\n      0x20\n        /* \"#utility.yul\":10731:10737   */\n      dup4\n        /* \"#utility.yul\":10727:10744   */\n      add\n        /* \"#utility.yul\":10715:10744   */\n      swap2\n      pop\n        /* \"#utility.yul\":10793:10796   */\n      dup4\n        /* \"#utility.yul\":10785:10789   */\n      0x01\n        /* \"#utility.yul\":10777:10783   */\n      dup3\n        /* \"#utility.yul\":10773:10790   */\n      mul\n        /* \"#utility.yul\":10763:10771   */\n      dup4\n        /* \"#utility.yul\":10759:10791   */\n      add\n        /* \"#utility.yul\":10756:10797   */\n      gt\n        /* \"#utility.yul\":10753:10881   */\n      iszero\n      tag_590\n      jumpi\n        /* \"#utility.yul\":10800:10879   */\n      tag_591\n      tag_422\n      jump\t// in\n    tag_591:\n        /* \"#utility.yul\":10753:10881   */\n    tag_590:\n        /* \"#utility.yul\":10335:10887   */\n      swap3\n      pop\n      swap3\n      swap1\n      pop\n      jump\t// out\n        /* \"#utility.yul\":10893:11856   */\n    tag_115:\n        /* \"#utility.yul\":10990:10996   */\n      0x00\n        /* \"#utility.yul\":10998:11004   */\n      dup1\n        /* \"#utility.yul\":11006:11012   */\n      0x00\n        /* \"#utility.yul\":11014:11020   */\n      dup1\n        /* \"#utility.yul\":11022:11028   */\n      0x00\n        /* \"#utility.yul\":11071:11074   */\n      0x80\n        /* \"#utility.yul\":11059:11068   */\n      dup7\n        /* \"#utility.yul\":11050:11057   */\n      dup9\n        /* \"#utility.yul\":11046:11069   */\n      sub\n        /* \"#utility.yul\":11042:11075   */\n      slt\n        /* \"#utility.yul\":11039:11159   */\n      iszero\n      tag_593\n      jumpi\n        /* \"#utility.yul\":11078:11157   */\n      tag_594\n      tag_396\n      jump\t// in\n    tag_594:\n        /* \"#utility.yul\":11039:11159   */\n    tag_593:\n        /* \"#utility.yul\":11198:11199   */\n      0x00\n        /* \"#utility.yul\":11223:11276   */\n      tag_595\n        /* \"#utility.yul\":11268:11275   */\n      dup9\n        /* \"#utility.yul\":11259:11265   */\n      dup3\n        /* \"#utility.yul\":11248:11257   */\n      dup10\n        /* \"#utility.yul\":11244:11266   */\n      add\n        /* \"#utility.yul\":11223:11276   */\n      tag_405\n      jump\t// in\n    tag_595:\n        /* \"#utility.yul\":11213:11276   */\n      swap6\n      pop\n        /* \"#utility.yul\":11169:11286   */\n      pop\n        /* \"#utility.yul\":11325:11327   */\n      0x20\n        /* \"#utility.yul\":11351:11404   */\n      tag_596\n        /* \"#utility.yul\":11396:11403   */\n      dup9\n        /* \"#utility.yul\":11387:11393   */\n      dup3\n        /* \"#utility.yul\":11376:11385   */\n      dup10\n        /* \"#utility.yul\":11372:11394   */\n      add\n        /* \"#utility.yul\":11351:11404   */\n      tag_405\n      jump\t// in\n    tag_596:\n        /* \"#utility.yul\":11341:11404   */\n      swap5\n      pop\n        /* \"#utility.yul\":11296:11414   */\n      pop\n        /* \"#utility.yul\":11453:11455   */\n      0x40\n        /* \"#utility.yul\":11479:11532   */\n      tag_597\n        /* \"#utility.yul\":11524:11531   */\n      dup9\n        /* \"#utility.yul\":11515:11521   */\n      dup3\n        /* \"#utility.yul\":11504:11513   */\n      dup10\n        /* \"#utility.yul\":11500:11522   */\n      add\n        /* \"#utility.yul\":11479:11532   */\n      tag_400\n      jump\t// in\n    tag_597:\n        /* \"#utility.yul\":11469:11532   */\n      swap4\n      pop\n        /* \"#utility.yul\":11424:11542   */\n      pop\n        /* \"#utility.yul\":11609:11611   */\n      0x60\n        /* \"#utility.yul\":11598:11607   */\n      dup7\n        /* \"#utility.yul\":11594:11612   */\n      add\n        /* \"#utility.yul\":11581:11613   */\n      calldataload\n        /* \"#utility.yul\":11640:11658   */\n      0xffffffffffffffff\n        /* \"#utility.yul\":11632:11638   */\n      dup2\n        /* \"#utility.yul\":11629:11659   */\n      gt\n        /* \"#utility.yul\":11626:11743   */\n      iszero\n      tag_598\n      jumpi\n        /* \"#utility.yul\":11662:11741   */\n      tag_599\n      tag_397\n      jump\t// in\n    tag_599:\n        /* \"#utility.yul\":11626:11743   */\n    tag_598:\n        /* \"#utility.yul\":11775:11839   */\n      tag_600\n        /* \"#utility.yul\":11831:11838   */\n      dup9\n        /* \"#utility.yul\":11822:11828   */\n      dup3\n        /* \"#utility.yul\":11811:11820   */\n      dup10\n        /* \"#utility.yul\":11807:11829   */\n      add\n        /* \"#utility.yul\":11775:11839   */\n      tag_423\n      jump\t// in\n    tag_600:\n        /* \"#utility.yul\":11757:11839   */\n      swap3\n      pop\n      swap3\n      pop\n        /* \"#utility.yul\":11552:11849   */\n      pop\n        /* \"#utility.yul\":10893:11856   */\n      swap3\n      swap6\n      pop\n      swap3\n      swap6\n      swap1\n      swap4\n      pop\n      jump\t// out\n        /* \"#utility.yul\":11862:12336   */\n    tag_129:\n        /* \"#utility.yul\":11930:11936   */\n      0x00\n        /* \"#utility.yul\":11938:11944   */\n      dup1\n        /* \"#utility.yul\":11987:11989   */\n      0x40\n        /* \"#utility.yul\":11975:11984   */\n      dup4\n        /* \"#utility.yul\":11966:11973   */\n      dup6\n        /* \"#utility.yul\":11962:11985   */\n      sub\n        /* \"#utility.yul\":11958:11990   */\n      slt\n        /* \"#utility.yul\":11955:12074   */\n      iszero\n      tag_602\n      jumpi\n        /* \"#utility.yul\":11993:12072   */\n      tag_603\n      tag_396\n      jump\t// in\n    tag_603:\n        /* \"#utility.yul\":11955:12074   */\n    tag_602:\n        /* \"#utility.yul\":12113:12114   */\n      0x00\n        /* \"#utility.yul\":12138:12191   */\n      tag_604\n        /* \"#utility.yul\":12183:12190   */\n      dup6\n        /* \"#utility.yul\":12174:12180   */\n      dup3\n        /* \"#utility.yul\":12163:12172   */\n      dup7\n        /* \"#utility.yul\":12159:12181   */\n      add\n        /* \"#utility.yul\":12138:12191   */\n      tag_405\n      jump\t// in\n    tag_604:\n        /* \"#utility.yul\":12128:12191   */\n      swap3\n      pop\n        /* \"#utility.yul\":12084:12201   */\n      pop\n        /* \"#utility.yul\":12240:12242   */\n      0x20\n        /* \"#utility.yul\":12266:12319   */\n      tag_605\n        /* \"#utility.yul\":12311:12318   */\n      dup6\n        /* \"#utility.yul\":12302:12308   */\n      dup3\n        /* \"#utility.yul\":12291:12300   */\n      dup7\n        /* \"#utility.yul\":12287:12309   */\n      add\n        /* \"#utility.yul\":12266:12319   */\n      tag_405\n      jump\t// in\n    tag_605:\n        /* \"#utility.yul\":12256:12319   */\n      swap2\n      pop\n        /* \"#utility.yul\":12211:12329   */\n      pop\n        /* \"#utility.yul\":11862:12336   */\n      swap3\n      pop\n      swap3\n      swap1\n      pop\n      jump\t// out\n        /* \"#utility.yul\":12342:12522   */\n    tag_424:\n        /* \"#utility.yul\":12390:12467   */\n      0x4e487b7100000000000000000000000000000000000000000000000000000000\n        /* \"#utility.yul\":12387:12388   */\n      0x00\n        /* \"#utility.yul\":12380:12468   */\n      mstore\n        /* \"#utility.yul\":12487:12491   */\n      0x22\n        /* \"#utility.yul\":12484:12485   */\n      0x04\n        /* \"#utility.yul\":12477:12492   */\n      mstore\n        /* \"#utility.yul\":12511:12515   */\n      0x24\n        /* \"#utility.yul\":12508:12509   */\n      0x00\n        /* \"#utility.yul\":12501:12516   */\n      revert\n        /* \"#utility.yul\":12528:12848   */\n    tag_149:\n        /* \"#utility.yul\":12572:12578   */\n      0x00\n        /* \"#utility.yul\":12609:12610   */\n      0x02\n        /* \"#utility.yul\":12603:12607   */\n      dup3\n        /* \"#utility.yul\":12599:12611   */\n      div\n        /* \"#utility.yul\":12589:12611   */\n      swap1\n      pop\n        /* \"#utility.yul\":12656:12657   */\n      0x01\n        /* \"#utility.yul\":12650:12654   */\n      dup3\n        /* \"#utility.yul\":12646:12658   */\n      and\n        /* \"#utility.yul\":12677:12695   */\n      dup1\n        /* \"#utility.yul\":12667:12748   */\n      tag_608\n      jumpi\n        /* \"#utility.yul\":12733:12737   */\n      0x7f\n        /* \"#utility.yul\":12725:12731   */\n      dup3\n        /* \"#utility.yul\":12721:12738   */\n      and\n        /* \"#utility.yul\":12711:12738   */\n      swap2\n      pop\n        /* \"#utility.yul\":12667:12748   */\n    tag_608:\n        /* \"#utility.yul\":12795:12797   */\n      0x20\n        /* \"#utility.yul\":12787:12793   */\n      dup3\n        /* \"#utility.yul\":12784:12798   */\n      lt\n        /* \"#utility.yul\":12764:12782   */\n      dup2\n        /* \"#utility.yul\":12761:12799   */\n      sub\n        /* \"#utility.yul\":12758:12842   */\n      tag_609\n      jumpi\n        /* \"#utility.yul\":12814:12832   */\n      tag_610\n      tag_424\n      jump\t// in\n    tag_610:\n        /* \"#utility.yul\":12758:12842   */\n    tag_609:\n        /* \"#utility.yul\":12579:12848   */\n      pop\n        /* \"#utility.yul\":12528:12848   */\n      swap2\n      swap1\n      pop\n      jump\t// out\n        /* \"#utility.yul\":12854:12995   */\n    tag_425:\n        /* \"#utility.yul\":12903:12907   */\n      0x00\n        /* \"#utility.yul\":12926:12929   */\n      dup2\n        /* \"#utility.yul\":12918:12929   */\n      swap1\n      pop\n        /* \"#utility.yul\":12949:12952   */\n      dup2\n        /* \"#utility.yul\":12946:12947   */\n      0x00\n        /* \"#utility.yul\":12939:12953   */\n      mstore\n        /* \"#utility.yul\":12983:12987   */\n      0x20\n        /* \"#utility.yul\":12980:12981   */\n      0x00\n        /* \"#utility.yul\":12970:12988   */\n      keccak256\n        /* \"#utility.yul\":12962:12988   */\n      swap1\n      pop\n        /* \"#utility.yul\":12854:12995   */\n      swap2\n      swap1\n      pop\n      jump\t// out\n        /* \"#utility.yul\":13001:13094   */\n    tag_426:\n        /* \"#utility.yul\":13038:13044   */\n      0x00\n        /* \"#utility.yul\":13085:13087   */\n      0x20\n        /* \"#utility.yul\":13080:13082   */\n      0x1f\n        /* \"#utility.yul\":13073:13078   */\n      dup4\n        /* \"#utility.yul\":13069:13083   */\n      add\n        /* \"#utility.yul\":13065:13088   */\n      div\n        /* \"#utility.yul\":13055:13088   */\n      swap1\n      pop\n        /* \"#utility.yul\":13001:13094   */\n      swap2\n      swap1\n      pop\n      jump\t// out\n        /* \"#utility.yul\":13100:13207   */\n    tag_427:\n        /* \"#utility.yul\":13144:13152   */\n      0x00\n        /* \"#utility.yul\":13194:13199   */\n      dup3\n        /* \"#utility.yul\":13188:13192   */\n      dup3\n        /* \"#utility.yul\":13184:13200   */\n      shl\n        /* \"#utility.yul\":13163:13200   */\n      swap1\n      pop\n        /* \"#utility.yul\":13100:13207   */\n      swap3\n      swap2\n      pop\n      pop\n      jump\t// out\n        /* \"#utility.yul\":13213:13606   */\n    tag_428:\n        /* \"#utility.yul\":13282:13288   */\n      0x00\n        /* \"#utility.yul\":13332:13333   */\n      0x08\n        /* \"#utility.yul\":13320:13330   */\n      dup4\n        /* \"#utility.yul\":13316:13334   */\n      mul\n        /* \"#utility.yul\":13355:13452   */\n      tag_615\n        /* \"#utility.yul\":13385:13451   */\n      0xffffffffffffffffffffffffffffffffffffffffffffffffffffffffffffffff\n        /* \"#utility.yul\":13374:13383   */\n      dup3\n        /* \"#utility.yul\":13355:13452   */\n      tag_427\n      jump\t// in\n    tag_615:\n        /* \"#utility.yul\":13473:13512   */\n      tag_616\n        /* \"#utility.yul\":13503:13511   */\n      dup7\n        /* \"#utility.yul\":13492:13501   */\n      dup4\n        /* \"#utility.yul\":13473:13512   */\n      tag_427\n      jump\t// in\n    tag_616:\n        /* \"#utility.yul\":13461:13512   */\n      swap6\n      pop\n        /* \"#utility.yul\":13545:13549   */\n      dup1\n        /* \"#utility.yul\":13541:13550   */\n      not\n        /* \"#utility.yul\":13534:13539   */\n      dup5\n        /* \"#utility.yul\":13530:13551   */\n      and\n        /* \"#utility.yul\":13521:13551   */\n      swap4\n      pop\n        /* \"#utility.yul\":13594:13598   */\n      dup1\n        /* \"#utility.yul\":13584:13592   */\n      dup7\n        /* \"#utility.yul\":13580:13599   */\n      and\n        /* \"#utility.yul\":13573:13578   */\n      dup5\n        /* \"#utility.yul\":13570:13600   */\n      or\n        /* \"#utility.yul\":13560:13600   */\n      swap3\n      pop\n        /* \"#utility.yul\":13289:13606   */\n      pop\n      pop\n        /* \"#utility.yul\":13213:13606   */\n      swap4\n      swap3\n      pop\n      pop\n      pop\n      jump\t// out\n        /* \"#utility.yul\":13612:13672   */\n    tag_429:\n        /* \"#utility.yul\":13640:13643   */\n      0x00\n        /* \"#utility.yul\":13661:13666   */\n      dup2\n        /* \"#utility.yul\":13654:13666   */\n      swap1\n      pop\n        /* \"#utility.yul\":13612:13672   */\n      swap2\n      swap1\n      pop\n      jump\t// out\n        /* \"#utility.yul\":13678:13820   */\n    tag_430:\n        /* \"#utility.yul\":13728:13737   */\n      0x00\n        /* \"#utility.yul\":13761:13814   */\n      tag_619\n        /* \"#utility.yul\":13779:13813   */\n      tag_620\n        /* \"#utility.yul\":13788:13812   */\n      tag_621\n        /* \"#utility.yul\":13806:13811   */\n      dup5\n        /* \"#utility.yul\":13788:13812   */\n      tag_398\n      jump\t// in\n    tag_621:\n        /* \"#utility.yul\":13779:13813   */\n      tag_429\n      jump\t// in\n    tag_620:\n        /* \"#utility.yul\":13761:13814   */\n      tag_398\n      jump\t// in\n    tag_619:\n        /* \"#utility.yul\":13748:13814   */\n      swap1\n      pop\n        /* \"#utility.yul\":13678:13820   */\n      swap2\n      swap1\n      pop\n      jump\t// out\n        /* \"#utility.yul\":13826:13901   */\n    tag_431:\n        /* \"#utility.yul\":13869:13872   */\n      0x00\n        /* \"#utility.yul\":13890:13895   */\n      dup2\n        /* \"#utility.yul\":13883:13895   */\n      swap1\n      pop\n        /* \"#utility.yul\":13826:13901   */\n      swap2\n      swap1\n      pop\n      jump\t// out\n        /* \"#utility.yul\":13907:14176   */\n    tag_432:\n        /* \"#utility.yul\":14017:14056   */\n      tag_624\n        /* \"#utility.yul\":14048:14055   */\n      dup4\n        /* \"#utility.yul\":14017:14056   */\n      tag_430\n      jump\t// in\n    tag_624:\n        /* \"#utility.yul\":14078:14169   */\n      tag_625\n        /* \"#utility.yul\":14127:14168   */\n      tag_626\n        /* \"#utility.yul\":14151:14167   */\n      dup3\n        /* \"#utility.yul\":14127:14168   */\n      tag_431\n      jump\t// in\n    tag_626:\n        /* \"#utility.yul\":14119:14125   */\n      dup5\n        /* \"#utility.yul\":14112:14116   */\n      dup5\n        /* \"#utility.yul\":14106:14117   */\n      sload\n        /* \"#utility.yul\":14078:14169   */\n      tag_428\n      jump\t// in\n    tag_625:\n        /* \"#utility.yul\":14072:14076   */\n      dup3\n        /* \"#utility.yul\":14065:14170   */\n      sstore\n        /* \"#utility.yul\":13983:14176   */\n      pop\n        /* \"#utility.yul\":13907:14176   */\n      pop\n      pop\n      pop\n      jump\t// out\n        /* \"#utility.yul\":14182:14255   */\n    tag_433:\n        /* \"#utility.yul\":14227:14230   */\n      0x00\n        /* \"#utility.yul\":14182:14255   */\n      swap1\n      jump\t// out\n        /* \"#utility.yul\":14261:14450   */\n    tag_434:\n        /* \"#utility.yul\":14338:14370   */\n      tag_629\n      tag_433\n      jump\t// in\n    tag_629:\n        /* \"#utility.yul\":14379:14444   */\n      tag_630\n        /* \"#utility.yul\":14437:14443   */\n      dup2\n        /* \"#utility.yul\":14429:14435   */\n      dup5\n        /* \"#utility.yul\":14423:14427   */\n      dup5\n        /* \"#utility.yul\":14379:14444   */\n      tag_432\n      jump\t// in\n    tag_630:\n        /* \"#utility.yul\":14314:14450   */\n      pop\n        /* \"#utility.yul\":14261:14450   */\n      pop\n      pop\n      jump\t// out\n        /* \"#utility.yul\":14456:14642   */\n    tag_435:\n        /* \"#utility.yul\":14516:14636   */\n    tag_632:\n        /* \"#utility.yul\":14533:14536   */\n      dup2\n        /* \"#utility.yul\":14526:14531   */\n      dup2\n        /* \"#utility.yul\":14523:14537   */\n      lt\n        /* \"#utility.yul\":14516:14636   */\n      iszero\n      tag_634\n      jumpi\n        /* \"#utility.yul\":14587:14626   */\n      tag_635\n        /* \"#utility.yul\":14624:14625   */\n      0x00\n        /* \"#utility.yul\":14617:14622   */\n      dup3\n        /* \"#utility.yul\":14587:14626   */\n      tag_434\n      jump\t// in\n    tag_635:\n        /* \"#utility.yul\":14560:14561   */\n      0x01\n        /* \"#utility.yul\":14553:14558   */\n      dup2\n        /* \"#utility.yul\":14549:14562   */\n      add\n        /* \"#utility.yul\":14540:14562   */\n      swap1\n      pop\n        /* \"#utility.yul\":14516:14636   */\n      jump(tag_632)\n    tag_634:\n        /* \"#utility.yul\":14456:14642   */\n      pop\n      pop\n      jump\t// out\n        /* \"#utility.yul\":14648:15191   */\n    tag_436:\n        /* \"#utility.yul\":14749:14751   */\n      0x1f\n        /* \"#utility.yul\":14744:14747   */\n      dup3\n        /* \"#utility.yul\":14741:14752   */\n      gt\n        /* \"#utility.yul\":14738:15184   */\n      iszero\n      tag_637\n      jumpi\n        /* \"#utility.yul\":14783:14821   */\n      tag_638\n        /* \"#utility.yul\":14815:14820   */\n      dup2\n        /* \"#utility.yul\":14783:14821   */\n      tag_425\n      jump\t// in\n    tag_638:\n        /* \"#utility.yul\":14867:14896   */\n      tag_639\n        /* \"#utility.yul\":14885:14895   */\n      dup5\n        /* \"#utility.yul\":14867:14896   */\n      tag_426\n      jump\t// in\n    tag_639:\n        /* \"#utility.yul\":14857:14865   */\n      dup2\n        /* \"#utility.yul\":14853:14897   */\n      add\n        /* \"#utility.yul\":15050:15052   */\n      0x20\n        /* \"#utility.yul\":15038:15048   */\n      dup6\n        /* \"#utility.yul\":15035:15053   */\n      lt\n        /* \"#utility.yul\":15032:15081   */\n      iszero\n      tag_640\n      jumpi\n        /* \"#utility.yul\":15071:15079   */\n      dup2\n        /* \"#utility.yul\":15056:15079   */\n      swap1\n      pop\n        /* \"#utility.yul\":15032:15081   */\n    tag_640:\n        /* \"#utility.yul\":15094:15174   */\n      tag_641\n        /* \"#utility.yul\":15150:15172   */\n      tag_642\n        /* \"#utility.yul\":15168:15171   */\n      dup6\n        /* \"#utility.yul\":15150:15172   */\n      tag_426\n      jump\t// in\n    tag_642:\n        /* \"#utility.yul\":15140:15148   */\n      dup4\n        /* \"#utility.yul\":15136:15173   */\n      add\n        /* \"#utility.yul\":15123:15134   */\n      dup3\n        /* \"#utility.yul\":15094:15174   */\n      tag_435\n      jump\t// in\n    tag_641:\n        /* \"#utility.yul\":14753:15184   */\n      pop\n      pop\n        /* \"#utility.yul\":14738:15184   */\n    tag_637:\n        /* \"#utility.yul\":14648:15191   */\n      pop\n      pop\n      pop\n      jump\t// out\n        /* \"#utility.yul\":15197:15314   */\n    tag_437:\n        /* \"#utility.yul\":15251:15259   */\n      0x00\n        /* \"#utility.yul\":15301:15306   */\n      dup3\n        /* \"#utility.yul\":15295:15299   */\n      dup3\n        /* \"#utility.yul\":15291:15307   */\n      shr\n        /* \"#utility.yul\":15270:15307   */\n      swap1\n      pop\n        /* \"#utility.yul\":15197:15314   */\n      swap3\n      swap2\n      pop\n      pop\n      jump\t// out\n        /* \"#utility.yul\":15320:15489   */\n    tag_438:\n        /* \"#utility.yul\":15364:15370   */\n      0x00\n        /* \"#utility.yul\":15397:15448   */\n      tag_645\n        /* \"#utility.yul\":15445:15446   */\n      0x00\n        /* \"#utility.yul\":15441:15447   */\n      not\n        /* \"#utility.yul\":15433:15438   */\n      dup5\n        /* \"#utility.yul\":15430:15431   */\n      0x08\n        /* \"#utility.yul\":15426:15439   */\n      mul\n        /* \"#utility.yul\":15397:15448   */\n      tag_437\n      jump\t// in\n    tag_645:\n        /* \"#utility.yul\":15393:15449   */\n      not\n        /* \"#utility.yul\":15478:15482   */\n      dup1\n        /* \"#utility.yul\":15472:15476   */\n      dup4\n        /* \"#utility.yul\":15468:15483   */\n      and\n        /* \"#utility.yul\":15458:15483   */\n      swap2\n      pop\n        /* \"#utility.yul\":15371:15489   */\n      pop\n        /* \"#utility.yul\":15320:15489   */\n      swap3\n      swap2\n      pop\n      pop\n      jump\t// out\n        /* \"#utility.yul\":15494:15789   */\n    tag_439:\n        /* \"#utility.yul\":15570:15574   */\n      0x00\n        /* \"#utility.yul\":15716:15745   */\n      tag_647\n        /* \"#utility.yul\":15741:15744   */\n      dup4\n        /* \"#utility.yul\":15735:15739   */\n      dup4\n        /* \"#utility.yul\":15716:15745   */\n      tag_438\n      jump\t// in\n    tag_647:\n        /* \"#utility.yul\":15708:15745   */\n      swap2\n      pop\n        /* \"#utility.yul\":15778:15781   */\n      dup3\n        /* \"#utility.yul\":15775:15776   */\n      0x02\n        /* \"#utility.yul\":15771:15782   */\n      mul\n        /* \"#utility.yul\":15765:15769   */\n      dup3\n        /* \"#utility.yul\":15762:15783   */\n      or\n        /* \"#utility.yul\":15754:15783   */\n      swap1\n      pop\n        /* \"#utility.yul\":15494:15789   */\n      swap3\n      swap2\n      pop\n      pop\n      jump\t// out\n        /* \"#utility.yul\":15794:17189   */\n    tag_166:\n        /* \"#utility.yul\":15911:15948   */\n      tag_649\n        /* \"#utility.yul\":15944:15947   */\n      dup3\n        /* \"#utility.yul\":15911:15948   */\n      tag_390\n      jump\t// in\n    tag_649:\n        /* \"#utility.yul\":16013:16031   */\n      0xffffffffffffffff\n        /* \"#utility.yul\":16005:16011   */\n      dup2\n        /* \"#utility.yul\":16002:16032   */\n      gt\n        /* \"#utility.yul\":15999:16055   */\n      iszero\n      tag_650\n      jumpi\n        /* \"#utility.yul\":16035:16053   */\n      tag_651\n      tag_331\n      jump\t// in\n    tag_651:\n        /* \"#utility.yul\":15999:16055   */\n    tag_650:\n        /* \"#utility.yul\":16079:16117   */\n      tag_652\n        /* \"#utility.yul\":16111:16115   */\n      dup3\n        /* \"#utility.yul\":16105:16116   */\n      sload\n        /* \"#utility.yul\":16079:16117   */\n      tag_149\n      jump\t// in\n    tag_652:\n        /* \"#utility.yul\":16164:16231   */\n      tag_653\n        /* \"#utility.yul\":16224:16230   */\n      dup3\n        /* \"#utility.yul\":16216:16222   */\n      dup3\n        /* \"#utility.yul\":16210:16214   */\n      dup6\n        /* \"#utility.yul\":16164:16231   */\n      tag_436\n      jump\t// in\n    tag_653:\n        /* \"#utility.yul\":16258:16259   */\n      0x00\n        /* \"#utility.yul\":16282:16286   */\n      0x20\n        /* \"#utility.yul\":16269:16286   */\n      swap1\n      pop\n        /* \"#utility.yul\":16314:16316   */\n      0x1f\n        /* \"#utility.yul\":16306:16312   */\n      dup4\n        /* \"#utility.yul\":16303:16317   */\n      gt\n        /* \"#utility.yul\":16331:16332   */\n      0x01\n        /* \"#utility.yul\":16326:16944   */\n      dup2\n      eq\n      tag_655\n      jumpi\n        /* \"#utility.yul\":16988:16989   */\n      0x00\n        /* \"#utility.yul\":17005:17011   */\n      dup5\n        /* \"#utility.yul\":17002:17079   */\n      iszero\n      tag_656\n      jumpi\n        /* \"#utility.yul\":17054:17063   */\n      dup3\n        /* \"#utility.yul\":17049:17052   */\n      dup8\n        /* \"#utility.yul\":17045:17064   */\n      add\n        /* \"#utility.yul\":17039:17065   */\n      mload\n        /* \"#utility.yul\":17030:17065   */\n      swap1\n      pop\n        /* \"#utility.yul\":17002:17079   */\n    tag_656:\n        /* \"#utility.yul\":17105:17172   */\n      tag_657\n        /* \"#utility.yul\":17165:17171   */\n      dup6\n        /* \"#utility.yul\":17158:17163   */\n      dup3\n        /* \"#utility.yul\":17105:17172   */\n      tag_439\n      jump\t// in\n    tag_657:\n        /* \"#utility.yul\":17099:17103   */\n      dup7\n        /* \"#utility.yul\":17092:17173   */\n      sstore\n        /* \"#utility.yul\":16961:17183   */\n      pop\n        /* \"#utility.yul\":16296:17183   */\n      jump(tag_654)\n        /* \"#utility.yul\":16326:16944   */\n    tag_655:\n        /* \"#utility.yul\":16378:16382   */\n      0x1f\n        /* \"#utility.yul\":16374:16383   */\n      not\n        /* \"#utility.yul\":16366:16372   */\n      dup5\n        /* \"#utility.yul\":16362:16384   */\n      and\n        /* \"#utility.yul\":16412:16449   */\n      tag_658\n        /* \"#utility.yul\":16444:16448   */\n      dup7\n        /* \"#utility.yul\":16412:16449   */\n      tag_425\n      jump\t// in\n    tag_658:\n        /* \"#utility.yul\":16471:16472   */\n      0x00\n        /* \"#utility.yul\":16485:16693   */\n    tag_659:\n        /* \"#utility.yul\":16499:16506   */\n      dup3\n        /* \"#utility.yul\":16496:16497   */\n      dup2\n        /* \"#utility.yul\":16493:16507   */\n      lt\n        /* \"#utility.yul\":16485:16693   */\n      iszero\n      tag_661\n      jumpi\n        /* \"#utility.yul\":16578:16587   */\n      dup5\n        /* \"#utility.yul\":16573:16576   */\n      dup10\n        /* \"#utility.yul\":16569:16588   */\n      add\n        /* \"#utility.yul\":16563:16589   */\n      mload\n        /* \"#utility.yul\":16555:16561   */\n      dup3\n        /* \"#utility.yul\":16548:16590   */\n      sstore\n        /* \"#utility.yul\":16629:16630   */\n      0x01\n        /* \"#utility.yul\":16621:16627   */\n      dup3\n        /* \"#utility.yul\":16617:16631   */\n      add\n        /* \"#utility.yul\":16607:16631   */\n      swap2\n      pop\n        /* \"#utility.yul\":16676:16678   */\n      0x20\n        /* \"#utility.yul\":16665:16674   */\n      dup6\n        /* \"#utility.yul\":16661:16679   */\n      add\n        /* \"#utility.yul\":16648:16679   */\n      swap5\n      pop\n        /* \"#utility.yul\":16522:16526   */\n      0x20\n        /* \"#utility.yul\":16519:16520   */\n      dup2\n        /* \"#utility.yul\":16515:16527   */\n      add\n        /* \"#utility.yul\":16510:16527   */\n      swap1\n      pop\n        /* \"#utility.yul\":16485:16693   */\n      jump(tag_659)\n    tag_661:\n        /* \"#utility.yul\":16721:16727   */\n      dup7\n        /* \"#utility.yul\":16712:16719   */\n      dup4\n        /* \"#utility.yul\":16709:16728   */\n      lt\n        /* \"#utility.yul\":16706:16885   */\n      iszero\n      tag_662\n      jumpi\n        /* \"#utility.yul\":16779:16788   */\n      dup5\n        /* \"#utility.yul\":16774:16777   */\n      dup10\n        /* \"#utility.yul\":16770:16789   */\n      add\n        /* \"#utility.yul\":16764:16790   */\n      mload\n        /* \"#utility.yul\":16822:16870   */\n      tag_663\n        /* \"#utility.yul\":16864:16868   */\n      0x1f\n        /* \"#utility.yul\":16856:16862   */\n      dup10\n        /* \"#utility.yul\":16852:16869   */\n      and\n        /* \"#utility.yul\":16841:16850   */\n      dup3\n        /* \"#utility.yul\":16822:16870   */\n      tag_438\n      jump\t// in\n    tag_663:\n        /* \"#utility.yul\":16814:16820   */\n      dup4\n        /* \"#utility.yul\":16807:16871   */\n      sstore\n        /* \"#utility.yul\":16729:16885   */\n      pop\n        /* \"#utility.yul\":16706:16885   */\n    tag_662:\n        /* \"#utility.yul\":16931:16932   */\n      0x01\n        /* \"#utility.yul\":16927:16928   */\n      0x02\n        /* \"#utility.yul\":16919:16925   */\n      dup9\n        /* \"#utility.yul\":16915:16929   */\n      mul\n        /* \"#utility.yul\":16911:16933   */\n      add\n        /* \"#utility.yul\":16905:16909   */\n      dup9\n        /* \"#utility.yul\":16898:16934   */\n      sstore\n        /* \"#utility.yul\":16333:16944   */\n      pop\n      pop\n      pop\n        /* \"#utility.yul\":16296:17183   */\n    tag_654:\n      pop\n        /* \"#utility.yul\":15886:17189   */\n      pop\n      pop\n      pop\n        /* \"#utility.yul\":15794:17189   */\n      pop\n      pop\n      jump\t// out\n        /* \"#utility.yul\":17195:17375   */\n    tag_440:\n        /* \"#utility.yul\":17243:17320   */\n      0x4e487b7100000000000000000000000000000000000000000000000000000000\n        /* \"#utility.yul\":17240:17241   */\n      0x00\n        /* \"#utility.yul\":17233:17321   */\n      mstore\n        /* \"#utility.yul\":17340:17344   */\n      0x11\n        /* \"#utility.yul\":17337:17338   */\n      0x04\n        /* \"#utility.yul\":17330:17345   */\n      mstore\n        /* \"#utility.yul\":17364:17368   */\n      0x24\n        /* \"#utility.yul\":17361:17362   */\n      0x00\n        /* \"#utility.yul\":17354:17369   */\n      revert\n        /* \"#utility.yul\":17381:17575   */\n    tag_177:\n        /* \"#utility.yul\":17421:17425   */\n      0x00\n        /* \"#utility.yul\":17441:17461   */\n      tag_666\n        /* \"#utility.yul\":17459:17460   */\n      dup3\n        /* \"#utility.yul\":17441:17461   */\n      tag_398\n      jump\t// in\n    tag_666:\n        /* \"#utility.yul\":17436:17461   */\n      swap2\n      pop\n        /* \"#utility.yul\":17475:17495   */\n      tag_667\n        /* \"#utility.yul\":17493:17494   */\n      dup4\n        /* \"#utility.yul\":17475:17495   */\n      tag_398\n      jump\t// in\n    tag_667:\n        /* \"#utility.yul\":17470:17495   */\n      swap3\n      pop\n        /* \"#utility.yul\":17519:17520   */\n      dup3\n        /* \"#utility.yul\":17516:17517   */\n      dup3\n        /* \"#utility.yul\":17512:17521   */\n      sub\n        /* \"#utility.yul\":17504:17521   */\n      swap1\n      pop\n        /* \"#utility.yul\":17543:17544   */\n      dup2\n        /* \"#utility.yul\":17537:17541   */\n      dup2\n        /* \"#utility.yul\":17534:17545   */\n      gt\n        /* \"#utility.yul\":17531:17568   */\n      iszero\n      tag_668\n      jumpi\n        /* \"#utility.yul\":17548:17566   */\n      tag_669\n      tag_440\n      jump\t// in\n    tag_669:\n        /* \"#utility.yul\":17531:17568   */\n    tag_668:\n        /* \"#utility.yul\":17381:17575   */\n      swap3\n      swap2\n      pop\n      pop\n      jump\t// out\n        /* \"#utility.yul\":17581:17761   */\n    tag_182:\n        /* \"#utility.yul\":17629:17706   */\n      0x4e487b7100000000000000000000000000000000000000000000000000000000\n        /* \"#utility.yul\":17626:17627   */\n      0x00\n        /* \"#utility.yul\":17619:17707   */\n      mstore\n        /* \"#utility.yul\":17726:17730   */\n      0x32\n        /* \"#utility.yul\":17723:17724   */\n      0x04\n        /* \"#utility.yul\":17716:17731   */\n      mstore\n        /* \"#utility.yul\":17750:17754   */\n      0x24\n        /* \"#utility.yul\":17747:17748   */\n      0x00\n        /* \"#utility.yul\":17740:17755   */\n      revert\n        /* \"#utility.yul\":17767:17947   */\n    tag_189:\n        /* \"#utility.yul\":17815:17892   */\n      0x4e487b7100000000000000000000000000000000000000000000000000000000\n        /* \"#utility.yul\":17812:17813   */\n      0x00\n        /* \"#utility.yul\":17805:17893   */\n      mstore\n        /* \"#utility.yul\":17912:17916   */\n      0x31\n        /* \"#utility.yul\":17909:17910   */\n      0x04\n        /* \"#utility.yul\":17902:17917   */\n      mstore\n        /* \"#utility.yul\":17936:17940   */\n      0x24\n        /* \"#utility.yul\":17933:17934   */\n      0x00\n        /* \"#utility.yul\":17926:17941   */\n      revert\n        /* \"#utility.yul\":17953:18121   */\n    tag_441:\n        /* \"#utility.yul\":18036:18047   */\n      0x00\n        /* \"#utility.yul\":18070:18076   */\n      dup3\n        /* \"#utility.yul\":18065:18068   */\n      dup3\n        /* \"#utility.yul\":18058:18077   */\n      mstore\n        /* \"#utility.yul\":18110:18114   */\n      0x20\n        /* \"#utility.yul\":18105:18108   */\n      dup3\n        /* \"#utility.yul\":18101:18115   */\n      add\n        /* \"#utility.yul\":18086:18115   */\n      swap1\n      pop\n        /* \"#utility.yul\":17953:18121   */\n      swap3\n      swap2\n      pop\n      pop\n      jump\t// out\n        /* \"#utility.yul\":18127:18241   */\n    tag_442:\n      pop\n      jump\t// out\n        /* \"#utility.yul\":18247:18609   */\n    tag_443:\n        /* \"#utility.yul\":18388:18391   */\n      0x00\n        /* \"#utility.yul\":18409:18474   */\n      tag_675\n        /* \"#utility.yul\":18472:18473   */\n      0x00\n        /* \"#utility.yul\":18467:18470   */\n      dup4\n        /* \"#utility.yul\":18409:18474   */\n      tag_441\n      jump\t// in\n    tag_675:\n        /* \"#utility.yul\":18402:18474   */\n      swap2\n      pop\n        /* \"#utility.yul\":18483:18576   */\n      tag_676\n        /* \"#utility.yul\":18572:18575   */\n      dup3\n        /* \"#utility.yul\":18483:18576   */\n      tag_442\n      jump\t// in\n    tag_676:\n        /* \"#utility.yul\":18601:18602   */\n      0x00\n        /* \"#utility.yul\":18596:18599   */\n      dup3\n        /* \"#utility.yul\":18592:18603   */\n      add\n        /* \"#utility.yul\":18585:18603   */\n      swap1\n      pop\n        /* \"#utility.yul\":18247:18609   */\n      swap2\n      swap1\n      pop\n      jump\t// out\n        /* \"#utility.yul\":18615:19363   */\n    tag_207:\n        /* \"#utility.yul\":18864:18868   */\n      0x00\n        /* \"#utility.yul\":18902:18905   */\n      0x80\n        /* \"#utility.yul\":18891:18900   */\n      dup3\n        /* \"#utility.yul\":18887:18906   */\n      add\n        /* \"#utility.yul\":18879:18906   */\n      swap1\n      pop\n        /* \"#utility.yul\":18916:18987   */\n      tag_678\n        /* \"#utility.yul\":18984:18985   */\n      0x00\n        /* \"#utility.yul\":18973:18982   */\n      dup4\n        /* \"#utility.yul\":18969:18986   */\n      add\n        /* \"#utility.yul\":18960:18966   */\n      dup7\n        /* \"#utility.yul\":18916:18987   */\n      tag_403\n      jump\t// in\n    tag_678:\n        /* \"#utility.yul\":18997:19069   */\n      tag_679\n        /* \"#utility.yul\":19065:19067   */\n      0x20\n        /* \"#utility.yul\":19054:19063   */\n      dup4\n        /* \"#utility.yul\":19050:19068   */\n      add\n        /* \"#utility.yul\":19041:19047   */\n      dup6\n        /* \"#utility.yul\":18997:19069   */\n      tag_403\n      jump\t// in\n    tag_679:\n        /* \"#utility.yul\":19079:19151   */\n      tag_680\n        /* \"#utility.yul\":19147:19149   */\n      0x40\n        /* \"#utility.yul\":19136:19145   */\n      dup4\n        /* \"#utility.yul\":19132:19150   */\n      add\n        /* \"#utility.yul\":19123:19129   */\n      dup5\n        /* \"#utility.yul\":19079:19151   */\n      tag_408\n      jump\t// in\n    tag_680:\n        /* \"#utility.yul\":19198:19207   */\n      dup2\n        /* \"#utility.yul\":19192:19196   */\n      dup2\n        /* \"#utility.yul\":19188:19208   */\n      sub\n        /* \"#utility.yul\":19183:19185   */\n      0x60\n        /* \"#utility.yul\":19172:19181   */\n      dup4\n        /* \"#utility.yul\":19168:19186   */\n      add\n        /* \"#utility.yul\":19161:19209   */\n      mstore\n        /* \"#utility.yul\":19226:19356   */\n      tag_681\n        /* \"#utility.yul\":19351:19355   */\n      dup2\n        /* \"#utility.yul\":19226:19356   */\n      tag_443\n      jump\t// in\n    tag_681:\n        /* \"#utility.yul\":19218:19356   */\n      swap1\n      pop\n        /* \"#utility.yul\":18615:19363   */\n      swap5\n      swap4\n      pop\n      pop\n      pop\n      pop\n      jump\t// out\n        /* \"#utility.yul\":19369:19518   */\n    tag_444:\n        /* \"#utility.yul\":19405:19412   */\n      0x00\n        /* \"#utility.yul\":19445:19511   */\n      0xffffffff00000000000000000000000000000000000000000000000000000000\n        /* \"#utility.yul\":19438:19443   */\n      dup3\n        /* \"#utility.yul\":19434:19512   */\n      and\n        /* \"#utility.yul\":19423:19512   */\n      swap1\n      pop\n        /* \"#utility.yul\":19369:19518   */\n      swap2\n      swap1\n      pop\n      jump\t// out\n        /* \"#utility.yul\":19524:19644   */\n    tag_445:\n        /* \"#utility.yul\":19596:19619   */\n      tag_684\n        /* \"#utility.yul\":19613:19618   */\n      dup2\n        /* \"#utility.yul\":19596:19619   */\n      tag_444\n      jump\t// in\n    tag_684:\n        /* \"#utility.yul\":19589:19594   */\n      dup2\n        /* \"#utility.yul\":19586:19620   */\n      eq\n        /* \"#utility.yul\":19576:19638   */\n      tag_685\n      jumpi\n        /* \"#utility.yul\":19634:19635   */\n      0x00\n        /* \"#utility.yul\":19631:19632   */\n      dup1\n        /* \"#utility.yul\":19624:19636   */\n      revert\n        /* \"#utility.yul\":19576:19638   */\n    tag_685:\n        /* \"#utility.yul\":19524:19644   */\n      pop\n      jump\t// out\n        /* \"#utility.yul\":19650:19791   */\n    tag_446:\n        /* \"#utility.yul\":19706:19711   */\n      0x00\n        /* \"#utility.yul\":19737:19743   */\n      dup2\n        /* \"#utility.yul\":19731:19744   */\n      mload\n        /* \"#utility.yul\":19722:19744   */\n      swap1\n      pop\n        /* \"#utility.yul\":19753:19785   */\n      tag_687\n        /* \"#utility.yul\":19779:19784   */\n      dup2\n        /* \"#utility.yul\":19753:19785   */\n      tag_445\n      jump\t// in\n    tag_687:\n        /* \"#utility.yul\":19650:19791   */\n      swap3\n      swap2\n      pop\n      pop\n      jump\t// out\n        /* \"#utility.yul\":19797:20146   */\n    tag_211:\n        /* \"#utility.yul\":19866:19872   */\n      0x00\n        /* \"#utility.yul\":19915:19917   */\n      0x20\n        /* \"#utility.yul\":19903:19912   */\n      dup3\n        /* \"#utility.yul\":19894:19901   */\n      dup5\n        /* \"#utility.yul\":19890:19913   */\n      sub\n        /* \"#utility.yul\":19886:19918   */\n      slt\n        /* \"#utility.yul\":19883:20002   */\n      iszero\n      tag_689\n      jumpi\n        /* \"#utility.yul\":19921:20000   */\n      tag_690\n      tag_396\n      jump\t// in\n    tag_690:\n        /* \"#utility.yul\":19883:20002   */\n    tag_689:\n        /* \"#utility.yul\":20041:20042   */\n      0x00\n        /* \"#utility.yul\":20066:20129   */\n      tag_691\n        /* \"#utility.yul\":20121:20128   */\n      dup5\n        /* \"#utility.yul\":20112:20118   */\n      dup3\n        /* \"#utility.yul\":20101:20110   */\n      dup6\n        /* \"#utility.yul\":20097:20119   */\n      add\n        /* \"#utility.yul\":20066:20129   */\n      tag_446\n      jump\t// in\n    tag_691:\n        /* \"#utility.yul\":20056:20129   */\n      swap2\n      pop\n        /* \"#utility.yul\":20012:20139   */\n      pop\n        /* \"#utility.yul\":19797:20146   */\n      swap3\n      swap2\n      pop\n      pop\n      jump\t// out\n        /* \"#utility.yul\":20174:20488   */\n    tag_447:\n        /* \"#utility.yul\":20270:20273   */\n      0x00\n        /* \"#utility.yul\":20291:20361   */\n      tag_693\n        /* \"#utility.yul\":20354:20360   */\n      dup4\n        /* \"#utility.yul\":20349:20352   */\n      dup6\n        /* \"#utility.yul\":20291:20361   */\n      tag_441\n      jump\t// in\n    tag_693:\n        /* \"#utility.yul\":20284:20361   */\n      swap4\n      pop\n        /* \"#utility.yul\":20371:20427   */\n      tag_694\n        /* \"#utility.yul\":20420:20426   */\n      dup4\n        /* \"#utility.yul\":20415:20418   */\n      dup6\n        /* \"#utility.yul\":20408:20413   */\n      dup5\n        /* \"#utility.yul\":20371:20427   */\n      tag_414\n      jump\t// in\n    tag_694:\n        /* \"#utility.yul\":20452:20481   */\n      tag_695\n        /* \"#utility.yul\":20474:20480   */\n      dup4\n        /* \"#utility.yul\":20452:20481   */\n      tag_393\n      jump\t// in\n    tag_695:\n        /* \"#utility.yul\":20447:20450   */\n      dup5\n        /* \"#utility.yul\":20443:20482   */\n      add\n        /* \"#utility.yul\":20436:20482   */\n      swap1\n      pop\n        /* \"#utility.yul\":20174:20488   */\n      swap4\n      swap3\n      pop\n      pop\n      pop\n      jump\t// out\n        /* \"#utility.yul\":20494:21154   */\n    tag_236:\n        /* \"#utility.yul\":20699:20703   */\n      0x00\n        /* \"#utility.yul\":20737:20740   */\n      0x80\n        /* \"#utility.yul\":20726:20735   */\n      dup3\n        /* \"#utility.yul\":20722:20741   */\n      add\n        /* \"#utility.yul\":20714:20741   */\n      swap1\n      pop\n        /* \"#utility.yul\":20751:20822   */\n      tag_697\n        /* \"#utility.yul\":20819:20820   */\n      0x00\n        /* \"#utility.yul\":20808:20817   */\n      dup4\n        /* \"#utility.yul\":20804:20821   */\n      add\n        /* \"#utility.yul\":20795:20801   */\n      dup9\n        /* \"#utility.yul\":20751:20822   */\n      tag_403\n      jump\t// in\n    tag_697:\n        /* \"#utility.yul\":20832:20904   */\n      tag_698\n        /* \"#utility.yul\":20900:20902   */\n      0x20\n        /* \"#utility.yul\":20889:20898   */\n      dup4\n        /* \"#utility.yul\":20885:20903   */\n      add\n        /* \"#utility.yul\":20876:20882   */\n      dup8\n        /* \"#utility.yul\":20832:20904   */\n      tag_403\n      jump\t// in\n    tag_698:\n        /* \"#utility.yul\":20914:20986   */\n      tag_699\n        /* \"#utility.yul\":20982:20984   */\n      0x40\n        /* \"#utility.yul\":20971:20980   */\n      dup4\n        /* \"#utility.yul\":20967:20985   */\n      add\n        /* \"#utility.yul\":20958:20964   */\n      dup7\n        /* \"#utility.yul\":20914:20986   */\n      tag_408\n      jump\t// in\n    tag_699:\n        /* \"#utility.yul\":21033:21042   */\n      dup2\n        /* \"#utility.yul\":21027:21031   */\n      dup2\n        /* \"#utility.yul\":21023:21043   */\n      sub\n        /* \"#utility.yul\":21018:21020   */\n      0x60\n        /* \"#utility.yul\":21007:21016   */\n      dup4\n        /* \"#utility.yul\":21003:21021   */\n      add\n        /* \"#utility.yul\":20996:21044   */\n      mstore\n        /* \"#utility.yul\":21061:21147   */\n      tag_700\n        /* \"#utility.yul\":21142:21146   */\n      dup2\n        /* \"#utility.yul\":21133:21139   */\n      dup5\n        /* \"#utility.yul\":21125:21131   */\n      dup7\n        /* \"#utility.yul\":21061:21147   */\n      tag_447\n      jump\t// in\n    tag_700:\n        /* \"#utility.yul\":21053:21147   */\n      swap1\n      pop\n        /* \"#utility.yul\":20494:21154   */\n      swap7\n      swap6\n      pop\n      pop\n      pop\n      pop\n      pop\n      pop\n      jump\t// out\n        /* \"#utility.yul\":21160:21308   */\n    tag_448:\n        /* \"#utility.yul\":21262:21273   */\n      0x00\n        /* \"#utility.yul\":21299:21302   */\n      dup2\n        /* \"#utility.yul\":21284:21302   */\n      swap1\n      pop\n        /* \"#utility.yul\":21160:21308   */\n      swap3\n      swap2\n      pop\n      pop\n      jump\t// out\n        /* \"#utility.yul\":21338:22212   */\n    tag_449:\n        /* \"#utility.yul\":21441:21444   */\n      0x00\n        /* \"#utility.yul\":21478:21483   */\n      dup2\n        /* \"#utility.yul\":21472:21484   */\n      sload\n        /* \"#utility.yul\":21507:21543   */\n      tag_703\n        /* \"#utility.yul\":21533:21542   */\n      dup2\n        /* \"#utility.yul\":21507:21543   */\n      tag_149\n      jump\t// in\n    tag_703:\n        /* \"#utility.yul\":21559:21648   */\n      tag_704\n        /* \"#utility.yul\":21641:21647   */\n      dup2\n        /* \"#utility.yul\":21636:21639   */\n      dup7\n        /* \"#utility.yul\":21559:21648   */\n      tag_448\n      jump\t// in\n    tag_704:\n        /* \"#utility.yul\":21552:21648   */\n      swap5\n      pop\n        /* \"#utility.yul\":21679:21680   */\n      0x01\n        /* \"#utility.yul\":21668:21677   */\n      dup3\n        /* \"#utility.yul\":21664:21681   */\n      and\n        /* \"#utility.yul\":21695:21696   */\n      0x00\n        /* \"#utility.yul\":21690:21856   */\n      dup2\n      eq\n      tag_706\n      jumpi\n        /* \"#utility.yul\":21870:21871   */\n      0x01\n        /* \"#utility.yul\":21865:22206   */\n      dup2\n      eq\n      tag_707\n      jumpi\n        /* \"#utility.yul\":21657:22206   */\n      jump(tag_705)\n        /* \"#utility.yul\":21690:21856   */\n    tag_706:\n        /* \"#utility.yul\":21774:21778   */\n      0xff\n        /* \"#utility.yul\":21770:21779   */\n      not\n        /* \"#utility.yul\":21759:21768   */\n      dup4\n        /* \"#utility.yul\":21755:21780   */\n      and\n        /* \"#utility.yul\":21750:21753   */\n      dup7\n        /* \"#utility.yul\":21743:21781   */\n      mstore\n        /* \"#utility.yul\":21836:21842   */\n      dup2\n        /* \"#utility.yul\":21829:21843   */\n      iszero\n        /* \"#utility.yul\":21822:21844   */\n      iszero\n        /* \"#utility.yul\":21814:21820   */\n      dup3\n        /* \"#utility.yul\":21810:21845   */\n      mul\n        /* \"#utility.yul\":21805:21808   */\n      dup7\n        /* \"#utility.yul\":21801:21846   */\n      add\n        /* \"#utility.yul\":21794:21846   */\n      swap4\n      pop\n        /* \"#utility.yul\":21690:21856   */\n      jump(tag_705)\n        /* \"#utility.yul\":21865:22206   */\n    tag_707:\n        /* \"#utility.yul\":21932:21970   */\n      tag_708\n        /* \"#utility.yul\":21964:21969   */\n      dup6\n        /* \"#utility.yul\":21932:21970   */\n      tag_425\n      jump\t// in\n    tag_708:\n        /* \"#utility.yul\":21992:21993   */\n      0x00\n        /* \"#utility.yul\":22006:22160   */\n    tag_709:\n        /* \"#utility.yul\":22020:22026   */\n      dup4\n        /* \"#utility.yul\":22017:22018   */\n      dup2\n        /* \"#utility.yul\":22014:22027   */\n      lt\n        /* \"#utility.yul\":22006:22160   */\n      iszero\n      tag_711\n      jumpi\n        /* \"#utility.yul\":22094:22101   */\n      dup2\n        /* \"#utility.yul\":22088:22102   */\n      sload\n        /* \"#utility.yul\":22084:22085   */\n      dup2\n        /* \"#utility.yul\":22079:22082   */\n      dup10\n        /* \"#utility.yul\":22075:22086   */\n      add\n        /* \"#utility.yul\":22068:22103   */\n      mstore\n        /* \"#utility.yul\":22144:22145   */\n      0x01\n        /* \"#utility.yul\":22135:22142   */\n      dup3\n        /* \"#utility.yul\":22131:22146   */\n      add\n        /* \"#utility.yul\":22120:22146   */\n      swap2\n      pop\n        /* \"#utility.yul\":22042:22046   */\n      0x20\n        /* \"#utility.yul\":22039:22040   */\n      dup2\n        /* \"#utility.yul\":22035:22047   */\n      add\n        /* \"#utility.yul\":22030:22047   */\n      swap1\n      pop\n        /* \"#utility.yul\":22006:22160   */\n      jump(tag_709)\n    tag_711:\n        /* \"#utility.yul\":22189:22195   */\n      dup4\n        /* \"#utility.yul\":22184:22187   */\n      dup9\n        /* \"#utility.yul\":22180:22196   */\n      add\n        /* \"#utility.yul\":22173:22196   */\n      swap6\n      pop\n        /* \"#utility.yul\":21872:22206   */\n      pop\n      pop\n        /* \"#utility.yul\":21657:22206   */\n    tag_705:\n      pop\n        /* \"#utility.yul\":21445:22212   */\n      pop\n      pop\n        /* \"#utility.yul\":21338:22212   */\n      swap3\n      swap2\n      pop\n      pop\n      jump\t// out\n        /* \"#utility.yul\":22218:22608   */\n    tag_450:\n        /* \"#utility.yul\":22324:22327   */\n      0x00\n        /* \"#utility.yul\":22352:22391   */\n      tag_713\n        /* \"#utility.yul\":22385:22390   */\n      dup3\n        /* \"#utility.yul\":22352:22391   */\n      tag_390\n      jump\t// in\n    tag_713:\n        /* \"#utility.yul\":22407:22496   */\n      tag_714\n        /* \"#utility.yul\":22489:22495   */\n      dup2\n        /* \"#utility.yul\":22484:22487   */\n      dup6\n        /* \"#utility.yul\":22407:22496   */\n      tag_448\n      jump\t// in\n    tag_714:\n        /* \"#utility.yul\":22400:22496   */\n      swap4\n      pop\n        /* \"#utility.yul\":22505:22570   */\n      tag_715\n        /* \"#utility.yul\":22563:22569   */\n      dup2\n        /* \"#utility.yul\":22558:22561   */\n      dup6\n        /* \"#utility.yul\":22551:22555   */\n      0x20\n        /* \"#utility.yul\":22544:22549   */\n      dup7\n        /* \"#utility.yul\":22540:22556   */\n      add\n        /* \"#utility.yul\":22505:22570   */\n      tag_392\n      jump\t// in\n    tag_715:\n        /* \"#utility.yul\":22595:22601   */\n      dup1\n        /* \"#utility.yul\":22590:22593   */\n      dup5\n        /* \"#utility.yul\":22586:22602   */\n      add\n        /* \"#utility.yul\":22579:22602   */\n      swap2\n      pop\n        /* \"#utility.yul\":22328:22608   */\n      pop\n        /* \"#utility.yul\":22218:22608   */\n      swap3\n      swap2\n      pop\n      pop\n      jump\t// out\n        /* \"#utility.yul\":22614:23043   */\n    tag_251:\n        /* \"#utility.yul\":22791:22794   */\n      0x00\n        /* \"#utility.yul\":22813:22905   */\n      tag_717\n        /* \"#utility.yul\":22901:22904   */\n      dup3\n        /* \"#utility.yul\":22892:22898   */\n      dup6\n        /* \"#utility.yul\":22813:22905   */\n      tag_449\n      jump\t// in\n    tag_717:\n        /* \"#utility.yul\":22806:22905   */\n      swap2\n      pop\n        /* \"#utility.yul\":22922:23017   */\n      tag_718\n        /* \"#utility.yul\":23013:23016   */\n      dup3\n        /* \"#utility.yul\":23004:23010   */\n      dup5\n        /* \"#utility.yul\":22922:23017   */\n      tag_450\n      jump\t// in\n    tag_718:\n        /* \"#utility.yul\":22915:23017   */\n      swap2\n      pop\n        /* \"#utility.yul\":23034:23037   */\n      dup2\n        /* \"#utility.yul\":23027:23037   */\n      swap1\n      pop\n        /* \"#utility.yul\":22614:23043   */\n      swap4\n      swap3\n      pop\n      pop\n      pop\n      jump\t// out\n        /* \"#utility.yul\":23049:23290   */\n    tag_451:\n        /* \"#utility.yul\":23217:23283   */\n      0x7b226e616d65223a220000000000000000000000000000000000000000000000\n        /* \"#utility.yul\":23212:23215   */\n      dup2\n        /* \"#utility.yul\":23205:23284   */\n      mstore\n        /* \"#utility.yul\":23049:23290   */\n      pop\n      jump\t// out\n        /* \"#utility.yul\":23296:23475   */\n    tag_452:\n        /* \"#utility.yul\":23464:23468   */\n      0x2023000000000000000000000000000000000000000000000000000000000000\n        /* \"#utility.yul\":23459:23462   */\n      dup2\n        /* \"#utility.yul\":23452:23469   */\n      mstore\n        /* \"#utility.yul\":23296:23475   */\n      pop\n      jump\t// out\n        /* \"#utility.yul\":23481:24438   */\n    tag_262:\n        /* \"#utility.yul\":23838:23841   */\n      0x00\n        /* \"#utility.yul\":23853:23990   */\n      tag_722\n        /* \"#utility.yul\":23986:23989   */\n      dup3\n        /* \"#utility.yul\":23853:23990   */\n      tag_451\n      jump\t// in\n    tag_722:\n        /* \"#utility.yul\":24015:24016   */\n      0x09\n        /* \"#utility.yul\":24010:24013   */\n      dup3\n        /* \"#utility.yul\":24006:24017   */\n      add\n        /* \"#utility.yul\":23999:24017   */\n      swap2\n      pop\n        /* \"#utility.yul\":24034:24126   */\n      tag_723\n        /* \"#utility.yul\":24122:24125   */\n      dup3\n        /* \"#utility.yul\":24113:24119   */\n      dup6\n        /* \"#utility.yul\":24034:24126   */\n      tag_449\n      jump\t// in\n    tag_723:\n        /* \"#utility.yul\":24027:24126   */\n      swap2\n      pop\n        /* \"#utility.yul\":24136:24273   */\n      tag_724\n        /* \"#utility.yul\":24269:24272   */\n      dup3\n        /* \"#utility.yul\":24136:24273   */\n      tag_452\n      jump\t// in\n    tag_724:\n        /* \"#utility.yul\":24298:24299   */\n      0x02\n        /* \"#utility.yul\":24293:24296   */\n      dup3\n        /* \"#utility.yul\":24289:24300   */\n      add\n        /* \"#utility.yul\":24282:24300   */\n      swap2\n      pop\n        /* \"#utility.yul\":24317:24412   */\n      tag_725\n        /* \"#utility.yul\":24408:24411   */\n      dup3\n        /* \"#utility.yul\":24399:24405   */\n      dup5\n        /* \"#utility.yul\":24317:24412   */\n      tag_450\n      jump\t// in\n    tag_725:\n        /* \"#utility.yul\":24310:24412   */\n      swap2\n      pop\n        /* \"#utility.yul\":24429:24432   */\n      dup2\n        /* \"#utility.yul\":24422:24432   */\n      swap1\n      pop\n        /* \"#utility.yul\":23481:24438   */\n      swap4\n      swap3\n      pop\n      pop\n      pop\n      jump\t// out\n        /* \"#utility.yul\":24444:24686   */\n    tag_453:\n        /* \"#utility.yul\":24613:24679   */\n      0x222c226465736372697074696f6e223a22000000000000000000000000000000\n        /* \"#utility.yul\":24608:24611   */\n      dup2\n        /* \"#utility.yul\":24601:24680   */\n      mstore\n        /* \"#utility.yul\":24444:24686   */\n      pop\n      jump\t// out\n        /* \"#utility.yul\":24692:25007   */\n    tag_454:\n        /* \"#utility.yul\":24832:24898   */\n      0x222c2265787465726e616c5f75726c223a2268747470733a2f2f222c22696d61\n        /* \"#utility.yul\":24828:24829   */\n      0x00\n        /* \"#utility.yul\":24820:24826   */\n      dup3\n        /* \"#utility.yul\":24816:24830   */\n      add\n        /* \"#utility.yul\":24809:24899   */\n      mstore\n        /* \"#utility.yul\":24933:24999   */\n      0x6765223a22000000000000000000000000000000000000000000000000000000\n        /* \"#utility.yul\":24928:24930   */\n      0x20\n        /* \"#utility.yul\":24920:24926   */\n      dup3\n        /* \"#utility.yul\":24916:24931   */\n      add\n        /* \"#utility.yul\":24909:25000   */\n      mstore\n        /* \"#utility.yul\":24692:25007   */\n      pop\n      jump\t// out\n        /* \"#utility.yul\":25013:25415   */\n    tag_455:\n        /* \"#utility.yul\":25173:25176   */\n      0x00\n        /* \"#utility.yul\":25194:25279   */\n      tag_729\n        /* \"#utility.yul\":25276:25278   */\n      0x25\n        /* \"#utility.yul\":25271:25274   */\n      dup4\n        /* \"#utility.yul\":25194:25279   */\n      tag_448\n      jump\t// in\n    tag_729:\n        /* \"#utility.yul\":25187:25279   */\n      swap2\n      pop\n        /* \"#utility.yul\":25288:25381   */\n      tag_730\n        /* \"#utility.yul\":25377:25380   */\n      dup3\n        /* \"#utility.yul\":25288:25381   */\n      tag_454\n      jump\t// in\n    tag_730:\n        /* \"#utility.yul\":25406:25408   */\n      0x25\n        /* \"#utility.yul\":25401:25404   */\n      dup3\n        /* \"#utility.yul\":25397:25409   */\n      add\n        /* \"#utility.yul\":25390:25409   */\n      swap1\n      pop\n        /* \"#utility.yul\":25013:25415   */\n      swap2\n      swap1\n      pop\n      jump\t// out\n        /* \"#utility.yul\":25421:26383   */\n    tag_264:\n        /* \"#utility.yul\":25790:25793   */\n      0x00\n        /* \"#utility.yul\":25812:25907   */\n      tag_732\n        /* \"#utility.yul\":25903:25906   */\n      dup3\n        /* \"#utility.yul\":25894:25900   */\n      dup6\n        /* \"#utility.yul\":25812:25907   */\n      tag_450\n      jump\t// in\n    tag_732:\n        /* \"#utility.yul\":25805:25907   */\n      swap2\n      pop\n        /* \"#utility.yul\":25917:26055   */\n      tag_733\n        /* \"#utility.yul\":26051:26054   */\n      dup3\n        /* \"#utility.yul\":25917:26055   */\n      tag_453\n      jump\t// in\n    tag_733:\n        /* \"#utility.yul\":26080:26082   */\n      0x11\n        /* \"#utility.yul\":26075:26078   */\n      dup3\n        /* \"#utility.yul\":26071:26083   */\n      add\n        /* \"#utility.yul\":26064:26083   */\n      swap2\n      pop\n        /* \"#utility.yul\":26100:26192   */\n      tag_734\n        /* \"#utility.yul\":26188:26191   */\n      dup3\n        /* \"#utility.yul\":26179:26185   */\n      dup5\n        /* \"#utility.yul\":26100:26192   */\n      tag_449\n      jump\t// in\n    tag_734:\n        /* \"#utility.yul\":26093:26192   */\n      swap2\n      pop\n        /* \"#utility.yul\":26209:26357   */\n      tag_735\n        /* \"#utility.yul\":26353:26356   */\n      dup3\n        /* \"#utility.yul\":26209:26357   */\n      tag_455\n      jump\t// in\n    tag_735:\n        /* \"#utility.yul\":26202:26357   */\n      swap2\n      pop\n        /* \"#utility.yul\":26374:26377   */\n      dup2\n        /* \"#utility.yul\":26367:26377   */\n      swap1\n      pop\n        /* \"#utility.yul\":25421:26383   */\n      swap4\n      swap3\n      pop\n      pop\n      pop\n      jump\t// out\n        /* \"#utility.yul\":26389:26824   */\n    tag_267:\n        /* \"#utility.yul\":26569:26572   */\n      0x00\n        /* \"#utility.yul\":26591:26686   */\n      tag_737\n        /* \"#utility.yul\":26682:26685   */\n      dup3\n        /* \"#utility.yul\":26673:26679   */\n      dup6\n        /* \"#utility.yul\":26591:26686   */\n      tag_450\n      jump\t// in\n    tag_737:\n        /* \"#utility.yul\":26584:26686   */\n      swap2\n      pop\n        /* \"#utility.yul\":26703:26798   */\n      tag_738\n        /* \"#utility.yul\":26794:26797   */\n      dup3\n        /* \"#utility.yul\":26785:26791   */\n      dup5\n        /* \"#utility.yul\":26703:26798   */\n      tag_450\n      jump\t// in\n    tag_738:\n        /* \"#utility.yul\":26696:26798   */\n      swap2\n      pop\n        /* \"#utility.yul\":26815:26818   */\n      dup2\n        /* \"#utility.yul\":26808:26818   */\n      swap1\n      pop\n        /* \"#utility.yul\":26389:26824   */\n      swap4\n      swap3\n      pop\n      pop\n      pop\n      jump\t// out\n        /* \"#utility.yul\":26830:27145   */\n    tag_456:\n        /* \"#utility.yul\":26970:27036   */\n      0x222c2261747472696275746573223a5b7b2274726169745f74797065223a2243\n        /* \"#utility.yul\":26966:26967   */\n      0x00\n        /* \"#utility.yul\":26958:26964   */\n      dup3\n        /* \"#utility.yul\":26954:26968   */\n      add\n        /* \"#utility.yul\":26947:27037   */\n      mstore\n        /* \"#utility.yul\":27071:27137   */\n      0x6f6c6f72222c2276616c7565223a220000000000000000000000000000000000\n        /* \"#utility.yul\":27066:27068   */\n      0x20\n        /* \"#utility.yul\":27058:27064   */\n      dup3\n        /* \"#utility.yul\":27054:27069   */\n      add\n        /* \"#utility.yul\":27047:27138   */\n      mstore\n        /* \"#utility.yul\":26830:27145   */\n      pop\n      jump\t// out\n        /* \"#utility.yul\":27151:27553   */\n    tag_457:\n        /* \"#utility.yul\":27311:27314   */\n      0x00\n        /* \"#utility.yul\":27332:27417   */\n      tag_741\n        /* \"#utility.yul\":27414:27416   */\n      0x2f\n        /* \"#utility.yul\":27409:27412   */\n      dup4\n        /* \"#utility.yul\":27332:27417   */\n      tag_448\n      jump\t// in\n    tag_741:\n        /* \"#utility.yul\":27325:27417   */\n      swap2\n      pop\n        /* \"#utility.yul\":27426:27519   */\n      tag_742\n        /* \"#utility.yul\":27515:27518   */\n      dup3\n        /* \"#utility.yul\":27426:27519   */\n      tag_456\n      jump\t// in\n    tag_742:\n        /* \"#utility.yul\":27544:27546   */\n      0x2f\n        /* \"#utility.yul\":27539:27542   */\n      dup3\n        /* \"#utility.yul\":27535:27547   */\n      add\n        /* \"#utility.yul\":27528:27547   */\n      swap1\n      pop\n        /* \"#utility.yul\":27151:27553   */\n      swap2\n      swap1\n      pop\n      jump\t// out\n        /* \"#utility.yul\":27559:28100   */\n    tag_269:\n        /* \"#utility.yul\":27792:27795   */\n      0x00\n        /* \"#utility.yul\":27814:27962   */\n      tag_744\n        /* \"#utility.yul\":27958:27961   */\n      dup3\n        /* \"#utility.yul\":27814:27962   */\n      tag_457\n      jump\t// in\n    tag_744:\n        /* \"#utility.yul\":27807:27962   */\n      swap2\n      pop\n        /* \"#utility.yul\":27979:28074   */\n      tag_745\n        /* \"#utility.yul\":28070:28073   */\n      dup3\n        /* \"#utility.yul\":28061:28067   */\n      dup5\n        /* \"#utility.yul\":27979:28074   */\n      tag_450\n      jump\t// in\n    tag_745:\n        /* \"#utility.yul\":27972:28074   */\n      swap2\n      pop\n        /* \"#utility.yul\":28091:28094   */\n      dup2\n        /* \"#utility.yul\":28084:28094   */\n      swap1\n      pop\n        /* \"#utility.yul\":27559:28100   */\n      swap3\n      swap2\n      pop\n      pop\n      jump\t// out\n        /* \"#utility.yul\":28106:28311   */\n    tag_458:\n        /* \"#utility.yul\":28275:28304   */\n      0x646174613a6170706c69636174696f6e2f6a736f6e3b757466382c0000000000\n        /* \"#utility.yul\":28270:28273   */\n      dup2\n        /* \"#utility.yul\":28263:28305   */\n      mstore\n        /* \"#utility.yul\":28106:28311   */\n      pop\n      jump\t// out\n        /* \"#utility.yul\":28317:28859   */\n    tag_273:\n        /* \"#utility.yul\":28540:28543   */\n      0x00\n        /* \"#utility.yul\":28555:28693   */\n      tag_748\n        /* \"#utility.yul\":28689:28692   */\n      dup3\n        /* \"#utility.yul\":28555:28693   */\n      tag_458\n      jump\t// in\n    tag_748:\n        /* \"#utility.yul\":28718:28720   */\n      0x1b\n        /* \"#utility.yul\":28713:28716   */\n      dup3\n        /* \"#utility.yul\":28709:28721   */\n      add\n        /* \"#utility.yul\":28702:28721   */\n      swap2\n      pop\n        /* \"#utility.yul\":28738:28833   */\n      tag_749\n        /* \"#utility.yul\":28829:28832   */\n      dup3\n        /* \"#utility.yul\":28820:28826   */\n      dup5\n        /* \"#utility.yul\":28738:28833   */\n      tag_450\n      jump\t// in\n    tag_749:\n        /* \"#utility.yul\":28731:28833   */\n      swap2\n      pop\n        /* \"#utility.yul\":28850:28853   */\n      dup2\n        /* \"#utility.yul\":28843:28853   */\n      swap1\n      pop\n        /* \"#utility.yul\":28317:28859   */\n      swap3\n      swap2\n      pop\n      pop\n      jump\t// out\n        /* \"#utility.yul\":28865:28967   */\n    tag_459:\n        /* \"#utility.yul\":28907:28915   */\n      0x00\n        /* \"#utility.yul\":28954:28959   */\n      dup2\n        /* \"#utility.yul\":28951:28952   */\n      0x01\n        /* \"#utility.yul\":28947:28960   */\n      shr\n        /* \"#utility.yul\":28926:28960   */\n      swap1\n      pop\n        /* \"#utility.yul\":28865:28967   */\n      swap2\n      swap1\n      pop\n      jump\t// out\n        /* \"#utility.yul\":28973:29821   */\n    tag_460:\n        /* \"#utility.yul\":29034:29039   */\n      0x00\n        /* \"#utility.yul\":29041:29045   */\n      dup1\n        /* \"#utility.yul\":29065:29071   */\n      dup3\n        /* \"#utility.yul\":29056:29071   */\n      swap2\n      pop\n        /* \"#utility.yul\":29089:29094   */\n      dup4\n        /* \"#utility.yul\":29080:29094   */\n      swap1\n      pop\n        /* \"#utility.yul\":29103:29815   */\n    tag_752:\n        /* \"#utility.yul\":29124:29125   */\n      0x01\n        /* \"#utility.yul\":29114:29122   */\n      dup6\n        /* \"#utility.yul\":29111:29126   */\n      gt\n        /* \"#utility.yul\":29103:29815   */\n      iszero\n      tag_754\n      jumpi\n        /* \"#utility.yul\":29219:29223   */\n      dup1\n        /* \"#utility.yul\":29214:29217   */\n      dup7\n        /* \"#utility.yul\":29210:29224   */\n      div\n        /* \"#utility.yul\":29204:29208   */\n      dup2\n        /* \"#utility.yul\":29201:29225   */\n      gt\n        /* \"#utility.yul\":29198:29248   */\n      iszero\n      tag_755\n      jumpi\n        /* \"#utility.yul\":29228:29246   */\n      tag_756\n      tag_440\n      jump\t// in\n    tag_756:\n        /* \"#utility.yul\":29198:29248   */\n    tag_755:\n        /* \"#utility.yul\":29278:29279   */\n      0x01\n        /* \"#utility.yul\":29268:29276   */\n      dup6\n        /* \"#utility.yul\":29264:29280   */\n      and\n        /* \"#utility.yul\":29261:29712   */\n      iszero\n      tag_757\n      jumpi\n        /* \"#utility.yul\":29693:29697   */\n      dup1\n        /* \"#utility.yul\":29686:29691   */\n      dup3\n        /* \"#utility.yul\":29682:29698   */\n      mul\n        /* \"#utility.yul\":29673:29698   */\n      swap2\n      pop\n        /* \"#utility.yul\":29261:29712   */\n    tag_757:\n        /* \"#utility.yul\":29743:29747   */\n      dup1\n        /* \"#utility.yul\":29737:29741   */\n      dup2\n        /* \"#utility.yul\":29733:29748   */\n      mul\n        /* \"#utility.yul\":29725:29748   */\n      swap1\n      pop\n        /* \"#utility.yul\":29773:29805   */\n      tag_758\n        /* \"#utility.yul\":29796:29804   */\n      dup6\n        /* \"#utility.yul\":29773:29805   */\n      tag_459\n      jump\t// in\n    tag_758:\n        /* \"#utility.yul\":29761:29805   */\n      swap5\n      pop\n        /* \"#utility.yul\":29103:29815   */\n      jump(tag_752)\n    tag_754:\n        /* \"#utility.yul\":28973:29821   */\n      swap5\n      pop\n      swap5\n      swap3\n      pop\n      pop\n      pop\n      jump\t// out\n        /* \"#utility.yul\":29827:30900   */\n    tag_461:\n        /* \"#utility.yul\":29881:29886   */\n      0x00\n        /* \"#utility.yul\":30072:30080   */\n      dup3\n        /* \"#utility.yul\":30062:30102   */\n      tag_760\n      jumpi\n        /* \"#utility.yul\":30093:30094   */\n      0x01\n        /* \"#utility.yul\":30084:30094   */\n      swap1\n      pop\n        /* \"#utility.yul\":30095:30100   */\n      jump(tag_759)\n        /* \"#utility.yul\":30062:30102   */\n    tag_760:\n        /* \"#utility.yul\":30121:30125   */\n      dup2\n        /* \"#utility.yul\":30111:30147   */\n      tag_761\n      jumpi\n        /* \"#utility.yul\":30138:30139   */\n      0x00\n        /* \"#utility.yul\":30129:30139   */\n      swap1\n      pop\n        /* \"#utility.yul\":30140:30145   */\n      jump(tag_759)\n        /* \"#utility.yul\":30111:30147   */\n    tag_761:\n        /* \"#utility.yul\":30207:30211   */\n      dup2\n        /* \"#utility.yul\":30255:30256   */\n      0x01\n        /* \"#utility.yul\":30250:30277   */\n      dup2\n      eq\n      tag_763\n      jumpi\n        /* \"#utility.yul\":30291:30292   */\n      0x02\n        /* \"#utility.yul\":30286:30477   */\n      dup2\n      eq\n      tag_764\n      jumpi\n        /* \"#utility.yul\":30200:30477   */\n      jump(tag_762)\n        /* \"#utility.yul\":30250:30277   */\n    tag_763:\n        /* \"#utility.yul\":30268:30269   */\n      0x01\n        /* \"#utility.yul\":30259:30269   */\n      swap2\n      pop\n        /* \"#utility.yul\":30270:30275   */\n      pop\n      jump(tag_759)\n        /* \"#utility.yul\":30286:30477   */\n    tag_764:\n        /* \"#utility.yul\":30331:30334   */\n      0xff\n        /* \"#utility.yul\":30321:30329   */\n      dup5\n        /* \"#utility.yul\":30318:30335   */\n      gt\n        /* \"#utility.yul\":30315:30358   */\n      iszero\n      tag_765\n      jumpi\n        /* \"#utility.yul\":30338:30356   */\n      tag_766\n      tag_440\n      jump\t// in\n    tag_766:\n        /* \"#utility.yul\":30315:30358   */\n    tag_765:\n        /* \"#utility.yul\":30387:30395   */\n      dup4\n        /* \"#utility.yul\":30384:30385   */\n      0x02\n        /* \"#utility.yul\":30380:30396   */\n      exp\n        /* \"#utility.yul\":30371:30396   */\n      swap2\n      pop\n        /* \"#utility.yul\":30422:30425   */\n      dup5\n        /* \"#utility.yul\":30415:30420   */\n      dup3\n        /* \"#utility.yul\":30412:30426   */\n      gt\n        /* \"#utility.yul\":30409:30449   */\n      iszero\n      tag_767\n      jumpi\n        /* \"#utility.yul\":30429:30447   */\n      tag_768\n      tag_440\n      jump\t// in\n    tag_768:\n        /* \"#utility.yul\":30409:30449   */\n    tag_767:\n        /* \"#utility.yul\":30462:30467   */\n      pop\n      jump(tag_759)\n        /* \"#utility.yul\":30200:30477   */\n    tag_762:\n      pop\n        /* \"#utility.yul\":30586:30588   */\n      0x20\n        /* \"#utility.yul\":30576:30584   */\n      dup4\n        /* \"#utility.yul\":30573:30589   */\n      lt\n        /* \"#utility.yul\":30567:30570   */\n      0x0133\n        /* \"#utility.yul\":30561:30565   */\n      dup4\n        /* \"#utility.yul\":30558:30571   */\n      lt\n        /* \"#utility.yul\":30554:30590   */\n      and\n        /* \"#utility.yul\":30536:30538   */\n      0x4e\n        /* \"#utility.yul\":30526:30534   */\n      dup5\n        /* \"#utility.yul\":30523:30539   */\n      lt\n        /* \"#utility.yul\":30518:30520   */\n      0x0b\n        /* \"#utility.yul\":30512:30516   */\n      dup5\n        /* \"#utility.yul\":30509:30521   */\n      lt\n        /* \"#utility.yul\":30505:30540   */\n      and\n        /* \"#utility.yul\":30489:30600   */\n      or\n        /* \"#utility.yul\":30486:30732   */\n      iszero\n      tag_769\n      jumpi\n        /* \"#utility.yul\":30642:30650   */\n      dup3\n        /* \"#utility.yul\":30636:30640   */\n      dup3\n        /* \"#utility.yul\":30632:30651   */\n      exp\n        /* \"#utility.yul\":30623:30651   */\n      swap1\n      pop\n        /* \"#utility.yul\":30677:30680   */\n      dup4\n        /* \"#utility.yul\":30670:30675   */\n      dup2\n        /* \"#utility.yul\":30667:30681   */\n      gt\n        /* \"#utility.yul\":30664:30704   */\n      iszero\n      tag_770\n      jumpi\n        /* \"#utility.yul\":30684:30702   */\n      tag_771\n      tag_440\n      jump\t// in\n    tag_771:\n        /* \"#utility.yul\":30664:30704   */\n    tag_770:\n        /* \"#utility.yul\":30717:30722   */\n      jump(tag_759)\n        /* \"#utility.yul\":30486:30732   */\n    tag_769:\n        /* \"#utility.yul\":30757:30799   */\n      tag_772\n        /* \"#utility.yul\":30795:30798   */\n      dup5\n        /* \"#utility.yul\":30785:30793   */\n      dup5\n        /* \"#utility.yul\":30779:30783   */\n      dup5\n        /* \"#utility.yul\":30776:30777   */\n      0x01\n        /* \"#utility.yul\":30757:30799   */\n      tag_460\n      jump\t// in\n    tag_772:\n        /* \"#utility.yul\":30742:30799   */\n      swap3\n      pop\n      swap1\n      pop\n        /* \"#utility.yul\":30831:30835   */\n      dup2\n        /* \"#utility.yul\":30826:30829   */\n      dup5\n        /* \"#utility.yul\":30822:30836   */\n      div\n        /* \"#utility.yul\":30815:30820   */\n      dup2\n        /* \"#utility.yul\":30812:30837   */\n      gt\n        /* \"#utility.yul\":30809:30860   */\n      iszero\n      tag_773\n      jumpi\n        /* \"#utility.yul\":30840:30858   */\n      tag_774\n      tag_440\n      jump\t// in\n    tag_774:\n        /* \"#utility.yul\":30809:30860   */\n    tag_773:\n        /* \"#utility.yul\":30889:30893   */\n      dup2\n        /* \"#utility.yul\":30882:30887   */\n      dup2\n        /* \"#utility.yul\":30878:30894   */\n      mul\n        /* \"#utility.yul\":30869:30894   */\n      swap1\n      pop\n        /* \"#utility.yul\":29827:30900   */\n    tag_759:\n      swap4\n      swap3\n      pop\n      pop\n      pop\n      jump\t// out\n        /* \"#utility.yul\":30906:31187   */\n    tag_299:\n        /* \"#utility.yul\":30964:30969   */\n      0x00\n        /* \"#utility.yul\":30988:31011   */\n      tag_776\n        /* \"#utility.yul\":31006:31010   */\n      dup3\n        /* \"#utility.yul\":30988:31011   */\n      tag_398\n      jump\t// in\n    tag_776:\n        /* \"#utility.yul\":30980:31011   */\n      swap2\n      pop\n        /* \"#utility.yul\":31032:31057   */\n      tag_777\n        /* \"#utility.yul\":31048:31056   */\n      dup4\n        /* \"#utility.yul\":31032:31057   */\n      tag_417\n      jump\t// in\n    tag_777:\n        /* \"#utility.yul\":31020:31057   */\n      swap3\n      pop\n        /* \"#utility.yul\":31076:31180   */\n      tag_778\n        /* \"#utility.yul\":31113:31179   */\n      0xffffffffffffffffffffffffffffffffffffffffffffffffffffffffffffffff\n        /* \"#utility.yul\":31103:31111   */\n      dup5\n        /* \"#utility.yul\":31097:31101   */\n      dup5\n        /* \"#utility.yul\":31076:31180   */\n      tag_461\n      jump\t// in\n    tag_778:\n        /* \"#utility.yul\":31067:31180   */\n      swap1\n      pop\n        /* \"#utility.yul\":30906:31187   */\n      swap3\n      swap2\n      pop\n      pop\n      jump\t// out\n        /* \"#utility.yul\":31193:31373   */\n    tag_337:\n        /* \"#utility.yul\":31241:31318   */\n      0x4e487b7100000000000000000000000000000000000000000000000000000000\n        /* \"#utility.yul\":31238:31239   */\n      0x00\n        /* \"#utility.yul\":31231:31319   */\n      mstore\n        /* \"#utility.yul\":31338:31342   */\n      0x12\n        /* \"#utility.yul\":31335:31336   */\n      0x04\n        /* \"#utility.yul\":31328:31343   */\n      mstore\n        /* \"#utility.yul\":31362:31366   */\n      0x24\n        /* \"#utility.yul\":31359:31360   */\n      0x00\n        /* \"#utility.yul\":31352:31367   */\n      revert\n        /* \"#utility.yul\":31379:31564   */\n    tag_305:\n        /* \"#utility.yul\":31419:31420   */\n      0x00\n        /* \"#utility.yul\":31436:31456   */\n      tag_781\n        /* \"#utility.yul\":31454:31455   */\n      dup3\n        /* \"#utility.yul\":31436:31456   */\n      tag_398\n      jump\t// in\n    tag_781:\n        /* \"#utility.yul\":31431:31456   */\n      swap2\n      pop\n        /* \"#utility.yul\":31470:31490   */\n      tag_782\n        /* \"#utility.yul\":31488:31489   */\n      dup4\n        /* \"#utility.yul\":31470:31490   */\n      tag_398\n      jump\t// in\n    tag_782:\n        /* \"#utility.yul\":31465:31490   */\n      swap3\n      pop\n        /* \"#utility.yul\":31509:31510   */\n      dup3\n        /* \"#utility.yul\":31499:31534   */\n      tag_783\n      jumpi\n        /* \"#utility.yul\":31514:31532   */\n      tag_784\n      tag_337\n      jump\t// in\n    tag_784:\n        /* \"#utility.yul\":31499:31534   */\n    tag_783:\n        /* \"#utility.yul\":31556:31557   */\n      dup3\n        /* \"#utility.yul\":31553:31554   */\n      dup3\n        /* \"#utility.yul\":31549:31558   */\n      div\n        /* \"#utility.yul\":31544:31558   */\n      swap1\n      pop\n        /* \"#utility.yul\":31379:31564   */\n      swap3\n      swap2\n      pop\n      pop\n      jump\t// out\n        /* \"#utility.yul\":31570:31649   */\n    tag_462:\n        /* \"#utility.yul\":31609:31616   */\n      0x00\n        /* \"#utility.yul\":31638:31643   */\n      dup2\n        /* \"#utility.yul\":31627:31643   */\n      swap1\n      pop\n        /* \"#utility.yul\":31570:31649   */\n      swap2\n      swap1\n      pop\n      jump\t// out\n        /* \"#utility.yul\":31655:31812   */\n    tag_463:\n        /* \"#utility.yul\":31760:31805   */\n      tag_787\n        /* \"#utility.yul\":31780:31804   */\n      tag_788\n        /* \"#utility.yul\":31798:31803   */\n      dup3\n        /* \"#utility.yul\":31780:31804   */\n      tag_398\n      jump\t// in\n    tag_788:\n        /* \"#utility.yul\":31760:31805   */\n      tag_462\n      jump\t// in\n    tag_787:\n        /* \"#utility.yul\":31755:31758   */\n      dup3\n        /* \"#utility.yul\":31748:31806   */\n      mstore\n        /* \"#utility.yul\":31655:31812   */\n      pop\n      pop\n      jump\t// out\n        /* \"#utility.yul\":31818:32074   */\n    tag_343:\n        /* \"#utility.yul\":31930:31933   */\n      0x00\n        /* \"#utility.yul\":31945:32020   */\n      tag_790\n        /* \"#utility.yul\":32016:32019   */\n      dup3\n        /* \"#utility.yul\":32007:32013   */\n      dup5\n        /* \"#utility.yul\":31945:32020   */\n      tag_463\n      jump\t// in\n    tag_790:\n        /* \"#utility.yul\":32045:32047   */\n      0x20\n        /* \"#utility.yul\":32040:32043   */\n      dup3\n        /* \"#utility.yul\":32036:32048   */\n      add\n        /* \"#utility.yul\":32029:32048   */\n      swap2\n      pop\n        /* \"#utility.yul\":32065:32068   */\n      dup2\n        /* \"#utility.yul\":32058:32068   */\n      swap1\n      pop\n        /* \"#utility.yul\":31818:32074   */\n      swap3\n      swap2\n      pop\n      pop\n      jump\t// out\n\n    auxdata: 0xa26469706673582212203fa8bd867e283c5a1d7d45dc8fc6af2ee3039b5b0c1ab3ec612ad430ada6dae364736f6c63430008160033\n}\n",
				"bytecode": {
					"linkReferences": {},
					"object": "60c060405234801562000010575f80fd5b50604051620047d9380380620047d9833981810160405281019062000036919062000312565b6040518060400160405280600481526020017f4e616d65000000000000000000000000000000000000000000000000000000008152506040518060400160405280600681526020017f53594d424f4c0000000000000000000000000000000000000000000000000000815250601261271084805f73ffffffffffffffffffffffffffffffffffffffff168173ffffffffffffffffffffffffffffffffffffffff16036200010f576040517f49e27cff00000000000000000000000000000000000000000000000000000000815260040160405180910390fd5b805f806101000a81548173ffffffffffffffffffffffffffffffffffffffff021916908373ffffffffffffffffffffffffffffffffffffffff1602179055508073ffffffffffffffffffffffffffffffffffffffff165f73ffffffffffffffffffffffffffffffffffffffff167f8be0079c531659141344cd1fd0a4f28419497f9722a3daafe3b4186f6b6457e060405160405180910390a3508460019081620001ba9190620005a6565b508360029081620001cc9190620005a6565b508260ff1660808160ff1681525050608051600a620001ec919062000813565b82620001f9919062000863565b60a08181525050505050505069021e19e0c9bab240000060045f8373ffffffffffffffffffffffffffffffffffffffff1673ffffffffffffffffffffffffffffffffffffffff1681526020019081526020015f20819055506001600b5f8373ffffffffffffffffffffffffffffffffffffffff1673ffffffffffffffffffffffffffffffffffffffff1681526020019081526020015f205f6101000a81548160ff02191690831515021790555050620008ad565b5f80fd5b5f73ffffffffffffffffffffffffffffffffffffffff82169050919050565b5f620002dc82620002b1565b9050919050565b620002ee81620002d0565b8114620002f9575f80fd5b50565b5f815190506200030c81620002e3565b92915050565b5f602082840312156200032a5762000329620002ad565b5b5f6200033984828501620002fc565b91505092915050565b5f81519050919050565b7f4e487b71000000000000000000000000000000000000000000000000000000005f52604160045260245ffd5b7f4e487b71000000000000000000000000000000000000000000000000000000005f52602260045260245ffd5b5f6002820490506001821680620003be57607f821691505b602082108103620003d457620003d362000379565b5b50919050565b5f819050815f5260205f209050919050565b5f6020601f8301049050919050565b5f82821b905092915050565b5f60088302620004387fffffffffffffffffffffffffffffffffffffffffffffffffffffffffffffffff82620003fb565b620004448683620003fb565b95508019841693508086168417925050509392505050565b5f819050919050565b5f819050919050565b5f6200048e6200048862000482846200045c565b62000465565b6200045c565b9050919050565b5f819050919050565b620004a9836200046e565b620004c1620004b88262000495565b84845462000407565b825550505050565b5f90565b620004d7620004c9565b620004e48184846200049e565b505050565b5b818110156200050b57620004ff5f82620004cd565b600181019050620004ea565b5050565b601f8211156200055a576200052481620003da565b6200052f84620003ec565b810160208510156200053f578190505b620005576200054e85620003ec565b830182620004e9565b50505b505050565b5f82821c905092915050565b5f6200057c5f19846008026200055f565b1980831691505092915050565b5f6200059683836200056b565b9150826002028217905092915050565b620005b18262000342565b67ffffffffffffffff811115620005cd57620005cc6200034c565b5b620005d98254620003a6565b620005e68282856200050f565b5f60209050601f8311600181146200061c575f841562000607578287015190505b62000613858262000589565b86555062000682565b601f1984166200062c86620003da565b5f5b8281101562000655578489015182556001820191506020850194506020810190506200062e565b8683101562000675578489015162000671601f8916826200056b565b8355505b6001600288020188555050505b505050505050565b7f4e487b71000000000000000000000000000000000000000000000000000000005f52601160045260245ffd5b5f8160011c9050919050565b5f808291508390505b60018511156200071457808604811115620006ec57620006eb6200068a565b5b6001851615620006fc5780820291505b80810290506200070c85620006b7565b9450620006cc565b94509492505050565b5f826200072e576001905062000800565b816200073d575f905062000800565b8160018114620007565760028114620007615762000797565b600191505062000800565b60ff8411156200077657620007756200068a565b5b8360020a91508482111562000790576200078f6200068a565b5b5062000800565b5060208310610133831016604e8410600b8410161715620007d15782820a905083811115620007cb57620007ca6200068a565b5b62000800565b620007e08484846001620006c3565b92509050818404811115620007fa57620007f96200068a565b5b81810290505b9392505050565b5f60ff82169050919050565b5f6200081f826200045c565b91506200082c8362000807565b92506200085b7fffffffffffffffffffffffffffffffffffffffffffffffffffffffffffffffff84846200071d565b905092915050565b5f6200086f826200045c565b91506200087c836200045c565b92508282026200088c816200045c565b91508282048414831517620008a657620008a56200068a565b5b5092915050565b60805160a051613f03620008d65f395f61095601525f8181611327015261203f0152613f035ff3fe608060405234801561000f575f80fd5b50600436106101cd575f3560e01c80638da5cb5b11610102578063c87b56dd116100a0578063e985e9c51161006f578063e985e9c514610529578063edeb4bbe14610559578063f28ca1dd14610577578063f2fde38b14610595576101cd565b8063c87b56dd1461048f578063d547cfb7146104bf578063dd62ed3e146104dd578063e0df5b6f1461050d576101cd565b8063a22cb465116100dc578063a22cb4651461040b578063a9059cbb14610427578063b88d4fde14610457578063bd9ba9e814610473576101cd565b80638da5cb5b1461039f57806395d89b41146103bd5780639b19251a146103db576101cd565b8063313ce5671161016f578063504334c211610149578063504334c21461030757806353d6fd59146103235780636352211e1461033f57806370a082311461036f576101cd565b8063313ce567146102af57806342842e0e146102cd5780634f02c420146102e9576101cd565b806318160ddd116101ab57806318160ddd1461024f57806318d217c31461026d57806323b872dd146102895780632b968958146102a5576101cd565b806306fdde03146101d1578063081812fc146101ef578063095ea7b31461021f575b5f80fd5b6101d96105b1565b6040516101e69190612ec2565b60405180910390f35b61020960048036038101906102049190612f26565b61063d565b6040516102169190612f90565b60405180910390f35b61023960048036038101906102349190612fd3565b61066d565b604051610246919061302b565b60405180910390f35b610257610954565b6040516102649190613053565b60405180910390f35b61028760048036038101906102829190613198565b610978565b005b6102a3600480360381019061029e91906131df565b610a0f565b005b6102ad611206565b005b6102b7611325565b6040516102c4919061324a565b60405180910390f35b6102e760048036038101906102e291906131df565b611349565b005b6102f1611478565b6040516102fe9190613053565b60405180910390f35b610321600480360381019061031c9190613263565b61147e565b005b61033d60048036038101906103389190613303565b611510565b005b61035960048036038101906103549190612f26565b6115ec565b6040516103669190612f90565b60405180910390f35b61038960048036038101906103849190613341565b61168a565b6040516103969190613053565b60405180910390f35b6103a761169f565b6040516103b49190612f90565b60405180910390f35b6103c56116c2565b6040516103d29190612ec2565b60405180910390f35b6103f560048036038101906103f09190613341565b61174e565b604051610402919061302b565b60405180910390f35b61042560048036038101906104209190613303565b61176b565b005b610441600480360381019061043c9190612fd3565b611863565b60405161044e919061302b565b60405180910390f35b610471600480360381019061046c91906133c9565b611877565b005b61048d60048036038101906104889190613198565b6119ac565b005b6104a960048036038101906104a49190612f26565b611a43565b6040516104b69190612ec2565b60405180910390f35b6104c7611c32565b6040516104d49190612ec2565b60405180910390f35b6104f760048036038101906104f2919061344d565b611cbe565b6040516105049190613053565b60405180910390f35b61052760048036038101906105229190613198565b611cde565b005b610543600480360381019061053e919061344d565b611d75565b604051610550919061302b565b60405180910390f35b610561611d9f565b60405161056e9190612ec2565b60405180910390f35b61057f611e2b565b60405161058c9190612ec2565b60405180910390f35b6105af60048036038101906105aa9190613341565b611eb7565b005b600180546105be906134b8565b80601f01602080910402602001604051908101604052809291908181526020018280546105ea906134b8565b80156106355780601f1061060c57610100808354040283529160200191610635565b820191905f5260205f20905b81548152906001019060200180831161061857829003601f168201915b505050505081565b6006602052805f5260405f205f915054906101000a900473ffffffffffffffffffffffffffffffffffffffff1681565b5f600354821115801561067f57505f82115b15610867575f60085f8481526020019081526020015f205f9054906101000a900473ffffffffffffffffffffffffffffffffffffffff1690508073ffffffffffffffffffffffffffffffffffffffff163373ffffffffffffffffffffffffffffffffffffffff1614158015610776575060075f8273ffffffffffffffffffffffffffffffffffffffff1673ffffffffffffffffffffffffffffffffffffffff1681526020019081526020015f205f3373ffffffffffffffffffffffffffffffffffffffff1673ffffffffffffffffffffffffffffffffffffffff1681526020019081526020015f205f9054906101000a900460ff16155b156107ad576040517f82b4290000000000000000000000000000000000000000000000000000000000815260040160405180910390fd5b8360065f8581526020019081526020015f205f6101000a81548173ffffffffffffffffffffffffffffffffffffffff021916908373ffffffffffffffffffffffffffffffffffffffff1602179055508373ffffffffffffffffffffffffffffffffffffffff168173ffffffffffffffffffffffffffffffffffffffff167f8c5be1e5ebec7d5bd14f71427d1e84f3dd0314c0f7b2291e5b200ac8c7c3b925856040516108599190613053565b60405180910390a35061094a565b8160055f3373ffffffffffffffffffffffffffffffffffffffff1673ffffffffffffffffffffffffffffffffffffffff1681526020019081526020015f205f8573ffffffffffffffffffffffffffffffffffffffff1673ffffffffffffffffffffffffffffffffffffffff1681526020019081526020015f20819055508273ffffffffffffffffffffffffffffffffffffffff163373ffffffffffffffffffffffffffffffffffffffff167f8c5be1e5ebec7d5bd14f71427d1e84f3dd0314c0f7b2291e5b200ac8c7c3b925846040516109419190613053565b60405180910390a35b6001905092915050565b7f000000000000000000000000000000000000000000000000000000000000000081565b5f8054906101000a900473ffffffffffffffffffffffffffffffffffffffff1673ffffffffffffffffffffffffffffffffffffffff163373ffffffffffffffffffffffffffffffffffffffff16146109fc576040517f82b4290000000000000000000000000000000000000000000000000000000000815260040160405180910390fd5b80600c9081610a0b9190613685565b5050565b60035481116110c75760085f8281526020019081526020015f205f9054906101000a900473ffffffffffffffffffffffffffffffffffffffff1673ffffffffffffffffffffffffffffffffffffffff168373ffffffffffffffffffffffffffffffffffffffff1614610aad576040517fddb5de5e00000000000000000000000000000000000000000000000000000000815260040160405180910390fd5b5f73ffffffffffffffffffffffffffffffffffffffff168273ffffffffffffffffffffffffffffffffffffffff1603610b12576040517f9c8d2cd200000000000000000000000000000000000000000000000000000000815260040160405180910390fd5b8273ffffffffffffffffffffffffffffffffffffffff163373ffffffffffffffffffffffffffffffffffffffff1614158015610bd0575060075f8473ffffffffffffffffffffffffffffffffffffffff1673ffffffffffffffffffffffffffffffffffffffff1681526020019081526020015f205f3373ffffffffffffffffffffffffffffffffffffffff1673ffffffffffffffffffffffffffffffffffffffff1681526020019081526020015f205f9054906101000a900460ff16155b8015610c38575060065f8281526020019081526020015f205f9054906101000a900473ffffffffffffffffffffffffffffffffffffffff1673ffffffffffffffffffffffffffffffffffffffff163373ffffffffffffffffffffffffffffffffffffffff1614155b15610c6f576040517f82b4290000000000000000000000000000000000000000000000000000000000815260040160405180910390fd5b610c7761203c565b60045f8573ffffffffffffffffffffffffffffffffffffffff1673ffffffffffffffffffffffffffffffffffffffff1681526020019081526020015f205f828254610cc29190613781565b92505081905550610cd161203c565b60045f8473ffffffffffffffffffffffffffffffffffffffff1673ffffffffffffffffffffffffffffffffffffffff1681526020019081526020015f205f82825401925050819055508160085f8381526020019081526020015f205f6101000a81548173ffffffffffffffffffffffffffffffffffffffff021916908373ffffffffffffffffffffffffffffffffffffffff16021790555060065f8281526020019081526020015f205f6101000a81549073ffffffffffffffffffffffffffffffffffffffff02191690555f60095f8573ffffffffffffffffffffffffffffffffffffffff1673ffffffffffffffffffffffffffffffffffffffff1681526020019081526020015f20600160095f8773ffffffffffffffffffffffffffffffffffffffff1673ffffffffffffffffffffffffffffffffffffffff1681526020019081526020015f2080549050610e279190613781565b81548110610e3857610e376137b4565b5b905f5260205f20015490508060095f8673ffffffffffffffffffffffffffffffffffffffff1673ffffffffffffffffffffffffffffffffffffffff1681526020019081526020015f20600a5f8581526020019081526020015f205481548110610ea457610ea36137b4565b5b905f5260205f20018190555060095f8573ffffffffffffffffffffffffffffffffffffffff1673ffffffffffffffffffffffffffffffffffffffff1681526020019081526020015f20805480610efd57610efc6137e1565b5b600190038181905f5260205f20015f90559055600a5f8381526020019081526020015f2054600a5f8381526020019081526020015f208190555060095f8473ffffffffffffffffffffffffffffffffffffffff1673ffffffffffffffffffffffffffffffffffffffff1681526020019081526020015f2082908060018154018082558091505060019003905f5260205f20015f9091909190915055600160095f8573ffffffffffffffffffffffffffffffffffffffff1673ffffffffffffffffffffffffffffffffffffffff1681526020019081526020015f2080549050610fe59190613781565b600a5f8481526020019081526020015f2081905550818373ffffffffffffffffffffffffffffffffffffffff168573ffffffffffffffffffffffffffffffffffffffff167fddf252ad1be2c89b69c2b068fc378daa952ba7f163c4a11628f55a4df523b3ef60405160405180910390a48273ffffffffffffffffffffffffffffffffffffffff168473ffffffffffffffffffffffffffffffffffffffff167fe59fdd36d0d223c0c7d996db7ad796880f45e1936cb0bb7ac102e7082e0314876110ac61203c565b6040516110b99190613053565b60405180910390a350611201565b5f60055f8573ffffffffffffffffffffffffffffffffffffffff1673ffffffffffffffffffffffffffffffffffffffff1681526020019081526020015f205f3373ffffffffffffffffffffffffffffffffffffffff1673ffffffffffffffffffffffffffffffffffffffff1681526020019081526020015f205490507fffffffffffffffffffffffffffffffffffffffffffffffffffffffffffffffff81146111f35781816111769190613781565b60055f8673ffffffffffffffffffffffffffffffffffffffff1673ffffffffffffffffffffffffffffffffffffffff1681526020019081526020015f205f3373ffffffffffffffffffffffffffffffffffffffff1673ffffffffffffffffffffffffffffffffffffffff1681526020019081526020015f20819055505b6111fe84848461206f565b50505b505050565b5f8054906101000a900473ffffffffffffffffffffffffffffffffffffffff1673ffffffffffffffffffffffffffffffffffffffff163373ffffffffffffffffffffffffffffffffffffffff161461128a576040517f82b4290000000000000000000000000000000000000000000000000000000000815260040160405180910390fd5b5f805f6101000a81548173ffffffffffffffffffffffffffffffffffffffff021916908373ffffffffffffffffffffffffffffffffffffffff1602179055505f73ffffffffffffffffffffffffffffffffffffffff163373ffffffffffffffffffffffffffffffffffffffff167f8be0079c531659141344cd1fd0a4f28419497f9722a3daafe3b4186f6b6457e060405160405180910390a3565b7f000000000000000000000000000000000000000000000000000000000000000081565b611354838383610a0f565b5f8273ffffffffffffffffffffffffffffffffffffffff163b1415801561143c575063150b7a0260e01b7bffffffffffffffffffffffffffffffffffffffffffffffffffffffff19168273ffffffffffffffffffffffffffffffffffffffff1663150b7a023386856040518463ffffffff1660e01b81526004016113da93929190613841565b6020604051808303815f875af11580156113f6573d5f803e3d5ffd5b505050506040513d601f19601f8201168201806040525081019061141a91906138de565b7bffffffffffffffffffffffffffffffffffffffffffffffffffffffff191614155b15611473576040517f3da6393100000000000000000000000000000000000000000000000000000000815260040160405180910390fd5b505050565b60035481565b5f8054906101000a900473ffffffffffffffffffffffffffffffffffffffff1673ffffffffffffffffffffffffffffffffffffffff163373ffffffffffffffffffffffffffffffffffffffff1614611502576040517f82b4290000000000000000000000000000000000000000000000000000000000815260040160405180910390fd5b61150c82826123b3565b5050565b5f8054906101000a900473ffffffffffffffffffffffffffffffffffffffff1673ffffffffffffffffffffffffffffffffffffffff163373ffffffffffffffffffffffffffffffffffffffff1614611594576040517f82b4290000000000000000000000000000000000000000000000000000000000815260040160405180910390fd5b80600b5f8473ffffffffffffffffffffffffffffffffffffffff1673ffffffffffffffffffffffffffffffffffffffff1681526020019081526020015f205f6101000a81548160ff0219169083151502179055505050565b5f60085f8381526020019081526020015f205f9054906101000a900473ffffffffffffffffffffffffffffffffffffffff1690505f73ffffffffffffffffffffffffffffffffffffffff168173ffffffffffffffffffffffffffffffffffffffff1603611685576040517fc5723b5100000000000000000000000000000000000000000000000000000000815260040160405180910390fd5b919050565b6004602052805f5260405f205f915090505481565b5f8054906101000a900473ffffffffffffffffffffffffffffffffffffffff1681565b600280546116cf906134b8565b80601f01602080910402602001604051908101604052809291908181526020018280546116fb906134b8565b80156117465780601f1061171d57610100808354040283529160200191611746565b820191905f5260205f20905b81548152906001019060200180831161172957829003601f168201915b505050505081565b600b602052805f5260405f205f915054906101000a900460ff1681565b8060075f3373ffffffffffffffffffffffffffffffffffffffff1673ffffffffffffffffffffffffffffffffffffffff1681526020019081526020015f205f8473ffffffffffffffffffffffffffffffffffffffff1673ffffffffffffffffffffffffffffffffffffffff1681526020019081526020015f205f6101000a81548160ff0219169083151502179055508173ffffffffffffffffffffffffffffffffffffffff163373ffffffffffffffffffffffffffffffffffffffff167f17307eab39ab6107e8899845ad3d59bd9653f200f220920489ca2b5937696c3183604051611857919061302b565b60405180910390a35050565b5f61186f33848461206f565b905092915050565b611882858585610a0f565b5f8473ffffffffffffffffffffffffffffffffffffffff163b1415801561196e575063150b7a0260e01b7bffffffffffffffffffffffffffffffffffffffffffffffffffffffff19168473ffffffffffffffffffffffffffffffffffffffff1663150b7a0233888787876040518663ffffffff1660e01b815260040161190c959493929190613935565b6020604051808303815f875af1158015611928573d5f803e3d5ffd5b505050506040513d601f19601f8201168201806040525081019061194c91906138de565b7bffffffffffffffffffffffffffffffffffffffffffffffffffffffff191614155b156119a5576040517f3da6393100000000000000000000000000000000000000000000000000000000815260040160405180910390fd5b5050505050565b5f8054906101000a900473ffffffffffffffffffffffffffffffffffffffff1673ffffffffffffffffffffffffffffffffffffffff163373ffffffffffffffffffffffffffffffffffffffff1614611a30576040517f82b4290000000000000000000000000000000000000000000000000000000000815260040160405180910390fd5b80600e9081611a3f9190613685565b5050565b60605f600d8054611a53906134b8565b90501115611a8d57600d611a66836123d7565b604051602001611a77929190613a3b565b6040516020818303038152906040529050611c2d565b5f611a97836124a1565b5f60028110611aa957611aa86137b4565b5b602002015190505f611aba846124a1565b600160028110611acd57611acc6137b4565b5b602002015190505f6001611ae0866123d7565b604051602001611af1929190613aaa565b604051602081830303815290604052600e604051602001611b13929190613b81565b604051602081830303815290604052600c84604051602001611b36929190613a3b565b604051602081830303815290604052604051602001611b56929190613bbe565b60405160208183030381529060405290505f82604051602001611b799190613c51565b60405160208183030381529060405290505f6040518060400160405280600481526020017f227d5d7d0000000000000000000000000000000000000000000000000000000081525090508282604051602001611bd6929190613bbe565b60405160208183030381529060405281604051602001611bf7929190613bbe565b604051602081830303815290604052604051602001611c169190613c98565b604051602081830303815290604052955050505050505b919050565b600d8054611c3f906134b8565b80601f0160208091040260200160405190810160405280929190818152602001828054611c6b906134b8565b8015611cb65780601f10611c8d57610100808354040283529160200191611cb6565b820191905f5260205f20905b815481529060010190602001808311611c9957829003601f168201915b505050505081565b6005602052815f5260405f20602052805f5260405f205f91509150505481565b5f8054906101000a900473ffffffffffffffffffffffffffffffffffffffff1673ffffffffffffffffffffffffffffffffffffffff163373ffffffffffffffffffffffffffffffffffffffff1614611d62576040517f82b4290000000000000000000000000000000000000000000000000000000000815260040160405180910390fd5b80600d9081611d719190613685565b5050565b6007602052815f5260405f20602052805f5260405f205f915091509054906101000a900460ff1681565b600e8054611dac906134b8565b80601f0160208091040260200160405190810160405280929190818152602001828054611dd8906134b8565b8015611e235780601f10611dfa57610100808354040283529160200191611e23565b820191905f5260205f20905b815481529060010190602001808311611e0657829003601f168201915b505050505081565b600c8054611e38906134b8565b80601f0160208091040260200160405190810160405280929190818152602001828054611e64906134b8565b8015611eaf5780601f10611e8657610100808354040283529160200191611eaf565b820191905f5260205f20905b815481529060010190602001808311611e9257829003601f168201915b505050505081565b5f8054906101000a900473ffffffffffffffffffffffffffffffffffffffff1673ffffffffffffffffffffffffffffffffffffffff163373ffffffffffffffffffffffffffffffffffffffff1614611f3b576040517f82b4290000000000000000000000000000000000000000000000000000000000815260040160405180910390fd5b5f73ffffffffffffffffffffffffffffffffffffffff168173ffffffffffffffffffffffffffffffffffffffff1603611fa0576040517f49e27cff00000000000000000000000000000000000000000000000000000000815260040160405180910390fd5b805f806101000a81548173ffffffffffffffffffffffffffffffffffffffff021916908373ffffffffffffffffffffffffffffffffffffffff1602179055508073ffffffffffffffffffffffffffffffffffffffff163373ffffffffffffffffffffffffffffffffffffffff167f8be0079c531659141344cd1fd0a4f28419497f9722a3daafe3b4186f6b6457e060405160405180910390a350565b5f7f0000000000000000000000000000000000000000000000000000000000000000600a61206a9190613dec565b905090565b5f8061207961203c565b90505f60045f8773ffffffffffffffffffffffffffffffffffffffff1673ffffffffffffffffffffffffffffffffffffffff1681526020019081526020015f205490505f60045f8773ffffffffffffffffffffffffffffffffffffffff1673ffffffffffffffffffffffffffffffffffffffff1681526020019081526020015f205490508460045f8973ffffffffffffffffffffffffffffffffffffffff1673ffffffffffffffffffffffffffffffffffffffff1681526020019081526020015f205f8282546121499190613781565b925050819055508460045f8873ffffffffffffffffffffffffffffffffffffffff1673ffffffffffffffffffffffffffffffffffffffff1681526020019081526020015f205f8282540192505081905550600b5f8873ffffffffffffffffffffffffffffffffffffffff1673ffffffffffffffffffffffffffffffffffffffff1681526020019081526020015f205f9054906101000a900460ff1661226d575f8360045f8a73ffffffffffffffffffffffffffffffffffffffff1673ffffffffffffffffffffffffffffffffffffffff1681526020019081526020015f20546122329190613e63565b848461223e9190613e63565b6122489190613781565b90505f5b8181101561226a5761225d896127f9565b808060010191505061224c565b50505b600b5f8773ffffffffffffffffffffffffffffffffffffffff1673ffffffffffffffffffffffffffffffffffffffff1681526020019081526020015f205f9054906101000a900460ff16612340575f83826122c89190613e63565b8460045f8a73ffffffffffffffffffffffffffffffffffffffff1673ffffffffffffffffffffffffffffffffffffffff1681526020019081526020015f20546123119190613e63565b61231b9190613781565b90505f5b8181101561233d5761233088612a3e565b808060010191505061231f565b50505b8573ffffffffffffffffffffffffffffffffffffffff168773ffffffffffffffffffffffffffffffffffffffff167fe59fdd36d0d223c0c7d996db7ad796880f45e1936cb0bb7ac102e7082e0314878760405161239d9190613053565b60405180910390a3600193505050509392505050565b81600190816123c29190613685565b5080600290816123d29190613685565b505050565b60605f60016123e584612cc0565b0190505f8167ffffffffffffffff81111561240357612402613074565b5b6040519080825280601f01601f1916602001820160405280156124355781602001600182028036833780820191505090505b5090505f82602001820190505b600115612496578080600190039150507f3031323334353637383961626364656600000000000000000000000000000000600a86061a8153600a858161248b5761248a613e36565b5b0494505f8503612442575b819350505050919050565b6124a9612e11565b5f826040516020016124bb9190613eb3565b6040516020818303038152906040528051906020012060f81c905060608060648360ff1611612559576040518060400160405280600581526020017f312e6a706700000000000000000000000000000000000000000000000000000081525091506040518060400160405280600381526020017f726564000000000000000000000000000000000000000000000000000000000081525090506127da565b60828360ff16116125d9576040518060400160405280600581526020017f322e6a706700000000000000000000000000000000000000000000000000000081525091506040518060400160405280600681526020017f6f72656e6765000000000000000000000000000000000000000000000000000081525090506127d9565b60a08360ff1611612659576040518060400160405280600581526020017f332e6a706700000000000000000000000000000000000000000000000000000081525091506040518060400160405280600681526020017f79656c6c6f77000000000000000000000000000000000000000000000000000081525090506127d8565b60be8360ff16116126d9576040518060400160405280600581526020017f342e6a706700000000000000000000000000000000000000000000000000000081525091506040518060400160405280600581526020017f677265656e00000000000000000000000000000000000000000000000000000081525090506127d7565b60dc8360ff1611612759576040518060400160405280600581526020017f352e6a706700000000000000000000000000000000000000000000000000000081525091506040518060400160405280600481526020017f626c75650000000000000000000000000000000000000000000000000000000081525090506127d6565b60ff8360ff16116127d5576040518060400160405280600581526020017f362e6a706700000000000000000000000000000000000000000000000000000081525091506040518060400160405280600681526020017f707572706c65000000000000000000000000000000000000000000000000000081525090505b5b5b5b5b5b6040518060400160405280838152602001828152509350505050919050565b5f73ffffffffffffffffffffffffffffffffffffffff168173ffffffffffffffffffffffffffffffffffffffff160361285e576040517fddb5de5e00000000000000000000000000000000000000000000000000000000815260040160405180910390fd5b5f60095f8373ffffffffffffffffffffffffffffffffffffffff1673ffffffffffffffffffffffffffffffffffffffff1681526020019081526020015f20600160095f8573ffffffffffffffffffffffffffffffffffffffff1673ffffffffffffffffffffffffffffffffffffffff1681526020019081526020015f20805490506128e99190613781565b815481106128fa576128f96137b4565b5b905f5260205f200154905060095f8373ffffffffffffffffffffffffffffffffffffffff1673ffffffffffffffffffffffffffffffffffffffff1681526020019081526020015f20805480612952576129516137e1565b5b600190038181905f5260205f20015f90559055600a5f8281526020019081526020015f205f905560085f8281526020019081526020015f205f6101000a81549073ffffffffffffffffffffffffffffffffffffffff021916905560065f8281526020019081526020015f205f6101000a81549073ffffffffffffffffffffffffffffffffffffffff0219169055805f73ffffffffffffffffffffffffffffffffffffffff168373ffffffffffffffffffffffffffffffffffffffff167fddf252ad1be2c89b69c2b068fc378daa952ba7f163c4a11628f55a4df523b3ef60405160405180910390a45050565b5f73ffffffffffffffffffffffffffffffffffffffff168173ffffffffffffffffffffffffffffffffffffffff1603612aa3576040517f9c8d2cd200000000000000000000000000000000000000000000000000000000815260040160405180910390fd5b60035f81548092919060010191905055505f60035490505f73ffffffffffffffffffffffffffffffffffffffff1660085f8381526020019081526020015f205f9054906101000a900473ffffffffffffffffffffffffffffffffffffffff1673ffffffffffffffffffffffffffffffffffffffff1614612b4f576040517f23369fa600000000000000000000000000000000000000000000000000000000815260040160405180910390fd5b8160085f8381526020019081526020015f205f6101000a81548173ffffffffffffffffffffffffffffffffffffffff021916908373ffffffffffffffffffffffffffffffffffffffff16021790555060095f8373ffffffffffffffffffffffffffffffffffffffff1673ffffffffffffffffffffffffffffffffffffffff1681526020019081526020015f2081908060018154018082558091505060019003905f5260205f20015f9091909190915055600160095f8473ffffffffffffffffffffffffffffffffffffffff1673ffffffffffffffffffffffffffffffffffffffff1681526020019081526020015f2080549050612c4c9190613781565b600a5f8381526020019081526020015f2081905550808273ffffffffffffffffffffffffffffffffffffffff165f73ffffffffffffffffffffffffffffffffffffffff167fddf252ad1be2c89b69c2b068fc378daa952ba7f163c4a11628f55a4df523b3ef60405160405180910390a45050565b5f805f90507a184f03e93ff9f4daa797ed6e38ed64bf6a1f0100000000000000008310612d1c577a184f03e93ff9f4daa797ed6e38ed64bf6a1f0100000000000000008381612d1257612d11613e36565b5b0492506040810190505b6d04ee2d6d415b85acef81000000008310612d59576d04ee2d6d415b85acef81000000008381612d4f57612d4e613e36565b5b0492506020810190505b662386f26fc100008310612d8857662386f26fc100008381612d7e57612d7d613e36565b5b0492506010810190505b6305f5e1008310612db1576305f5e1008381612da757612da6613e36565b5b0492506008810190505b6127108310612dd6576127108381612dcc57612dcb613e36565b5b0492506004810190505b60648310612df95760648381612def57612dee613e36565b5b0492506002810190505b600a8310612e08576001810190505b80915050919050565b60405180604001604052806002905b6060815260200190600190039081612e205790505090565b5f81519050919050565b5f82825260208201905092915050565b5f5b83811015612e6f578082015181840152602081019050612e54565b5f8484015250505050565b5f601f19601f8301169050919050565b5f612e9482612e38565b612e9e8185612e42565b9350612eae818560208601612e52565b612eb781612e7a565b840191505092915050565b5f6020820190508181035f830152612eda8184612e8a565b905092915050565b5f604051905090565b5f80fd5b5f80fd5b5f819050919050565b612f0581612ef3565b8114612f0f575f80fd5b50565b5f81359050612f2081612efc565b92915050565b5f60208284031215612f3b57612f3a612eeb565b5b5f612f4884828501612f12565b91505092915050565b5f73ffffffffffffffffffffffffffffffffffffffff82169050919050565b5f612f7a82612f51565b9050919050565b612f8a81612f70565b82525050565b5f602082019050612fa35f830184612f81565b92915050565b612fb281612f70565b8114612fbc575f80fd5b50565b5f81359050612fcd81612fa9565b92915050565b5f8060408385031215612fe957612fe8612eeb565b5b5f612ff685828601612fbf565b925050602061300785828601612f12565b9150509250929050565b5f8115159050919050565b61302581613011565b82525050565b5f60208201905061303e5f83018461301c565b92915050565b61304d81612ef3565b82525050565b5f6020820190506130665f830184613044565b92915050565b5f80fd5b5f80fd5b7f4e487b71000000000000000000000000000000000000000000000000000000005f52604160045260245ffd5b6130aa82612e7a565b810181811067ffffffffffffffff821117156130c9576130c8613074565b5b80604052505050565b5f6130db612ee2565b90506130e782826130a1565b919050565b5f67ffffffffffffffff82111561310657613105613074565b5b61310f82612e7a565b9050602081019050919050565b828183375f83830152505050565b5f61313c613137846130ec565b6130d2565b90508281526020810184848401111561315857613157613070565b5b61316384828561311c565b509392505050565b5f82601f83011261317f5761317e61306c565b5b813561318f84826020860161312a565b91505092915050565b5f602082840312156131ad576131ac612eeb565b5b5f82013567ffffffffffffffff8111156131ca576131c9612eef565b5b6131d68482850161316b565b91505092915050565b5f805f606084860312156131f6576131f5612eeb565b5b5f61320386828701612fbf565b935050602061321486828701612fbf565b925050604061322586828701612f12565b9150509250925092565b5f60ff82169050919050565b6132448161322f565b82525050565b5f60208201905061325d5f83018461323b565b92915050565b5f806040838503121561327957613278612eeb565b5b5f83013567ffffffffffffffff81111561329657613295612eef565b5b6132a28582860161316b565b925050602083013567ffffffffffffffff8111156132c3576132c2612eef565b5b6132cf8582860161316b565b9150509250929050565b6132e281613011565b81146132ec575f80fd5b50565b5f813590506132fd816132d9565b92915050565b5f806040838503121561331957613318612eeb565b5b5f61332685828601612fbf565b9250506020613337858286016132ef565b9150509250929050565b5f6020828403121561335657613355612eeb565b5b5f61336384828501612fbf565b91505092915050565b5f80fd5b5f80fd5b5f8083601f8401126133895761338861306c565b5b8235905067ffffffffffffffff8111156133a6576133a561336c565b5b6020830191508360018202830111156133c2576133c1613370565b5b9250929050565b5f805f805f608086880312156133e2576133e1612eeb565b5b5f6133ef88828901612fbf565b955050602061340088828901612fbf565b945050604061341188828901612f12565b935050606086013567ffffffffffffffff81111561343257613431612eef565b5b61343e88828901613374565b92509250509295509295909350565b5f806040838503121561346357613462612eeb565b5b5f61347085828601612fbf565b925050602061348185828601612fbf565b9150509250929050565b7f4e487b71000000000000000000000000000000000000000000000000000000005f52602260045260245ffd5b5f60028204905060018216806134cf57607f821691505b6020821081036134e2576134e161348b565b5b50919050565b5f819050815f5260205f209050919050565b5f6020601f8301049050919050565b5f82821b905092915050565b5f600883026135447fffffffffffffffffffffffffffffffffffffffffffffffffffffffffffffffff82613509565b61354e8683613509565b95508019841693508086168417925050509392505050565b5f819050919050565b5f61358961358461357f84612ef3565b613566565b612ef3565b9050919050565b5f819050919050565b6135a28361356f565b6135b66135ae82613590565b848454613515565b825550505050565b5f90565b6135ca6135be565b6135d5818484613599565b505050565b5b818110156135f8576135ed5f826135c2565b6001810190506135db565b5050565b601f82111561363d5761360e816134e8565b613617846134fa565b81016020851015613626578190505b61363a613632856134fa565b8301826135da565b50505b505050565b5f82821c905092915050565b5f61365d5f1984600802613642565b1980831691505092915050565b5f613675838361364e565b9150826002028217905092915050565b61368e82612e38565b67ffffffffffffffff8111156136a7576136a6613074565b5b6136b182546134b8565b6136bc8282856135fc565b5f60209050601f8311600181146136ed575f84156136db578287015190505b6136e5858261366a565b86555061374c565b601f1984166136fb866134e8565b5f5b82811015613722578489015182556001820191506020850194506020810190506136fd565b8683101561373f578489015161373b601f89168261364e565b8355505b6001600288020188555050505b505050505050565b7f4e487b71000000000000000000000000000000000000000000000000000000005f52601160045260245ffd5b5f61378b82612ef3565b915061379683612ef3565b92508282039050818111156137ae576137ad613754565b5b92915050565b7f4e487b71000000000000000000000000000000000000000000000000000000005f52603260045260245ffd5b7f4e487b71000000000000000000000000000000000000000000000000000000005f52603160045260245ffd5b5f82825260208201905092915050565b50565b5f61382c5f8361380e565b91506138378261381e565b5f82019050919050565b5f6080820190506138545f830186612f81565b6138616020830185612f81565b61386e6040830184613044565b818103606083015261387f81613821565b9050949350505050565b5f7fffffffff0000000000000000000000000000000000000000000000000000000082169050919050565b6138bd81613889565b81146138c7575f80fd5b50565b5f815190506138d8816138b4565b92915050565b5f602082840312156138f3576138f2612eeb565b5b5f613900848285016138ca565b91505092915050565b5f613914838561380e565b935061392183858461311c565b61392a83612e7a565b840190509392505050565b5f6080820190506139485f830188612f81565b6139556020830187612f81565b6139626040830186613044565b8181036060830152613975818486613909565b90509695505050505050565b5f81905092915050565b5f8154613997816134b8565b6139a18186613981565b9450600182165f81146139bb57600181146139d057613a02565b60ff1983168652811515820286019350613a02565b6139d9856134e8565b5f5b838110156139fa578154818901526001820191506020810190506139db565b838801955050505b50505092915050565b5f613a1582612e38565b613a1f8185613981565b9350613a2f818560208601612e52565b80840191505092915050565b5f613a46828561398b565b9150613a528284613a0b565b91508190509392505050565b7f7b226e616d65223a220000000000000000000000000000000000000000000000815250565b7f2023000000000000000000000000000000000000000000000000000000000000815250565b5f613ab482613a5e565b600982019150613ac4828561398b565b9150613acf82613a84565b600282019150613adf8284613a0b565b91508190509392505050565b7f222c226465736372697074696f6e223a22000000000000000000000000000000815250565b7f222c2265787465726e616c5f75726c223a2268747470733a2f2f222c22696d615f8201527f6765223a22000000000000000000000000000000000000000000000000000000602082015250565b5f613b6b602583613981565b9150613b7682613b11565b602582019050919050565b5f613b8c8285613a0b565b9150613b9782613aeb565b601182019150613ba7828461398b565b9150613bb282613b5f565b91508190509392505050565b5f613bc98285613a0b565b9150613bd58284613a0b565b91508190509392505050565b7f222c2261747472696275746573223a5b7b2274726169745f74797065223a22435f8201527f6f6c6f72222c2276616c7565223a220000000000000000000000000000000000602082015250565b5f613c3b602f83613981565b9150613c4682613be1565b602f82019050919050565b5f613c5b82613c2f565b9150613c678284613a0b565b915081905092915050565b7f646174613a6170706c69636174696f6e2f6a736f6e3b757466382c0000000000815250565b5f613ca282613c72565b601b82019150613cb28284613a0b565b915081905092915050565b5f8160011c9050919050565b5f808291508390505b6001851115613d1257808604811115613cee57613ced613754565b5b6001851615613cfd5780820291505b8081029050613d0b85613cbd565b9450613cd2565b94509492505050565b5f82613d2a5760019050613de5565b81613d37575f9050613de5565b8160018114613d4d5760028114613d5757613d86565b6001915050613de5565b60ff841115613d6957613d68613754565b5b8360020a915084821115613d8057613d7f613754565b5b50613de5565b5060208310610133831016604e8410600b8410161715613dbb5782820a905083811115613db657613db5613754565b5b613de5565b613dc88484846001613cc9565b92509050818404811115613ddf57613dde613754565b5b81810290505b9392505050565b5f613df682612ef3565b9150613e018361322f565b9250613e2e7fffffffffffffffffffffffffffffffffffffffffffffffffffffffffffffffff8484613d1b565b905092915050565b7f4e487b71000000000000000000000000000000000000000000000000000000005f52601260045260245ffd5b5f613e6d82612ef3565b9150613e7883612ef3565b925082613e8857613e87613e36565b5b828204905092915050565b5f819050919050565b613ead613ea882612ef3565b613e93565b82525050565b5f613ebe8284613e9c565b6020820191508190509291505056fea26469706673582212203fa8bd867e283c5a1d7d45dc8fc6af2ee3039b5b0c1ab3ec612ad430ada6dae364736f6c63430008160033",
					"opcodes": "PUSH1 0xC0 PUSH1 0x40 MSTORE CALLVALUE DUP1 ISZERO PUSH3 0x10 JUMPI PUSH0 DUP1 REVERT JUMPDEST POP PUSH1 0x40 MLOAD PUSH3 0x47D9 CODESIZE SUB DUP1 PUSH3 0x47D9 DUP4 CODECOPY DUP2 DUP2 ADD PUSH1 0x40 MSTORE DUP2 ADD SWAP1 PUSH3 0x36 SWAP2 SWAP1 PUSH3 0x312 JUMP JUMPDEST PUSH1 0x40 MLOAD DUP1 PUSH1 0x40 ADD PUSH1 0x40 MSTORE DUP1 PUSH1 0x4 DUP2 MSTORE PUSH1 0x20 ADD PUSH32 0x4E616D6500000000000000000000000000000000000000000000000000000000 DUP2 MSTORE POP PUSH1 0x40 MLOAD DUP1 PUSH1 0x40 ADD PUSH1 0x40 MSTORE DUP1 PUSH1 0x6 DUP2 MSTORE PUSH1 0x20 ADD PUSH32 0x53594D424F4C0000000000000000000000000000000000000000000000000000 DUP2 MSTORE POP PUSH1 0x12 PUSH2 0x2710 DUP5 DUP1 PUSH0 PUSH20 0xFFFFFFFFFFFFFFFFFFFFFFFFFFFFFFFFFFFFFFFF AND DUP2 PUSH20 0xFFFFFFFFFFFFFFFFFFFFFFFFFFFFFFFFFFFFFFFF AND SUB PUSH3 0x10F JUMPI PUSH1 0x40 MLOAD PUSH32 0x49E27CFF00000000000000000000000000000000000000000000000000000000 DUP2 MSTORE PUSH1 0x4 ADD PUSH1 0x40 MLOAD DUP1 SWAP2 SUB SWAP1 REVERT JUMPDEST DUP1 PUSH0 DUP1 PUSH2 0x100 EXP DUP2 SLOAD DUP2 PUSH20 0xFFFFFFFFFFFFFFFFFFFFFFFFFFFFFFFFFFFFFFFF MUL NOT AND SWAP1 DUP4 PUSH20 0xFFFFFFFFFFFFFFFFFFFFFFFFFFFFFFFFFFFFFFFF AND MUL OR SWAP1 SSTORE POP DUP1 PUSH20 0xFFFFFFFFFFFFFFFFFFFFFFFFFFFFFFFFFFFFFFFF AND PUSH0 PUSH20 0xFFFFFFFFFFFFFFFFFFFFFFFFFFFFFFFFFFFFFFFF AND PUSH32 0x8BE0079C531659141344CD1FD0A4F28419497F9722A3DAAFE3B4186F6B6457E0 PUSH1 0x40 MLOAD PUSH1 0x40 MLOAD DUP1 SWAP2 SUB SWAP1 LOG3 POP DUP5 PUSH1 0x1 SWAP1 DUP2 PUSH3 0x1BA SWAP2 SWAP1 PUSH3 0x5A6 JUMP JUMPDEST POP DUP4 PUSH1 0x2 SWAP1 DUP2 PUSH3 0x1CC SWAP2 SWAP1 PUSH3 0x5A6 JUMP JUMPDEST POP DUP3 PUSH1 0xFF AND PUSH1 0x80 DUP2 PUSH1 0xFF AND DUP2 MSTORE POP POP PUSH1 0x80 MLOAD PUSH1 0xA PUSH3 0x1EC SWAP2 SWAP1 PUSH3 0x813 JUMP JUMPDEST DUP3 PUSH3 0x1F9 SWAP2 SWAP1 PUSH3 0x863 JUMP JUMPDEST PUSH1 0xA0 DUP2 DUP2 MSTORE POP POP POP POP POP POP POP PUSH10 0x21E19E0C9BAB2400000 PUSH1 0x4 PUSH0 DUP4 PUSH20 0xFFFFFFFFFFFFFFFFFFFFFFFFFFFFFFFFFFFFFFFF AND PUSH20 0xFFFFFFFFFFFFFFFFFFFFFFFFFFFFFFFFFFFFFFFF AND DUP2 MSTORE PUSH1 0x20 ADD SWAP1 DUP2 MSTORE PUSH1 0x20 ADD PUSH0 KECCAK256 DUP2 SWAP1 SSTORE POP PUSH1 0x1 PUSH1 0xB PUSH0 DUP4 PUSH20 0xFFFFFFFFFFFFFFFFFFFFFFFFFFFFFFFFFFFFFFFF AND PUSH20 0xFFFFFFFFFFFFFFFFFFFFFFFFFFFFFFFFFFFFFFFF AND DUP2 MSTORE PUSH1 0x20 ADD SWAP1 DUP2 MSTORE PUSH1 0x20 ADD PUSH0 KECCAK256 PUSH0 PUSH2 0x100 EXP DUP2 SLOAD DUP2 PUSH1 0xFF MUL NOT AND SWAP1 DUP4 ISZERO ISZERO MUL OR SWAP1 SSTORE POP POP PUSH3 0x8AD JUMP JUMPDEST PUSH0 DUP1 REVERT JUMPDEST PUSH0 PUSH20 0xFFFFFFFFFFFFFFFFFFFFFFFFFFFFFFFFFFFFFFFF DUP3 AND SWAP1 POP SWAP2 SWAP1 POP JUMP JUMPDEST PUSH0 PUSH3 0x2DC DUP3 PUSH3 0x2B1 JUMP JUMPDEST SWAP1 POP SWAP2 SWAP1 POP JUMP JUMPDEST PUSH3 0x2EE DUP2 PUSH3 0x2D0 JUMP JUMPDEST DUP2 EQ PUSH3 0x2F9 JUMPI PUSH0 DUP1 REVERT JUMPDEST POP JUMP JUMPDEST PUSH0 DUP2 MLOAD SWAP1 POP PUSH3 0x30C DUP2 PUSH3 0x2E3 JUMP JUMPDEST SWAP3 SWAP2 POP POP JUMP JUMPDEST PUSH0 PUSH1 0x20 DUP3 DUP5 SUB SLT ISZERO PUSH3 0x32A JUMPI PUSH3 0x329 PUSH3 0x2AD JUMP JUMPDEST JUMPDEST PUSH0 PUSH3 0x339 DUP5 DUP3 DUP6 ADD PUSH3 0x2FC JUMP JUMPDEST SWAP2 POP POP SWAP3 SWAP2 POP POP JUMP JUMPDEST PUSH0 DUP2 MLOAD SWAP1 POP SWAP2 SWAP1 POP JUMP JUMPDEST PUSH32 0x4E487B7100000000000000000000000000000000000000000000000000000000 PUSH0 MSTORE PUSH1 0x41 PUSH1 0x4 MSTORE PUSH1 0x24 PUSH0 REVERT JUMPDEST PUSH32 0x4E487B7100000000000000000000000000000000000000000000000000000000 PUSH0 MSTORE PUSH1 0x22 PUSH1 0x4 MSTORE PUSH1 0x24 PUSH0 REVERT JUMPDEST PUSH0 PUSH1 0x2 DUP3 DIV SWAP1 POP PUSH1 0x1 DUP3 AND DUP1 PUSH3 0x3BE JUMPI PUSH1 0x7F DUP3 AND SWAP2 POP JUMPDEST PUSH1 0x20 DUP3 LT DUP2 SUB PUSH3 0x3D4 JUMPI PUSH3 0x3D3 PUSH3 0x379 JUMP JUMPDEST JUMPDEST POP SWAP2 SWAP1 POP JUMP JUMPDEST PUSH0 DUP2 SWAP1 POP DUP2 PUSH0 MSTORE PUSH1 0x20 PUSH0 KECCAK256 SWAP1 POP SWAP2 SWAP1 POP JUMP JUMPDEST PUSH0 PUSH1 0x20 PUSH1 0x1F DUP4 ADD DIV SWAP1 POP SWAP2 SWAP1 POP JUMP JUMPDEST PUSH0 DUP3 DUP3 SHL SWAP1 POP SWAP3 SWAP2 POP POP JUMP JUMPDEST PUSH0 PUSH1 0x8 DUP4 MUL PUSH3 0x438 PUSH32 0xFFFFFFFFFFFFFFFFFFFFFFFFFFFFFFFFFFFFFFFFFFFFFFFFFFFFFFFFFFFFFFFF DUP3 PUSH3 0x3FB JUMP JUMPDEST PUSH3 0x444 DUP7 DUP4 PUSH3 0x3FB JUMP JUMPDEST SWAP6 POP DUP1 NOT DUP5 AND SWAP4 POP DUP1 DUP7 AND DUP5 OR SWAP3 POP POP POP SWAP4 SWAP3 POP POP POP JUMP JUMPDEST PUSH0 DUP2 SWAP1 POP SWAP2 SWAP1 POP JUMP JUMPDEST PUSH0 DUP2 SWAP1 POP SWAP2 SWAP1 POP JUMP JUMPDEST PUSH0 PUSH3 0x48E PUSH3 0x488 PUSH3 0x482 DUP5 PUSH3 0x45C JUMP JUMPDEST PUSH3 0x465 JUMP JUMPDEST PUSH3 0x45C JUMP JUMPDEST SWAP1 POP SWAP2 SWAP1 POP JUMP JUMPDEST PUSH0 DUP2 SWAP1 POP SWAP2 SWAP1 POP JUMP JUMPDEST PUSH3 0x4A9 DUP4 PUSH3 0x46E JUMP JUMPDEST PUSH3 0x4C1 PUSH3 0x4B8 DUP3 PUSH3 0x495 JUMP JUMPDEST DUP5 DUP5 SLOAD PUSH3 0x407 JUMP JUMPDEST DUP3 SSTORE POP POP POP POP JUMP JUMPDEST PUSH0 SWAP1 JUMP JUMPDEST PUSH3 0x4D7 PUSH3 0x4C9 JUMP JUMPDEST PUSH3 0x4E4 DUP2 DUP5 DUP5 PUSH3 0x49E JUMP JUMPDEST POP POP POP JUMP JUMPDEST JUMPDEST DUP2 DUP2 LT ISZERO PUSH3 0x50B JUMPI PUSH3 0x4FF PUSH0 DUP3 PUSH3 0x4CD JUMP JUMPDEST PUSH1 0x1 DUP2 ADD SWAP1 POP PUSH3 0x4EA JUMP JUMPDEST POP POP JUMP JUMPDEST PUSH1 0x1F DUP3 GT ISZERO PUSH3 0x55A JUMPI PUSH3 0x524 DUP2 PUSH3 0x3DA JUMP JUMPDEST PUSH3 0x52F DUP5 PUSH3 0x3EC JUMP JUMPDEST DUP2 ADD PUSH1 0x20 DUP6 LT ISZERO PUSH3 0x53F JUMPI DUP2 SWAP1 POP JUMPDEST PUSH3 0x557 PUSH3 0x54E DUP6 PUSH3 0x3EC JUMP JUMPDEST DUP4 ADD DUP3 PUSH3 0x4E9 JUMP JUMPDEST POP POP JUMPDEST POP POP POP JUMP JUMPDEST PUSH0 DUP3 DUP3 SHR SWAP1 POP SWAP3 SWAP2 POP POP JUMP JUMPDEST PUSH0 PUSH3 0x57C PUSH0 NOT DUP5 PUSH1 0x8 MUL PUSH3 0x55F JUMP JUMPDEST NOT DUP1 DUP4 AND SWAP2 POP POP SWAP3 SWAP2 POP POP JUMP JUMPDEST PUSH0 PUSH3 0x596 DUP4 DUP4 PUSH3 0x56B JUMP JUMPDEST SWAP2 POP DUP3 PUSH1 0x2 MUL DUP3 OR SWAP1 POP SWAP3 SWAP2 POP POP JUMP JUMPDEST PUSH3 0x5B1 DUP3 PUSH3 0x342 JUMP JUMPDEST PUSH8 0xFFFFFFFFFFFFFFFF DUP2 GT ISZERO PUSH3 0x5CD JUMPI PUSH3 0x5CC PUSH3 0x34C JUMP JUMPDEST JUMPDEST PUSH3 0x5D9 DUP3 SLOAD PUSH3 0x3A6 JUMP JUMPDEST PUSH3 0x5E6 DUP3 DUP3 DUP6 PUSH3 0x50F JUMP JUMPDEST PUSH0 PUSH1 0x20 SWAP1 POP PUSH1 0x1F DUP4 GT PUSH1 0x1 DUP2 EQ PUSH3 0x61C JUMPI PUSH0 DUP5 ISZERO PUSH3 0x607 JUMPI DUP3 DUP8 ADD MLOAD SWAP1 POP JUMPDEST PUSH3 0x613 DUP6 DUP3 PUSH3 0x589 JUMP JUMPDEST DUP7 SSTORE POP PUSH3 0x682 JUMP JUMPDEST PUSH1 0x1F NOT DUP5 AND PUSH3 0x62C DUP7 PUSH3 0x3DA JUMP JUMPDEST PUSH0 JUMPDEST DUP3 DUP2 LT ISZERO PUSH3 0x655 JUMPI DUP5 DUP10 ADD MLOAD DUP3 SSTORE PUSH1 0x1 DUP3 ADD SWAP2 POP PUSH1 0x20 DUP6 ADD SWAP5 POP PUSH1 0x20 DUP2 ADD SWAP1 POP PUSH3 0x62E JUMP JUMPDEST DUP7 DUP4 LT ISZERO PUSH3 0x675 JUMPI DUP5 DUP10 ADD MLOAD PUSH3 0x671 PUSH1 0x1F DUP10 AND DUP3 PUSH3 0x56B JUMP JUMPDEST DUP4 SSTORE POP JUMPDEST PUSH1 0x1 PUSH1 0x2 DUP9 MUL ADD DUP9 SSTORE POP POP POP JUMPDEST POP POP POP POP POP POP JUMP JUMPDEST PUSH32 0x4E487B7100000000000000000000000000000000000000000000000000000000 PUSH0 MSTORE PUSH1 0x11 PUSH1 0x4 MSTORE PUSH1 0x24 PUSH0 REVERT JUMPDEST PUSH0 DUP2 PUSH1 0x1 SHR SWAP1 POP SWAP2 SWAP1 POP JUMP JUMPDEST PUSH0 DUP1 DUP3 SWAP2 POP DUP4 SWAP1 POP JUMPDEST PUSH1 0x1 DUP6 GT ISZERO PUSH3 0x714 JUMPI DUP1 DUP7 DIV DUP2 GT ISZERO PUSH3 0x6EC JUMPI PUSH3 0x6EB PUSH3 0x68A JUMP JUMPDEST JUMPDEST PUSH1 0x1 DUP6 AND ISZERO PUSH3 0x6FC JUMPI DUP1 DUP3 MUL SWAP2 POP JUMPDEST DUP1 DUP2 MUL SWAP1 POP PUSH3 0x70C DUP6 PUSH3 0x6B7 JUMP JUMPDEST SWAP5 POP PUSH3 0x6CC JUMP JUMPDEST SWAP5 POP SWAP5 SWAP3 POP POP POP JUMP JUMPDEST PUSH0 DUP3 PUSH3 0x72E JUMPI PUSH1 0x1 SWAP1 POP PUSH3 0x800 JUMP JUMPDEST DUP2 PUSH3 0x73D JUMPI PUSH0 SWAP1 POP PUSH3 0x800 JUMP JUMPDEST DUP2 PUSH1 0x1 DUP2 EQ PUSH3 0x756 JUMPI PUSH1 0x2 DUP2 EQ PUSH3 0x761 JUMPI PUSH3 0x797 JUMP JUMPDEST PUSH1 0x1 SWAP2 POP POP PUSH3 0x800 JUMP JUMPDEST PUSH1 0xFF DUP5 GT ISZERO PUSH3 0x776 JUMPI PUSH3 0x775 PUSH3 0x68A JUMP JUMPDEST JUMPDEST DUP4 PUSH1 0x2 EXP SWAP2 POP DUP5 DUP3 GT ISZERO PUSH3 0x790 JUMPI PUSH3 0x78F PUSH3 0x68A JUMP JUMPDEST JUMPDEST POP PUSH3 0x800 JUMP JUMPDEST POP PUSH1 0x20 DUP4 LT PUSH2 0x133 DUP4 LT AND PUSH1 0x4E DUP5 LT PUSH1 0xB DUP5 LT AND OR ISZERO PUSH3 0x7D1 JUMPI DUP3 DUP3 EXP SWAP1 POP DUP4 DUP2 GT ISZERO PUSH3 0x7CB JUMPI PUSH3 0x7CA PUSH3 0x68A JUMP JUMPDEST JUMPDEST PUSH3 0x800 JUMP JUMPDEST PUSH3 0x7E0 DUP5 DUP5 DUP5 PUSH1 0x1 PUSH3 0x6C3 JUMP JUMPDEST SWAP3 POP SWAP1 POP DUP2 DUP5 DIV DUP2 GT ISZERO PUSH3 0x7FA JUMPI PUSH3 0x7F9 PUSH3 0x68A JUMP JUMPDEST JUMPDEST DUP2 DUP2 MUL SWAP1 POP JUMPDEST SWAP4 SWAP3 POP POP POP JUMP JUMPDEST PUSH0 PUSH1 0xFF DUP3 AND SWAP1 POP SWAP2 SWAP1 POP JUMP JUMPDEST PUSH0 PUSH3 0x81F DUP3 PUSH3 0x45C JUMP JUMPDEST SWAP2 POP PUSH3 0x82C DUP4 PUSH3 0x807 JUMP JUMPDEST SWAP3 POP PUSH3 0x85B PUSH32 0xFFFFFFFFFFFFFFFFFFFFFFFFFFFFFFFFFFFFFFFFFFFFFFFFFFFFFFFFFFFFFFFF DUP5 DUP5 PUSH3 0x71D JUMP JUMPDEST SWAP1 POP SWAP3 SWAP2 POP POP JUMP JUMPDEST PUSH0 PUSH3 0x86F DUP3 PUSH3 0x45C JUMP JUMPDEST SWAP2 POP PUSH3 0x87C DUP4 PUSH3 0x45C JUMP JUMPDEST SWAP3 POP DUP3 DUP3 MUL PUSH3 0x88C DUP2 PUSH3 0x45C JUMP JUMPDEST SWAP2 POP DUP3 DUP3 DIV DUP5 EQ DUP4 ISZERO OR PUSH3 0x8A6 JUMPI PUSH3 0x8A5 PUSH3 0x68A JUMP JUMPDEST JUMPDEST POP SWAP3 SWAP2 POP POP JUMP JUMPDEST PUSH1 0x80 MLOAD PUSH1 0xA0 MLOAD PUSH2 0x3F03 PUSH3 0x8D6 PUSH0 CODECOPY PUSH0 PUSH2 0x956 ADD MSTORE PUSH0 DUP2 DUP2 PUSH2 0x1327 ADD MSTORE PUSH2 0x203F ADD MSTORE PUSH2 0x3F03 PUSH0 RETURN INVALID PUSH1 0x80 PUSH1 0x40 MSTORE CALLVALUE DUP1 ISZERO PUSH2 0xF JUMPI PUSH0 DUP1 REVERT JUMPDEST POP PUSH1 0x4 CALLDATASIZE LT PUSH2 0x1CD JUMPI PUSH0 CALLDATALOAD PUSH1 0xE0 SHR DUP1 PUSH4 0x8DA5CB5B GT PUSH2 0x102 JUMPI DUP1 PUSH4 0xC87B56DD GT PUSH2 0xA0 JUMPI DUP1 PUSH4 0xE985E9C5 GT PUSH2 0x6F JUMPI DUP1 PUSH4 0xE985E9C5 EQ PUSH2 0x529 JUMPI DUP1 PUSH4 0xEDEB4BBE EQ PUSH2 0x559 JUMPI DUP1 PUSH4 0xF28CA1DD EQ PUSH2 0x577 JUMPI DUP1 PUSH4 0xF2FDE38B EQ PUSH2 0x595 JUMPI PUSH2 0x1CD JUMP JUMPDEST DUP1 PUSH4 0xC87B56DD EQ PUSH2 0x48F JUMPI DUP1 PUSH4 0xD547CFB7 EQ PUSH2 0x4BF JUMPI DUP1 PUSH4 0xDD62ED3E EQ PUSH2 0x4DD JUMPI DUP1 PUSH4 0xE0DF5B6F EQ PUSH2 0x50D JUMPI PUSH2 0x1CD JUMP JUMPDEST DUP1 PUSH4 0xA22CB465 GT PUSH2 0xDC JUMPI DUP1 PUSH4 0xA22CB465 EQ PUSH2 0x40B JUMPI DUP1 PUSH4 0xA9059CBB EQ PUSH2 0x427 JUMPI DUP1 PUSH4 0xB88D4FDE EQ PUSH2 0x457 JUMPI DUP1 PUSH4 0xBD9BA9E8 EQ PUSH2 0x473 JUMPI PUSH2 0x1CD JUMP JUMPDEST DUP1 PUSH4 0x8DA5CB5B EQ PUSH2 0x39F JUMPI DUP1 PUSH4 0x95D89B41 EQ PUSH2 0x3BD JUMPI DUP1 PUSH4 0x9B19251A EQ PUSH2 0x3DB JUMPI PUSH2 0x1CD JUMP JUMPDEST DUP1 PUSH4 0x313CE567 GT PUSH2 0x16F JUMPI DUP1 PUSH4 0x504334C2 GT PUSH2 0x149 JUMPI DUP1 PUSH4 0x504334C2 EQ PUSH2 0x307 JUMPI DUP1 PUSH4 0x53D6FD59 EQ PUSH2 0x323 JUMPI DUP1 PUSH4 0x6352211E EQ PUSH2 0x33F JUMPI DUP1 PUSH4 0x70A08231 EQ PUSH2 0x36F JUMPI PUSH2 0x1CD JUMP JUMPDEST DUP1 PUSH4 0x313CE567 EQ PUSH2 0x2AF JUMPI DUP1 PUSH4 0x42842E0E EQ PUSH2 0x2CD JUMPI DUP1 PUSH4 0x4F02C420 EQ PUSH2 0x2E9 JUMPI PUSH2 0x1CD JUMP JUMPDEST DUP1 PUSH4 0x18160DDD GT PUSH2 0x1AB JUMPI DUP1 PUSH4 0x18160DDD EQ PUSH2 0x24F JUMPI DUP1 PUSH4 0x18D217C3 EQ PUSH2 0x26D JUMPI DUP1 PUSH4 0x23B872DD EQ PUSH2 0x289 JUMPI DUP1 PUSH4 0x2B968958 EQ PUSH2 0x2A5 JUMPI PUSH2 0x1CD JUMP JUMPDEST DUP1 PUSH4 0x6FDDE03 EQ PUSH2 0x1D1 JUMPI DUP1 PUSH4 0x81812FC EQ PUSH2 0x1EF JUMPI DUP1 PUSH4 0x95EA7B3 EQ PUSH2 0x21F JUMPI JUMPDEST PUSH0 DUP1 REVERT JUMPDEST PUSH2 0x1D9 PUSH2 0x5B1 JUMP JUMPDEST PUSH1 0x40 MLOAD PUSH2 0x1E6 SWAP2 SWAP1 PUSH2 0x2EC2 JUMP JUMPDEST PUSH1 0x40 MLOAD DUP1 SWAP2 SUB SWAP1 RETURN JUMPDEST PUSH2 0x209 PUSH1 0x4 DUP1 CALLDATASIZE SUB DUP2 ADD SWAP1 PUSH2 0x204 SWAP2 SWAP1 PUSH2 0x2F26 JUMP JUMPDEST PUSH2 0x63D JUMP JUMPDEST PUSH1 0x40 MLOAD PUSH2 0x216 SWAP2 SWAP1 PUSH2 0x2F90 JUMP JUMPDEST PUSH1 0x40 MLOAD DUP1 SWAP2 SUB SWAP1 RETURN JUMPDEST PUSH2 0x239 PUSH1 0x4 DUP1 CALLDATASIZE SUB DUP2 ADD SWAP1 PUSH2 0x234 SWAP2 SWAP1 PUSH2 0x2FD3 JUMP JUMPDEST PUSH2 0x66D JUMP JUMPDEST PUSH1 0x40 MLOAD PUSH2 0x246 SWAP2 SWAP1 PUSH2 0x302B JUMP JUMPDEST PUSH1 0x40 MLOAD DUP1 SWAP2 SUB SWAP1 RETURN JUMPDEST PUSH2 0x257 PUSH2 0x954 JUMP JUMPDEST PUSH1 0x40 MLOAD PUSH2 0x264 SWAP2 SWAP1 PUSH2 0x3053 JUMP JUMPDEST PUSH1 0x40 MLOAD DUP1 SWAP2 SUB SWAP1 RETURN JUMPDEST PUSH2 0x287 PUSH1 0x4 DUP1 CALLDATASIZE SUB DUP2 ADD SWAP1 PUSH2 0x282 SWAP2 SWAP1 PUSH2 0x3198 JUMP JUMPDEST PUSH2 0x978 JUMP JUMPDEST STOP JUMPDEST PUSH2 0x2A3 PUSH1 0x4 DUP1 CALLDATASIZE SUB DUP2 ADD SWAP1 PUSH2 0x29E SWAP2 SWAP1 PUSH2 0x31DF JUMP JUMPDEST PUSH2 0xA0F JUMP JUMPDEST STOP JUMPDEST PUSH2 0x2AD PUSH2 0x1206 JUMP JUMPDEST STOP JUMPDEST PUSH2 0x2B7 PUSH2 0x1325 JUMP JUMPDEST PUSH1 0x40 MLOAD PUSH2 0x2C4 SWAP2 SWAP1 PUSH2 0x324A JUMP JUMPDEST PUSH1 0x40 MLOAD DUP1 SWAP2 SUB SWAP1 RETURN JUMPDEST PUSH2 0x2E7 PUSH1 0x4 DUP1 CALLDATASIZE SUB DUP2 ADD SWAP1 PUSH2 0x2E2 SWAP2 SWAP1 PUSH2 0x31DF JUMP JUMPDEST PUSH2 0x1349 JUMP JUMPDEST STOP JUMPDEST PUSH2 0x2F1 PUSH2 0x1478 JUMP JUMPDEST PUSH1 0x40 MLOAD PUSH2 0x2FE SWAP2 SWAP1 PUSH2 0x3053 JUMP JUMPDEST PUSH1 0x40 MLOAD DUP1 SWAP2 SUB SWAP1 RETURN JUMPDEST PUSH2 0x321 PUSH1 0x4 DUP1 CALLDATASIZE SUB DUP2 ADD SWAP1 PUSH2 0x31C SWAP2 SWAP1 PUSH2 0x3263 JUMP JUMPDEST PUSH2 0x147E JUMP JUMPDEST STOP JUMPDEST PUSH2 0x33D PUSH1 0x4 DUP1 CALLDATASIZE SUB DUP2 ADD SWAP1 PUSH2 0x338 SWAP2 SWAP1 PUSH2 0x3303 JUMP JUMPDEST PUSH2 0x1510 JUMP JUMPDEST STOP JUMPDEST PUSH2 0x359 PUSH1 0x4 DUP1 CALLDATASIZE SUB DUP2 ADD SWAP1 PUSH2 0x354 SWAP2 SWAP1 PUSH2 0x2F26 JUMP JUMPDEST PUSH2 0x15EC JUMP JUMPDEST PUSH1 0x40 MLOAD PUSH2 0x366 SWAP2 SWAP1 PUSH2 0x2F90 JUMP JUMPDEST PUSH1 0x40 MLOAD DUP1 SWAP2 SUB SWAP1 RETURN JUMPDEST PUSH2 0x389 PUSH1 0x4 DUP1 CALLDATASIZE SUB DUP2 ADD SWAP1 PUSH2 0x384 SWAP2 SWAP1 PUSH2 0x3341 JUMP JUMPDEST PUSH2 0x168A JUMP JUMPDEST PUSH1 0x40 MLOAD PUSH2 0x396 SWAP2 SWAP1 PUSH2 0x3053 JUMP JUMPDEST PUSH1 0x40 MLOAD DUP1 SWAP2 SUB SWAP1 RETURN JUMPDEST PUSH2 0x3A7 PUSH2 0x169F JUMP JUMPDEST PUSH1 0x40 MLOAD PUSH2 0x3B4 SWAP2 SWAP1 PUSH2 0x2F90 JUMP JUMPDEST PUSH1 0x40 MLOAD DUP1 SWAP2 SUB SWAP1 RETURN JUMPDEST PUSH2 0x3C5 PUSH2 0x16C2 JUMP JUMPDEST PUSH1 0x40 MLOAD PUSH2 0x3D2 SWAP2 SWAP1 PUSH2 0x2EC2 JUMP JUMPDEST PUSH1 0x40 MLOAD DUP1 SWAP2 SUB SWAP1 RETURN JUMPDEST PUSH2 0x3F5 PUSH1 0x4 DUP1 CALLDATASIZE SUB DUP2 ADD SWAP1 PUSH2 0x3F0 SWAP2 SWAP1 PUSH2 0x3341 JUMP JUMPDEST PUSH2 0x174E JUMP JUMPDEST PUSH1 0x40 MLOAD PUSH2 0x402 SWAP2 SWAP1 PUSH2 0x302B JUMP JUMPDEST PUSH1 0x40 MLOAD DUP1 SWAP2 SUB SWAP1 RETURN JUMPDEST PUSH2 0x425 PUSH1 0x4 DUP1 CALLDATASIZE SUB DUP2 ADD SWAP1 PUSH2 0x420 SWAP2 SWAP1 PUSH2 0x3303 JUMP JUMPDEST PUSH2 0x176B JUMP JUMPDEST STOP JUMPDEST PUSH2 0x441 PUSH1 0x4 DUP1 CALLDATASIZE SUB DUP2 ADD SWAP1 PUSH2 0x43C SWAP2 SWAP1 PUSH2 0x2FD3 JUMP JUMPDEST PUSH2 0x1863 JUMP JUMPDEST PUSH1 0x40 MLOAD PUSH2 0x44E SWAP2 SWAP1 PUSH2 0x302B JUMP JUMPDEST PUSH1 0x40 MLOAD DUP1 SWAP2 SUB SWAP1 RETURN JUMPDEST PUSH2 0x471 PUSH1 0x4 DUP1 CALLDATASIZE SUB DUP2 ADD SWAP1 PUSH2 0x46C SWAP2 SWAP1 PUSH2 0x33C9 JUMP JUMPDEST PUSH2 0x1877 JUMP JUMPDEST STOP JUMPDEST PUSH2 0x48D PUSH1 0x4 DUP1 CALLDATASIZE SUB DUP2 ADD SWAP1 PUSH2 0x488 SWAP2 SWAP1 PUSH2 0x3198 JUMP JUMPDEST PUSH2 0x19AC JUMP JUMPDEST STOP JUMPDEST PUSH2 0x4A9 PUSH1 0x4 DUP1 CALLDATASIZE SUB DUP2 ADD SWAP1 PUSH2 0x4A4 SWAP2 SWAP1 PUSH2 0x2F26 JUMP JUMPDEST PUSH2 0x1A43 JUMP JUMPDEST PUSH1 0x40 MLOAD PUSH2 0x4B6 SWAP2 SWAP1 PUSH2 0x2EC2 JUMP JUMPDEST PUSH1 0x40 MLOAD DUP1 SWAP2 SUB SWAP1 RETURN JUMPDEST PUSH2 0x4C7 PUSH2 0x1C32 JUMP JUMPDEST PUSH1 0x40 MLOAD PUSH2 0x4D4 SWAP2 SWAP1 PUSH2 0x2EC2 JUMP JUMPDEST PUSH1 0x40 MLOAD DUP1 SWAP2 SUB SWAP1 RETURN JUMPDEST PUSH2 0x4F7 PUSH1 0x4 DUP1 CALLDATASIZE SUB DUP2 ADD SWAP1 PUSH2 0x4F2 SWAP2 SWAP1 PUSH2 0x344D JUMP JUMPDEST PUSH2 0x1CBE JUMP JUMPDEST PUSH1 0x40 MLOAD PUSH2 0x504 SWAP2 SWAP1 PUSH2 0x3053 JUMP JUMPDEST PUSH1 0x40 MLOAD DUP1 SWAP2 SUB SWAP1 RETURN JUMPDEST PUSH2 0x527 PUSH1 0x4 DUP1 CALLDATASIZE SUB DUP2 ADD SWAP1 PUSH2 0x522 SWAP2 SWAP1 PUSH2 0x3198 JUMP JUMPDEST PUSH2 0x1CDE JUMP JUMPDEST STOP JUMPDEST PUSH2 0x543 PUSH1 0x4 DUP1 CALLDATASIZE SUB DUP2 ADD SWAP1 PUSH2 0x53E SWAP2 SWAP1 PUSH2 0x344D JUMP JUMPDEST PUSH2 0x1D75 JUMP JUMPDEST PUSH1 0x40 MLOAD PUSH2 0x550 SWAP2 SWAP1 PUSH2 0x302B JUMP JUMPDEST PUSH1 0x40 MLOAD DUP1 SWAP2 SUB SWAP1 RETURN JUMPDEST PUSH2 0x561 PUSH2 0x1D9F JUMP JUMPDEST PUSH1 0x40 MLOAD PUSH2 0x56E SWAP2 SWAP1 PUSH2 0x2EC2 JUMP JUMPDEST PUSH1 0x40 MLOAD DUP1 SWAP2 SUB SWAP1 RETURN JUMPDEST PUSH2 0x57F PUSH2 0x1E2B JUMP JUMPDEST PUSH1 0x40 MLOAD PUSH2 0x58C SWAP2 SWAP1 PUSH2 0x2EC2 JUMP JUMPDEST PUSH1 0x40 MLOAD DUP1 SWAP2 SUB SWAP1 RETURN JUMPDEST PUSH2 0x5AF PUSH1 0x4 DUP1 CALLDATASIZE SUB DUP2 ADD SWAP1 PUSH2 0x5AA SWAP2 SWAP1 PUSH2 0x3341 JUMP JUMPDEST PUSH2 0x1EB7 JUMP JUMPDEST STOP JUMPDEST PUSH1 0x1 DUP1 SLOAD PUSH2 0x5BE SWAP1 PUSH2 0x34B8 JUMP JUMPDEST DUP1 PUSH1 0x1F ADD PUSH1 0x20 DUP1 SWAP2 DIV MUL PUSH1 0x20 ADD PUSH1 0x40 MLOAD SWAP1 DUP2 ADD PUSH1 0x40 MSTORE DUP1 SWAP3 SWAP2 SWAP1 DUP2 DUP2 MSTORE PUSH1 0x20 ADD DUP3 DUP1 SLOAD PUSH2 0x5EA SWAP1 PUSH2 0x34B8 JUMP JUMPDEST DUP1 ISZERO PUSH2 0x635 JUMPI DUP1 PUSH1 0x1F LT PUSH2 0x60C JUMPI PUSH2 0x100 DUP1 DUP4 SLOAD DIV MUL DUP4 MSTORE SWAP2 PUSH1 0x20 ADD SWAP2 PUSH2 0x635 JUMP JUMPDEST DUP3 ADD SWAP2 SWAP1 PUSH0 MSTORE PUSH1 0x20 PUSH0 KECCAK256 SWAP1 JUMPDEST DUP2 SLOAD DUP2 MSTORE SWAP1 PUSH1 0x1 ADD SWAP1 PUSH1 0x20 ADD DUP1 DUP4 GT PUSH2 0x618 JUMPI DUP3 SWAP1 SUB PUSH1 0x1F AND DUP3 ADD SWAP2 JUMPDEST POP POP POP POP POP DUP2 JUMP JUMPDEST PUSH1 0x6 PUSH1 0x20 MSTORE DUP1 PUSH0 MSTORE PUSH1 0x40 PUSH0 KECCAK256 PUSH0 SWAP2 POP SLOAD SWAP1 PUSH2 0x100 EXP SWAP1 DIV PUSH20 0xFFFFFFFFFFFFFFFFFFFFFFFFFFFFFFFFFFFFFFFF AND DUP2 JUMP JUMPDEST PUSH0 PUSH1 0x3 SLOAD DUP3 GT ISZERO DUP1 ISZERO PUSH2 0x67F JUMPI POP PUSH0 DUP3 GT JUMPDEST ISZERO PUSH2 0x867 JUMPI PUSH0 PUSH1 0x8 PUSH0 DUP5 DUP2 MSTORE PUSH1 0x20 ADD SWAP1 DUP2 MSTORE PUSH1 0x20 ADD PUSH0 KECCAK256 PUSH0 SWAP1 SLOAD SWAP1 PUSH2 0x100 EXP SWAP1 DIV PUSH20 0xFFFFFFFFFFFFFFFFFFFFFFFFFFFFFFFFFFFFFFFF AND SWAP1 POP DUP1 PUSH20 0xFFFFFFFFFFFFFFFFFFFFFFFFFFFFFFFFFFFFFFFF AND CALLER PUSH20 0xFFFFFFFFFFFFFFFFFFFFFFFFFFFFFFFFFFFFFFFF AND EQ ISZERO DUP1 ISZERO PUSH2 0x776 JUMPI POP PUSH1 0x7 PUSH0 DUP3 PUSH20 0xFFFFFFFFFFFFFFFFFFFFFFFFFFFFFFFFFFFFFFFF AND PUSH20 0xFFFFFFFFFFFFFFFFFFFFFFFFFFFFFFFFFFFFFFFF AND DUP2 MSTORE PUSH1 0x20 ADD SWAP1 DUP2 MSTORE PUSH1 0x20 ADD PUSH0 KECCAK256 PUSH0 CALLER PUSH20 0xFFFFFFFFFFFFFFFFFFFFFFFFFFFFFFFFFFFFFFFF AND PUSH20 0xFFFFFFFFFFFFFFFFFFFFFFFFFFFFFFFFFFFFFFFF AND DUP2 MSTORE PUSH1 0x20 ADD SWAP1 DUP2 MSTORE PUSH1 0x20 ADD PUSH0 KECCAK256 PUSH0 SWAP1 SLOAD SWAP1 PUSH2 0x100 EXP SWAP1 DIV PUSH1 0xFF AND ISZERO JUMPDEST ISZERO PUSH2 0x7AD JUMPI PUSH1 0x40 MLOAD PUSH32 0x82B4290000000000000000000000000000000000000000000000000000000000 DUP2 MSTORE PUSH1 0x4 ADD PUSH1 0x40 MLOAD DUP1 SWAP2 SUB SWAP1 REVERT JUMPDEST DUP4 PUSH1 0x6 PUSH0 DUP6 DUP2 MSTORE PUSH1 0x20 ADD SWAP1 DUP2 MSTORE PUSH1 0x20 ADD PUSH0 KECCAK256 PUSH0 PUSH2 0x100 EXP DUP2 SLOAD DUP2 PUSH20 0xFFFFFFFFFFFFFFFFFFFFFFFFFFFFFFFFFFFFFFFF MUL NOT AND SWAP1 DUP4 PUSH20 0xFFFFFFFFFFFFFFFFFFFFFFFFFFFFFFFFFFFFFFFF AND MUL OR SWAP1 SSTORE POP DUP4 PUSH20 0xFFFFFFFFFFFFFFFFFFFFFFFFFFFFFFFFFFFFFFFF AND DUP2 PUSH20 0xFFFFFFFFFFFFFFFFFFFFFFFFFFFFFFFFFFFFFFFF AND PUSH32 0x8C5BE1E5EBEC7D5BD14F71427D1E84F3DD0314C0F7B2291E5B200AC8C7C3B925 DUP6 PUSH1 0x40 MLOAD PUSH2 0x859 SWAP2 SWAP1 PUSH2 0x3053 JUMP JUMPDEST PUSH1 0x40 MLOAD DUP1 SWAP2 SUB SWAP1 LOG3 POP PUSH2 0x94A JUMP JUMPDEST DUP2 PUSH1 0x5 PUSH0 CALLER PUSH20 0xFFFFFFFFFFFFFFFFFFFFFFFFFFFFFFFFFFFFFFFF AND PUSH20 0xFFFFFFFFFFFFFFFFFFFFFFFFFFFFFFFFFFFFFFFF AND DUP2 MSTORE PUSH1 0x20 ADD SWAP1 DUP2 MSTORE PUSH1 0x20 ADD PUSH0 KECCAK256 PUSH0 DUP6 PUSH20 0xFFFFFFFFFFFFFFFFFFFFFFFFFFFFFFFFFFFFFFFF AND PUSH20 0xFFFFFFFFFFFFFFFFFFFFFFFFFFFFFFFFFFFFFFFF AND DUP2 MSTORE PUSH1 0x20 ADD SWAP1 DUP2 MSTORE PUSH1 0x20 ADD PUSH0 KECCAK256 DUP2 SWAP1 SSTORE POP DUP3 PUSH20 0xFFFFFFFFFFFFFFFFFFFFFFFFFFFFFFFFFFFFFFFF AND CALLER PUSH20 0xFFFFFFFFFFFFFFFFFFFFFFFFFFFFFFFFFFFFFFFF AND PUSH32 0x8C5BE1E5EBEC7D5BD14F71427D1E84F3DD0314C0F7B2291E5B200AC8C7C3B925 DUP5 PUSH1 0x40 MLOAD PUSH2 0x941 SWAP2 SWAP1 PUSH2 0x3053 JUMP JUMPDEST PUSH1 0x40 MLOAD DUP1 SWAP2 SUB SWAP1 LOG3 JUMPDEST PUSH1 0x1 SWAP1 POP SWAP3 SWAP2 POP POP JUMP JUMPDEST PUSH32 0x0 DUP2 JUMP JUMPDEST PUSH0 DUP1 SLOAD SWAP1 PUSH2 0x100 EXP SWAP1 DIV PUSH20 0xFFFFFFFFFFFFFFFFFFFFFFFFFFFFFFFFFFFFFFFF AND PUSH20 0xFFFFFFFFFFFFFFFFFFFFFFFFFFFFFFFFFFFFFFFF AND CALLER PUSH20 0xFFFFFFFFFFFFFFFFFFFFFFFFFFFFFFFFFFFFFFFF AND EQ PUSH2 0x9FC JUMPI PUSH1 0x40 MLOAD PUSH32 0x82B4290000000000000000000000000000000000000000000000000000000000 DUP2 MSTORE PUSH1 0x4 ADD PUSH1 0x40 MLOAD DUP1 SWAP2 SUB SWAP1 REVERT JUMPDEST DUP1 PUSH1 0xC SWAP1 DUP2 PUSH2 0xA0B SWAP2 SWAP1 PUSH2 0x3685 JUMP JUMPDEST POP POP JUMP JUMPDEST PUSH1 0x3 SLOAD DUP2 GT PUSH2 0x10C7 JUMPI PUSH1 0x8 PUSH0 DUP3 DUP2 MSTORE PUSH1 0x20 ADD SWAP1 DUP2 MSTORE PUSH1 0x20 ADD PUSH0 KECCAK256 PUSH0 SWAP1 SLOAD SWAP1 PUSH2 0x100 EXP SWAP1 DIV PUSH20 0xFFFFFFFFFFFFFFFFFFFFFFFFFFFFFFFFFFFFFFFF AND PUSH20 0xFFFFFFFFFFFFFFFFFFFFFFFFFFFFFFFFFFFFFFFF AND DUP4 PUSH20 0xFFFFFFFFFFFFFFFFFFFFFFFFFFFFFFFFFFFFFFFF AND EQ PUSH2 0xAAD JUMPI PUSH1 0x40 MLOAD PUSH32 0xDDB5DE5E00000000000000000000000000000000000000000000000000000000 DUP2 MSTORE PUSH1 0x4 ADD PUSH1 0x40 MLOAD DUP1 SWAP2 SUB SWAP1 REVERT JUMPDEST PUSH0 PUSH20 0xFFFFFFFFFFFFFFFFFFFFFFFFFFFFFFFFFFFFFFFF AND DUP3 PUSH20 0xFFFFFFFFFFFFFFFFFFFFFFFFFFFFFFFFFFFFFFFF AND SUB PUSH2 0xB12 JUMPI PUSH1 0x40 MLOAD PUSH32 0x9C8D2CD200000000000000000000000000000000000000000000000000000000 DUP2 MSTORE PUSH1 0x4 ADD PUSH1 0x40 MLOAD DUP1 SWAP2 SUB SWAP1 REVERT JUMPDEST DUP3 PUSH20 0xFFFFFFFFFFFFFFFFFFFFFFFFFFFFFFFFFFFFFFFF AND CALLER PUSH20 0xFFFFFFFFFFFFFFFFFFFFFFFFFFFFFFFFFFFFFFFF AND EQ ISZERO DUP1 ISZERO PUSH2 0xBD0 JUMPI POP PUSH1 0x7 PUSH0 DUP5 PUSH20 0xFFFFFFFFFFFFFFFFFFFFFFFFFFFFFFFFFFFFFFFF AND PUSH20 0xFFFFFFFFFFFFFFFFFFFFFFFFFFFFFFFFFFFFFFFF AND DUP2 MSTORE PUSH1 0x20 ADD SWAP1 DUP2 MSTORE PUSH1 0x20 ADD PUSH0 KECCAK256 PUSH0 CALLER PUSH20 0xFFFFFFFFFFFFFFFFFFFFFFFFFFFFFFFFFFFFFFFF AND PUSH20 0xFFFFFFFFFFFFFFFFFFFFFFFFFFFFFFFFFFFFFFFF AND DUP2 MSTORE PUSH1 0x20 ADD SWAP1 DUP2 MSTORE PUSH1 0x20 ADD PUSH0 KECCAK256 PUSH0 SWAP1 SLOAD SWAP1 PUSH2 0x100 EXP SWAP1 DIV PUSH1 0xFF AND ISZERO JUMPDEST DUP1 ISZERO PUSH2 0xC38 JUMPI POP PUSH1 0x6 PUSH0 DUP3 DUP2 MSTORE PUSH1 0x20 ADD SWAP1 DUP2 MSTORE PUSH1 0x20 ADD PUSH0 KECCAK256 PUSH0 SWAP1 SLOAD SWAP1 PUSH2 0x100 EXP SWAP1 DIV PUSH20 0xFFFFFFFFFFFFFFFFFFFFFFFFFFFFFFFFFFFFFFFF AND PUSH20 0xFFFFFFFFFFFFFFFFFFFFFFFFFFFFFFFFFFFFFFFF AND CALLER PUSH20 0xFFFFFFFFFFFFFFFFFFFFFFFFFFFFFFFFFFFFFFFF AND EQ ISZERO JUMPDEST ISZERO PUSH2 0xC6F JUMPI PUSH1 0x40 MLOAD PUSH32 0x82B4290000000000000000000000000000000000000000000000000000000000 DUP2 MSTORE PUSH1 0x4 ADD PUSH1 0x40 MLOAD DUP1 SWAP2 SUB SWAP1 REVERT JUMPDEST PUSH2 0xC77 PUSH2 0x203C JUMP JUMPDEST PUSH1 0x4 PUSH0 DUP6 PUSH20 0xFFFFFFFFFFFFFFFFFFFFFFFFFFFFFFFFFFFFFFFF AND PUSH20 0xFFFFFFFFFFFFFFFFFFFFFFFFFFFFFFFFFFFFFFFF AND DUP2 MSTORE PUSH1 0x20 ADD SWAP1 DUP2 MSTORE PUSH1 0x20 ADD PUSH0 KECCAK256 PUSH0 DUP3 DUP3 SLOAD PUSH2 0xCC2 SWAP2 SWAP1 PUSH2 0x3781 JUMP JUMPDEST SWAP3 POP POP DUP2 SWAP1 SSTORE POP PUSH2 0xCD1 PUSH2 0x203C JUMP JUMPDEST PUSH1 0x4 PUSH0 DUP5 PUSH20 0xFFFFFFFFFFFFFFFFFFFFFFFFFFFFFFFFFFFFFFFF AND PUSH20 0xFFFFFFFFFFFFFFFFFFFFFFFFFFFFFFFFFFFFFFFF AND DUP2 MSTORE PUSH1 0x20 ADD SWAP1 DUP2 MSTORE PUSH1 0x20 ADD PUSH0 KECCAK256 PUSH0 DUP3 DUP3 SLOAD ADD SWAP3 POP POP DUP2 SWAP1 SSTORE POP DUP2 PUSH1 0x8 PUSH0 DUP4 DUP2 MSTORE PUSH1 0x20 ADD SWAP1 DUP2 MSTORE PUSH1 0x20 ADD PUSH0 KECCAK256 PUSH0 PUSH2 0x100 EXP DUP2 SLOAD DUP2 PUSH20 0xFFFFFFFFFFFFFFFFFFFFFFFFFFFFFFFFFFFFFFFF MUL NOT AND SWAP1 DUP4 PUSH20 0xFFFFFFFFFFFFFFFFFFFFFFFFFFFFFFFFFFFFFFFF AND MUL OR SWAP1 SSTORE POP PUSH1 0x6 PUSH0 DUP3 DUP2 MSTORE PUSH1 0x20 ADD SWAP1 DUP2 MSTORE PUSH1 0x20 ADD PUSH0 KECCAK256 PUSH0 PUSH2 0x100 EXP DUP2 SLOAD SWAP1 PUSH20 0xFFFFFFFFFFFFFFFFFFFFFFFFFFFFFFFFFFFFFFFF MUL NOT AND SWAP1 SSTORE PUSH0 PUSH1 0x9 PUSH0 DUP6 PUSH20 0xFFFFFFFFFFFFFFFFFFFFFFFFFFFFFFFFFFFFFFFF AND PUSH20 0xFFFFFFFFFFFFFFFFFFFFFFFFFFFFFFFFFFFFFFFF AND DUP2 MSTORE PUSH1 0x20 ADD SWAP1 DUP2 MSTORE PUSH1 0x20 ADD PUSH0 KECCAK256 PUSH1 0x1 PUSH1 0x9 PUSH0 DUP8 PUSH20 0xFFFFFFFFFFFFFFFFFFFFFFFFFFFFFFFFFFFFFFFF AND PUSH20 0xFFFFFFFFFFFFFFFFFFFFFFFFFFFFFFFFFFFFFFFF AND DUP2 MSTORE PUSH1 0x20 ADD SWAP1 DUP2 MSTORE PUSH1 0x20 ADD PUSH0 KECCAK256 DUP1 SLOAD SWAP1 POP PUSH2 0xE27 SWAP2 SWAP1 PUSH2 0x3781 JUMP JUMPDEST DUP2 SLOAD DUP2 LT PUSH2 0xE38 JUMPI PUSH2 0xE37 PUSH2 0x37B4 JUMP JUMPDEST JUMPDEST SWAP1 PUSH0 MSTORE PUSH1 0x20 PUSH0 KECCAK256 ADD SLOAD SWAP1 POP DUP1 PUSH1 0x9 PUSH0 DUP7 PUSH20 0xFFFFFFFFFFFFFFFFFFFFFFFFFFFFFFFFFFFFFFFF AND PUSH20 0xFFFFFFFFFFFFFFFFFFFFFFFFFFFFFFFFFFFFFFFF AND DUP2 MSTORE PUSH1 0x20 ADD SWAP1 DUP2 MSTORE PUSH1 0x20 ADD PUSH0 KECCAK256 PUSH1 0xA PUSH0 DUP6 DUP2 MSTORE PUSH1 0x20 ADD SWAP1 DUP2 MSTORE PUSH1 0x20 ADD PUSH0 KECCAK256 SLOAD DUP2 SLOAD DUP2 LT PUSH2 0xEA4 JUMPI PUSH2 0xEA3 PUSH2 0x37B4 JUMP JUMPDEST JUMPDEST SWAP1 PUSH0 MSTORE PUSH1 0x20 PUSH0 KECCAK256 ADD DUP2 SWAP1 SSTORE POP PUSH1 0x9 PUSH0 DUP6 PUSH20 0xFFFFFFFFFFFFFFFFFFFFFFFFFFFFFFFFFFFFFFFF AND PUSH20 0xFFFFFFFFFFFFFFFFFFFFFFFFFFFFFFFFFFFFFFFF AND DUP2 MSTORE PUSH1 0x20 ADD SWAP1 DUP2 MSTORE PUSH1 0x20 ADD PUSH0 KECCAK256 DUP1 SLOAD DUP1 PUSH2 0xEFD JUMPI PUSH2 0xEFC PUSH2 0x37E1 JUMP JUMPDEST JUMPDEST PUSH1 0x1 SWAP1 SUB DUP2 DUP2 SWAP1 PUSH0 MSTORE PUSH1 0x20 PUSH0 KECCAK256 ADD PUSH0 SWAP1 SSTORE SWAP1 SSTORE PUSH1 0xA PUSH0 DUP4 DUP2 MSTORE PUSH1 0x20 ADD SWAP1 DUP2 MSTORE PUSH1 0x20 ADD PUSH0 KECCAK256 SLOAD PUSH1 0xA PUSH0 DUP4 DUP2 MSTORE PUSH1 0x20 ADD SWAP1 DUP2 MSTORE PUSH1 0x20 ADD PUSH0 KECCAK256 DUP2 SWAP1 SSTORE POP PUSH1 0x9 PUSH0 DUP5 PUSH20 0xFFFFFFFFFFFFFFFFFFFFFFFFFFFFFFFFFFFFFFFF AND PUSH20 0xFFFFFFFFFFFFFFFFFFFFFFFFFFFFFFFFFFFFFFFF AND DUP2 MSTORE PUSH1 0x20 ADD SWAP1 DUP2 MSTORE PUSH1 0x20 ADD PUSH0 KECCAK256 DUP3 SWAP1 DUP1 PUSH1 0x1 DUP2 SLOAD ADD DUP1 DUP3 SSTORE DUP1 SWAP2 POP POP PUSH1 0x1 SWAP1 SUB SWAP1 PUSH0 MSTORE PUSH1 0x20 PUSH0 KECCAK256 ADD PUSH0 SWAP1 SWAP2 SWAP1 SWAP2 SWAP1 SWAP2 POP SSTORE PUSH1 0x1 PUSH1 0x9 PUSH0 DUP6 PUSH20 0xFFFFFFFFFFFFFFFFFFFFFFFFFFFFFFFFFFFFFFFF AND PUSH20 0xFFFFFFFFFFFFFFFFFFFFFFFFFFFFFFFFFFFFFFFF AND DUP2 MSTORE PUSH1 0x20 ADD SWAP1 DUP2 MSTORE PUSH1 0x20 ADD PUSH0 KECCAK256 DUP1 SLOAD SWAP1 POP PUSH2 0xFE5 SWAP2 SWAP1 PUSH2 0x3781 JUMP JUMPDEST PUSH1 0xA PUSH0 DUP5 DUP2 MSTORE PUSH1 0x20 ADD SWAP1 DUP2 MSTORE PUSH1 0x20 ADD PUSH0 KECCAK256 DUP2 SWAP1 SSTORE POP DUP2 DUP4 PUSH20 0xFFFFFFFFFFFFFFFFFFFFFFFFFFFFFFFFFFFFFFFF AND DUP6 PUSH20 0xFFFFFFFFFFFFFFFFFFFFFFFFFFFFFFFFFFFFFFFF AND PUSH32 0xDDF252AD1BE2C89B69C2B068FC378DAA952BA7F163C4A11628F55A4DF523B3EF PUSH1 0x40 MLOAD PUSH1 0x40 MLOAD DUP1 SWAP2 SUB SWAP1 LOG4 DUP3 PUSH20 0xFFFFFFFFFFFFFFFFFFFFFFFFFFFFFFFFFFFFFFFF AND DUP5 PUSH20 0xFFFFFFFFFFFFFFFFFFFFFFFFFFFFFFFFFFFFFFFF AND PUSH32 0xE59FDD36D0D223C0C7D996DB7AD796880F45E1936CB0BB7AC102E7082E031487 PUSH2 0x10AC PUSH2 0x203C JUMP JUMPDEST PUSH1 0x40 MLOAD PUSH2 0x10B9 SWAP2 SWAP1 PUSH2 0x3053 JUMP JUMPDEST PUSH1 0x40 MLOAD DUP1 SWAP2 SUB SWAP1 LOG3 POP PUSH2 0x1201 JUMP JUMPDEST PUSH0 PUSH1 0x5 PUSH0 DUP6 PUSH20 0xFFFFFFFFFFFFFFFFFFFFFFFFFFFFFFFFFFFFFFFF AND PUSH20 0xFFFFFFFFFFFFFFFFFFFFFFFFFFFFFFFFFFFFFFFF AND DUP2 MSTORE PUSH1 0x20 ADD SWAP1 DUP2 MSTORE PUSH1 0x20 ADD PUSH0 KECCAK256 PUSH0 CALLER PUSH20 0xFFFFFFFFFFFFFFFFFFFFFFFFFFFFFFFFFFFFFFFF AND PUSH20 0xFFFFFFFFFFFFFFFFFFFFFFFFFFFFFFFFFFFFFFFF AND DUP2 MSTORE PUSH1 0x20 ADD SWAP1 DUP2 MSTORE PUSH1 0x20 ADD PUSH0 KECCAK256 SLOAD SWAP1 POP PUSH32 0xFFFFFFFFFFFFFFFFFFFFFFFFFFFFFFFFFFFFFFFFFFFFFFFFFFFFFFFFFFFFFFFF DUP2 EQ PUSH2 0x11F3 JUMPI DUP2 DUP2 PUSH2 0x1176 SWAP2 SWAP1 PUSH2 0x3781 JUMP JUMPDEST PUSH1 0x5 PUSH0 DUP7 PUSH20 0xFFFFFFFFFFFFFFFFFFFFFFFFFFFFFFFFFFFFFFFF AND PUSH20 0xFFFFFFFFFFFFFFFFFFFFFFFFFFFFFFFFFFFFFFFF AND DUP2 MSTORE PUSH1 0x20 ADD SWAP1 DUP2 MSTORE PUSH1 0x20 ADD PUSH0 KECCAK256 PUSH0 CALLER PUSH20 0xFFFFFFFFFFFFFFFFFFFFFFFFFFFFFFFFFFFFFFFF AND PUSH20 0xFFFFFFFFFFFFFFFFFFFFFFFFFFFFFFFFFFFFFFFF AND DUP2 MSTORE PUSH1 0x20 ADD SWAP1 DUP2 MSTORE PUSH1 0x20 ADD PUSH0 KECCAK256 DUP2 SWAP1 SSTORE POP JUMPDEST PUSH2 0x11FE DUP5 DUP5 DUP5 PUSH2 0x206F JUMP JUMPDEST POP POP JUMPDEST POP POP POP JUMP JUMPDEST PUSH0 DUP1 SLOAD SWAP1 PUSH2 0x100 EXP SWAP1 DIV PUSH20 0xFFFFFFFFFFFFFFFFFFFFFFFFFFFFFFFFFFFFFFFF AND PUSH20 0xFFFFFFFFFFFFFFFFFFFFFFFFFFFFFFFFFFFFFFFF AND CALLER PUSH20 0xFFFFFFFFFFFFFFFFFFFFFFFFFFFFFFFFFFFFFFFF AND EQ PUSH2 0x128A JUMPI PUSH1 0x40 MLOAD PUSH32 0x82B4290000000000000000000000000000000000000000000000000000000000 DUP2 MSTORE PUSH1 0x4 ADD PUSH1 0x40 MLOAD DUP1 SWAP2 SUB SWAP1 REVERT JUMPDEST PUSH0 DUP1 PUSH0 PUSH2 0x100 EXP DUP2 SLOAD DUP2 PUSH20 0xFFFFFFFFFFFFFFFFFFFFFFFFFFFFFFFFFFFFFFFF MUL NOT AND SWAP1 DUP4 PUSH20 0xFFFFFFFFFFFFFFFFFFFFFFFFFFFFFFFFFFFFFFFF AND MUL OR SWAP1 SSTORE POP PUSH0 PUSH20 0xFFFFFFFFFFFFFFFFFFFFFFFFFFFFFFFFFFFFFFFF AND CALLER PUSH20 0xFFFFFFFFFFFFFFFFFFFFFFFFFFFFFFFFFFFFFFFF AND PUSH32 0x8BE0079C531659141344CD1FD0A4F28419497F9722A3DAAFE3B4186F6B6457E0 PUSH1 0x40 MLOAD PUSH1 0x40 MLOAD DUP1 SWAP2 SUB SWAP1 LOG3 JUMP JUMPDEST PUSH32 0x0 DUP2 JUMP JUMPDEST PUSH2 0x1354 DUP4 DUP4 DUP4 PUSH2 0xA0F JUMP JUMPDEST PUSH0 DUP3 PUSH20 0xFFFFFFFFFFFFFFFFFFFFFFFFFFFFFFFFFFFFFFFF AND EXTCODESIZE EQ ISZERO DUP1 ISZERO PUSH2 0x143C JUMPI POP PUSH4 0x150B7A02 PUSH1 0xE0 SHL PUSH28 0xFFFFFFFFFFFFFFFFFFFFFFFFFFFFFFFFFFFFFFFFFFFFFFFFFFFFFFFF NOT AND DUP3 PUSH20 0xFFFFFFFFFFFFFFFFFFFFFFFFFFFFFFFFFFFFFFFF AND PUSH4 0x150B7A02 CALLER DUP7 DUP6 PUSH1 0x40 MLOAD DUP5 PUSH4 0xFFFFFFFF AND PUSH1 0xE0 SHL DUP2 MSTORE PUSH1 0x4 ADD PUSH2 0x13DA SWAP4 SWAP3 SWAP2 SWAP1 PUSH2 0x3841 JUMP JUMPDEST PUSH1 0x20 PUSH1 0x40 MLOAD DUP1 DUP4 SUB DUP2 PUSH0 DUP8 GAS CALL ISZERO DUP1 ISZERO PUSH2 0x13F6 JUMPI RETURNDATASIZE PUSH0 DUP1 RETURNDATACOPY RETURNDATASIZE PUSH0 REVERT JUMPDEST POP POP POP POP PUSH1 0x40 MLOAD RETURNDATASIZE PUSH1 0x1F NOT PUSH1 0x1F DUP3 ADD AND DUP3 ADD DUP1 PUSH1 0x40 MSTORE POP DUP2 ADD SWAP1 PUSH2 0x141A SWAP2 SWAP1 PUSH2 0x38DE JUMP JUMPDEST PUSH28 0xFFFFFFFFFFFFFFFFFFFFFFFFFFFFFFFFFFFFFFFFFFFFFFFFFFFFFFFF NOT AND EQ ISZERO JUMPDEST ISZERO PUSH2 0x1473 JUMPI PUSH1 0x40 MLOAD PUSH32 0x3DA6393100000000000000000000000000000000000000000000000000000000 DUP2 MSTORE PUSH1 0x4 ADD PUSH1 0x40 MLOAD DUP1 SWAP2 SUB SWAP1 REVERT JUMPDEST POP POP POP JUMP JUMPDEST PUSH1 0x3 SLOAD DUP2 JUMP JUMPDEST PUSH0 DUP1 SLOAD SWAP1 PUSH2 0x100 EXP SWAP1 DIV PUSH20 0xFFFFFFFFFFFFFFFFFFFFFFFFFFFFFFFFFFFFFFFF AND PUSH20 0xFFFFFFFFFFFFFFFFFFFFFFFFFFFFFFFFFFFFFFFF AND CALLER PUSH20 0xFFFFFFFFFFFFFFFFFFFFFFFFFFFFFFFFFFFFFFFF AND EQ PUSH2 0x1502 JUMPI PUSH1 0x40 MLOAD PUSH32 0x82B4290000000000000000000000000000000000000000000000000000000000 DUP2 MSTORE PUSH1 0x4 ADD PUSH1 0x40 MLOAD DUP1 SWAP2 SUB SWAP1 REVERT JUMPDEST PUSH2 0x150C DUP3 DUP3 PUSH2 0x23B3 JUMP JUMPDEST POP POP JUMP JUMPDEST PUSH0 DUP1 SLOAD SWAP1 PUSH2 0x100 EXP SWAP1 DIV PUSH20 0xFFFFFFFFFFFFFFFFFFFFFFFFFFFFFFFFFFFFFFFF AND PUSH20 0xFFFFFFFFFFFFFFFFFFFFFFFFFFFFFFFFFFFFFFFF AND CALLER PUSH20 0xFFFFFFFFFFFFFFFFFFFFFFFFFFFFFFFFFFFFFFFF AND EQ PUSH2 0x1594 JUMPI PUSH1 0x40 MLOAD PUSH32 0x82B4290000000000000000000000000000000000000000000000000000000000 DUP2 MSTORE PUSH1 0x4 ADD PUSH1 0x40 MLOAD DUP1 SWAP2 SUB SWAP1 REVERT JUMPDEST DUP1 PUSH1 0xB PUSH0 DUP5 PUSH20 0xFFFFFFFFFFFFFFFFFFFFFFFFFFFFFFFFFFFFFFFF AND PUSH20 0xFFFFFFFFFFFFFFFFFFFFFFFFFFFFFFFFFFFFFFFF AND DUP2 MSTORE PUSH1 0x20 ADD SWAP1 DUP2 MSTORE PUSH1 0x20 ADD PUSH0 KECCAK256 PUSH0 PUSH2 0x100 EXP DUP2 SLOAD DUP2 PUSH1 0xFF MUL NOT AND SWAP1 DUP4 ISZERO ISZERO MUL OR SWAP1 SSTORE POP POP POP JUMP JUMPDEST PUSH0 PUSH1 0x8 PUSH0 DUP4 DUP2 MSTORE PUSH1 0x20 ADD SWAP1 DUP2 MSTORE PUSH1 0x20 ADD PUSH0 KECCAK256 PUSH0 SWAP1 SLOAD SWAP1 PUSH2 0x100 EXP SWAP1 DIV PUSH20 0xFFFFFFFFFFFFFFFFFFFFFFFFFFFFFFFFFFFFFFFF AND SWAP1 POP PUSH0 PUSH20 0xFFFFFFFFFFFFFFFFFFFFFFFFFFFFFFFFFFFFFFFF AND DUP2 PUSH20 0xFFFFFFFFFFFFFFFFFFFFFFFFFFFFFFFFFFFFFFFF AND SUB PUSH2 0x1685 JUMPI PUSH1 0x40 MLOAD PUSH32 0xC5723B5100000000000000000000000000000000000000000000000000000000 DUP2 MSTORE PUSH1 0x4 ADD PUSH1 0x40 MLOAD DUP1 SWAP2 SUB SWAP1 REVERT JUMPDEST SWAP2 SWAP1 POP JUMP JUMPDEST PUSH1 0x4 PUSH1 0x20 MSTORE DUP1 PUSH0 MSTORE PUSH1 0x40 PUSH0 KECCAK256 PUSH0 SWAP2 POP SWAP1 POP SLOAD DUP2 JUMP JUMPDEST PUSH0 DUP1 SLOAD SWAP1 PUSH2 0x100 EXP SWAP1 DIV PUSH20 0xFFFFFFFFFFFFFFFFFFFFFFFFFFFFFFFFFFFFFFFF AND DUP2 JUMP JUMPDEST PUSH1 0x2 DUP1 SLOAD PUSH2 0x16CF SWAP1 PUSH2 0x34B8 JUMP JUMPDEST DUP1 PUSH1 0x1F ADD PUSH1 0x20 DUP1 SWAP2 DIV MUL PUSH1 0x20 ADD PUSH1 0x40 MLOAD SWAP1 DUP2 ADD PUSH1 0x40 MSTORE DUP1 SWAP3 SWAP2 SWAP1 DUP2 DUP2 MSTORE PUSH1 0x20 ADD DUP3 DUP1 SLOAD PUSH2 0x16FB SWAP1 PUSH2 0x34B8 JUMP JUMPDEST DUP1 ISZERO PUSH2 0x1746 JUMPI DUP1 PUSH1 0x1F LT PUSH2 0x171D JUMPI PUSH2 0x100 DUP1 DUP4 SLOAD DIV MUL DUP4 MSTORE SWAP2 PUSH1 0x20 ADD SWAP2 PUSH2 0x1746 JUMP JUMPDEST DUP3 ADD SWAP2 SWAP1 PUSH0 MSTORE PUSH1 0x20 PUSH0 KECCAK256 SWAP1 JUMPDEST DUP2 SLOAD DUP2 MSTORE SWAP1 PUSH1 0x1 ADD SWAP1 PUSH1 0x20 ADD DUP1 DUP4 GT PUSH2 0x1729 JUMPI DUP3 SWAP1 SUB PUSH1 0x1F AND DUP3 ADD SWAP2 JUMPDEST POP POP POP POP POP DUP2 JUMP JUMPDEST PUSH1 0xB PUSH1 0x20 MSTORE DUP1 PUSH0 MSTORE PUSH1 0x40 PUSH0 KECCAK256 PUSH0 SWAP2 POP SLOAD SWAP1 PUSH2 0x100 EXP SWAP1 DIV PUSH1 0xFF AND DUP2 JUMP JUMPDEST DUP1 PUSH1 0x7 PUSH0 CALLER PUSH20 0xFFFFFFFFFFFFFFFFFFFFFFFFFFFFFFFFFFFFFFFF AND PUSH20 0xFFFFFFFFFFFFFFFFFFFFFFFFFFFFFFFFFFFFFFFF AND DUP2 MSTORE PUSH1 0x20 ADD SWAP1 DUP2 MSTORE PUSH1 0x20 ADD PUSH0 KECCAK256 PUSH0 DUP5 PUSH20 0xFFFFFFFFFFFFFFFFFFFFFFFFFFFFFFFFFFFFFFFF AND PUSH20 0xFFFFFFFFFFFFFFFFFFFFFFFFFFFFFFFFFFFFFFFF AND DUP2 MSTORE PUSH1 0x20 ADD SWAP1 DUP2 MSTORE PUSH1 0x20 ADD PUSH0 KECCAK256 PUSH0 PUSH2 0x100 EXP DUP2 SLOAD DUP2 PUSH1 0xFF MUL NOT AND SWAP1 DUP4 ISZERO ISZERO MUL OR SWAP1 SSTORE POP DUP2 PUSH20 0xFFFFFFFFFFFFFFFFFFFFFFFFFFFFFFFFFFFFFFFF AND CALLER PUSH20 0xFFFFFFFFFFFFFFFFFFFFFFFFFFFFFFFFFFFFFFFF AND PUSH32 0x17307EAB39AB6107E8899845AD3D59BD9653F200F220920489CA2B5937696C31 DUP4 PUSH1 0x40 MLOAD PUSH2 0x1857 SWAP2 SWAP1 PUSH2 0x302B JUMP JUMPDEST PUSH1 0x40 MLOAD DUP1 SWAP2 SUB SWAP1 LOG3 POP POP JUMP JUMPDEST PUSH0 PUSH2 0x186F CALLER DUP5 DUP5 PUSH2 0x206F JUMP JUMPDEST SWAP1 POP SWAP3 SWAP2 POP POP JUMP JUMPDEST PUSH2 0x1882 DUP6 DUP6 DUP6 PUSH2 0xA0F JUMP JUMPDEST PUSH0 DUP5 PUSH20 0xFFFFFFFFFFFFFFFFFFFFFFFFFFFFFFFFFFFFFFFF AND EXTCODESIZE EQ ISZERO DUP1 ISZERO PUSH2 0x196E JUMPI POP PUSH4 0x150B7A02 PUSH1 0xE0 SHL PUSH28 0xFFFFFFFFFFFFFFFFFFFFFFFFFFFFFFFFFFFFFFFFFFFFFFFFFFFFFFFF NOT AND DUP5 PUSH20 0xFFFFFFFFFFFFFFFFFFFFFFFFFFFFFFFFFFFFFFFF AND PUSH4 0x150B7A02 CALLER DUP9 DUP8 DUP8 DUP8 PUSH1 0x40 MLOAD DUP7 PUSH4 0xFFFFFFFF AND PUSH1 0xE0 SHL DUP2 MSTORE PUSH1 0x4 ADD PUSH2 0x190C SWAP6 SWAP5 SWAP4 SWAP3 SWAP2 SWAP1 PUSH2 0x3935 JUMP JUMPDEST PUSH1 0x20 PUSH1 0x40 MLOAD DUP1 DUP4 SUB DUP2 PUSH0 DUP8 GAS CALL ISZERO DUP1 ISZERO PUSH2 0x1928 JUMPI RETURNDATASIZE PUSH0 DUP1 RETURNDATACOPY RETURNDATASIZE PUSH0 REVERT JUMPDEST POP POP POP POP PUSH1 0x40 MLOAD RETURNDATASIZE PUSH1 0x1F NOT PUSH1 0x1F DUP3 ADD AND DUP3 ADD DUP1 PUSH1 0x40 MSTORE POP DUP2 ADD SWAP1 PUSH2 0x194C SWAP2 SWAP1 PUSH2 0x38DE JUMP JUMPDEST PUSH28 0xFFFFFFFFFFFFFFFFFFFFFFFFFFFFFFFFFFFFFFFFFFFFFFFFFFFFFFFF NOT AND EQ ISZERO JUMPDEST ISZERO PUSH2 0x19A5 JUMPI PUSH1 0x40 MLOAD PUSH32 0x3DA6393100000000000000000000000000000000000000000000000000000000 DUP2 MSTORE PUSH1 0x4 ADD PUSH1 0x40 MLOAD DUP1 SWAP2 SUB SWAP1 REVERT JUMPDEST POP POP POP POP POP JUMP JUMPDEST PUSH0 DUP1 SLOAD SWAP1 PUSH2 0x100 EXP SWAP1 DIV PUSH20 0xFFFFFFFFFFFFFFFFFFFFFFFFFFFFFFFFFFFFFFFF AND PUSH20 0xFFFFFFFFFFFFFFFFFFFFFFFFFFFFFFFFFFFFFFFF AND CALLER PUSH20 0xFFFFFFFFFFFFFFFFFFFFFFFFFFFFFFFFFFFFFFFF AND EQ PUSH2 0x1A30 JUMPI PUSH1 0x40 MLOAD PUSH32 0x82B4290000000000000000000000000000000000000000000000000000000000 DUP2 MSTORE PUSH1 0x4 ADD PUSH1 0x40 MLOAD DUP1 SWAP2 SUB SWAP1 REVERT JUMPDEST DUP1 PUSH1 0xE SWAP1 DUP2 PUSH2 0x1A3F SWAP2 SWAP1 PUSH2 0x3685 JUMP JUMPDEST POP POP JUMP JUMPDEST PUSH1 0x60 PUSH0 PUSH1 0xD DUP1 SLOAD PUSH2 0x1A53 SWAP1 PUSH2 0x34B8 JUMP JUMPDEST SWAP1 POP GT ISZERO PUSH2 0x1A8D JUMPI PUSH1 0xD PUSH2 0x1A66 DUP4 PUSH2 0x23D7 JUMP JUMPDEST PUSH1 0x40 MLOAD PUSH1 0x20 ADD PUSH2 0x1A77 SWAP3 SWAP2 SWAP1 PUSH2 0x3A3B JUMP JUMPDEST PUSH1 0x40 MLOAD PUSH1 0x20 DUP2 DUP4 SUB SUB DUP2 MSTORE SWAP1 PUSH1 0x40 MSTORE SWAP1 POP PUSH2 0x1C2D JUMP JUMPDEST PUSH0 PUSH2 0x1A97 DUP4 PUSH2 0x24A1 JUMP JUMPDEST PUSH0 PUSH1 0x2 DUP2 LT PUSH2 0x1AA9 JUMPI PUSH2 0x1AA8 PUSH2 0x37B4 JUMP JUMPDEST JUMPDEST PUSH1 0x20 MUL ADD MLOAD SWAP1 POP PUSH0 PUSH2 0x1ABA DUP5 PUSH2 0x24A1 JUMP JUMPDEST PUSH1 0x1 PUSH1 0x2 DUP2 LT PUSH2 0x1ACD JUMPI PUSH2 0x1ACC PUSH2 0x37B4 JUMP JUMPDEST JUMPDEST PUSH1 0x20 MUL ADD MLOAD SWAP1 POP PUSH0 PUSH1 0x1 PUSH2 0x1AE0 DUP7 PUSH2 0x23D7 JUMP JUMPDEST PUSH1 0x40 MLOAD PUSH1 0x20 ADD PUSH2 0x1AF1 SWAP3 SWAP2 SWAP1 PUSH2 0x3AAA JUMP JUMPDEST PUSH1 0x40 MLOAD PUSH1 0x20 DUP2 DUP4 SUB SUB DUP2 MSTORE SWAP1 PUSH1 0x40 MSTORE PUSH1 0xE PUSH1 0x40 MLOAD PUSH1 0x20 ADD PUSH2 0x1B13 SWAP3 SWAP2 SWAP1 PUSH2 0x3B81 JUMP JUMPDEST PUSH1 0x40 MLOAD PUSH1 0x20 DUP2 DUP4 SUB SUB DUP2 MSTORE SWAP1 PUSH1 0x40 MSTORE PUSH1 0xC DUP5 PUSH1 0x40 MLOAD PUSH1 0x20 ADD PUSH2 0x1B36 SWAP3 SWAP2 SWAP1 PUSH2 0x3A3B JUMP JUMPDEST PUSH1 0x40 MLOAD PUSH1 0x20 DUP2 DUP4 SUB SUB DUP2 MSTORE SWAP1 PUSH1 0x40 MSTORE PUSH1 0x40 MLOAD PUSH1 0x20 ADD PUSH2 0x1B56 SWAP3 SWAP2 SWAP1 PUSH2 0x3BBE JUMP JUMPDEST PUSH1 0x40 MLOAD PUSH1 0x20 DUP2 DUP4 SUB SUB DUP2 MSTORE SWAP1 PUSH1 0x40 MSTORE SWAP1 POP PUSH0 DUP3 PUSH1 0x40 MLOAD PUSH1 0x20 ADD PUSH2 0x1B79 SWAP2 SWAP1 PUSH2 0x3C51 JUMP JUMPDEST PUSH1 0x40 MLOAD PUSH1 0x20 DUP2 DUP4 SUB SUB DUP2 MSTORE SWAP1 PUSH1 0x40 MSTORE SWAP1 POP PUSH0 PUSH1 0x40 MLOAD DUP1 PUSH1 0x40 ADD PUSH1 0x40 MSTORE DUP1 PUSH1 0x4 DUP2 MSTORE PUSH1 0x20 ADD PUSH32 0x227D5D7D00000000000000000000000000000000000000000000000000000000 DUP2 MSTORE POP SWAP1 POP DUP3 DUP3 PUSH1 0x40 MLOAD PUSH1 0x20 ADD PUSH2 0x1BD6 SWAP3 SWAP2 SWAP1 PUSH2 0x3BBE JUMP JUMPDEST PUSH1 0x40 MLOAD PUSH1 0x20 DUP2 DUP4 SUB SUB DUP2 MSTORE SWAP1 PUSH1 0x40 MSTORE DUP2 PUSH1 0x40 MLOAD PUSH1 0x20 ADD PUSH2 0x1BF7 SWAP3 SWAP2 SWAP1 PUSH2 0x3BBE JUMP JUMPDEST PUSH1 0x40 MLOAD PUSH1 0x20 DUP2 DUP4 SUB SUB DUP2 MSTORE SWAP1 PUSH1 0x40 MSTORE PUSH1 0x40 MLOAD PUSH1 0x20 ADD PUSH2 0x1C16 SWAP2 SWAP1 PUSH2 0x3C98 JUMP JUMPDEST PUSH1 0x40 MLOAD PUSH1 0x20 DUP2 DUP4 SUB SUB DUP2 MSTORE SWAP1 PUSH1 0x40 MSTORE SWAP6 POP POP POP POP POP POP JUMPDEST SWAP2 SWAP1 POP JUMP JUMPDEST PUSH1 0xD DUP1 SLOAD PUSH2 0x1C3F SWAP1 PUSH2 0x34B8 JUMP JUMPDEST DUP1 PUSH1 0x1F ADD PUSH1 0x20 DUP1 SWAP2 DIV MUL PUSH1 0x20 ADD PUSH1 0x40 MLOAD SWAP1 DUP2 ADD PUSH1 0x40 MSTORE DUP1 SWAP3 SWAP2 SWAP1 DUP2 DUP2 MSTORE PUSH1 0x20 ADD DUP3 DUP1 SLOAD PUSH2 0x1C6B SWAP1 PUSH2 0x34B8 JUMP JUMPDEST DUP1 ISZERO PUSH2 0x1CB6 JUMPI DUP1 PUSH1 0x1F LT PUSH2 0x1C8D JUMPI PUSH2 0x100 DUP1 DUP4 SLOAD DIV MUL DUP4 MSTORE SWAP2 PUSH1 0x20 ADD SWAP2 PUSH2 0x1CB6 JUMP JUMPDEST DUP3 ADD SWAP2 SWAP1 PUSH0 MSTORE PUSH1 0x20 PUSH0 KECCAK256 SWAP1 JUMPDEST DUP2 SLOAD DUP2 MSTORE SWAP1 PUSH1 0x1 ADD SWAP1 PUSH1 0x20 ADD DUP1 DUP4 GT PUSH2 0x1C99 JUMPI DUP3 SWAP1 SUB PUSH1 0x1F AND DUP3 ADD SWAP2 JUMPDEST POP POP POP POP POP DUP2 JUMP JUMPDEST PUSH1 0x5 PUSH1 0x20 MSTORE DUP2 PUSH0 MSTORE PUSH1 0x40 PUSH0 KECCAK256 PUSH1 0x20 MSTORE DUP1 PUSH0 MSTORE PUSH1 0x40 PUSH0 KECCAK256 PUSH0 SWAP2 POP SWAP2 POP POP SLOAD DUP2 JUMP JUMPDEST PUSH0 DUP1 SLOAD SWAP1 PUSH2 0x100 EXP SWAP1 DIV PUSH20 0xFFFFFFFFFFFFFFFFFFFFFFFFFFFFFFFFFFFFFFFF AND PUSH20 0xFFFFFFFFFFFFFFFFFFFFFFFFFFFFFFFFFFFFFFFF AND CALLER PUSH20 0xFFFFFFFFFFFFFFFFFFFFFFFFFFFFFFFFFFFFFFFF AND EQ PUSH2 0x1D62 JUMPI PUSH1 0x40 MLOAD PUSH32 0x82B4290000000000000000000000000000000000000000000000000000000000 DUP2 MSTORE PUSH1 0x4 ADD PUSH1 0x40 MLOAD DUP1 SWAP2 SUB SWAP1 REVERT JUMPDEST DUP1 PUSH1 0xD SWAP1 DUP2 PUSH2 0x1D71 SWAP2 SWAP1 PUSH2 0x3685 JUMP JUMPDEST POP POP JUMP JUMPDEST PUSH1 0x7 PUSH1 0x20 MSTORE DUP2 PUSH0 MSTORE PUSH1 0x40 PUSH0 KECCAK256 PUSH1 0x20 MSTORE DUP1 PUSH0 MSTORE PUSH1 0x40 PUSH0 KECCAK256 PUSH0 SWAP2 POP SWAP2 POP SWAP1 SLOAD SWAP1 PUSH2 0x100 EXP SWAP1 DIV PUSH1 0xFF AND DUP2 JUMP JUMPDEST PUSH1 0xE DUP1 SLOAD PUSH2 0x1DAC SWAP1 PUSH2 0x34B8 JUMP JUMPDEST DUP1 PUSH1 0x1F ADD PUSH1 0x20 DUP1 SWAP2 DIV MUL PUSH1 0x20 ADD PUSH1 0x40 MLOAD SWAP1 DUP2 ADD PUSH1 0x40 MSTORE DUP1 SWAP3 SWAP2 SWAP1 DUP2 DUP2 MSTORE PUSH1 0x20 ADD DUP3 DUP1 SLOAD PUSH2 0x1DD8 SWAP1 PUSH2 0x34B8 JUMP JUMPDEST DUP1 ISZERO PUSH2 0x1E23 JUMPI DUP1 PUSH1 0x1F LT PUSH2 0x1DFA JUMPI PUSH2 0x100 DUP1 DUP4 SLOAD DIV MUL DUP4 MSTORE SWAP2 PUSH1 0x20 ADD SWAP2 PUSH2 0x1E23 JUMP JUMPDEST DUP3 ADD SWAP2 SWAP1 PUSH0 MSTORE PUSH1 0x20 PUSH0 KECCAK256 SWAP1 JUMPDEST DUP2 SLOAD DUP2 MSTORE SWAP1 PUSH1 0x1 ADD SWAP1 PUSH1 0x20 ADD DUP1 DUP4 GT PUSH2 0x1E06 JUMPI DUP3 SWAP1 SUB PUSH1 0x1F AND DUP3 ADD SWAP2 JUMPDEST POP POP POP POP POP DUP2 JUMP JUMPDEST PUSH1 0xC DUP1 SLOAD PUSH2 0x1E38 SWAP1 PUSH2 0x34B8 JUMP JUMPDEST DUP1 PUSH1 0x1F ADD PUSH1 0x20 DUP1 SWAP2 DIV MUL PUSH1 0x20 ADD PUSH1 0x40 MLOAD SWAP1 DUP2 ADD PUSH1 0x40 MSTORE DUP1 SWAP3 SWAP2 SWAP1 DUP2 DUP2 MSTORE PUSH1 0x20 ADD DUP3 DUP1 SLOAD PUSH2 0x1E64 SWAP1 PUSH2 0x34B8 JUMP JUMPDEST DUP1 ISZERO PUSH2 0x1EAF JUMPI DUP1 PUSH1 0x1F LT PUSH2 0x1E86 JUMPI PUSH2 0x100 DUP1 DUP4 SLOAD DIV MUL DUP4 MSTORE SWAP2 PUSH1 0x20 ADD SWAP2 PUSH2 0x1EAF JUMP JUMPDEST DUP3 ADD SWAP2 SWAP1 PUSH0 MSTORE PUSH1 0x20 PUSH0 KECCAK256 SWAP1 JUMPDEST DUP2 SLOAD DUP2 MSTORE SWAP1 PUSH1 0x1 ADD SWAP1 PUSH1 0x20 ADD DUP1 DUP4 GT PUSH2 0x1E92 JUMPI DUP3 SWAP1 SUB PUSH1 0x1F AND DUP3 ADD SWAP2 JUMPDEST POP POP POP POP POP DUP2 JUMP JUMPDEST PUSH0 DUP1 SLOAD SWAP1 PUSH2 0x100 EXP SWAP1 DIV PUSH20 0xFFFFFFFFFFFFFFFFFFFFFFFFFFFFFFFFFFFFFFFF AND PUSH20 0xFFFFFFFFFFFFFFFFFFFFFFFFFFFFFFFFFFFFFFFF AND CALLER PUSH20 0xFFFFFFFFFFFFFFFFFFFFFFFFFFFFFFFFFFFFFFFF AND EQ PUSH2 0x1F3B JUMPI PUSH1 0x40 MLOAD PUSH32 0x82B4290000000000000000000000000000000000000000000000000000000000 DUP2 MSTORE PUSH1 0x4 ADD PUSH1 0x40 MLOAD DUP1 SWAP2 SUB SWAP1 REVERT JUMPDEST PUSH0 PUSH20 0xFFFFFFFFFFFFFFFFFFFFFFFFFFFFFFFFFFFFFFFF AND DUP2 PUSH20 0xFFFFFFFFFFFFFFFFFFFFFFFFFFFFFFFFFFFFFFFF AND SUB PUSH2 0x1FA0 JUMPI PUSH1 0x40 MLOAD PUSH32 0x49E27CFF00000000000000000000000000000000000000000000000000000000 DUP2 MSTORE PUSH1 0x4 ADD PUSH1 0x40 MLOAD DUP1 SWAP2 SUB SWAP1 REVERT JUMPDEST DUP1 PUSH0 DUP1 PUSH2 0x100 EXP DUP2 SLOAD DUP2 PUSH20 0xFFFFFFFFFFFFFFFFFFFFFFFFFFFFFFFFFFFFFFFF MUL NOT AND SWAP1 DUP4 PUSH20 0xFFFFFFFFFFFFFFFFFFFFFFFFFFFFFFFFFFFFFFFF AND MUL OR SWAP1 SSTORE POP DUP1 PUSH20 0xFFFFFFFFFFFFFFFFFFFFFFFFFFFFFFFFFFFFFFFF AND CALLER PUSH20 0xFFFFFFFFFFFFFFFFFFFFFFFFFFFFFFFFFFFFFFFF AND PUSH32 0x8BE0079C531659141344CD1FD0A4F28419497F9722A3DAAFE3B4186F6B6457E0 PUSH1 0x40 MLOAD PUSH1 0x40 MLOAD DUP1 SWAP2 SUB SWAP1 LOG3 POP JUMP JUMPDEST PUSH0 PUSH32 0x0 PUSH1 0xA PUSH2 0x206A SWAP2 SWAP1 PUSH2 0x3DEC JUMP JUMPDEST SWAP1 POP SWAP1 JUMP JUMPDEST PUSH0 DUP1 PUSH2 0x2079 PUSH2 0x203C JUMP JUMPDEST SWAP1 POP PUSH0 PUSH1 0x4 PUSH0 DUP8 PUSH20 0xFFFFFFFFFFFFFFFFFFFFFFFFFFFFFFFFFFFFFFFF AND PUSH20 0xFFFFFFFFFFFFFFFFFFFFFFFFFFFFFFFFFFFFFFFF AND DUP2 MSTORE PUSH1 0x20 ADD SWAP1 DUP2 MSTORE PUSH1 0x20 ADD PUSH0 KECCAK256 SLOAD SWAP1 POP PUSH0 PUSH1 0x4 PUSH0 DUP8 PUSH20 0xFFFFFFFFFFFFFFFFFFFFFFFFFFFFFFFFFFFFFFFF AND PUSH20 0xFFFFFFFFFFFFFFFFFFFFFFFFFFFFFFFFFFFFFFFF AND DUP2 MSTORE PUSH1 0x20 ADD SWAP1 DUP2 MSTORE PUSH1 0x20 ADD PUSH0 KECCAK256 SLOAD SWAP1 POP DUP5 PUSH1 0x4 PUSH0 DUP10 PUSH20 0xFFFFFFFFFFFFFFFFFFFFFFFFFFFFFFFFFFFFFFFF AND PUSH20 0xFFFFFFFFFFFFFFFFFFFFFFFFFFFFFFFFFFFFFFFF AND DUP2 MSTORE PUSH1 0x20 ADD SWAP1 DUP2 MSTORE PUSH1 0x20 ADD PUSH0 KECCAK256 PUSH0 DUP3 DUP3 SLOAD PUSH2 0x2149 SWAP2 SWAP1 PUSH2 0x3781 JUMP JUMPDEST SWAP3 POP POP DUP2 SWAP1 SSTORE POP DUP5 PUSH1 0x4 PUSH0 DUP9 PUSH20 0xFFFFFFFFFFFFFFFFFFFFFFFFFFFFFFFFFFFFFFFF AND PUSH20 0xFFFFFFFFFFFFFFFFFFFFFFFFFFFFFFFFFFFFFFFF AND DUP2 MSTORE PUSH1 0x20 ADD SWAP1 DUP2 MSTORE PUSH1 0x20 ADD PUSH0 KECCAK256 PUSH0 DUP3 DUP3 SLOAD ADD SWAP3 POP POP DUP2 SWAP1 SSTORE POP PUSH1 0xB PUSH0 DUP9 PUSH20 0xFFFFFFFFFFFFFFFFFFFFFFFFFFFFFFFFFFFFFFFF AND PUSH20 0xFFFFFFFFFFFFFFFFFFFFFFFFFFFFFFFFFFFFFFFF AND DUP2 MSTORE PUSH1 0x20 ADD SWAP1 DUP2 MSTORE PUSH1 0x20 ADD PUSH0 KECCAK256 PUSH0 SWAP1 SLOAD SWAP1 PUSH2 0x100 EXP SWAP1 DIV PUSH1 0xFF AND PUSH2 0x226D JUMPI PUSH0 DUP4 PUSH1 0x4 PUSH0 DUP11 PUSH20 0xFFFFFFFFFFFFFFFFFFFFFFFFFFFFFFFFFFFFFFFF AND PUSH20 0xFFFFFFFFFFFFFFFFFFFFFFFFFFFFFFFFFFFFFFFF AND DUP2 MSTORE PUSH1 0x20 ADD SWAP1 DUP2 MSTORE PUSH1 0x20 ADD PUSH0 KECCAK256 SLOAD PUSH2 0x2232 SWAP2 SWAP1 PUSH2 0x3E63 JUMP JUMPDEST DUP5 DUP5 PUSH2 0x223E SWAP2 SWAP1 PUSH2 0x3E63 JUMP JUMPDEST PUSH2 0x2248 SWAP2 SWAP1 PUSH2 0x3781 JUMP JUMPDEST SWAP1 POP PUSH0 JUMPDEST DUP2 DUP2 LT ISZERO PUSH2 0x226A JUMPI PUSH2 0x225D DUP10 PUSH2 0x27F9 JUMP JUMPDEST DUP1 DUP1 PUSH1 0x1 ADD SWAP2 POP POP PUSH2 0x224C JUMP JUMPDEST POP POP JUMPDEST PUSH1 0xB PUSH0 DUP8 PUSH20 0xFFFFFFFFFFFFFFFFFFFFFFFFFFFFFFFFFFFFFFFF AND PUSH20 0xFFFFFFFFFFFFFFFFFFFFFFFFFFFFFFFFFFFFFFFF AND DUP2 MSTORE PUSH1 0x20 ADD SWAP1 DUP2 MSTORE PUSH1 0x20 ADD PUSH0 KECCAK256 PUSH0 SWAP1 SLOAD SWAP1 PUSH2 0x100 EXP SWAP1 DIV PUSH1 0xFF AND PUSH2 0x2340 JUMPI PUSH0 DUP4 DUP3 PUSH2 0x22C8 SWAP2 SWAP1 PUSH2 0x3E63 JUMP JUMPDEST DUP5 PUSH1 0x4 PUSH0 DUP11 PUSH20 0xFFFFFFFFFFFFFFFFFFFFFFFFFFFFFFFFFFFFFFFF AND PUSH20 0xFFFFFFFFFFFFFFFFFFFFFFFFFFFFFFFFFFFFFFFF AND DUP2 MSTORE PUSH1 0x20 ADD SWAP1 DUP2 MSTORE PUSH1 0x20 ADD PUSH0 KECCAK256 SLOAD PUSH2 0x2311 SWAP2 SWAP1 PUSH2 0x3E63 JUMP JUMPDEST PUSH2 0x231B SWAP2 SWAP1 PUSH2 0x3781 JUMP JUMPDEST SWAP1 POP PUSH0 JUMPDEST DUP2 DUP2 LT ISZERO PUSH2 0x233D JUMPI PUSH2 0x2330 DUP9 PUSH2 0x2A3E JUMP JUMPDEST DUP1 DUP1 PUSH1 0x1 ADD SWAP2 POP POP PUSH2 0x231F JUMP JUMPDEST POP POP JUMPDEST DUP6 PUSH20 0xFFFFFFFFFFFFFFFFFFFFFFFFFFFFFFFFFFFFFFFF AND DUP8 PUSH20 0xFFFFFFFFFFFFFFFFFFFFFFFFFFFFFFFFFFFFFFFF AND PUSH32 0xE59FDD36D0D223C0C7D996DB7AD796880F45E1936CB0BB7AC102E7082E031487 DUP8 PUSH1 0x40 MLOAD PUSH2 0x239D SWAP2 SWAP1 PUSH2 0x3053 JUMP JUMPDEST PUSH1 0x40 MLOAD DUP1 SWAP2 SUB SWAP1 LOG3 PUSH1 0x1 SWAP4 POP POP POP POP SWAP4 SWAP3 POP POP POP JUMP JUMPDEST DUP2 PUSH1 0x1 SWAP1 DUP2 PUSH2 0x23C2 SWAP2 SWAP1 PUSH2 0x3685 JUMP JUMPDEST POP DUP1 PUSH1 0x2 SWAP1 DUP2 PUSH2 0x23D2 SWAP2 SWAP1 PUSH2 0x3685 JUMP JUMPDEST POP POP POP JUMP JUMPDEST PUSH1 0x60 PUSH0 PUSH1 0x1 PUSH2 0x23E5 DUP5 PUSH2 0x2CC0 JUMP JUMPDEST ADD SWAP1 POP PUSH0 DUP2 PUSH8 0xFFFFFFFFFFFFFFFF DUP2 GT ISZERO PUSH2 0x2403 JUMPI PUSH2 0x2402 PUSH2 0x3074 JUMP JUMPDEST JUMPDEST PUSH1 0x40 MLOAD SWAP1 DUP1 DUP3 MSTORE DUP1 PUSH1 0x1F ADD PUSH1 0x1F NOT AND PUSH1 0x20 ADD DUP3 ADD PUSH1 0x40 MSTORE DUP1 ISZERO PUSH2 0x2435 JUMPI DUP2 PUSH1 0x20 ADD PUSH1 0x1 DUP3 MUL DUP1 CALLDATASIZE DUP4 CALLDATACOPY DUP1 DUP3 ADD SWAP2 POP POP SWAP1 POP JUMPDEST POP SWAP1 POP PUSH0 DUP3 PUSH1 0x20 ADD DUP3 ADD SWAP1 POP JUMPDEST PUSH1 0x1 ISZERO PUSH2 0x2496 JUMPI DUP1 DUP1 PUSH1 0x1 SWAP1 SUB SWAP2 POP POP PUSH32 0x3031323334353637383961626364656600000000000000000000000000000000 PUSH1 0xA DUP7 MOD BYTE DUP2 MSTORE8 PUSH1 0xA DUP6 DUP2 PUSH2 0x248B JUMPI PUSH2 0x248A PUSH2 0x3E36 JUMP JUMPDEST JUMPDEST DIV SWAP5 POP PUSH0 DUP6 SUB PUSH2 0x2442 JUMPI JUMPDEST DUP2 SWAP4 POP POP POP POP SWAP2 SWAP1 POP JUMP JUMPDEST PUSH2 0x24A9 PUSH2 0x2E11 JUMP JUMPDEST PUSH0 DUP3 PUSH1 0x40 MLOAD PUSH1 0x20 ADD PUSH2 0x24BB SWAP2 SWAP1 PUSH2 0x3EB3 JUMP JUMPDEST PUSH1 0x40 MLOAD PUSH1 0x20 DUP2 DUP4 SUB SUB DUP2 MSTORE SWAP1 PUSH1 0x40 MSTORE DUP1 MLOAD SWAP1 PUSH1 0x20 ADD KECCAK256 PUSH1 0xF8 SHR SWAP1 POP PUSH1 0x60 DUP1 PUSH1 0x64 DUP4 PUSH1 0xFF AND GT PUSH2 0x2559 JUMPI PUSH1 0x40 MLOAD DUP1 PUSH1 0x40 ADD PUSH1 0x40 MSTORE DUP1 PUSH1 0x5 DUP2 MSTORE PUSH1 0x20 ADD PUSH32 0x312E6A7067000000000000000000000000000000000000000000000000000000 DUP2 MSTORE POP SWAP2 POP PUSH1 0x40 MLOAD DUP1 PUSH1 0x40 ADD PUSH1 0x40 MSTORE DUP1 PUSH1 0x3 DUP2 MSTORE PUSH1 0x20 ADD PUSH32 0x7265640000000000000000000000000000000000000000000000000000000000 DUP2 MSTORE POP SWAP1 POP PUSH2 0x27DA JUMP JUMPDEST PUSH1 0x82 DUP4 PUSH1 0xFF AND GT PUSH2 0x25D9 JUMPI PUSH1 0x40 MLOAD DUP1 PUSH1 0x40 ADD PUSH1 0x40 MSTORE DUP1 PUSH1 0x5 DUP2 MSTORE PUSH1 0x20 ADD PUSH32 0x322E6A7067000000000000000000000000000000000000000000000000000000 DUP2 MSTORE POP SWAP2 POP PUSH1 0x40 MLOAD DUP1 PUSH1 0x40 ADD PUSH1 0x40 MSTORE DUP1 PUSH1 0x6 DUP2 MSTORE PUSH1 0x20 ADD PUSH32 0x6F72656E67650000000000000000000000000000000000000000000000000000 DUP2 MSTORE POP SWAP1 POP PUSH2 0x27D9 JUMP JUMPDEST PUSH1 0xA0 DUP4 PUSH1 0xFF AND GT PUSH2 0x2659 JUMPI PUSH1 0x40 MLOAD DUP1 PUSH1 0x40 ADD PUSH1 0x40 MSTORE DUP1 PUSH1 0x5 DUP2 MSTORE PUSH1 0x20 ADD PUSH32 0x332E6A7067000000000000000000000000000000000000000000000000000000 DUP2 MSTORE POP SWAP2 POP PUSH1 0x40 MLOAD DUP1 PUSH1 0x40 ADD PUSH1 0x40 MSTORE DUP1 PUSH1 0x6 DUP2 MSTORE PUSH1 0x20 ADD PUSH32 0x79656C6C6F770000000000000000000000000000000000000000000000000000 DUP2 MSTORE POP SWAP1 POP PUSH2 0x27D8 JUMP JUMPDEST PUSH1 0xBE DUP4 PUSH1 0xFF AND GT PUSH2 0x26D9 JUMPI PUSH1 0x40 MLOAD DUP1 PUSH1 0x40 ADD PUSH1 0x40 MSTORE DUP1 PUSH1 0x5 DUP2 MSTORE PUSH1 0x20 ADD PUSH32 0x342E6A7067000000000000000000000000000000000000000000000000000000 DUP2 MSTORE POP SWAP2 POP PUSH1 0x40 MLOAD DUP1 PUSH1 0x40 ADD PUSH1 0x40 MSTORE DUP1 PUSH1 0x5 DUP2 MSTORE PUSH1 0x20 ADD PUSH32 0x677265656E000000000000000000000000000000000000000000000000000000 DUP2 MSTORE POP SWAP1 POP PUSH2 0x27D7 JUMP JUMPDEST PUSH1 0xDC DUP4 PUSH1 0xFF AND GT PUSH2 0x2759 JUMPI PUSH1 0x40 MLOAD DUP1 PUSH1 0x40 ADD PUSH1 0x40 MSTORE DUP1 PUSH1 0x5 DUP2 MSTORE PUSH1 0x20 ADD PUSH32 0x352E6A7067000000000000000000000000000000000000000000000000000000 DUP2 MSTORE POP SWAP2 POP PUSH1 0x40 MLOAD DUP1 PUSH1 0x40 ADD PUSH1 0x40 MSTORE DUP1 PUSH1 0x4 DUP2 MSTORE PUSH1 0x20 ADD PUSH32 0x626C756500000000000000000000000000000000000000000000000000000000 DUP2 MSTORE POP SWAP1 POP PUSH2 0x27D6 JUMP JUMPDEST PUSH1 0xFF DUP4 PUSH1 0xFF AND GT PUSH2 0x27D5 JUMPI PUSH1 0x40 MLOAD DUP1 PUSH1 0x40 ADD PUSH1 0x40 MSTORE DUP1 PUSH1 0x5 DUP2 MSTORE PUSH1 0x20 ADD PUSH32 0x362E6A7067000000000000000000000000000000000000000000000000000000 DUP2 MSTORE POP SWAP2 POP PUSH1 0x40 MLOAD DUP1 PUSH1 0x40 ADD PUSH1 0x40 MSTORE DUP1 PUSH1 0x6 DUP2 MSTORE PUSH1 0x20 ADD PUSH32 0x707572706C650000000000000000000000000000000000000000000000000000 DUP2 MSTORE POP SWAP1 POP JUMPDEST JUMPDEST JUMPDEST JUMPDEST JUMPDEST JUMPDEST PUSH1 0x40 MLOAD DUP1 PUSH1 0x40 ADD PUSH1 0x40 MSTORE DUP1 DUP4 DUP2 MSTORE PUSH1 0x20 ADD DUP3 DUP2 MSTORE POP SWAP4 POP POP POP POP SWAP2 SWAP1 POP JUMP JUMPDEST PUSH0 PUSH20 0xFFFFFFFFFFFFFFFFFFFFFFFFFFFFFFFFFFFFFFFF AND DUP2 PUSH20 0xFFFFFFFFFFFFFFFFFFFFFFFFFFFFFFFFFFFFFFFF AND SUB PUSH2 0x285E JUMPI PUSH1 0x40 MLOAD PUSH32 0xDDB5DE5E00000000000000000000000000000000000000000000000000000000 DUP2 MSTORE PUSH1 0x4 ADD PUSH1 0x40 MLOAD DUP1 SWAP2 SUB SWAP1 REVERT JUMPDEST PUSH0 PUSH1 0x9 PUSH0 DUP4 PUSH20 0xFFFFFFFFFFFFFFFFFFFFFFFFFFFFFFFFFFFFFFFF AND PUSH20 0xFFFFFFFFFFFFFFFFFFFFFFFFFFFFFFFFFFFFFFFF AND DUP2 MSTORE PUSH1 0x20 ADD SWAP1 DUP2 MSTORE PUSH1 0x20 ADD PUSH0 KECCAK256 PUSH1 0x1 PUSH1 0x9 PUSH0 DUP6 PUSH20 0xFFFFFFFFFFFFFFFFFFFFFFFFFFFFFFFFFFFFFFFF AND PUSH20 0xFFFFFFFFFFFFFFFFFFFFFFFFFFFFFFFFFFFFFFFF AND DUP2 MSTORE PUSH1 0x20 ADD SWAP1 DUP2 MSTORE PUSH1 0x20 ADD PUSH0 KECCAK256 DUP1 SLOAD SWAP1 POP PUSH2 0x28E9 SWAP2 SWAP1 PUSH2 0x3781 JUMP JUMPDEST DUP2 SLOAD DUP2 LT PUSH2 0x28FA JUMPI PUSH2 0x28F9 PUSH2 0x37B4 JUMP JUMPDEST JUMPDEST SWAP1 PUSH0 MSTORE PUSH1 0x20 PUSH0 KECCAK256 ADD SLOAD SWAP1 POP PUSH1 0x9 PUSH0 DUP4 PUSH20 0xFFFFFFFFFFFFFFFFFFFFFFFFFFFFFFFFFFFFFFFF AND PUSH20 0xFFFFFFFFFFFFFFFFFFFFFFFFFFFFFFFFFFFFFFFF AND DUP2 MSTORE PUSH1 0x20 ADD SWAP1 DUP2 MSTORE PUSH1 0x20 ADD PUSH0 KECCAK256 DUP1 SLOAD DUP1 PUSH2 0x2952 JUMPI PUSH2 0x2951 PUSH2 0x37E1 JUMP JUMPDEST JUMPDEST PUSH1 0x1 SWAP1 SUB DUP2 DUP2 SWAP1 PUSH0 MSTORE PUSH1 0x20 PUSH0 KECCAK256 ADD PUSH0 SWAP1 SSTORE SWAP1 SSTORE PUSH1 0xA PUSH0 DUP3 DUP2 MSTORE PUSH1 0x20 ADD SWAP1 DUP2 MSTORE PUSH1 0x20 ADD PUSH0 KECCAK256 PUSH0 SWAP1 SSTORE PUSH1 0x8 PUSH0 DUP3 DUP2 MSTORE PUSH1 0x20 ADD SWAP1 DUP2 MSTORE PUSH1 0x20 ADD PUSH0 KECCAK256 PUSH0 PUSH2 0x100 EXP DUP2 SLOAD SWAP1 PUSH20 0xFFFFFFFFFFFFFFFFFFFFFFFFFFFFFFFFFFFFFFFF MUL NOT AND SWAP1 SSTORE PUSH1 0x6 PUSH0 DUP3 DUP2 MSTORE PUSH1 0x20 ADD SWAP1 DUP2 MSTORE PUSH1 0x20 ADD PUSH0 KECCAK256 PUSH0 PUSH2 0x100 EXP DUP2 SLOAD SWAP1 PUSH20 0xFFFFFFFFFFFFFFFFFFFFFFFFFFFFFFFFFFFFFFFF MUL NOT AND SWAP1 SSTORE DUP1 PUSH0 PUSH20 0xFFFFFFFFFFFFFFFFFFFFFFFFFFFFFFFFFFFFFFFF AND DUP4 PUSH20 0xFFFFFFFFFFFFFFFFFFFFFFFFFFFFFFFFFFFFFFFF AND PUSH32 0xDDF252AD1BE2C89B69C2B068FC378DAA952BA7F163C4A11628F55A4DF523B3EF PUSH1 0x40 MLOAD PUSH1 0x40 MLOAD DUP1 SWAP2 SUB SWAP1 LOG4 POP POP JUMP JUMPDEST PUSH0 PUSH20 0xFFFFFFFFFFFFFFFFFFFFFFFFFFFFFFFFFFFFFFFF AND DUP2 PUSH20 0xFFFFFFFFFFFFFFFFFFFFFFFFFFFFFFFFFFFFFFFF AND SUB PUSH2 0x2AA3 JUMPI PUSH1 0x40 MLOAD PUSH32 0x9C8D2CD200000000000000000000000000000000000000000000000000000000 DUP2 MSTORE PUSH1 0x4 ADD PUSH1 0x40 MLOAD DUP1 SWAP2 SUB SWAP1 REVERT JUMPDEST PUSH1 0x3 PUSH0 DUP2 SLOAD DUP1 SWAP3 SWAP2 SWAP1 PUSH1 0x1 ADD SWAP2 SWAP1 POP SSTORE POP PUSH0 PUSH1 0x3 SLOAD SWAP1 POP PUSH0 PUSH20 0xFFFFFFFFFFFFFFFFFFFFFFFFFFFFFFFFFFFFFFFF AND PUSH1 0x8 PUSH0 DUP4 DUP2 MSTORE PUSH1 0x20 ADD SWAP1 DUP2 MSTORE PUSH1 0x20 ADD PUSH0 KECCAK256 PUSH0 SWAP1 SLOAD SWAP1 PUSH2 0x100 EXP SWAP1 DIV PUSH20 0xFFFFFFFFFFFFFFFFFFFFFFFFFFFFFFFFFFFFFFFF AND PUSH20 0xFFFFFFFFFFFFFFFFFFFFFFFFFFFFFFFFFFFFFFFF AND EQ PUSH2 0x2B4F JUMPI PUSH1 0x40 MLOAD PUSH32 0x23369FA600000000000000000000000000000000000000000000000000000000 DUP2 MSTORE PUSH1 0x4 ADD PUSH1 0x40 MLOAD DUP1 SWAP2 SUB SWAP1 REVERT JUMPDEST DUP2 PUSH1 0x8 PUSH0 DUP4 DUP2 MSTORE PUSH1 0x20 ADD SWAP1 DUP2 MSTORE PUSH1 0x20 ADD PUSH0 KECCAK256 PUSH0 PUSH2 0x100 EXP DUP2 SLOAD DUP2 PUSH20 0xFFFFFFFFFFFFFFFFFFFFFFFFFFFFFFFFFFFFFFFF MUL NOT AND SWAP1 DUP4 PUSH20 0xFFFFFFFFFFFFFFFFFFFFFFFFFFFFFFFFFFFFFFFF AND MUL OR SWAP1 SSTORE POP PUSH1 0x9 PUSH0 DUP4 PUSH20 0xFFFFFFFFFFFFFFFFFFFFFFFFFFFFFFFFFFFFFFFF AND PUSH20 0xFFFFFFFFFFFFFFFFFFFFFFFFFFFFFFFFFFFFFFFF AND DUP2 MSTORE PUSH1 0x20 ADD SWAP1 DUP2 MSTORE PUSH1 0x20 ADD PUSH0 KECCAK256 DUP2 SWAP1 DUP1 PUSH1 0x1 DUP2 SLOAD ADD DUP1 DUP3 SSTORE DUP1 SWAP2 POP POP PUSH1 0x1 SWAP1 SUB SWAP1 PUSH0 MSTORE PUSH1 0x20 PUSH0 KECCAK256 ADD PUSH0 SWAP1 SWAP2 SWAP1 SWAP2 SWAP1 SWAP2 POP SSTORE PUSH1 0x1 PUSH1 0x9 PUSH0 DUP5 PUSH20 0xFFFFFFFFFFFFFFFFFFFFFFFFFFFFFFFFFFFFFFFF AND PUSH20 0xFFFFFFFFFFFFFFFFFFFFFFFFFFFFFFFFFFFFFFFF AND DUP2 MSTORE PUSH1 0x20 ADD SWAP1 DUP2 MSTORE PUSH1 0x20 ADD PUSH0 KECCAK256 DUP1 SLOAD SWAP1 POP PUSH2 0x2C4C SWAP2 SWAP1 PUSH2 0x3781 JUMP JUMPDEST PUSH1 0xA PUSH0 DUP4 DUP2 MSTORE PUSH1 0x20 ADD SWAP1 DUP2 MSTORE PUSH1 0x20 ADD PUSH0 KECCAK256 DUP2 SWAP1 SSTORE POP DUP1 DUP3 PUSH20 0xFFFFFFFFFFFFFFFFFFFFFFFFFFFFFFFFFFFFFFFF AND PUSH0 PUSH20 0xFFFFFFFFFFFFFFFFFFFFFFFFFFFFFFFFFFFFFFFF AND PUSH32 0xDDF252AD1BE2C89B69C2B068FC378DAA952BA7F163C4A11628F55A4DF523B3EF PUSH1 0x40 MLOAD PUSH1 0x40 MLOAD DUP1 SWAP2 SUB SWAP1 LOG4 POP POP JUMP JUMPDEST PUSH0 DUP1 PUSH0 SWAP1 POP PUSH27 0x184F03E93FF9F4DAA797ED6E38ED64BF6A1F010000000000000000 DUP4 LT PUSH2 0x2D1C JUMPI PUSH27 0x184F03E93FF9F4DAA797ED6E38ED64BF6A1F010000000000000000 DUP4 DUP2 PUSH2 0x2D12 JUMPI PUSH2 0x2D11 PUSH2 0x3E36 JUMP JUMPDEST JUMPDEST DIV SWAP3 POP PUSH1 0x40 DUP2 ADD SWAP1 POP JUMPDEST PUSH14 0x4EE2D6D415B85ACEF8100000000 DUP4 LT PUSH2 0x2D59 JUMPI PUSH14 0x4EE2D6D415B85ACEF8100000000 DUP4 DUP2 PUSH2 0x2D4F JUMPI PUSH2 0x2D4E PUSH2 0x3E36 JUMP JUMPDEST JUMPDEST DIV SWAP3 POP PUSH1 0x20 DUP2 ADD SWAP1 POP JUMPDEST PUSH7 0x2386F26FC10000 DUP4 LT PUSH2 0x2D88 JUMPI PUSH7 0x2386F26FC10000 DUP4 DUP2 PUSH2 0x2D7E JUMPI PUSH2 0x2D7D PUSH2 0x3E36 JUMP JUMPDEST JUMPDEST DIV SWAP3 POP PUSH1 0x10 DUP2 ADD SWAP1 POP JUMPDEST PUSH4 0x5F5E100 DUP4 LT PUSH2 0x2DB1 JUMPI PUSH4 0x5F5E100 DUP4 DUP2 PUSH2 0x2DA7 JUMPI PUSH2 0x2DA6 PUSH2 0x3E36 JUMP JUMPDEST JUMPDEST DIV SWAP3 POP PUSH1 0x8 DUP2 ADD SWAP1 POP JUMPDEST PUSH2 0x2710 DUP4 LT PUSH2 0x2DD6 JUMPI PUSH2 0x2710 DUP4 DUP2 PUSH2 0x2DCC JUMPI PUSH2 0x2DCB PUSH2 0x3E36 JUMP JUMPDEST JUMPDEST DIV SWAP3 POP PUSH1 0x4 DUP2 ADD SWAP1 POP JUMPDEST PUSH1 0x64 DUP4 LT PUSH2 0x2DF9 JUMPI PUSH1 0x64 DUP4 DUP2 PUSH2 0x2DEF JUMPI PUSH2 0x2DEE PUSH2 0x3E36 JUMP JUMPDEST JUMPDEST DIV SWAP3 POP PUSH1 0x2 DUP2 ADD SWAP1 POP JUMPDEST PUSH1 0xA DUP4 LT PUSH2 0x2E08 JUMPI PUSH1 0x1 DUP2 ADD SWAP1 POP JUMPDEST DUP1 SWAP2 POP POP SWAP2 SWAP1 POP JUMP JUMPDEST PUSH1 0x40 MLOAD DUP1 PUSH1 0x40 ADD PUSH1 0x40 MSTORE DUP1 PUSH1 0x2 SWAP1 JUMPDEST PUSH1 0x60 DUP2 MSTORE PUSH1 0x20 ADD SWAP1 PUSH1 0x1 SWAP1 SUB SWAP1 DUP2 PUSH2 0x2E20 JUMPI SWAP1 POP POP SWAP1 JUMP JUMPDEST PUSH0 DUP2 MLOAD SWAP1 POP SWAP2 SWAP1 POP JUMP JUMPDEST PUSH0 DUP3 DUP3 MSTORE PUSH1 0x20 DUP3 ADD SWAP1 POP SWAP3 SWAP2 POP POP JUMP JUMPDEST PUSH0 JUMPDEST DUP4 DUP2 LT ISZERO PUSH2 0x2E6F JUMPI DUP1 DUP3 ADD MLOAD DUP2 DUP5 ADD MSTORE PUSH1 0x20 DUP2 ADD SWAP1 POP PUSH2 0x2E54 JUMP JUMPDEST PUSH0 DUP5 DUP5 ADD MSTORE POP POP POP POP JUMP JUMPDEST PUSH0 PUSH1 0x1F NOT PUSH1 0x1F DUP4 ADD AND SWAP1 POP SWAP2 SWAP1 POP JUMP JUMPDEST PUSH0 PUSH2 0x2E94 DUP3 PUSH2 0x2E38 JUMP JUMPDEST PUSH2 0x2E9E DUP2 DUP6 PUSH2 0x2E42 JUMP JUMPDEST SWAP4 POP PUSH2 0x2EAE DUP2 DUP6 PUSH1 0x20 DUP7 ADD PUSH2 0x2E52 JUMP JUMPDEST PUSH2 0x2EB7 DUP2 PUSH2 0x2E7A JUMP JUMPDEST DUP5 ADD SWAP2 POP POP SWAP3 SWAP2 POP POP JUMP JUMPDEST PUSH0 PUSH1 0x20 DUP3 ADD SWAP1 POP DUP2 DUP2 SUB PUSH0 DUP4 ADD MSTORE PUSH2 0x2EDA DUP2 DUP5 PUSH2 0x2E8A JUMP JUMPDEST SWAP1 POP SWAP3 SWAP2 POP POP JUMP JUMPDEST PUSH0 PUSH1 0x40 MLOAD SWAP1 POP SWAP1 JUMP JUMPDEST PUSH0 DUP1 REVERT JUMPDEST PUSH0 DUP1 REVERT JUMPDEST PUSH0 DUP2 SWAP1 POP SWAP2 SWAP1 POP JUMP JUMPDEST PUSH2 0x2F05 DUP2 PUSH2 0x2EF3 JUMP JUMPDEST DUP2 EQ PUSH2 0x2F0F JUMPI PUSH0 DUP1 REVERT JUMPDEST POP JUMP JUMPDEST PUSH0 DUP2 CALLDATALOAD SWAP1 POP PUSH2 0x2F20 DUP2 PUSH2 0x2EFC JUMP JUMPDEST SWAP3 SWAP2 POP POP JUMP JUMPDEST PUSH0 PUSH1 0x20 DUP3 DUP5 SUB SLT ISZERO PUSH2 0x2F3B JUMPI PUSH2 0x2F3A PUSH2 0x2EEB JUMP JUMPDEST JUMPDEST PUSH0 PUSH2 0x2F48 DUP5 DUP3 DUP6 ADD PUSH2 0x2F12 JUMP JUMPDEST SWAP2 POP POP SWAP3 SWAP2 POP POP JUMP JUMPDEST PUSH0 PUSH20 0xFFFFFFFFFFFFFFFFFFFFFFFFFFFFFFFFFFFFFFFF DUP3 AND SWAP1 POP SWAP2 SWAP1 POP JUMP JUMPDEST PUSH0 PUSH2 0x2F7A DUP3 PUSH2 0x2F51 JUMP JUMPDEST SWAP1 POP SWAP2 SWAP1 POP JUMP JUMPDEST PUSH2 0x2F8A DUP2 PUSH2 0x2F70 JUMP JUMPDEST DUP3 MSTORE POP POP JUMP JUMPDEST PUSH0 PUSH1 0x20 DUP3 ADD SWAP1 POP PUSH2 0x2FA3 PUSH0 DUP4 ADD DUP5 PUSH2 0x2F81 JUMP JUMPDEST SWAP3 SWAP2 POP POP JUMP JUMPDEST PUSH2 0x2FB2 DUP2 PUSH2 0x2F70 JUMP JUMPDEST DUP2 EQ PUSH2 0x2FBC JUMPI PUSH0 DUP1 REVERT JUMPDEST POP JUMP JUMPDEST PUSH0 DUP2 CALLDATALOAD SWAP1 POP PUSH2 0x2FCD DUP2 PUSH2 0x2FA9 JUMP JUMPDEST SWAP3 SWAP2 POP POP JUMP JUMPDEST PUSH0 DUP1 PUSH1 0x40 DUP4 DUP6 SUB SLT ISZERO PUSH2 0x2FE9 JUMPI PUSH2 0x2FE8 PUSH2 0x2EEB JUMP JUMPDEST JUMPDEST PUSH0 PUSH2 0x2FF6 DUP6 DUP3 DUP7 ADD PUSH2 0x2FBF JUMP JUMPDEST SWAP3 POP POP PUSH1 0x20 PUSH2 0x3007 DUP6 DUP3 DUP7 ADD PUSH2 0x2F12 JUMP JUMPDEST SWAP2 POP POP SWAP3 POP SWAP3 SWAP1 POP JUMP JUMPDEST PUSH0 DUP2 ISZERO ISZERO SWAP1 POP SWAP2 SWAP1 POP JUMP JUMPDEST PUSH2 0x3025 DUP2 PUSH2 0x3011 JUMP JUMPDEST DUP3 MSTORE POP POP JUMP JUMPDEST PUSH0 PUSH1 0x20 DUP3 ADD SWAP1 POP PUSH2 0x303E PUSH0 DUP4 ADD DUP5 PUSH2 0x301C JUMP JUMPDEST SWAP3 SWAP2 POP POP JUMP JUMPDEST PUSH2 0x304D DUP2 PUSH2 0x2EF3 JUMP JUMPDEST DUP3 MSTORE POP POP JUMP JUMPDEST PUSH0 PUSH1 0x20 DUP3 ADD SWAP1 POP PUSH2 0x3066 PUSH0 DUP4 ADD DUP5 PUSH2 0x3044 JUMP JUMPDEST SWAP3 SWAP2 POP POP JUMP JUMPDEST PUSH0 DUP1 REVERT JUMPDEST PUSH0 DUP1 REVERT JUMPDEST PUSH32 0x4E487B7100000000000000000000000000000000000000000000000000000000 PUSH0 MSTORE PUSH1 0x41 PUSH1 0x4 MSTORE PUSH1 0x24 PUSH0 REVERT JUMPDEST PUSH2 0x30AA DUP3 PUSH2 0x2E7A JUMP JUMPDEST DUP2 ADD DUP2 DUP2 LT PUSH8 0xFFFFFFFFFFFFFFFF DUP3 GT OR ISZERO PUSH2 0x30C9 JUMPI PUSH2 0x30C8 PUSH2 0x3074 JUMP JUMPDEST JUMPDEST DUP1 PUSH1 0x40 MSTORE POP POP POP JUMP JUMPDEST PUSH0 PUSH2 0x30DB PUSH2 0x2EE2 JUMP JUMPDEST SWAP1 POP PUSH2 0x30E7 DUP3 DUP3 PUSH2 0x30A1 JUMP JUMPDEST SWAP2 SWAP1 POP JUMP JUMPDEST PUSH0 PUSH8 0xFFFFFFFFFFFFFFFF DUP3 GT ISZERO PUSH2 0x3106 JUMPI PUSH2 0x3105 PUSH2 0x3074 JUMP JUMPDEST JUMPDEST PUSH2 0x310F DUP3 PUSH2 0x2E7A JUMP JUMPDEST SWAP1 POP PUSH1 0x20 DUP2 ADD SWAP1 POP SWAP2 SWAP1 POP JUMP JUMPDEST DUP3 DUP2 DUP4 CALLDATACOPY PUSH0 DUP4 DUP4 ADD MSTORE POP POP POP JUMP JUMPDEST PUSH0 PUSH2 0x313C PUSH2 0x3137 DUP5 PUSH2 0x30EC JUMP JUMPDEST PUSH2 0x30D2 JUMP JUMPDEST SWAP1 POP DUP3 DUP2 MSTORE PUSH1 0x20 DUP2 ADD DUP5 DUP5 DUP5 ADD GT ISZERO PUSH2 0x3158 JUMPI PUSH2 0x3157 PUSH2 0x3070 JUMP JUMPDEST JUMPDEST PUSH2 0x3163 DUP5 DUP3 DUP6 PUSH2 0x311C JUMP JUMPDEST POP SWAP4 SWAP3 POP POP POP JUMP JUMPDEST PUSH0 DUP3 PUSH1 0x1F DUP4 ADD SLT PUSH2 0x317F JUMPI PUSH2 0x317E PUSH2 0x306C JUMP JUMPDEST JUMPDEST DUP2 CALLDATALOAD PUSH2 0x318F DUP5 DUP3 PUSH1 0x20 DUP7 ADD PUSH2 0x312A JUMP JUMPDEST SWAP2 POP POP SWAP3 SWAP2 POP POP JUMP JUMPDEST PUSH0 PUSH1 0x20 DUP3 DUP5 SUB SLT ISZERO PUSH2 0x31AD JUMPI PUSH2 0x31AC PUSH2 0x2EEB JUMP JUMPDEST JUMPDEST PUSH0 DUP3 ADD CALLDATALOAD PUSH8 0xFFFFFFFFFFFFFFFF DUP2 GT ISZERO PUSH2 0x31CA JUMPI PUSH2 0x31C9 PUSH2 0x2EEF JUMP JUMPDEST JUMPDEST PUSH2 0x31D6 DUP5 DUP3 DUP6 ADD PUSH2 0x316B JUMP JUMPDEST SWAP2 POP POP SWAP3 SWAP2 POP POP JUMP JUMPDEST PUSH0 DUP1 PUSH0 PUSH1 0x60 DUP5 DUP7 SUB SLT ISZERO PUSH2 0x31F6 JUMPI PUSH2 0x31F5 PUSH2 0x2EEB JUMP JUMPDEST JUMPDEST PUSH0 PUSH2 0x3203 DUP7 DUP3 DUP8 ADD PUSH2 0x2FBF JUMP JUMPDEST SWAP4 POP POP PUSH1 0x20 PUSH2 0x3214 DUP7 DUP3 DUP8 ADD PUSH2 0x2FBF JUMP JUMPDEST SWAP3 POP POP PUSH1 0x40 PUSH2 0x3225 DUP7 DUP3 DUP8 ADD PUSH2 0x2F12 JUMP JUMPDEST SWAP2 POP POP SWAP3 POP SWAP3 POP SWAP3 JUMP JUMPDEST PUSH0 PUSH1 0xFF DUP3 AND SWAP1 POP SWAP2 SWAP1 POP JUMP JUMPDEST PUSH2 0x3244 DUP2 PUSH2 0x322F JUMP JUMPDEST DUP3 MSTORE POP POP JUMP JUMPDEST PUSH0 PUSH1 0x20 DUP3 ADD SWAP1 POP PUSH2 0x325D PUSH0 DUP4 ADD DUP5 PUSH2 0x323B JUMP JUMPDEST SWAP3 SWAP2 POP POP JUMP JUMPDEST PUSH0 DUP1 PUSH1 0x40 DUP4 DUP6 SUB SLT ISZERO PUSH2 0x3279 JUMPI PUSH2 0x3278 PUSH2 0x2EEB JUMP JUMPDEST JUMPDEST PUSH0 DUP4 ADD CALLDATALOAD PUSH8 0xFFFFFFFFFFFFFFFF DUP2 GT ISZERO PUSH2 0x3296 JUMPI PUSH2 0x3295 PUSH2 0x2EEF JUMP JUMPDEST JUMPDEST PUSH2 0x32A2 DUP6 DUP3 DUP7 ADD PUSH2 0x316B JUMP JUMPDEST SWAP3 POP POP PUSH1 0x20 DUP4 ADD CALLDATALOAD PUSH8 0xFFFFFFFFFFFFFFFF DUP2 GT ISZERO PUSH2 0x32C3 JUMPI PUSH2 0x32C2 PUSH2 0x2EEF JUMP JUMPDEST JUMPDEST PUSH2 0x32CF DUP6 DUP3 DUP7 ADD PUSH2 0x316B JUMP JUMPDEST SWAP2 POP POP SWAP3 POP SWAP3 SWAP1 POP JUMP JUMPDEST PUSH2 0x32E2 DUP2 PUSH2 0x3011 JUMP JUMPDEST DUP2 EQ PUSH2 0x32EC JUMPI PUSH0 DUP1 REVERT JUMPDEST POP JUMP JUMPDEST PUSH0 DUP2 CALLDATALOAD SWAP1 POP PUSH2 0x32FD DUP2 PUSH2 0x32D9 JUMP JUMPDEST SWAP3 SWAP2 POP POP JUMP JUMPDEST PUSH0 DUP1 PUSH1 0x40 DUP4 DUP6 SUB SLT ISZERO PUSH2 0x3319 JUMPI PUSH2 0x3318 PUSH2 0x2EEB JUMP JUMPDEST JUMPDEST PUSH0 PUSH2 0x3326 DUP6 DUP3 DUP7 ADD PUSH2 0x2FBF JUMP JUMPDEST SWAP3 POP POP PUSH1 0x20 PUSH2 0x3337 DUP6 DUP3 DUP7 ADD PUSH2 0x32EF JUMP JUMPDEST SWAP2 POP POP SWAP3 POP SWAP3 SWAP1 POP JUMP JUMPDEST PUSH0 PUSH1 0x20 DUP3 DUP5 SUB SLT ISZERO PUSH2 0x3356 JUMPI PUSH2 0x3355 PUSH2 0x2EEB JUMP JUMPDEST JUMPDEST PUSH0 PUSH2 0x3363 DUP5 DUP3 DUP6 ADD PUSH2 0x2FBF JUMP JUMPDEST SWAP2 POP POP SWAP3 SWAP2 POP POP JUMP JUMPDEST PUSH0 DUP1 REVERT JUMPDEST PUSH0 DUP1 REVERT JUMPDEST PUSH0 DUP1 DUP4 PUSH1 0x1F DUP5 ADD SLT PUSH2 0x3389 JUMPI PUSH2 0x3388 PUSH2 0x306C JUMP JUMPDEST JUMPDEST DUP3 CALLDATALOAD SWAP1 POP PUSH8 0xFFFFFFFFFFFFFFFF DUP2 GT ISZERO PUSH2 0x33A6 JUMPI PUSH2 0x33A5 PUSH2 0x336C JUMP JUMPDEST JUMPDEST PUSH1 0x20 DUP4 ADD SWAP2 POP DUP4 PUSH1 0x1 DUP3 MUL DUP4 ADD GT ISZERO PUSH2 0x33C2 JUMPI PUSH2 0x33C1 PUSH2 0x3370 JUMP JUMPDEST JUMPDEST SWAP3 POP SWAP3 SWAP1 POP JUMP JUMPDEST PUSH0 DUP1 PUSH0 DUP1 PUSH0 PUSH1 0x80 DUP7 DUP9 SUB SLT ISZERO PUSH2 0x33E2 JUMPI PUSH2 0x33E1 PUSH2 0x2EEB JUMP JUMPDEST JUMPDEST PUSH0 PUSH2 0x33EF DUP9 DUP3 DUP10 ADD PUSH2 0x2FBF JUMP JUMPDEST SWAP6 POP POP PUSH1 0x20 PUSH2 0x3400 DUP9 DUP3 DUP10 ADD PUSH2 0x2FBF JUMP JUMPDEST SWAP5 POP POP PUSH1 0x40 PUSH2 0x3411 DUP9 DUP3 DUP10 ADD PUSH2 0x2F12 JUMP JUMPDEST SWAP4 POP POP PUSH1 0x60 DUP7 ADD CALLDATALOAD PUSH8 0xFFFFFFFFFFFFFFFF DUP2 GT ISZERO PUSH2 0x3432 JUMPI PUSH2 0x3431 PUSH2 0x2EEF JUMP JUMPDEST JUMPDEST PUSH2 0x343E DUP9 DUP3 DUP10 ADD PUSH2 0x3374 JUMP JUMPDEST SWAP3 POP SWAP3 POP POP SWAP3 SWAP6 POP SWAP3 SWAP6 SWAP1 SWAP4 POP JUMP JUMPDEST PUSH0 DUP1 PUSH1 0x40 DUP4 DUP6 SUB SLT ISZERO PUSH2 0x3463 JUMPI PUSH2 0x3462 PUSH2 0x2EEB JUMP JUMPDEST JUMPDEST PUSH0 PUSH2 0x3470 DUP6 DUP3 DUP7 ADD PUSH2 0x2FBF JUMP JUMPDEST SWAP3 POP POP PUSH1 0x20 PUSH2 0x3481 DUP6 DUP3 DUP7 ADD PUSH2 0x2FBF JUMP JUMPDEST SWAP2 POP POP SWAP3 POP SWAP3 SWAP1 POP JUMP JUMPDEST PUSH32 0x4E487B7100000000000000000000000000000000000000000000000000000000 PUSH0 MSTORE PUSH1 0x22 PUSH1 0x4 MSTORE PUSH1 0x24 PUSH0 REVERT JUMPDEST PUSH0 PUSH1 0x2 DUP3 DIV SWAP1 POP PUSH1 0x1 DUP3 AND DUP1 PUSH2 0x34CF JUMPI PUSH1 0x7F DUP3 AND SWAP2 POP JUMPDEST PUSH1 0x20 DUP3 LT DUP2 SUB PUSH2 0x34E2 JUMPI PUSH2 0x34E1 PUSH2 0x348B JUMP JUMPDEST JUMPDEST POP SWAP2 SWAP1 POP JUMP JUMPDEST PUSH0 DUP2 SWAP1 POP DUP2 PUSH0 MSTORE PUSH1 0x20 PUSH0 KECCAK256 SWAP1 POP SWAP2 SWAP1 POP JUMP JUMPDEST PUSH0 PUSH1 0x20 PUSH1 0x1F DUP4 ADD DIV SWAP1 POP SWAP2 SWAP1 POP JUMP JUMPDEST PUSH0 DUP3 DUP3 SHL SWAP1 POP SWAP3 SWAP2 POP POP JUMP JUMPDEST PUSH0 PUSH1 0x8 DUP4 MUL PUSH2 0x3544 PUSH32 0xFFFFFFFFFFFFFFFFFFFFFFFFFFFFFFFFFFFFFFFFFFFFFFFFFFFFFFFFFFFFFFFF DUP3 PUSH2 0x3509 JUMP JUMPDEST PUSH2 0x354E DUP7 DUP4 PUSH2 0x3509 JUMP JUMPDEST SWAP6 POP DUP1 NOT DUP5 AND SWAP4 POP DUP1 DUP7 AND DUP5 OR SWAP3 POP POP POP SWAP4 SWAP3 POP POP POP JUMP JUMPDEST PUSH0 DUP2 SWAP1 POP SWAP2 SWAP1 POP JUMP JUMPDEST PUSH0 PUSH2 0x3589 PUSH2 0x3584 PUSH2 0x357F DUP5 PUSH2 0x2EF3 JUMP JUMPDEST PUSH2 0x3566 JUMP JUMPDEST PUSH2 0x2EF3 JUMP JUMPDEST SWAP1 POP SWAP2 SWAP1 POP JUMP JUMPDEST PUSH0 DUP2 SWAP1 POP SWAP2 SWAP1 POP JUMP JUMPDEST PUSH2 0x35A2 DUP4 PUSH2 0x356F JUMP JUMPDEST PUSH2 0x35B6 PUSH2 0x35AE DUP3 PUSH2 0x3590 JUMP JUMPDEST DUP5 DUP5 SLOAD PUSH2 0x3515 JUMP JUMPDEST DUP3 SSTORE POP POP POP POP JUMP JUMPDEST PUSH0 SWAP1 JUMP JUMPDEST PUSH2 0x35CA PUSH2 0x35BE JUMP JUMPDEST PUSH2 0x35D5 DUP2 DUP5 DUP5 PUSH2 0x3599 JUMP JUMPDEST POP POP POP JUMP JUMPDEST JUMPDEST DUP2 DUP2 LT ISZERO PUSH2 0x35F8 JUMPI PUSH2 0x35ED PUSH0 DUP3 PUSH2 0x35C2 JUMP JUMPDEST PUSH1 0x1 DUP2 ADD SWAP1 POP PUSH2 0x35DB JUMP JUMPDEST POP POP JUMP JUMPDEST PUSH1 0x1F DUP3 GT ISZERO PUSH2 0x363D JUMPI PUSH2 0x360E DUP2 PUSH2 0x34E8 JUMP JUMPDEST PUSH2 0x3617 DUP5 PUSH2 0x34FA JUMP JUMPDEST DUP2 ADD PUSH1 0x20 DUP6 LT ISZERO PUSH2 0x3626 JUMPI DUP2 SWAP1 POP JUMPDEST PUSH2 0x363A PUSH2 0x3632 DUP6 PUSH2 0x34FA JUMP JUMPDEST DUP4 ADD DUP3 PUSH2 0x35DA JUMP JUMPDEST POP POP JUMPDEST POP POP POP JUMP JUMPDEST PUSH0 DUP3 DUP3 SHR SWAP1 POP SWAP3 SWAP2 POP POP JUMP JUMPDEST PUSH0 PUSH2 0x365D PUSH0 NOT DUP5 PUSH1 0x8 MUL PUSH2 0x3642 JUMP JUMPDEST NOT DUP1 DUP4 AND SWAP2 POP POP SWAP3 SWAP2 POP POP JUMP JUMPDEST PUSH0 PUSH2 0x3675 DUP4 DUP4 PUSH2 0x364E JUMP JUMPDEST SWAP2 POP DUP3 PUSH1 0x2 MUL DUP3 OR SWAP1 POP SWAP3 SWAP2 POP POP JUMP JUMPDEST PUSH2 0x368E DUP3 PUSH2 0x2E38 JUMP JUMPDEST PUSH8 0xFFFFFFFFFFFFFFFF DUP2 GT ISZERO PUSH2 0x36A7 JUMPI PUSH2 0x36A6 PUSH2 0x3074 JUMP JUMPDEST JUMPDEST PUSH2 0x36B1 DUP3 SLOAD PUSH2 0x34B8 JUMP JUMPDEST PUSH2 0x36BC DUP3 DUP3 DUP6 PUSH2 0x35FC JUMP JUMPDEST PUSH0 PUSH1 0x20 SWAP1 POP PUSH1 0x1F DUP4 GT PUSH1 0x1 DUP2 EQ PUSH2 0x36ED JUMPI PUSH0 DUP5 ISZERO PUSH2 0x36DB JUMPI DUP3 DUP8 ADD MLOAD SWAP1 POP JUMPDEST PUSH2 0x36E5 DUP6 DUP3 PUSH2 0x366A JUMP JUMPDEST DUP7 SSTORE POP PUSH2 0x374C JUMP JUMPDEST PUSH1 0x1F NOT DUP5 AND PUSH2 0x36FB DUP7 PUSH2 0x34E8 JUMP JUMPDEST PUSH0 JUMPDEST DUP3 DUP2 LT ISZERO PUSH2 0x3722 JUMPI DUP5 DUP10 ADD MLOAD DUP3 SSTORE PUSH1 0x1 DUP3 ADD SWAP2 POP PUSH1 0x20 DUP6 ADD SWAP5 POP PUSH1 0x20 DUP2 ADD SWAP1 POP PUSH2 0x36FD JUMP JUMPDEST DUP7 DUP4 LT ISZERO PUSH2 0x373F JUMPI DUP5 DUP10 ADD MLOAD PUSH2 0x373B PUSH1 0x1F DUP10 AND DUP3 PUSH2 0x364E JUMP JUMPDEST DUP4 SSTORE POP JUMPDEST PUSH1 0x1 PUSH1 0x2 DUP9 MUL ADD DUP9 SSTORE POP POP POP JUMPDEST POP POP POP POP POP POP JUMP JUMPDEST PUSH32 0x4E487B7100000000000000000000000000000000000000000000000000000000 PUSH0 MSTORE PUSH1 0x11 PUSH1 0x4 MSTORE PUSH1 0x24 PUSH0 REVERT JUMPDEST PUSH0 PUSH2 0x378B DUP3 PUSH2 0x2EF3 JUMP JUMPDEST SWAP2 POP PUSH2 0x3796 DUP4 PUSH2 0x2EF3 JUMP JUMPDEST SWAP3 POP DUP3 DUP3 SUB SWAP1 POP DUP2 DUP2 GT ISZERO PUSH2 0x37AE JUMPI PUSH2 0x37AD PUSH2 0x3754 JUMP JUMPDEST JUMPDEST SWAP3 SWAP2 POP POP JUMP JUMPDEST PUSH32 0x4E487B7100000000000000000000000000000000000000000000000000000000 PUSH0 MSTORE PUSH1 0x32 PUSH1 0x4 MSTORE PUSH1 0x24 PUSH0 REVERT JUMPDEST PUSH32 0x4E487B7100000000000000000000000000000000000000000000000000000000 PUSH0 MSTORE PUSH1 0x31 PUSH1 0x4 MSTORE PUSH1 0x24 PUSH0 REVERT JUMPDEST PUSH0 DUP3 DUP3 MSTORE PUSH1 0x20 DUP3 ADD SWAP1 POP SWAP3 SWAP2 POP POP JUMP JUMPDEST POP JUMP JUMPDEST PUSH0 PUSH2 0x382C PUSH0 DUP4 PUSH2 0x380E JUMP JUMPDEST SWAP2 POP PUSH2 0x3837 DUP3 PUSH2 0x381E JUMP JUMPDEST PUSH0 DUP3 ADD SWAP1 POP SWAP2 SWAP1 POP JUMP JUMPDEST PUSH0 PUSH1 0x80 DUP3 ADD SWAP1 POP PUSH2 0x3854 PUSH0 DUP4 ADD DUP7 PUSH2 0x2F81 JUMP JUMPDEST PUSH2 0x3861 PUSH1 0x20 DUP4 ADD DUP6 PUSH2 0x2F81 JUMP JUMPDEST PUSH2 0x386E PUSH1 0x40 DUP4 ADD DUP5 PUSH2 0x3044 JUMP JUMPDEST DUP2 DUP2 SUB PUSH1 0x60 DUP4 ADD MSTORE PUSH2 0x387F DUP2 PUSH2 0x3821 JUMP JUMPDEST SWAP1 POP SWAP5 SWAP4 POP POP POP POP JUMP JUMPDEST PUSH0 PUSH32 0xFFFFFFFF00000000000000000000000000000000000000000000000000000000 DUP3 AND SWAP1 POP SWAP2 SWAP1 POP JUMP JUMPDEST PUSH2 0x38BD DUP2 PUSH2 0x3889 JUMP JUMPDEST DUP2 EQ PUSH2 0x38C7 JUMPI PUSH0 DUP1 REVERT JUMPDEST POP JUMP JUMPDEST PUSH0 DUP2 MLOAD SWAP1 POP PUSH2 0x38D8 DUP2 PUSH2 0x38B4 JUMP JUMPDEST SWAP3 SWAP2 POP POP JUMP JUMPDEST PUSH0 PUSH1 0x20 DUP3 DUP5 SUB SLT ISZERO PUSH2 0x38F3 JUMPI PUSH2 0x38F2 PUSH2 0x2EEB JUMP JUMPDEST JUMPDEST PUSH0 PUSH2 0x3900 DUP5 DUP3 DUP6 ADD PUSH2 0x38CA JUMP JUMPDEST SWAP2 POP POP SWAP3 SWAP2 POP POP JUMP JUMPDEST PUSH0 PUSH2 0x3914 DUP4 DUP6 PUSH2 0x380E JUMP JUMPDEST SWAP4 POP PUSH2 0x3921 DUP4 DUP6 DUP5 PUSH2 0x311C JUMP JUMPDEST PUSH2 0x392A DUP4 PUSH2 0x2E7A JUMP JUMPDEST DUP5 ADD SWAP1 POP SWAP4 SWAP3 POP POP POP JUMP JUMPDEST PUSH0 PUSH1 0x80 DUP3 ADD SWAP1 POP PUSH2 0x3948 PUSH0 DUP4 ADD DUP9 PUSH2 0x2F81 JUMP JUMPDEST PUSH2 0x3955 PUSH1 0x20 DUP4 ADD DUP8 PUSH2 0x2F81 JUMP JUMPDEST PUSH2 0x3962 PUSH1 0x40 DUP4 ADD DUP7 PUSH2 0x3044 JUMP JUMPDEST DUP2 DUP2 SUB PUSH1 0x60 DUP4 ADD MSTORE PUSH2 0x3975 DUP2 DUP5 DUP7 PUSH2 0x3909 JUMP JUMPDEST SWAP1 POP SWAP7 SWAP6 POP POP POP POP POP POP JUMP JUMPDEST PUSH0 DUP2 SWAP1 POP SWAP3 SWAP2 POP POP JUMP JUMPDEST PUSH0 DUP2 SLOAD PUSH2 0x3997 DUP2 PUSH2 0x34B8 JUMP JUMPDEST PUSH2 0x39A1 DUP2 DUP7 PUSH2 0x3981 JUMP JUMPDEST SWAP5 POP PUSH1 0x1 DUP3 AND PUSH0 DUP2 EQ PUSH2 0x39BB JUMPI PUSH1 0x1 DUP2 EQ PUSH2 0x39D0 JUMPI PUSH2 0x3A02 JUMP JUMPDEST PUSH1 0xFF NOT DUP4 AND DUP7 MSTORE DUP2 ISZERO ISZERO DUP3 MUL DUP7 ADD SWAP4 POP PUSH2 0x3A02 JUMP JUMPDEST PUSH2 0x39D9 DUP6 PUSH2 0x34E8 JUMP JUMPDEST PUSH0 JUMPDEST DUP4 DUP2 LT ISZERO PUSH2 0x39FA JUMPI DUP2 SLOAD DUP2 DUP10 ADD MSTORE PUSH1 0x1 DUP3 ADD SWAP2 POP PUSH1 0x20 DUP2 ADD SWAP1 POP PUSH2 0x39DB JUMP JUMPDEST DUP4 DUP9 ADD SWAP6 POP POP POP JUMPDEST POP POP POP SWAP3 SWAP2 POP POP JUMP JUMPDEST PUSH0 PUSH2 0x3A15 DUP3 PUSH2 0x2E38 JUMP JUMPDEST PUSH2 0x3A1F DUP2 DUP6 PUSH2 0x3981 JUMP JUMPDEST SWAP4 POP PUSH2 0x3A2F DUP2 DUP6 PUSH1 0x20 DUP7 ADD PUSH2 0x2E52 JUMP JUMPDEST DUP1 DUP5 ADD SWAP2 POP POP SWAP3 SWAP2 POP POP JUMP JUMPDEST PUSH0 PUSH2 0x3A46 DUP3 DUP6 PUSH2 0x398B JUMP JUMPDEST SWAP2 POP PUSH2 0x3A52 DUP3 DUP5 PUSH2 0x3A0B JUMP JUMPDEST SWAP2 POP DUP2 SWAP1 POP SWAP4 SWAP3 POP POP POP JUMP JUMPDEST PUSH32 0x7B226E616D65223A220000000000000000000000000000000000000000000000 DUP2 MSTORE POP JUMP JUMPDEST PUSH32 0x2023000000000000000000000000000000000000000000000000000000000000 DUP2 MSTORE POP JUMP JUMPDEST PUSH0 PUSH2 0x3AB4 DUP3 PUSH2 0x3A5E JUMP JUMPDEST PUSH1 0x9 DUP3 ADD SWAP2 POP PUSH2 0x3AC4 DUP3 DUP6 PUSH2 0x398B JUMP JUMPDEST SWAP2 POP PUSH2 0x3ACF DUP3 PUSH2 0x3A84 JUMP JUMPDEST PUSH1 0x2 DUP3 ADD SWAP2 POP PUSH2 0x3ADF DUP3 DUP5 PUSH2 0x3A0B JUMP JUMPDEST SWAP2 POP DUP2 SWAP1 POP SWAP4 SWAP3 POP POP POP JUMP JUMPDEST PUSH32 0x222C226465736372697074696F6E223A22000000000000000000000000000000 DUP2 MSTORE POP JUMP JUMPDEST PUSH32 0x222C2265787465726E616C5F75726C223A2268747470733A2F2F222C22696D61 PUSH0 DUP3 ADD MSTORE PUSH32 0x6765223A22000000000000000000000000000000000000000000000000000000 PUSH1 0x20 DUP3 ADD MSTORE POP JUMP JUMPDEST PUSH0 PUSH2 0x3B6B PUSH1 0x25 DUP4 PUSH2 0x3981 JUMP JUMPDEST SWAP2 POP PUSH2 0x3B76 DUP3 PUSH2 0x3B11 JUMP JUMPDEST PUSH1 0x25 DUP3 ADD SWAP1 POP SWAP2 SWAP1 POP JUMP JUMPDEST PUSH0 PUSH2 0x3B8C DUP3 DUP6 PUSH2 0x3A0B JUMP JUMPDEST SWAP2 POP PUSH2 0x3B97 DUP3 PUSH2 0x3AEB JUMP JUMPDEST PUSH1 0x11 DUP3 ADD SWAP2 POP PUSH2 0x3BA7 DUP3 DUP5 PUSH2 0x398B JUMP JUMPDEST SWAP2 POP PUSH2 0x3BB2 DUP3 PUSH2 0x3B5F JUMP JUMPDEST SWAP2 POP DUP2 SWAP1 POP SWAP4 SWAP3 POP POP POP JUMP JUMPDEST PUSH0 PUSH2 0x3BC9 DUP3 DUP6 PUSH2 0x3A0B JUMP JUMPDEST SWAP2 POP PUSH2 0x3BD5 DUP3 DUP5 PUSH2 0x3A0B JUMP JUMPDEST SWAP2 POP DUP2 SWAP1 POP SWAP4 SWAP3 POP POP POP JUMP JUMPDEST PUSH32 0x222C2261747472696275746573223A5B7B2274726169745F74797065223A2243 PUSH0 DUP3 ADD MSTORE PUSH32 0x6F6C6F72222C2276616C7565223A220000000000000000000000000000000000 PUSH1 0x20 DUP3 ADD MSTORE POP JUMP JUMPDEST PUSH0 PUSH2 0x3C3B PUSH1 0x2F DUP4 PUSH2 0x3981 JUMP JUMPDEST SWAP2 POP PUSH2 0x3C46 DUP3 PUSH2 0x3BE1 JUMP JUMPDEST PUSH1 0x2F DUP3 ADD SWAP1 POP SWAP2 SWAP1 POP JUMP JUMPDEST PUSH0 PUSH2 0x3C5B DUP3 PUSH2 0x3C2F JUMP JUMPDEST SWAP2 POP PUSH2 0x3C67 DUP3 DUP5 PUSH2 0x3A0B JUMP JUMPDEST SWAP2 POP DUP2 SWAP1 POP SWAP3 SWAP2 POP POP JUMP JUMPDEST PUSH32 0x646174613A6170706C69636174696F6E2F6A736F6E3B757466382C0000000000 DUP2 MSTORE POP JUMP JUMPDEST PUSH0 PUSH2 0x3CA2 DUP3 PUSH2 0x3C72 JUMP JUMPDEST PUSH1 0x1B DUP3 ADD SWAP2 POP PUSH2 0x3CB2 DUP3 DUP5 PUSH2 0x3A0B JUMP JUMPDEST SWAP2 POP DUP2 SWAP1 POP SWAP3 SWAP2 POP POP JUMP JUMPDEST PUSH0 DUP2 PUSH1 0x1 SHR SWAP1 POP SWAP2 SWAP1 POP JUMP JUMPDEST PUSH0 DUP1 DUP3 SWAP2 POP DUP4 SWAP1 POP JUMPDEST PUSH1 0x1 DUP6 GT ISZERO PUSH2 0x3D12 JUMPI DUP1 DUP7 DIV DUP2 GT ISZERO PUSH2 0x3CEE JUMPI PUSH2 0x3CED PUSH2 0x3754 JUMP JUMPDEST JUMPDEST PUSH1 0x1 DUP6 AND ISZERO PUSH2 0x3CFD JUMPI DUP1 DUP3 MUL SWAP2 POP JUMPDEST DUP1 DUP2 MUL SWAP1 POP PUSH2 0x3D0B DUP6 PUSH2 0x3CBD JUMP JUMPDEST SWAP5 POP PUSH2 0x3CD2 JUMP JUMPDEST SWAP5 POP SWAP5 SWAP3 POP POP POP JUMP JUMPDEST PUSH0 DUP3 PUSH2 0x3D2A JUMPI PUSH1 0x1 SWAP1 POP PUSH2 0x3DE5 JUMP JUMPDEST DUP2 PUSH2 0x3D37 JUMPI PUSH0 SWAP1 POP PUSH2 0x3DE5 JUMP JUMPDEST DUP2 PUSH1 0x1 DUP2 EQ PUSH2 0x3D4D JUMPI PUSH1 0x2 DUP2 EQ PUSH2 0x3D57 JUMPI PUSH2 0x3D86 JUMP JUMPDEST PUSH1 0x1 SWAP2 POP POP PUSH2 0x3DE5 JUMP JUMPDEST PUSH1 0xFF DUP5 GT ISZERO PUSH2 0x3D69 JUMPI PUSH2 0x3D68 PUSH2 0x3754 JUMP JUMPDEST JUMPDEST DUP4 PUSH1 0x2 EXP SWAP2 POP DUP5 DUP3 GT ISZERO PUSH2 0x3D80 JUMPI PUSH2 0x3D7F PUSH2 0x3754 JUMP JUMPDEST JUMPDEST POP PUSH2 0x3DE5 JUMP JUMPDEST POP PUSH1 0x20 DUP4 LT PUSH2 0x133 DUP4 LT AND PUSH1 0x4E DUP5 LT PUSH1 0xB DUP5 LT AND OR ISZERO PUSH2 0x3DBB JUMPI DUP3 DUP3 EXP SWAP1 POP DUP4 DUP2 GT ISZERO PUSH2 0x3DB6 JUMPI PUSH2 0x3DB5 PUSH2 0x3754 JUMP JUMPDEST JUMPDEST PUSH2 0x3DE5 JUMP JUMPDEST PUSH2 0x3DC8 DUP5 DUP5 DUP5 PUSH1 0x1 PUSH2 0x3CC9 JUMP JUMPDEST SWAP3 POP SWAP1 POP DUP2 DUP5 DIV DUP2 GT ISZERO PUSH2 0x3DDF JUMPI PUSH2 0x3DDE PUSH2 0x3754 JUMP JUMPDEST JUMPDEST DUP2 DUP2 MUL SWAP1 POP JUMPDEST SWAP4 SWAP3 POP POP POP JUMP JUMPDEST PUSH0 PUSH2 0x3DF6 DUP3 PUSH2 0x2EF3 JUMP JUMPDEST SWAP2 POP PUSH2 0x3E01 DUP4 PUSH2 0x322F JUMP JUMPDEST SWAP3 POP PUSH2 0x3E2E PUSH32 0xFFFFFFFFFFFFFFFFFFFFFFFFFFFFFFFFFFFFFFFFFFFFFFFFFFFFFFFFFFFFFFFF DUP5 DUP5 PUSH2 0x3D1B JUMP JUMPDEST SWAP1 POP SWAP3 SWAP2 POP POP JUMP JUMPDEST PUSH32 0x4E487B7100000000000000000000000000000000000000000000000000000000 PUSH0 MSTORE PUSH1 0x12 PUSH1 0x4 MSTORE PUSH1 0x24 PUSH0 REVERT JUMPDEST PUSH0 PUSH2 0x3E6D DUP3 PUSH2 0x2EF3 JUMP JUMPDEST SWAP2 POP PUSH2 0x3E78 DUP4 PUSH2 0x2EF3 JUMP JUMPDEST SWAP3 POP DUP3 PUSH2 0x3E88 JUMPI PUSH2 0x3E87 PUSH2 0x3E36 JUMP JUMPDEST JUMPDEST DUP3 DUP3 DIV SWAP1 POP SWAP3 SWAP2 POP POP JUMP JUMPDEST PUSH0 DUP2 SWAP1 POP SWAP2 SWAP1 POP JUMP JUMPDEST PUSH2 0x3EAD PUSH2 0x3EA8 DUP3 PUSH2 0x2EF3 JUMP JUMPDEST PUSH2 0x3E93 JUMP JUMPDEST DUP3 MSTORE POP POP JUMP JUMPDEST PUSH0 PUSH2 0x3EBE DUP3 DUP5 PUSH2 0x3E9C JUMP JUMPDEST PUSH1 0x20 DUP3 ADD SWAP2 POP DUP2 SWAP1 POP SWAP3 SWAP2 POP POP JUMP INVALID LOG2 PUSH5 0x6970667358 0x22 SLT KECCAK256 EXTCODEHASH 0xA8 0xBD DUP7 PUSH31 0x283C5A1D7D45DC8FC6AF2EE3039B5B0C1AB3EC612AD430ADA6DAE364736F6C PUSH4 0x43000816 STOP CALLER "
				},
				"gasEstimates": {
					"creation": {
						"codeDepositCost": "3226200",
						"executionCost": "infinite",
						"totalCost": "infinite"
					},
					"external": {
						"allowance(address,address)": "infinite",
						"approve(address,uint256)": "infinite",
						"balanceOf(address)": "2913",
						"baseTokenURI()": "infinite",
						"dataURI()": "infinite",
						"decimals()": "infinite",
						"getApproved(uint256)": "2896",
						"isApprovedForAll(address,address)": "infinite",
						"metaDescription()": "infinite",
						"minted()": "2515",
						"name()": "infinite",
						"owner()": "2551",
						"ownerOf(uint256)": "2975",
						"revokeOwnership()": "28229",
						"safeTransferFrom(address,address,uint256)": "infinite",
						"safeTransferFrom(address,address,uint256,bytes)": "infinite",
						"setApprovalForAll(address,bool)": "infinite",
						"setDataURI(string)": "infinite",
						"setMetaDescription(string)": "infinite",
						"setNameSymbol(string,string)": "infinite",
						"setTokenURI(string)": "infinite",
						"setWhitelist(address,bool)": "27213",
						"symbol()": "infinite",
						"tokenURI(uint256)": "infinite",
						"totalSupply()": "infinite",
						"transfer(address,uint256)": "infinite",
						"transferFrom(address,address,uint256)": "infinite",
						"transferOwnership(address)": "28569",
						"whitelist(address)": "2923"
					},
					"internal": {
						"getNftImg(uint256)": "infinite"
					}
				},
				"methodIdentifiers": {
					"allowance(address,address)": "dd62ed3e",
					"approve(address,uint256)": "095ea7b3",
					"balanceOf(address)": "70a08231",
					"baseTokenURI()": "d547cfb7",
					"dataURI()": "f28ca1dd",
					"decimals()": "313ce567",
					"getApproved(uint256)": "081812fc",
					"isApprovedForAll(address,address)": "e985e9c5",
					"metaDescription()": "edeb4bbe",
					"minted()": "4f02c420",
					"name()": "06fdde03",
					"owner()": "8da5cb5b",
					"ownerOf(uint256)": "6352211e",
					"revokeOwnership()": "2b968958",
					"safeTransferFrom(address,address,uint256)": "42842e0e",
					"safeTransferFrom(address,address,uint256,bytes)": "b88d4fde",
					"setApprovalForAll(address,bool)": "a22cb465",
					"setDataURI(string)": "18d217c3",
					"setMetaDescription(string)": "bd9ba9e8",
					"setNameSymbol(string,string)": "504334c2",
					"setTokenURI(string)": "e0df5b6f",
					"setWhitelist(address,bool)": "53d6fd59",
					"symbol()": "95d89b41",
					"tokenURI(uint256)": "c87b56dd",
					"totalSupply()": "18160ddd",
					"transfer(address,uint256)": "a9059cbb",
					"transferFrom(address,address,uint256)": "23b872dd",
					"transferOwnership(address)": "f2fde38b",
					"whitelist(address)": "9b19251a"
				}
			},
			"storageLayout": {
				"storage": [
					{
						"astId": 1427,
						"contract": "ERC404Test.sol:ERC404Test",
						"label": "owner",
						"offset": 0,
						"slot": "0",
						"type": "t_address"
					},
					{
						"astId": 1593,
						"contract": "ERC404Test.sol:ERC404Test",
						"label": "name",
						"offset": 0,
						"slot": "1",
						"type": "t_string_storage"
					},
					{
						"astId": 1596,
						"contract": "ERC404Test.sol:ERC404Test",
						"label": "symbol",
						"offset": 0,
						"slot": "2",
						"type": "t_string_storage"
					},
					{
						"astId": 1605,
						"contract": "ERC404Test.sol:ERC404Test",
						"label": "minted",
						"offset": 0,
						"slot": "3",
						"type": "t_uint256"
					},
					{
						"astId": 1610,
						"contract": "ERC404Test.sol:ERC404Test",
						"label": "balanceOf",
						"offset": 0,
						"slot": "4",
						"type": "t_mapping(t_address,t_uint256)"
					},
					{
						"astId": 1617,
						"contract": "ERC404Test.sol:ERC404Test",
						"label": "allowance",
						"offset": 0,
						"slot": "5",
						"type": "t_mapping(t_address,t_mapping(t_address,t_uint256))"
					},
					{
						"astId": 1622,
						"contract": "ERC404Test.sol:ERC404Test",
						"label": "getApproved",
						"offset": 0,
						"slot": "6",
						"type": "t_mapping(t_uint256,t_address)"
					},
					{
						"astId": 1629,
						"contract": "ERC404Test.sol:ERC404Test",
						"label": "isApprovedForAll",
						"offset": 0,
						"slot": "7",
						"type": "t_mapping(t_address,t_mapping(t_address,t_bool))"
					},
					{
						"astId": 1634,
						"contract": "ERC404Test.sol:ERC404Test",
						"label": "_ownerOf",
						"offset": 0,
						"slot": "8",
						"type": "t_mapping(t_uint256,t_address)"
					},
					{
						"astId": 1640,
						"contract": "ERC404Test.sol:ERC404Test",
						"label": "_owned",
						"offset": 0,
						"slot": "9",
						"type": "t_mapping(t_address,t_array(t_uint256)dyn_storage)"
					},
					{
						"astId": 1645,
						"contract": "ERC404Test.sol:ERC404Test",
						"label": "_ownedIndex",
						"offset": 0,
						"slot": "10",
						"type": "t_mapping(t_uint256,t_uint256)"
					},
					{
						"astId": 1650,
						"contract": "ERC404Test.sol:ERC404Test",
						"label": "whitelist",
						"offset": 0,
						"slot": "11",
						"type": "t_mapping(t_address,t_bool)"
					},
					{
						"astId": 2421,
						"contract": "ERC404Test.sol:ERC404Test",
						"label": "dataURI",
						"offset": 0,
						"slot": "12",
						"type": "t_string_storage"
					},
					{
						"astId": 2423,
						"contract": "ERC404Test.sol:ERC404Test",
						"label": "baseTokenURI",
						"offset": 0,
						"slot": "13",
						"type": "t_string_storage"
					},
					{
						"astId": 2425,
						"contract": "ERC404Test.sol:ERC404Test",
						"label": "metaDescription",
						"offset": 0,
						"slot": "14",
						"type": "t_string_storage"
					}
				],
				"types": {
					"t_address": {
						"encoding": "inplace",
						"label": "address",
						"numberOfBytes": "20"
					},
					"t_array(t_uint256)dyn_storage": {
						"base": "t_uint256",
						"encoding": "dynamic_array",
						"label": "uint256[]",
						"numberOfBytes": "32"
					},
					"t_bool": {
						"encoding": "inplace",
						"label": "bool",
						"numberOfBytes": "1"
					},
					"t_mapping(t_address,t_array(t_uint256)dyn_storage)": {
						"encoding": "mapping",
						"key": "t_address",
						"label": "mapping(address => uint256[])",
						"numberOfBytes": "32",
						"value": "t_array(t_uint256)dyn_storage"
					},
					"t_mapping(t_address,t_bool)": {
						"encoding": "mapping",
						"key": "t_address",
						"label": "mapping(address => bool)",
						"numberOfBytes": "32",
						"value": "t_bool"
					},
					"t_mapping(t_address,t_mapping(t_address,t_bool))": {
						"encoding": "mapping",
						"key": "t_address",
						"label": "mapping(address => mapping(address => bool))",
						"numberOfBytes": "32",
						"value": "t_mapping(t_address,t_bool)"
					},
					"t_mapping(t_address,t_mapping(t_address,t_uint256))": {
						"encoding": "mapping",
						"key": "t_address",
						"label": "mapping(address => mapping(address => uint256))",
						"numberOfBytes": "32",
						"value": "t_mapping(t_address,t_uint256)"
					},
					"t_mapping(t_address,t_uint256)": {
						"encoding": "mapping",
						"key": "t_address",
						"label": "mapping(address => uint256)",
						"numberOfBytes": "32",
						"value": "t_uint256"
					},
					"t_mapping(t_uint256,t_address)": {
						"encoding": "mapping",
						"key": "t_uint256",
						"label": "mapping(uint256 => address)",
						"numberOfBytes": "32",
						"value": "t_address"
					},
					"t_mapping(t_uint256,t_uint256)": {
						"encoding": "mapping",
						"key": "t_uint256",
						"label": "mapping(uint256 => uint256)",
						"numberOfBytes": "32",
						"value": "t_uint256"
					},
					"t_string_storage": {
						"encoding": "bytes",
						"label": "string",
						"numberOfBytes": "32"
					},
					"t_uint256": {
						"encoding": "inplace",
						"label": "uint256",
						"numberOfBytes": "32"
					}
				}
			},
			"userdoc": {
				"kind": "user",
				"methods": {
					"approve(address,uint256)": {
						"notice": "Function for token approvals"
					},
					"ownerOf(uint256)": {
						"notice": "Function to find owner of a given native token"
					},
					"safeTransferFrom(address,address,uint256)": {
						"notice": "Function for native transfers with contract support"
					},
					"safeTransferFrom(address,address,uint256,bytes)": {
						"notice": "Function for native transfers with contract support and callback data"
					},
					"setApprovalForAll(address,bool)": {
						"notice": "Function native approvals"
					},
					"setWhitelist(address,bool)": {
						"notice": "Initialization function to set pairs / etc         saving gas by avoiding mint / burn on unnecessary targets"
					},
					"tokenURI(uint256)": {
						"notice": "tokenURI must be implemented by child contract"
					},
					"transfer(address,uint256)": {
						"notice": "Function for fractional transfers"
					},
					"transferFrom(address,address,uint256)": {
						"notice": "Function for mixed transfers"
					}
				},
				"version": 1
			}
		}
	}
}